{
	"study/token-airdrop/contracts/Proxy.sol": {
		"Proxy": {
			"abi": [
				{
					"inputs": [],
					"stateMutability": "nonpayable",
					"type": "constructor"
				},
				{
					"anonymous": false,
					"inputs": [
						{
							"indexed": true,
							"internalType": "address",
							"name": "previousOwner",
							"type": "address"
						},
						{
							"indexed": true,
							"internalType": "address",
							"name": "newOwner",
							"type": "address"
						}
					],
					"name": "OwnershipTransferred",
					"type": "event"
				},
				{
					"anonymous": false,
					"inputs": [
						{
							"indexed": true,
							"internalType": "address",
							"name": "previousOwner",
							"type": "address"
						},
						{
							"indexed": true,
							"internalType": "address",
							"name": "newOwner",
							"type": "address"
						}
					],
					"name": "ProxyOwnershipTransferred",
					"type": "event"
				},
				{
					"anonymous": false,
					"inputs": [
						{
							"indexed": true,
							"internalType": "address",
							"name": "implementation",
							"type": "address"
						}
					],
					"name": "Upgraded",
					"type": "event"
				},
				{
					"stateMutability": "payable",
					"type": "fallback"
				},
				{
					"inputs": [],
					"name": "implementation",
					"outputs": [
						{
							"internalType": "address",
							"name": "impl",
							"type": "address"
						}
					],
					"stateMutability": "view",
					"type": "function"
				},
				{
					"inputs": [],
					"name": "owner",
					"outputs": [
						{
							"internalType": "address",
							"name": "",
							"type": "address"
						}
					],
					"stateMutability": "view",
					"type": "function"
				},
				{
					"inputs": [],
					"name": "proxyOwner",
					"outputs": [
						{
							"internalType": "address",
							"name": "owner",
							"type": "address"
						}
					],
					"stateMutability": "view",
					"type": "function"
				},
				{
					"inputs": [],
					"name": "renounceOwnership",
					"outputs": [],
					"stateMutability": "nonpayable",
					"type": "function"
				},
				{
					"inputs": [
						{
							"internalType": "address",
							"name": "newOwner",
							"type": "address"
						}
					],
					"name": "transferOwnership",
					"outputs": [],
					"stateMutability": "nonpayable",
					"type": "function"
				},
				{
					"inputs": [
						{
							"internalType": "address",
							"name": "_newOwner",
							"type": "address"
						}
					],
					"name": "transferProxyOwnership",
					"outputs": [],
					"stateMutability": "nonpayable",
					"type": "function"
				},
				{
					"inputs": [
						{
							"internalType": "address",
							"name": "_newImplementation",
							"type": "address"
						}
					],
					"name": "upgradeTo",
					"outputs": [],
					"stateMutability": "nonpayable",
					"type": "function"
				},
				{
					"stateMutability": "payable",
					"type": "receive"
				}
			],
			"devdoc": {
				"kind": "dev",
				"methods": {
					"implementation()": {
						"details": "To get the address of the proxy contract"
					},
					"owner()": {
						"details": "Returns the address of the current owner."
					},
					"proxyOwner()": {
						"details": "To get the address of the proxy contract's owner"
					},
					"renounceOwnership()": {
						"details": "Leaves the contract without owner. It will not be possible to call `onlyOwner` functions anymore. Can only be called by the current owner. NOTE: Renouncing ownership will leave the contract without an owner, thereby removing any functionality that is only available to the owner."
					},
					"transferOwnership(address)": {
						"details": "Transfers ownership of the contract to a new account (`newOwner`). Can only be called by the current owner."
					},
					"transferProxyOwnership(address)": {
						"details": "To get the address of the proxy contract"
					},
					"upgradeTo(address)": {
						"details": "To upgrade the logic contract to new one"
					}
				},
				"version": 1
			},
			"evm": {
				"assembly": "    /* \"study/token-airdrop/contracts/Proxy.sol\":116:3429  contract Proxy is Ownable{\r... */\n  mstore(0x40, 0x80)\n    /* \"study/token-airdrop/contracts/Proxy.sol\":554:622  constructor() {\r... */\n  callvalue\n  dup1\n  iszero\n  tag_1\n  jumpi\n  0x00\n  dup1\n  revert\ntag_1:\n  pop\n    /* \"@openzeppelin/contracts/access/Ownable.sol\":936:968  _transferOwnership(_msgSender()) */\n  tag_5\n    /* \"@openzeppelin/contracts/access/Ownable.sol\":955:967  _msgSender() */\n  tag_6\n    /* \"@openzeppelin/contracts/access/Ownable.sol\":955:965  _msgSender */\n  shl(0x20, tag_7)\n    /* \"@openzeppelin/contracts/access/Ownable.sol\":955:967  _msgSender() */\n  0x20\n  shr\n  jump\t// in\ntag_6:\n    /* \"@openzeppelin/contracts/access/Ownable.sol\":936:954  _transferOwnership */\n  shl(0x20, tag_8)\n    /* \"@openzeppelin/contracts/access/Ownable.sol\":936:968  _transferOwnership(_msgSender()) */\n  0x20\n  shr\n  jump\t// in\ntag_5:\n    /* \"study/token-airdrop/contracts/Proxy.sol\":579:614  _setUpgradeabilityOwner(msg.sender) */\n  tag_10\n    /* \"study/token-airdrop/contracts/Proxy.sol\":603:613  msg.sender */\n  caller\n    /* \"study/token-airdrop/contracts/Proxy.sol\":579:602  _setUpgradeabilityOwner */\n  shl(0x20, tag_11)\n    /* \"study/token-airdrop/contracts/Proxy.sol\":579:614  _setUpgradeabilityOwner(msg.sender) */\n  0x20\n  shr\n  jump\t// in\ntag_10:\n    /* \"study/token-airdrop/contracts/Proxy.sol\":116:3429  contract Proxy is Ownable{\r... */\n  jump(tag_12)\n    /* \"@openzeppelin/contracts/utils/Context.sol\":640:736  function _msgSender() internal view virtual returns (address) {... */\ntag_7:\n    /* \"@openzeppelin/contracts/utils/Context.sol\":693:700  address */\n  0x00\n    /* \"@openzeppelin/contracts/utils/Context.sol\":719:729  msg.sender */\n  caller\n    /* \"@openzeppelin/contracts/utils/Context.sol\":712:729  return msg.sender */\n  swap1\n  pop\n    /* \"@openzeppelin/contracts/utils/Context.sol\":640:736  function _msgSender() internal view virtual returns (address) {... */\n  swap1\n  jump\t// out\n    /* \"@openzeppelin/contracts/access/Ownable.sol\":2433:2620  function _transferOwnership(address newOwner) internal virtual {... */\ntag_8:\n    /* \"@openzeppelin/contracts/access/Ownable.sol\":2506:2522  address oldOwner */\n  0x00\n    /* \"@openzeppelin/contracts/access/Ownable.sol\":2525:2531  _owner */\n  dup1\n  0x00\n  swap1\n  sload\n  swap1\n  0x0100\n  exp\n  swap1\n  div\n  0xffffffffffffffffffffffffffffffffffffffff\n  and\n    /* \"@openzeppelin/contracts/access/Ownable.sol\":2506:2531  address oldOwner = _owner */\n  swap1\n  pop\n    /* \"@openzeppelin/contracts/access/Ownable.sol\":2550:2558  newOwner */\n  dup2\n    /* \"@openzeppelin/contracts/access/Ownable.sol\":2541:2547  _owner */\n  0x00\n  dup1\n    /* \"@openzeppelin/contracts/access/Ownable.sol\":2541:2558  _owner = newOwner */\n  0x0100\n  exp\n  dup2\n  sload\n  dup2\n  0xffffffffffffffffffffffffffffffffffffffff\n  mul\n  not\n  and\n  swap1\n  dup4\n  0xffffffffffffffffffffffffffffffffffffffff\n  and\n  mul\n  or\n  swap1\n  sstore\n  pop\n    /* \"@openzeppelin/contracts/access/Ownable.sol\":2604:2612  newOwner */\n  dup2\n    /* \"@openzeppelin/contracts/access/Ownable.sol\":2573:2613  OwnershipTransferred(oldOwner, newOwner) */\n  0xffffffffffffffffffffffffffffffffffffffff\n  and\n    /* \"@openzeppelin/contracts/access/Ownable.sol\":2594:2602  oldOwner */\n  dup2\n    /* \"@openzeppelin/contracts/access/Ownable.sol\":2573:2613  OwnershipTransferred(oldOwner, newOwner) */\n  0xffffffffffffffffffffffffffffffffffffffff\n  and\n  0x8be0079c531659141344cd1fd0a4f28419497f9722a3daafe3b4186f6b6457e0\n  mload(0x40)\n  mload(0x40)\n  dup1\n  swap2\n  sub\n  swap1\n  log3\n    /* \"@openzeppelin/contracts/access/Ownable.sol\":2496:2620  {... */\n  pop\n    /* \"@openzeppelin/contracts/access/Ownable.sol\":2433:2620  function _transferOwnership(address newOwner) internal virtual {... */\n  pop\n  jump\t// out\n    /* \"study/token-airdrop/contracts/Proxy.sol\":2380:2579  function _setUpgradeabilityOwner(address _newProxyOwner) internal {\r... */\ntag_11:\n    /* \"study/token-airdrop/contracts/Proxy.sol\":2457:2473  bytes32 position */\n  0x00\n    /* \"study/token-airdrop/contracts/Proxy.sol\":324:370  keccak256(\"owner.contract.token-airdrop:2023\") */\n  0x602d78baa5535dcda7f8b79e40e6339e355543a4727add9270060248e9f41912\n    /* \"study/token-airdrop/contracts/Proxy.sol\":2457:2494  bytes32 position = proxyOwnerPosition */\n  swap1\n  pop\n    /* \"study/token-airdrop/contracts/Proxy.sol\":2546:2560  _newProxyOwner */\n  dup2\n    /* \"study/token-airdrop/contracts/Proxy.sol\":2536:2544  position */\n  dup2\n    /* \"study/token-airdrop/contracts/Proxy.sol\":2529:2561  sstore(position, _newProxyOwner) */\n  sstore\n    /* \"study/token-airdrop/contracts/Proxy.sol\":2514:2572  {\r... */\n  pop\n    /* \"study/token-airdrop/contracts/Proxy.sol\":2380:2579  function _setUpgradeabilityOwner(address _newProxyOwner) internal {\r... */\n  pop\n  jump\t// out\n    /* \"study/token-airdrop/contracts/Proxy.sol\":116:3429  contract Proxy is Ownable{\r... */\ntag_12:\n  dataSize(sub_0)\n  dup1\n  dataOffset(sub_0)\n  0x00\n  codecopy\n  0x00\n  return\nstop\n\nsub_0: assembly {\n        /* \"study/token-airdrop/contracts/Proxy.sol\":116:3429  contract Proxy is Ownable{\r... */\n      mstore(0x40, 0x80)\n      jumpi(tag_1, lt(calldatasize, 0x04))\n      shr(0xe0, calldataload(0x00))\n      dup1\n      0x715018a6\n      gt\n      tag_10\n      jumpi\n      dup1\n      0x715018a6\n      eq\n      tag_6\n      jumpi\n      dup1\n      0x8da5cb5b\n      eq\n      tag_7\n      jumpi\n      dup1\n      0xf1739cae\n      eq\n      tag_8\n      jumpi\n      dup1\n      0xf2fde38b\n      eq\n      tag_9\n      jumpi\n      jump(tag_2)\n    tag_10:\n      dup1\n      0x025313a2\n      eq\n      tag_3\n      jumpi\n      dup1\n      0x3659cfe6\n      eq\n      tag_4\n      jumpi\n      dup1\n      0x5c60da1b\n      eq\n      tag_5\n      jumpi\n      jump(tag_2)\n    tag_1:\n      jumpi(tag_2, calldatasize)\n      stop\n    tag_2:\n        /* \"study/token-airdrop/contracts/Proxy.sol\":3366:3381  _delegatecall() */\n      tag_15\n        /* \"study/token-airdrop/contracts/Proxy.sol\":3366:3379  _delegatecall */\n      tag_16\n        /* \"study/token-airdrop/contracts/Proxy.sol\":3366:3381  _delegatecall() */\n      jump\t// in\n    tag_15:\n        /* \"study/token-airdrop/contracts/Proxy.sol\":116:3429  contract Proxy is Ownable{\r... */\n      stop\n        /* \"study/token-airdrop/contracts/Proxy.sol\":810:993  function proxyOwner() public view returns (address owner) {\r... */\n    tag_3:\n      callvalue\n      dup1\n      iszero\n      tag_17\n      jumpi\n      0x00\n      dup1\n      revert\n    tag_17:\n      pop\n      tag_18\n      tag_19\n      jump\t// in\n    tag_18:\n      mload(0x40)\n      tag_20\n      swap2\n      swap1\n      tag_21\n      jump\t// in\n    tag_20:\n      mload(0x40)\n      dup1\n      swap2\n      sub\n      swap1\n      return\n        /* \"study/token-airdrop/contracts/Proxy.sol\":1866:2158  function upgradeTo(address _newImplementation) public onlyProxyOwner {\r... */\n    tag_4:\n      callvalue\n      dup1\n      iszero\n      tag_22\n      jumpi\n      0x00\n      dup1\n      revert\n    tag_22:\n      pop\n      tag_23\n      0x04\n      dup1\n      calldatasize\n      sub\n      dup2\n      add\n      swap1\n      tag_24\n      swap2\n      swap1\n      tag_25\n      jump\t// in\n    tag_24:\n      tag_26\n      jump\t// in\n    tag_23:\n      stop\n        /* \"study/token-airdrop/contracts/Proxy.sol\":1073:1262  function implementation() public view returns (address impl) {\r... */\n    tag_5:\n      callvalue\n      dup1\n      iszero\n      tag_27\n      jumpi\n      0x00\n      dup1\n      revert\n    tag_27:\n      pop\n      tag_28\n      tag_29\n      jump\t// in\n    tag_28:\n      mload(0x40)\n      tag_30\n      swap2\n      swap1\n      tag_21\n      jump\t// in\n    tag_30:\n      mload(0x40)\n      dup1\n      swap2\n      sub\n      swap1\n      return\n        /* \"@openzeppelin/contracts/access/Ownable.sol\":1831:1932  function renounceOwnership() public virtual onlyOwner {... */\n    tag_6:\n      callvalue\n      dup1\n      iszero\n      tag_31\n      jumpi\n      0x00\n      dup1\n      revert\n    tag_31:\n      pop\n      tag_32\n      tag_33\n      jump\t// in\n    tag_32:\n      stop\n        /* \"@openzeppelin/contracts/access/Ownable.sol\":1201:1286  function owner() public view virtual returns (address) {... */\n    tag_7:\n      callvalue\n      dup1\n      iszero\n      tag_34\n      jumpi\n      0x00\n      dup1\n      revert\n    tag_34:\n      pop\n      tag_35\n      tag_36\n      jump\t// in\n    tag_35:\n      mload(0x40)\n      tag_37\n      swap2\n      swap1\n      tag_21\n      jump\t// in\n    tag_37:\n      mload(0x40)\n      dup1\n      swap2\n      sub\n      swap1\n      return\n        /* \"study/token-airdrop/contracts/Proxy.sol\":1343:1786  function transferProxyOwnership(address _newOwner) public onlyProxyOwner {\r... */\n    tag_8:\n      callvalue\n      dup1\n      iszero\n      tag_38\n      jumpi\n      0x00\n      dup1\n      revert\n    tag_38:\n      pop\n      tag_39\n      0x04\n      dup1\n      calldatasize\n      sub\n      dup2\n      add\n      swap1\n      tag_40\n      swap2\n      swap1\n      tag_25\n      jump\t// in\n    tag_40:\n      tag_41\n      jump\t// in\n    tag_39:\n      stop\n        /* \"@openzeppelin/contracts/access/Ownable.sol\":2081:2279  function transferOwnership(address newOwner) public virtual onlyOwner {... */\n    tag_9:\n      callvalue\n      dup1\n      iszero\n      tag_42\n      jumpi\n      0x00\n      dup1\n      revert\n    tag_42:\n      pop\n      tag_43\n      0x04\n      dup1\n      calldatasize\n      sub\n      dup2\n      add\n      swap1\n      tag_44\n      swap2\n      swap1\n      tag_25\n      jump\t// in\n    tag_44:\n      tag_45\n      jump\t// in\n    tag_43:\n      stop\n        /* \"study/token-airdrop/contracts/Proxy.sol\":2587:3319  function _delegatecall() internal {\r... */\n    tag_16:\n        /* \"study/token-airdrop/contracts/Proxy.sol\":2632:2645  address _impl */\n      0x00\n        /* \"study/token-airdrop/contracts/Proxy.sol\":2648:2664  implementation() */\n      tag_47\n        /* \"study/token-airdrop/contracts/Proxy.sol\":2648:2662  implementation */\n      tag_29\n        /* \"study/token-airdrop/contracts/Proxy.sol\":2648:2664  implementation() */\n      jump\t// in\n    tag_47:\n        /* \"study/token-airdrop/contracts/Proxy.sol\":2632:2664  address _impl = implementation() */\n      swap1\n      pop\n        /* \"study/token-airdrop/contracts/Proxy.sol\":2700:2701  0 */\n      0x00\n        /* \"study/token-airdrop/contracts/Proxy.sol\":2683:2702  _impl != address(0) */\n      0xffffffffffffffffffffffffffffffffffffffff\n      and\n        /* \"study/token-airdrop/contracts/Proxy.sol\":2683:2688  _impl */\n      dup2\n        /* \"study/token-airdrop/contracts/Proxy.sol\":2683:2702  _impl != address(0) */\n      0xffffffffffffffffffffffffffffffffffffffff\n      and\n      eq\n      iszero\n        /* \"study/token-airdrop/contracts/Proxy.sol\":2675:2724  require(_impl != address(0), \"Impl address is 0\") */\n      tag_48\n      jumpi\n      mload(0x40)\n      0x08c379a000000000000000000000000000000000000000000000000000000000\n      dup2\n      mstore\n      0x04\n      add\n      tag_49\n      swap1\n      tag_50\n      jump\t// in\n    tag_49:\n      mload(0x40)\n      dup1\n      swap2\n      sub\n      swap1\n      revert\n    tag_48:\n        /* \"study/token-airdrop/contracts/Proxy.sol\":2778:2782  0x40 */\n      0x40\n        /* \"study/token-airdrop/contracts/Proxy.sol\":2772:2783  mload(0x40) */\n      mload\n        /* \"study/token-airdrop/contracts/Proxy.sol\":2818:2832  calldatasize() */\n      calldatasize\n        /* \"study/token-airdrop/contracts/Proxy.sol\":2815:2816  0 */\n      0x00\n        /* \"study/token-airdrop/contracts/Proxy.sol\":2810:2813  ptr */\n      dup3\n        /* \"study/token-airdrop/contracts/Proxy.sol\":2797:2833  calldatacopy(ptr, 0, calldatasize()) */\n      calldatacopy\n        /* \"study/token-airdrop/contracts/Proxy.sol\":3027:3028  0 */\n      0x00\n        /* \"study/token-airdrop/contracts/Proxy.sol\":3007:3008  0 */\n      dup1\n        /* \"study/token-airdrop/contracts/Proxy.sol\":2974:2988  calldatasize() */\n      calldatasize\n        /* \"study/token-airdrop/contracts/Proxy.sol\":2952:2955  ptr */\n      dup4\n        /* \"study/token-airdrop/contracts/Proxy.sol\":2928:2933  _impl */\n      dup6\n        /* \"study/token-airdrop/contracts/Proxy.sol\":2903:2908  10000 */\n      0x2710\n        /* \"study/token-airdrop/contracts/Proxy.sol\":2896:2901  gas() */\n      gas\n        /* \"study/token-airdrop/contracts/Proxy.sol\":2892:2909  sub(gas(), 10000) */\n      sub\n        /* \"study/token-airdrop/contracts/Proxy.sol\":2861:3043  delegatecall(\r... */\n      delegatecall\n        /* \"study/token-airdrop/contracts/Proxy.sol\":3069:3085  returndatasize() */\n      returndatasize\n        /* \"study/token-airdrop/contracts/Proxy.sol\":3122:3126  size */\n      dup1\n        /* \"study/token-airdrop/contracts/Proxy.sol\":3119:3120  0 */\n      0x00\n        /* \"study/token-airdrop/contracts/Proxy.sol\":3114:3117  ptr */\n      dup5\n        /* \"study/token-airdrop/contracts/Proxy.sol\":3099:3127  returndatacopy(ptr, 0, size) */\n      returndatacopy\n        /* \"study/token-airdrop/contracts/Proxy.sol\":3150:3156  result */\n      dup2\n        /* \"study/token-airdrop/contracts/Proxy.sol\":3175:3176  0 */\n      0x00\n        /* \"study/token-airdrop/contracts/Proxy.sol\":3170:3228  case 0 {\r... */\n      dup2\n      eq\n      tag_52\n      jumpi\n        /* \"study/token-airdrop/contracts/Proxy.sol\":3281:3285  size */\n      dup2\n        /* \"study/token-airdrop/contracts/Proxy.sol\":3276:3279  ptr */\n      dup5\n        /* \"study/token-airdrop/contracts/Proxy.sol\":3269:3286  return(ptr, size) */\n      return\n        /* \"study/token-airdrop/contracts/Proxy.sol\":3170:3228  case 0 {\r... */\n    tag_52:\n        /* \"study/token-airdrop/contracts/Proxy.sol\":3208:3212  size */\n      dup2\n        /* \"study/token-airdrop/contracts/Proxy.sol\":3203:3206  ptr */\n      dup5\n        /* \"study/token-airdrop/contracts/Proxy.sol\":3196:3213  revert(ptr, size) */\n      revert\n        /* \"study/token-airdrop/contracts/Proxy.sol\":810:993  function proxyOwner() public view returns (address owner) {\r... */\n    tag_19:\n        /* \"study/token-airdrop/contracts/Proxy.sol\":853:866  address owner */\n      0x00\n        /* \"study/token-airdrop/contracts/Proxy.sol\":879:895  bytes32 position */\n      dup1\n        /* \"study/token-airdrop/contracts/Proxy.sol\":324:370  keccak256(\"owner.contract.token-airdrop:2023\") */\n      0x602d78baa5535dcda7f8b79e40e6339e355543a4727add9270060248e9f41912\n        /* \"study/token-airdrop/contracts/Proxy.sol\":879:916  bytes32 position = proxyOwnerPosition */\n      swap1\n      pop\n        /* \"study/token-airdrop/contracts/Proxy.sol\":966:974  position */\n      dup1\n        /* \"study/token-airdrop/contracts/Proxy.sol\":960:975  sload(position) */\n      sload\n        /* \"study/token-airdrop/contracts/Proxy.sol\":951:975  owner := sload(position) */\n      swap2\n      pop\n        /* \"study/token-airdrop/contracts/Proxy.sol\":936:986  {\r... */\n      pop\n        /* \"study/token-airdrop/contracts/Proxy.sol\":810:993  function proxyOwner() public view returns (address owner) {\r... */\n      swap1\n      jump\t// out\n        /* \"study/token-airdrop/contracts/Proxy.sol\":1866:2158  function upgradeTo(address _newImplementation) public onlyProxyOwner {\r... */\n    tag_26:\n        /* \"study/token-airdrop/contracts/Proxy.sol\":689:701  proxyOwner() */\n      tag_55\n        /* \"study/token-airdrop/contracts/Proxy.sol\":689:699  proxyOwner */\n      tag_19\n        /* \"study/token-airdrop/contracts/Proxy.sol\":689:701  proxyOwner() */\n      jump\t// in\n    tag_55:\n        /* \"study/token-airdrop/contracts/Proxy.sol\":675:701  msg.sender == proxyOwner() */\n      0xffffffffffffffffffffffffffffffffffffffff\n      and\n        /* \"study/token-airdrop/contracts/Proxy.sol\":675:685  msg.sender */\n      caller\n        /* \"study/token-airdrop/contracts/Proxy.sol\":675:701  msg.sender == proxyOwner() */\n      0xffffffffffffffffffffffffffffffffffffffff\n      and\n      eq\n        /* \"study/token-airdrop/contracts/Proxy.sol\":667:702  require(msg.sender == proxyOwner()) */\n      tag_56\n      jumpi\n      0x00\n      dup1\n      revert\n    tag_56:\n        /* \"study/token-airdrop/contracts/Proxy.sol\":1946:1975  address currentImplementation */\n      0x00\n        /* \"study/token-airdrop/contracts/Proxy.sol\":1978:1994  implementation() */\n      tag_58\n        /* \"study/token-airdrop/contracts/Proxy.sol\":1978:1992  implementation */\n      tag_29\n        /* \"study/token-airdrop/contracts/Proxy.sol\":1978:1994  implementation() */\n      jump\t// in\n    tag_58:\n        /* \"study/token-airdrop/contracts/Proxy.sol\":1946:1994  address currentImplementation = implementation() */\n      swap1\n      pop\n        /* \"study/token-airdrop/contracts/Proxy.sol\":2038:2056  _newImplementation */\n      dup2\n        /* \"study/token-airdrop/contracts/Proxy.sol\":2013:2056  currentImplementation != _newImplementation */\n      0xffffffffffffffffffffffffffffffffffffffff\n      and\n        /* \"study/token-airdrop/contracts/Proxy.sol\":2013:2034  currentImplementation */\n      dup2\n        /* \"study/token-airdrop/contracts/Proxy.sol\":2013:2056  currentImplementation != _newImplementation */\n      0xffffffffffffffffffffffffffffffffffffffff\n      and\n      eq\n      iszero\n        /* \"study/token-airdrop/contracts/Proxy.sol\":2005:2057  require(currentImplementation != _newImplementation) */\n      tag_59\n      jumpi\n      0x00\n      dup1\n      revert\n    tag_59:\n        /* \"study/token-airdrop/contracts/Proxy.sol\":2068:2106  _setImplementation(_newImplementation) */\n      tag_60\n        /* \"study/token-airdrop/contracts/Proxy.sol\":2087:2105  _newImplementation */\n      dup3\n        /* \"study/token-airdrop/contracts/Proxy.sol\":2068:2086  _setImplementation */\n      tag_61\n        /* \"study/token-airdrop/contracts/Proxy.sol\":2068:2106  _setImplementation(_newImplementation) */\n      jump\t// in\n    tag_60:\n        /* \"study/token-airdrop/contracts/Proxy.sol\":2131:2149  _newImplementation */\n      dup2\n        /* \"study/token-airdrop/contracts/Proxy.sol\":2122:2150  Upgraded(_newImplementation) */\n      0xffffffffffffffffffffffffffffffffffffffff\n      and\n      0xbc7cd75a20ee27fd9adebab32041f755214dbc6bffa90cc0225b39da2e5c2d3b\n      mload(0x40)\n      mload(0x40)\n      dup1\n      swap2\n      sub\n      swap1\n      log2\n        /* \"study/token-airdrop/contracts/Proxy.sol\":1935:2158  {\r... */\n      pop\n        /* \"study/token-airdrop/contracts/Proxy.sol\":1866:2158  function upgradeTo(address _newImplementation) public onlyProxyOwner {\r... */\n      pop\n      jump\t// out\n        /* \"study/token-airdrop/contracts/Proxy.sol\":1073:1262  function implementation() public view returns (address impl) {\r... */\n    tag_29:\n        /* \"study/token-airdrop/contracts/Proxy.sol\":1120:1132  address impl */\n      0x00\n        /* \"study/token-airdrop/contracts/Proxy.sol\":1145:1161  bytes32 position */\n      dup1\n        /* \"study/token-airdrop/contracts/Proxy.sol\":207:262  keccak256(\"implementation.contract.token-airdrop:2023\") */\n      0x491fa9ff5dd08277a905cf36956e3786a257e6dfd0023908066c75c4559f86af\n        /* \"study/token-airdrop/contracts/Proxy.sol\":1145:1186  bytes32 position = implementationPosition */\n      swap1\n      pop\n        /* \"study/token-airdrop/contracts/Proxy.sol\":1235:1243  position */\n      dup1\n        /* \"study/token-airdrop/contracts/Proxy.sol\":1229:1244  sload(position) */\n      sload\n        /* \"study/token-airdrop/contracts/Proxy.sol\":1221:1244  impl := sload(position) */\n      swap2\n      pop\n        /* \"study/token-airdrop/contracts/Proxy.sol\":1206:1255  {\r... */\n      pop\n        /* \"study/token-airdrop/contracts/Proxy.sol\":1073:1262  function implementation() public view returns (address impl) {\r... */\n      swap1\n      jump\t// out\n        /* \"@openzeppelin/contracts/access/Ownable.sol\":1831:1932  function renounceOwnership() public virtual onlyOwner {... */\n    tag_33:\n        /* \"@openzeppelin/contracts/access/Ownable.sol\":1094:1107  _checkOwner() */\n      tag_64\n        /* \"@openzeppelin/contracts/access/Ownable.sol\":1094:1105  _checkOwner */\n      tag_65\n        /* \"@openzeppelin/contracts/access/Ownable.sol\":1094:1107  _checkOwner() */\n      jump\t// in\n    tag_64:\n        /* \"@openzeppelin/contracts/access/Ownable.sol\":1895:1925  _transferOwnership(address(0)) */\n      tag_67\n        /* \"@openzeppelin/contracts/access/Ownable.sol\":1922:1923  0 */\n      0x00\n        /* \"@openzeppelin/contracts/access/Ownable.sol\":1895:1913  _transferOwnership */\n      tag_68\n        /* \"@openzeppelin/contracts/access/Ownable.sol\":1895:1925  _transferOwnership(address(0)) */\n      jump\t// in\n    tag_67:\n        /* \"@openzeppelin/contracts/access/Ownable.sol\":1831:1932  function renounceOwnership() public virtual onlyOwner {... */\n      jump\t// out\n        /* \"@openzeppelin/contracts/access/Ownable.sol\":1201:1286  function owner() public view virtual returns (address) {... */\n    tag_36:\n        /* \"@openzeppelin/contracts/access/Ownable.sol\":1247:1254  address */\n      0x00\n        /* \"@openzeppelin/contracts/access/Ownable.sol\":1273:1279  _owner */\n      dup1\n      0x00\n      swap1\n      sload\n      swap1\n      0x0100\n      exp\n      swap1\n      div\n      0xffffffffffffffffffffffffffffffffffffffff\n      and\n        /* \"@openzeppelin/contracts/access/Ownable.sol\":1266:1279  return _owner */\n      swap1\n      pop\n        /* \"@openzeppelin/contracts/access/Ownable.sol\":1201:1286  function owner() public view virtual returns (address) {... */\n      swap1\n      jump\t// out\n        /* \"study/token-airdrop/contracts/Proxy.sol\":1343:1786  function transferProxyOwnership(address _newOwner) public onlyProxyOwner {\r... */\n    tag_41:\n        /* \"study/token-airdrop/contracts/Proxy.sol\":689:701  proxyOwner() */\n      tag_71\n        /* \"study/token-airdrop/contracts/Proxy.sol\":689:699  proxyOwner */\n      tag_19\n        /* \"study/token-airdrop/contracts/Proxy.sol\":689:701  proxyOwner() */\n      jump\t// in\n    tag_71:\n        /* \"study/token-airdrop/contracts/Proxy.sol\":675:701  msg.sender == proxyOwner() */\n      0xffffffffffffffffffffffffffffffffffffffff\n      and\n        /* \"study/token-airdrop/contracts/Proxy.sol\":675:685  msg.sender */\n      caller\n        /* \"study/token-airdrop/contracts/Proxy.sol\":675:701  msg.sender == proxyOwner() */\n      0xffffffffffffffffffffffffffffffffffffffff\n      and\n      eq\n        /* \"study/token-airdrop/contracts/Proxy.sol\":667:702  require(msg.sender == proxyOwner()) */\n      tag_72\n      jumpi\n      0x00\n      dup1\n      revert\n    tag_72:\n        /* \"study/token-airdrop/contracts/Proxy.sol\":1470:1471  0 */\n      0x00\n        /* \"study/token-airdrop/contracts/Proxy.sol\":1449:1472  _newOwner != address(0) */\n      0xffffffffffffffffffffffffffffffffffffffff\n      and\n        /* \"study/token-airdrop/contracts/Proxy.sol\":1449:1458  _newOwner */\n      dup2\n        /* \"study/token-airdrop/contracts/Proxy.sol\":1449:1472  _newOwner != address(0) */\n      0xffffffffffffffffffffffffffffffffffffffff\n      and\n      eq\n      iszero\n        /* \"study/token-airdrop/contracts/Proxy.sol\":1427:1540  require(\r... */\n      tag_74\n      jumpi\n      mload(0x40)\n      0x08c379a000000000000000000000000000000000000000000000000000000000\n      dup2\n      mstore\n      0x04\n      add\n      tag_75\n      swap1\n      tag_76\n      jump\t// in\n    tag_75:\n      mload(0x40)\n      dup1\n      swap2\n      sub\n      swap1\n      revert\n    tag_74:\n        /* \"study/token-airdrop/contracts/Proxy.sol\":1586:1598  proxyOwner() */\n      tag_77\n        /* \"study/token-airdrop/contracts/Proxy.sol\":1586:1596  proxyOwner */\n      tag_19\n        /* \"study/token-airdrop/contracts/Proxy.sol\":1586:1598  proxyOwner() */\n      jump\t// in\n    tag_77:\n        /* \"study/token-airdrop/contracts/Proxy.sol\":1573:1598  _newOwner != proxyOwner() */\n      0xffffffffffffffffffffffffffffffffffffffff\n      and\n        /* \"study/token-airdrop/contracts/Proxy.sol\":1573:1582  _newOwner */\n      dup2\n        /* \"study/token-airdrop/contracts/Proxy.sol\":1573:1598  _newOwner != proxyOwner() */\n      0xffffffffffffffffffffffffffffffffffffffff\n      and\n      eq\n      iszero\n        /* \"study/token-airdrop/contracts/Proxy.sol\":1551:1667  require(\r... */\n      tag_78\n      jumpi\n      mload(0x40)\n      0x08c379a000000000000000000000000000000000000000000000000000000000\n      dup2\n      mstore\n      0x04\n      add\n      tag_79\n      swap1\n      tag_80\n      jump\t// in\n    tag_79:\n      mload(0x40)\n      dup1\n      swap2\n      sub\n      swap1\n      revert\n    tag_78:\n        /* \"study/token-airdrop/contracts/Proxy.sol\":1723:1732  _newOwner */\n      dup1\n        /* \"study/token-airdrop/contracts/Proxy.sol\":1683:1733  ProxyOwnershipTransferred(proxyOwner(), _newOwner) */\n      0xffffffffffffffffffffffffffffffffffffffff\n      and\n        /* \"study/token-airdrop/contracts/Proxy.sol\":1709:1721  proxyOwner() */\n      tag_81\n        /* \"study/token-airdrop/contracts/Proxy.sol\":1709:1719  proxyOwner */\n      tag_19\n        /* \"study/token-airdrop/contracts/Proxy.sol\":1709:1721  proxyOwner() */\n      jump\t// in\n    tag_81:\n        /* \"study/token-airdrop/contracts/Proxy.sol\":1683:1733  ProxyOwnershipTransferred(proxyOwner(), _newOwner) */\n      0xffffffffffffffffffffffffffffffffffffffff\n      and\n      0x5a3e66efaa1e445ebd894728a69d6959842ea1e97bd79b892797106e270efcd9\n      mload(0x40)\n      mload(0x40)\n      dup1\n      swap2\n      sub\n      swap1\n      log3\n        /* \"study/token-airdrop/contracts/Proxy.sol\":1744:1778  _setUpgradeabilityOwner(_newOwner) */\n      tag_82\n        /* \"study/token-airdrop/contracts/Proxy.sol\":1768:1777  _newOwner */\n      dup2\n        /* \"study/token-airdrop/contracts/Proxy.sol\":1744:1767  _setUpgradeabilityOwner */\n      tag_83\n        /* \"study/token-airdrop/contracts/Proxy.sol\":1744:1778  _setUpgradeabilityOwner(_newOwner) */\n      jump\t// in\n    tag_82:\n        /* \"study/token-airdrop/contracts/Proxy.sol\":1343:1786  function transferProxyOwnership(address _newOwner) public onlyProxyOwner {\r... */\n      pop\n      jump\t// out\n        /* \"@openzeppelin/contracts/access/Ownable.sol\":2081:2279  function transferOwnership(address newOwner) public virtual onlyOwner {... */\n    tag_45:\n        /* \"@openzeppelin/contracts/access/Ownable.sol\":1094:1107  _checkOwner() */\n      tag_85\n        /* \"@openzeppelin/contracts/access/Ownable.sol\":1094:1105  _checkOwner */\n      tag_65\n        /* \"@openzeppelin/contracts/access/Ownable.sol\":1094:1107  _checkOwner() */\n      jump\t// in\n    tag_85:\n        /* \"@openzeppelin/contracts/access/Ownable.sol\":2189:2190  0 */\n      0x00\n        /* \"@openzeppelin/contracts/access/Ownable.sol\":2169:2191  newOwner != address(0) */\n      0xffffffffffffffffffffffffffffffffffffffff\n      and\n        /* \"@openzeppelin/contracts/access/Ownable.sol\":2169:2177  newOwner */\n      dup2\n        /* \"@openzeppelin/contracts/access/Ownable.sol\":2169:2191  newOwner != address(0) */\n      0xffffffffffffffffffffffffffffffffffffffff\n      and\n      eq\n      iszero\n        /* \"@openzeppelin/contracts/access/Ownable.sol\":2161:2234  require(newOwner != address(0), \"Ownable: new owner is the zero address\") */\n      tag_87\n      jumpi\n      mload(0x40)\n      0x08c379a000000000000000000000000000000000000000000000000000000000\n      dup2\n      mstore\n      0x04\n      add\n      tag_88\n      swap1\n      tag_89\n      jump\t// in\n    tag_88:\n      mload(0x40)\n      dup1\n      swap2\n      sub\n      swap1\n      revert\n    tag_87:\n        /* \"@openzeppelin/contracts/access/Ownable.sol\":2244:2272  _transferOwnership(newOwner) */\n      tag_90\n        /* \"@openzeppelin/contracts/access/Ownable.sol\":2263:2271  newOwner */\n      dup2\n        /* \"@openzeppelin/contracts/access/Ownable.sol\":2244:2262  _transferOwnership */\n      tag_68\n        /* \"@openzeppelin/contracts/access/Ownable.sol\":2244:2272  _transferOwnership(newOwner) */\n      jump\t// in\n    tag_90:\n        /* \"@openzeppelin/contracts/access/Ownable.sol\":2081:2279  function transferOwnership(address newOwner) public virtual onlyOwner {... */\n      pop\n      jump\t// out\n        /* \"study/token-airdrop/contracts/Proxy.sol\":2166:2372  function _setImplementation(address _newImplementation) internal {\r... */\n    tag_61:\n        /* \"study/token-airdrop/contracts/Proxy.sol\":2242:2258  bytes32 position */\n      0x00\n        /* \"study/token-airdrop/contracts/Proxy.sol\":207:262  keccak256(\"implementation.contract.token-airdrop:2023\") */\n      0x491fa9ff5dd08277a905cf36956e3786a257e6dfd0023908066c75c4559f86af\n        /* \"study/token-airdrop/contracts/Proxy.sol\":2242:2283  bytes32 position = implementationPosition */\n      swap1\n      pop\n        /* \"study/token-airdrop/contracts/Proxy.sol\":2335:2353  _newImplementation */\n      dup2\n        /* \"study/token-airdrop/contracts/Proxy.sol\":2325:2333  position */\n      dup2\n        /* \"study/token-airdrop/contracts/Proxy.sol\":2318:2354  sstore(position, _newImplementation) */\n      sstore\n        /* \"study/token-airdrop/contracts/Proxy.sol\":2303:2365  {\r... */\n      pop\n        /* \"study/token-airdrop/contracts/Proxy.sol\":2166:2372  function _setImplementation(address _newImplementation) internal {\r... */\n      pop\n      jump\t// out\n        /* \"@openzeppelin/contracts/access/Ownable.sol\":1359:1489  function _checkOwner() internal view virtual {... */\n    tag_65:\n        /* \"@openzeppelin/contracts/access/Ownable.sol\":1433:1445  _msgSender() */\n      tag_93\n        /* \"@openzeppelin/contracts/access/Ownable.sol\":1433:1443  _msgSender */\n      tag_94\n        /* \"@openzeppelin/contracts/access/Ownable.sol\":1433:1445  _msgSender() */\n      jump\t// in\n    tag_93:\n        /* \"@openzeppelin/contracts/access/Ownable.sol\":1422:1445  owner() == _msgSender() */\n      0xffffffffffffffffffffffffffffffffffffffff\n      and\n        /* \"@openzeppelin/contracts/access/Ownable.sol\":1422:1429  owner() */\n      tag_95\n        /* \"@openzeppelin/contracts/access/Ownable.sol\":1422:1427  owner */\n      tag_36\n        /* \"@openzeppelin/contracts/access/Ownable.sol\":1422:1429  owner() */\n      jump\t// in\n    tag_95:\n        /* \"@openzeppelin/contracts/access/Ownable.sol\":1422:1445  owner() == _msgSender() */\n      0xffffffffffffffffffffffffffffffffffffffff\n      and\n      eq\n        /* \"@openzeppelin/contracts/access/Ownable.sol\":1414:1482  require(owner() == _msgSender(), \"Ownable: caller is not the owner\") */\n      tag_96\n      jumpi\n      mload(0x40)\n      0x08c379a000000000000000000000000000000000000000000000000000000000\n      dup2\n      mstore\n      0x04\n      add\n      tag_97\n      swap1\n      tag_98\n      jump\t// in\n    tag_97:\n      mload(0x40)\n      dup1\n      swap2\n      sub\n      swap1\n      revert\n    tag_96:\n        /* \"@openzeppelin/contracts/access/Ownable.sol\":1359:1489  function _checkOwner() internal view virtual {... */\n      jump\t// out\n        /* \"@openzeppelin/contracts/access/Ownable.sol\":2433:2620  function _transferOwnership(address newOwner) internal virtual {... */\n    tag_68:\n        /* \"@openzeppelin/contracts/access/Ownable.sol\":2506:2522  address oldOwner */\n      0x00\n        /* \"@openzeppelin/contracts/access/Ownable.sol\":2525:2531  _owner */\n      dup1\n      0x00\n      swap1\n      sload\n      swap1\n      0x0100\n      exp\n      swap1\n      div\n      0xffffffffffffffffffffffffffffffffffffffff\n      and\n        /* \"@openzeppelin/contracts/access/Ownable.sol\":2506:2531  address oldOwner = _owner */\n      swap1\n      pop\n        /* \"@openzeppelin/contracts/access/Ownable.sol\":2550:2558  newOwner */\n      dup2\n        /* \"@openzeppelin/contracts/access/Ownable.sol\":2541:2547  _owner */\n      0x00\n      dup1\n        /* \"@openzeppelin/contracts/access/Ownable.sol\":2541:2558  _owner = newOwner */\n      0x0100\n      exp\n      dup2\n      sload\n      dup2\n      0xffffffffffffffffffffffffffffffffffffffff\n      mul\n      not\n      and\n      swap1\n      dup4\n      0xffffffffffffffffffffffffffffffffffffffff\n      and\n      mul\n      or\n      swap1\n      sstore\n      pop\n        /* \"@openzeppelin/contracts/access/Ownable.sol\":2604:2612  newOwner */\n      dup2\n        /* \"@openzeppelin/contracts/access/Ownable.sol\":2573:2613  OwnershipTransferred(oldOwner, newOwner) */\n      0xffffffffffffffffffffffffffffffffffffffff\n      and\n        /* \"@openzeppelin/contracts/access/Ownable.sol\":2594:2602  oldOwner */\n      dup2\n        /* \"@openzeppelin/contracts/access/Ownable.sol\":2573:2613  OwnershipTransferred(oldOwner, newOwner) */\n      0xffffffffffffffffffffffffffffffffffffffff\n      and\n      0x8be0079c531659141344cd1fd0a4f28419497f9722a3daafe3b4186f6b6457e0\n      mload(0x40)\n      mload(0x40)\n      dup1\n      swap2\n      sub\n      swap1\n      log3\n        /* \"@openzeppelin/contracts/access/Ownable.sol\":2496:2620  {... */\n      pop\n        /* \"@openzeppelin/contracts/access/Ownable.sol\":2433:2620  function _transferOwnership(address newOwner) internal virtual {... */\n      pop\n      jump\t// out\n        /* \"study/token-airdrop/contracts/Proxy.sol\":2380:2579  function _setUpgradeabilityOwner(address _newProxyOwner) internal {\r... */\n    tag_83:\n        /* \"study/token-airdrop/contracts/Proxy.sol\":2457:2473  bytes32 position */\n      0x00\n        /* \"study/token-airdrop/contracts/Proxy.sol\":324:370  keccak256(\"owner.contract.token-airdrop:2023\") */\n      0x602d78baa5535dcda7f8b79e40e6339e355543a4727add9270060248e9f41912\n        /* \"study/token-airdrop/contracts/Proxy.sol\":2457:2494  bytes32 position = proxyOwnerPosition */\n      swap1\n      pop\n        /* \"study/token-airdrop/contracts/Proxy.sol\":2546:2560  _newProxyOwner */\n      dup2\n        /* \"study/token-airdrop/contracts/Proxy.sol\":2536:2544  position */\n      dup2\n        /* \"study/token-airdrop/contracts/Proxy.sol\":2529:2561  sstore(position, _newProxyOwner) */\n      sstore\n        /* \"study/token-airdrop/contracts/Proxy.sol\":2514:2572  {\r... */\n      pop\n        /* \"study/token-airdrop/contracts/Proxy.sol\":2380:2579  function _setUpgradeabilityOwner(address _newProxyOwner) internal {\r... */\n      pop\n      jump\t// out\n        /* \"@openzeppelin/contracts/utils/Context.sol\":640:736  function _msgSender() internal view virtual returns (address) {... */\n    tag_94:\n        /* \"@openzeppelin/contracts/utils/Context.sol\":693:700  address */\n      0x00\n        /* \"@openzeppelin/contracts/utils/Context.sol\":719:729  msg.sender */\n      caller\n        /* \"@openzeppelin/contracts/utils/Context.sol\":712:729  return msg.sender */\n      swap1\n      pop\n        /* \"@openzeppelin/contracts/utils/Context.sol\":640:736  function _msgSender() internal view virtual returns (address) {... */\n      swap1\n      jump\t// out\n        /* \"#utility.yul\":7:146   */\n    tag_103:\n        /* \"#utility.yul\":53:58   */\n      0x00\n        /* \"#utility.yul\":91:97   */\n      dup2\n        /* \"#utility.yul\":78:98   */\n      calldataload\n        /* \"#utility.yul\":69:98   */\n      swap1\n      pop\n        /* \"#utility.yul\":107:140   */\n      tag_105\n        /* \"#utility.yul\":134:139   */\n      dup2\n        /* \"#utility.yul\":107:140   */\n      tag_106\n      jump\t// in\n    tag_105:\n        /* \"#utility.yul\":7:146   */\n      swap3\n      swap2\n      pop\n      pop\n      jump\t// out\n        /* \"#utility.yul\":152:481   */\n    tag_25:\n        /* \"#utility.yul\":211:217   */\n      0x00\n        /* \"#utility.yul\":260:262   */\n      0x20\n        /* \"#utility.yul\":248:257   */\n      dup3\n        /* \"#utility.yul\":239:246   */\n      dup5\n        /* \"#utility.yul\":235:258   */\n      sub\n        /* \"#utility.yul\":231:263   */\n      slt\n        /* \"#utility.yul\":228:347   */\n      iszero\n      tag_108\n      jumpi\n        /* \"#utility.yul\":266:345   */\n      tag_109\n      tag_110\n      jump\t// in\n    tag_109:\n        /* \"#utility.yul\":228:347   */\n    tag_108:\n        /* \"#utility.yul\":386:387   */\n      0x00\n        /* \"#utility.yul\":411:464   */\n      tag_111\n        /* \"#utility.yul\":456:463   */\n      dup5\n        /* \"#utility.yul\":447:453   */\n      dup3\n        /* \"#utility.yul\":436:445   */\n      dup6\n        /* \"#utility.yul\":432:454   */\n      add\n        /* \"#utility.yul\":411:464   */\n      tag_103\n      jump\t// in\n    tag_111:\n        /* \"#utility.yul\":401:464   */\n      swap2\n      pop\n        /* \"#utility.yul\":357:474   */\n      pop\n        /* \"#utility.yul\":152:481   */\n      swap3\n      swap2\n      pop\n      pop\n      jump\t// out\n        /* \"#utility.yul\":487:605   */\n    tag_112:\n        /* \"#utility.yul\":574:598   */\n      tag_114\n        /* \"#utility.yul\":592:597   */\n      dup2\n        /* \"#utility.yul\":574:598   */\n      tag_115\n      jump\t// in\n    tag_114:\n        /* \"#utility.yul\":569:572   */\n      dup3\n        /* \"#utility.yul\":562:599   */\n      mstore\n        /* \"#utility.yul\":487:605   */\n      pop\n      pop\n      jump\t// out\n        /* \"#utility.yul\":611:977   */\n    tag_116:\n        /* \"#utility.yul\":753:756   */\n      0x00\n        /* \"#utility.yul\":774:841   */\n      tag_118\n        /* \"#utility.yul\":838:840   */\n      0x26\n        /* \"#utility.yul\":833:836   */\n      dup4\n        /* \"#utility.yul\":774:841   */\n      tag_119\n      jump\t// in\n    tag_118:\n        /* \"#utility.yul\":767:841   */\n      swap2\n      pop\n        /* \"#utility.yul\":850:943   */\n      tag_120\n        /* \"#utility.yul\":939:942   */\n      dup3\n        /* \"#utility.yul\":850:943   */\n      tag_121\n      jump\t// in\n    tag_120:\n        /* \"#utility.yul\":968:970   */\n      0x40\n        /* \"#utility.yul\":963:966   */\n      dup3\n        /* \"#utility.yul\":959:971   */\n      add\n        /* \"#utility.yul\":952:971   */\n      swap1\n      pop\n        /* \"#utility.yul\":611:977   */\n      swap2\n      swap1\n      pop\n      jump\t// out\n        /* \"#utility.yul\":983:1349   */\n    tag_122:\n        /* \"#utility.yul\":1125:1128   */\n      0x00\n        /* \"#utility.yul\":1146:1213   */\n      tag_124\n        /* \"#utility.yul\":1210:1212   */\n      0x28\n        /* \"#utility.yul\":1205:1208   */\n      dup4\n        /* \"#utility.yul\":1146:1213   */\n      tag_119\n      jump\t// in\n    tag_124:\n        /* \"#utility.yul\":1139:1213   */\n      swap2\n      pop\n        /* \"#utility.yul\":1222:1315   */\n      tag_125\n        /* \"#utility.yul\":1311:1314   */\n      dup3\n        /* \"#utility.yul\":1222:1315   */\n      tag_126\n      jump\t// in\n    tag_125:\n        /* \"#utility.yul\":1340:1342   */\n      0x40\n        /* \"#utility.yul\":1335:1338   */\n      dup3\n        /* \"#utility.yul\":1331:1343   */\n      add\n        /* \"#utility.yul\":1324:1343   */\n      swap1\n      pop\n        /* \"#utility.yul\":983:1349   */\n      swap2\n      swap1\n      pop\n      jump\t// out\n        /* \"#utility.yul\":1355:1721   */\n    tag_127:\n        /* \"#utility.yul\":1497:1500   */\n      0x00\n        /* \"#utility.yul\":1518:1585   */\n      tag_129\n        /* \"#utility.yul\":1582:1584   */\n      0x20\n        /* \"#utility.yul\":1577:1580   */\n      dup4\n        /* \"#utility.yul\":1518:1585   */\n      tag_119\n      jump\t// in\n    tag_129:\n        /* \"#utility.yul\":1511:1585   */\n      swap2\n      pop\n        /* \"#utility.yul\":1594:1687   */\n      tag_130\n        /* \"#utility.yul\":1683:1686   */\n      dup3\n        /* \"#utility.yul\":1594:1687   */\n      tag_131\n      jump\t// in\n    tag_130:\n        /* \"#utility.yul\":1712:1714   */\n      0x20\n        /* \"#utility.yul\":1707:1710   */\n      dup3\n        /* \"#utility.yul\":1703:1715   */\n      add\n        /* \"#utility.yul\":1696:1715   */\n      swap1\n      pop\n        /* \"#utility.yul\":1355:1721   */\n      swap2\n      swap1\n      pop\n      jump\t// out\n        /* \"#utility.yul\":1727:2093   */\n    tag_132:\n        /* \"#utility.yul\":1869:1872   */\n      0x00\n        /* \"#utility.yul\":1890:1957   */\n      tag_134\n        /* \"#utility.yul\":1954:1956   */\n      0x11\n        /* \"#utility.yul\":1949:1952   */\n      dup4\n        /* \"#utility.yul\":1890:1957   */\n      tag_119\n      jump\t// in\n    tag_134:\n        /* \"#utility.yul\":1883:1957   */\n      swap2\n      pop\n        /* \"#utility.yul\":1966:2059   */\n      tag_135\n        /* \"#utility.yul\":2055:2058   */\n      dup3\n        /* \"#utility.yul\":1966:2059   */\n      tag_136\n      jump\t// in\n    tag_135:\n        /* \"#utility.yul\":2084:2086   */\n      0x20\n        /* \"#utility.yul\":2079:2082   */\n      dup3\n        /* \"#utility.yul\":2075:2087   */\n      add\n        /* \"#utility.yul\":2068:2087   */\n      swap1\n      pop\n        /* \"#utility.yul\":1727:2093   */\n      swap2\n      swap1\n      pop\n      jump\t// out\n        /* \"#utility.yul\":2099:2465   */\n    tag_137:\n        /* \"#utility.yul\":2241:2244   */\n      0x00\n        /* \"#utility.yul\":2262:2329   */\n      tag_139\n        /* \"#utility.yul\":2326:2328   */\n      0x29\n        /* \"#utility.yul\":2321:2324   */\n      dup4\n        /* \"#utility.yul\":2262:2329   */\n      tag_119\n      jump\t// in\n    tag_139:\n        /* \"#utility.yul\":2255:2329   */\n      swap2\n      pop\n        /* \"#utility.yul\":2338:2431   */\n      tag_140\n        /* \"#utility.yul\":2427:2430   */\n      dup3\n        /* \"#utility.yul\":2338:2431   */\n      tag_141\n      jump\t// in\n    tag_140:\n        /* \"#utility.yul\":2456:2458   */\n      0x40\n        /* \"#utility.yul\":2451:2454   */\n      dup3\n        /* \"#utility.yul\":2447:2459   */\n      add\n        /* \"#utility.yul\":2440:2459   */\n      swap1\n      pop\n        /* \"#utility.yul\":2099:2465   */\n      swap2\n      swap1\n      pop\n      jump\t// out\n        /* \"#utility.yul\":2471:2693   */\n    tag_21:\n        /* \"#utility.yul\":2564:2568   */\n      0x00\n        /* \"#utility.yul\":2602:2604   */\n      0x20\n        /* \"#utility.yul\":2591:2600   */\n      dup3\n        /* \"#utility.yul\":2587:2605   */\n      add\n        /* \"#utility.yul\":2579:2605   */\n      swap1\n      pop\n        /* \"#utility.yul\":2615:2686   */\n      tag_143\n        /* \"#utility.yul\":2683:2684   */\n      0x00\n        /* \"#utility.yul\":2672:2681   */\n      dup4\n        /* \"#utility.yul\":2668:2685   */\n      add\n        /* \"#utility.yul\":2659:2665   */\n      dup5\n        /* \"#utility.yul\":2615:2686   */\n      tag_112\n      jump\t// in\n    tag_143:\n        /* \"#utility.yul\":2471:2693   */\n      swap3\n      swap2\n      pop\n      pop\n      jump\t// out\n        /* \"#utility.yul\":2699:3118   */\n    tag_89:\n        /* \"#utility.yul\":2865:2869   */\n      0x00\n        /* \"#utility.yul\":2903:2905   */\n      0x20\n        /* \"#utility.yul\":2892:2901   */\n      dup3\n        /* \"#utility.yul\":2888:2906   */\n      add\n        /* \"#utility.yul\":2880:2906   */\n      swap1\n      pop\n        /* \"#utility.yul\":2952:2961   */\n      dup2\n        /* \"#utility.yul\":2946:2950   */\n      dup2\n        /* \"#utility.yul\":2942:2962   */\n      sub\n        /* \"#utility.yul\":2938:2939   */\n      0x00\n        /* \"#utility.yul\":2927:2936   */\n      dup4\n        /* \"#utility.yul\":2923:2940   */\n      add\n        /* \"#utility.yul\":2916:2963   */\n      mstore\n        /* \"#utility.yul\":2980:3111   */\n      tag_145\n        /* \"#utility.yul\":3106:3110   */\n      dup2\n        /* \"#utility.yul\":2980:3111   */\n      tag_116\n      jump\t// in\n    tag_145:\n        /* \"#utility.yul\":2972:3111   */\n      swap1\n      pop\n        /* \"#utility.yul\":2699:3118   */\n      swap2\n      swap1\n      pop\n      jump\t// out\n        /* \"#utility.yul\":3124:3543   */\n    tag_76:\n        /* \"#utility.yul\":3290:3294   */\n      0x00\n        /* \"#utility.yul\":3328:3330   */\n      0x20\n        /* \"#utility.yul\":3317:3326   */\n      dup3\n        /* \"#utility.yul\":3313:3331   */\n      add\n        /* \"#utility.yul\":3305:3331   */\n      swap1\n      pop\n        /* \"#utility.yul\":3377:3386   */\n      dup2\n        /* \"#utility.yul\":3371:3375   */\n      dup2\n        /* \"#utility.yul\":3367:3387   */\n      sub\n        /* \"#utility.yul\":3363:3364   */\n      0x00\n        /* \"#utility.yul\":3352:3361   */\n      dup4\n        /* \"#utility.yul\":3348:3365   */\n      add\n        /* \"#utility.yul\":3341:3388   */\n      mstore\n        /* \"#utility.yul\":3405:3536   */\n      tag_147\n        /* \"#utility.yul\":3531:3535   */\n      dup2\n        /* \"#utility.yul\":3405:3536   */\n      tag_122\n      jump\t// in\n    tag_147:\n        /* \"#utility.yul\":3397:3536   */\n      swap1\n      pop\n        /* \"#utility.yul\":3124:3543   */\n      swap2\n      swap1\n      pop\n      jump\t// out\n        /* \"#utility.yul\":3549:3968   */\n    tag_98:\n        /* \"#utility.yul\":3715:3719   */\n      0x00\n        /* \"#utility.yul\":3753:3755   */\n      0x20\n        /* \"#utility.yul\":3742:3751   */\n      dup3\n        /* \"#utility.yul\":3738:3756   */\n      add\n        /* \"#utility.yul\":3730:3756   */\n      swap1\n      pop\n        /* \"#utility.yul\":3802:3811   */\n      dup2\n        /* \"#utility.yul\":3796:3800   */\n      dup2\n        /* \"#utility.yul\":3792:3812   */\n      sub\n        /* \"#utility.yul\":3788:3789   */\n      0x00\n        /* \"#utility.yul\":3777:3786   */\n      dup4\n        /* \"#utility.yul\":3773:3790   */\n      add\n        /* \"#utility.yul\":3766:3813   */\n      mstore\n        /* \"#utility.yul\":3830:3961   */\n      tag_149\n        /* \"#utility.yul\":3956:3960   */\n      dup2\n        /* \"#utility.yul\":3830:3961   */\n      tag_127\n      jump\t// in\n    tag_149:\n        /* \"#utility.yul\":3822:3961   */\n      swap1\n      pop\n        /* \"#utility.yul\":3549:3968   */\n      swap2\n      swap1\n      pop\n      jump\t// out\n        /* \"#utility.yul\":3974:4393   */\n    tag_50:\n        /* \"#utility.yul\":4140:4144   */\n      0x00\n        /* \"#utility.yul\":4178:4180   */\n      0x20\n        /* \"#utility.yul\":4167:4176   */\n      dup3\n        /* \"#utility.yul\":4163:4181   */\n      add\n        /* \"#utility.yul\":4155:4181   */\n      swap1\n      pop\n        /* \"#utility.yul\":4227:4236   */\n      dup2\n        /* \"#utility.yul\":4221:4225   */\n      dup2\n        /* \"#utility.yul\":4217:4237   */\n      sub\n        /* \"#utility.yul\":4213:4214   */\n      0x00\n        /* \"#utility.yul\":4202:4211   */\n      dup4\n        /* \"#utility.yul\":4198:4215   */\n      add\n        /* \"#utility.yul\":4191:4238   */\n      mstore\n        /* \"#utility.yul\":4255:4386   */\n      tag_151\n        /* \"#utility.yul\":4381:4385   */\n      dup2\n        /* \"#utility.yul\":4255:4386   */\n      tag_132\n      jump\t// in\n    tag_151:\n        /* \"#utility.yul\":4247:4386   */\n      swap1\n      pop\n        /* \"#utility.yul\":3974:4393   */\n      swap2\n      swap1\n      pop\n      jump\t// out\n        /* \"#utility.yul\":4399:4818   */\n    tag_80:\n        /* \"#utility.yul\":4565:4569   */\n      0x00\n        /* \"#utility.yul\":4603:4605   */\n      0x20\n        /* \"#utility.yul\":4592:4601   */\n      dup3\n        /* \"#utility.yul\":4588:4606   */\n      add\n        /* \"#utility.yul\":4580:4606   */\n      swap1\n      pop\n        /* \"#utility.yul\":4652:4661   */\n      dup2\n        /* \"#utility.yul\":4646:4650   */\n      dup2\n        /* \"#utility.yul\":4642:4662   */\n      sub\n        /* \"#utility.yul\":4638:4639   */\n      0x00\n        /* \"#utility.yul\":4627:4636   */\n      dup4\n        /* \"#utility.yul\":4623:4640   */\n      add\n        /* \"#utility.yul\":4616:4663   */\n      mstore\n        /* \"#utility.yul\":4680:4811   */\n      tag_153\n        /* \"#utility.yul\":4806:4810   */\n      dup2\n        /* \"#utility.yul\":4680:4811   */\n      tag_137\n      jump\t// in\n    tag_153:\n        /* \"#utility.yul\":4672:4811   */\n      swap1\n      pop\n        /* \"#utility.yul\":4399:4818   */\n      swap2\n      swap1\n      pop\n      jump\t// out\n        /* \"#utility.yul\":4905:5074   */\n    tag_119:\n        /* \"#utility.yul\":4989:5000   */\n      0x00\n        /* \"#utility.yul\":5023:5029   */\n      dup3\n        /* \"#utility.yul\":5018:5021   */\n      dup3\n        /* \"#utility.yul\":5011:5030   */\n      mstore\n        /* \"#utility.yul\":5063:5067   */\n      0x20\n        /* \"#utility.yul\":5058:5061   */\n      dup3\n        /* \"#utility.yul\":5054:5068   */\n      add\n        /* \"#utility.yul\":5039:5068   */\n      swap1\n      pop\n        /* \"#utility.yul\":4905:5074   */\n      swap3\n      swap2\n      pop\n      pop\n      jump\t// out\n        /* \"#utility.yul\":5080:5176   */\n    tag_115:\n        /* \"#utility.yul\":5117:5124   */\n      0x00\n        /* \"#utility.yul\":5146:5170   */\n      tag_158\n        /* \"#utility.yul\":5164:5169   */\n      dup3\n        /* \"#utility.yul\":5146:5170   */\n      tag_159\n      jump\t// in\n    tag_158:\n        /* \"#utility.yul\":5135:5170   */\n      swap1\n      pop\n        /* \"#utility.yul\":5080:5176   */\n      swap2\n      swap1\n      pop\n      jump\t// out\n        /* \"#utility.yul\":5182:5308   */\n    tag_159:\n        /* \"#utility.yul\":5219:5226   */\n      0x00\n        /* \"#utility.yul\":5259:5301   */\n      0xffffffffffffffffffffffffffffffffffffffff\n        /* \"#utility.yul\":5252:5257   */\n      dup3\n        /* \"#utility.yul\":5248:5302   */\n      and\n        /* \"#utility.yul\":5237:5302   */\n      swap1\n      pop\n        /* \"#utility.yul\":5182:5308   */\n      swap2\n      swap1\n      pop\n      jump\t// out\n        /* \"#utility.yul\":5437:5554   */\n    tag_110:\n        /* \"#utility.yul\":5546:5547   */\n      0x00\n        /* \"#utility.yul\":5543:5544   */\n      dup1\n        /* \"#utility.yul\":5536:5548   */\n      revert\n        /* \"#utility.yul\":5560:5785   */\n    tag_121:\n        /* \"#utility.yul\":5700:5734   */\n      0x4f776e61626c653a206e6577206f776e657220697320746865207a65726f2061\n        /* \"#utility.yul\":5696:5697   */\n      0x00\n        /* \"#utility.yul\":5688:5694   */\n      dup3\n        /* \"#utility.yul\":5684:5698   */\n      add\n        /* \"#utility.yul\":5677:5735   */\n      mstore\n        /* \"#utility.yul\":5769:5777   */\n      0x6464726573730000000000000000000000000000000000000000000000000000\n        /* \"#utility.yul\":5764:5766   */\n      0x20\n        /* \"#utility.yul\":5756:5762   */\n      dup3\n        /* \"#utility.yul\":5752:5767   */\n      add\n        /* \"#utility.yul\":5745:5778   */\n      mstore\n        /* \"#utility.yul\":5560:5785   */\n      pop\n      jump\t// out\n        /* \"#utility.yul\":5791:6018   */\n    tag_126:\n        /* \"#utility.yul\":5931:5965   */\n      0x5472616e736665722070726f7879206f776e65727368697020746f207a65726f\n        /* \"#utility.yul\":5927:5928   */\n      0x00\n        /* \"#utility.yul\":5919:5925   */\n      dup3\n        /* \"#utility.yul\":5915:5929   */\n      add\n        /* \"#utility.yul\":5908:5966   */\n      mstore\n        /* \"#utility.yul\":6000:6010   */\n      0x2061646472657373000000000000000000000000000000000000000000000000\n        /* \"#utility.yul\":5995:5997   */\n      0x20\n        /* \"#utility.yul\":5987:5993   */\n      dup3\n        /* \"#utility.yul\":5983:5998   */\n      add\n        /* \"#utility.yul\":5976:6011   */\n      mstore\n        /* \"#utility.yul\":5791:6018   */\n      pop\n      jump\t// out\n        /* \"#utility.yul\":6024:6206   */\n    tag_131:\n        /* \"#utility.yul\":6164:6198   */\n      0x4f776e61626c653a2063616c6c6572206973206e6f7420746865206f776e6572\n        /* \"#utility.yul\":6160:6161   */\n      0x00\n        /* \"#utility.yul\":6152:6158   */\n      dup3\n        /* \"#utility.yul\":6148:6162   */\n      add\n        /* \"#utility.yul\":6141:6199   */\n      mstore\n        /* \"#utility.yul\":6024:6206   */\n      pop\n      jump\t// out\n        /* \"#utility.yul\":6212:6379   */\n    tag_136:\n        /* \"#utility.yul\":6352:6371   */\n      0x496d706c20616464726573732069732030000000000000000000000000000000\n        /* \"#utility.yul\":6348:6349   */\n      0x00\n        /* \"#utility.yul\":6340:6346   */\n      dup3\n        /* \"#utility.yul\":6336:6350   */\n      add\n        /* \"#utility.yul\":6329:6372   */\n      mstore\n        /* \"#utility.yul\":6212:6379   */\n      pop\n      jump\t// out\n        /* \"#utility.yul\":6385:6613   */\n    tag_141:\n        /* \"#utility.yul\":6525:6559   */\n      0x5472616e736665722070726f7879206f776e65727368697020746f2063757272\n        /* \"#utility.yul\":6521:6522   */\n      0x00\n        /* \"#utility.yul\":6513:6519   */\n      dup3\n        /* \"#utility.yul\":6509:6523   */\n      add\n        /* \"#utility.yul\":6502:6560   */\n      mstore\n        /* \"#utility.yul\":6594:6605   */\n      0x656e74206f776e65720000000000000000000000000000000000000000000000\n        /* \"#utility.yul\":6589:6591   */\n      0x20\n        /* \"#utility.yul\":6581:6587   */\n      dup3\n        /* \"#utility.yul\":6577:6592   */\n      add\n        /* \"#utility.yul\":6570:6606   */\n      mstore\n        /* \"#utility.yul\":6385:6613   */\n      pop\n      jump\t// out\n        /* \"#utility.yul\":6619:6741   */\n    tag_106:\n        /* \"#utility.yul\":6692:6716   */\n      tag_170\n        /* \"#utility.yul\":6710:6715   */\n      dup2\n        /* \"#utility.yul\":6692:6716   */\n      tag_115\n      jump\t// in\n    tag_170:\n        /* \"#utility.yul\":6685:6690   */\n      dup2\n        /* \"#utility.yul\":6682:6717   */\n      eq\n        /* \"#utility.yul\":6672:6735   */\n      tag_171\n      jumpi\n        /* \"#utility.yul\":6731:6732   */\n      0x00\n        /* \"#utility.yul\":6728:6729   */\n      dup1\n        /* \"#utility.yul\":6721:6733   */\n      revert\n        /* \"#utility.yul\":6672:6735   */\n    tag_171:\n        /* \"#utility.yul\":6619:6741   */\n      pop\n      jump\t// out\n\n    auxdata: 0xa26469706673582212200cbe86e8ca8ef968eca70a61b4a4354b17c5e4bfb7d974a193bac3456fe0f4f264736f6c63430008070033\n}\n",
				"bytecode": {
					"linkReferences": {},
					"object": "608060405234801561001057600080fd5b5061002d61002261004160201b60201c565b61004960201b60201c565b61003c3361010d60201b60201c565b610139565b600033905090565b60008060009054906101000a900473ffffffffffffffffffffffffffffffffffffffff169050816000806101000a81548173ffffffffffffffffffffffffffffffffffffffff021916908373ffffffffffffffffffffffffffffffffffffffff1602179055508173ffffffffffffffffffffffffffffffffffffffff168173ffffffffffffffffffffffffffffffffffffffff167f8be0079c531659141344cd1fd0a4f28419497f9722a3daafe3b4186f6b6457e060405160405180910390a35050565b60007f602d78baa5535dcda7f8b79e40e6339e355543a4727add9270060248e9f4191290508181555050565b610af3806101486000396000f3fe6080604052600436106100745760003560e01c8063715018a61161004e578063715018a6146101045780638da5cb5b1461011b578063f1739cae14610146578063f2fde38b1461016f5761007b565b8063025313a2146100855780633659cfe6146100b05780635c60da1b146100d95761007b565b3661007b57005b610083610198565b005b34801561009157600080fd5b5061009a61023f565b6040516100a79190610864565b60405180910390f35b3480156100bc57600080fd5b506100d760048036038101906100d29190610779565b61026d565b005b3480156100e557600080fd5b506100ee610341565b6040516100fb9190610864565b60405180910390f35b34801561011057600080fd5b5061011961036f565b005b34801561012757600080fd5b50610130610383565b60405161013d9190610864565b60405180910390f35b34801561015257600080fd5b5061016d60048036038101906101689190610779565b6103ac565b005b34801561017b57600080fd5b5061019660048036038101906101919190610779565b61053e565b005b60006101a2610341565b9050600073ffffffffffffffffffffffffffffffffffffffff168173ffffffffffffffffffffffffffffffffffffffff161415610214576040517f08c379a000000000000000000000000000000000000000000000000000000000815260040161020b906108df565b60405180910390fd5b60405136600082376000803683856127105a03f43d806000843e816000811461023b578184f35b8184fd5b6000807f602d78baa5535dcda7f8b79e40e6339e355543a4727add9270060248e9f419129050805491505090565b61027561023f565b73ffffffffffffffffffffffffffffffffffffffff163373ffffffffffffffffffffffffffffffffffffffff16146102ac57600080fd5b60006102b6610341565b90508173ffffffffffffffffffffffffffffffffffffffff168173ffffffffffffffffffffffffffffffffffffffff1614156102f157600080fd5b6102fa826105c2565b8173ffffffffffffffffffffffffffffffffffffffff167fbc7cd75a20ee27fd9adebab32041f755214dbc6bffa90cc0225b39da2e5c2d3b60405160405180910390a25050565b6000807f491fa9ff5dd08277a905cf36956e3786a257e6dfd0023908066c75c4559f86af9050805491505090565b6103776105ee565b610381600061066c565b565b60008060009054906101000a900473ffffffffffffffffffffffffffffffffffffffff16905090565b6103b461023f565b73ffffffffffffffffffffffffffffffffffffffff163373ffffffffffffffffffffffffffffffffffffffff16146103eb57600080fd5b600073ffffffffffffffffffffffffffffffffffffffff168173ffffffffffffffffffffffffffffffffffffffff16141561045b576040517f08c379a00000000000000000000000000000000000000000000000000000000081526004016104529061089f565b60405180910390fd5b61046361023f565b73ffffffffffffffffffffffffffffffffffffffff168173ffffffffffffffffffffffffffffffffffffffff1614156104d1576040517f08c379a00000000000000000000000000000000000000000000000000000000081526004016104c8906108ff565b60405180910390fd5b8073ffffffffffffffffffffffffffffffffffffffff166104f061023f565b73ffffffffffffffffffffffffffffffffffffffff167f5a3e66efaa1e445ebd894728a69d6959842ea1e97bd79b892797106e270efcd960405160405180910390a361053b81610730565b50565b6105466105ee565b600073ffffffffffffffffffffffffffffffffffffffff168173ffffffffffffffffffffffffffffffffffffffff1614156105b6576040517f08c379a00000000000000000000000000000000000000000000000000000000081526004016105ad9061087f565b60405180910390fd5b6105bf8161066c565b50565b60007f491fa9ff5dd08277a905cf36956e3786a257e6dfd0023908066c75c4559f86af90508181555050565b6105f661075c565b73ffffffffffffffffffffffffffffffffffffffff16610614610383565b73ffffffffffffffffffffffffffffffffffffffff161461066a576040517f08c379a0000000000000000000000000000000000000000000000000000000008152600401610661906108bf565b60405180910390fd5b565b60008060009054906101000a900473ffffffffffffffffffffffffffffffffffffffff169050816000806101000a81548173ffffffffffffffffffffffffffffffffffffffff021916908373ffffffffffffffffffffffffffffffffffffffff1602179055508173ffffffffffffffffffffffffffffffffffffffff168173ffffffffffffffffffffffffffffffffffffffff167f8be0079c531659141344cd1fd0a4f28419497f9722a3daafe3b4186f6b6457e060405160405180910390a35050565b60007f602d78baa5535dcda7f8b79e40e6339e355543a4727add9270060248e9f4191290508181555050565b600033905090565b60008135905061077381610aa6565b92915050565b60006020828403121561078f5761078e610962565b5b600061079d84828501610764565b91505092915050565b6107af81610930565b82525050565b60006107c260268361091f565b91506107cd82610967565b604082019050919050565b60006107e560288361091f565b91506107f0826109b6565b604082019050919050565b600061080860208361091f565b915061081382610a05565b602082019050919050565b600061082b60118361091f565b915061083682610a2e565b602082019050919050565b600061084e60298361091f565b915061085982610a57565b604082019050919050565b600060208201905061087960008301846107a6565b92915050565b60006020820190508181036000830152610898816107b5565b9050919050565b600060208201905081810360008301526108b8816107d8565b9050919050565b600060208201905081810360008301526108d8816107fb565b9050919050565b600060208201905081810360008301526108f88161081e565b9050919050565b6000602082019050818103600083015261091881610841565b9050919050565b600082825260208201905092915050565b600061093b82610942565b9050919050565b600073ffffffffffffffffffffffffffffffffffffffff82169050919050565b600080fd5b7f4f776e61626c653a206e6577206f776e657220697320746865207a65726f206160008201527f6464726573730000000000000000000000000000000000000000000000000000602082015250565b7f5472616e736665722070726f7879206f776e65727368697020746f207a65726f60008201527f2061646472657373000000000000000000000000000000000000000000000000602082015250565b7f4f776e61626c653a2063616c6c6572206973206e6f7420746865206f776e6572600082015250565b7f496d706c20616464726573732069732030000000000000000000000000000000600082015250565b7f5472616e736665722070726f7879206f776e65727368697020746f206375727260008201527f656e74206f776e65720000000000000000000000000000000000000000000000602082015250565b610aaf81610930565b8114610aba57600080fd5b5056fea26469706673582212200cbe86e8ca8ef968eca70a61b4a4354b17c5e4bfb7d974a193bac3456fe0f4f264736f6c63430008070033",
					"opcodes": "PUSH1 0x80 PUSH1 0x40 MSTORE CALLVALUE DUP1 ISZERO PUSH2 0x10 JUMPI PUSH1 0x0 DUP1 REVERT JUMPDEST POP PUSH2 0x2D PUSH2 0x22 PUSH2 0x41 PUSH1 0x20 SHL PUSH1 0x20 SHR JUMP JUMPDEST PUSH2 0x49 PUSH1 0x20 SHL PUSH1 0x20 SHR JUMP JUMPDEST PUSH2 0x3C CALLER PUSH2 0x10D PUSH1 0x20 SHL PUSH1 0x20 SHR JUMP JUMPDEST PUSH2 0x139 JUMP JUMPDEST PUSH1 0x0 CALLER SWAP1 POP SWAP1 JUMP JUMPDEST PUSH1 0x0 DUP1 PUSH1 0x0 SWAP1 SLOAD SWAP1 PUSH2 0x100 EXP SWAP1 DIV PUSH20 0xFFFFFFFFFFFFFFFFFFFFFFFFFFFFFFFFFFFFFFFF AND SWAP1 POP DUP2 PUSH1 0x0 DUP1 PUSH2 0x100 EXP DUP2 SLOAD DUP2 PUSH20 0xFFFFFFFFFFFFFFFFFFFFFFFFFFFFFFFFFFFFFFFF MUL NOT AND SWAP1 DUP4 PUSH20 0xFFFFFFFFFFFFFFFFFFFFFFFFFFFFFFFFFFFFFFFF AND MUL OR SWAP1 SSTORE POP DUP2 PUSH20 0xFFFFFFFFFFFFFFFFFFFFFFFFFFFFFFFFFFFFFFFF AND DUP2 PUSH20 0xFFFFFFFFFFFFFFFFFFFFFFFFFFFFFFFFFFFFFFFF AND PUSH32 0x8BE0079C531659141344CD1FD0A4F28419497F9722A3DAAFE3B4186F6B6457E0 PUSH1 0x40 MLOAD PUSH1 0x40 MLOAD DUP1 SWAP2 SUB SWAP1 LOG3 POP POP JUMP JUMPDEST PUSH1 0x0 PUSH32 0x602D78BAA5535DCDA7F8B79E40E6339E355543A4727ADD9270060248E9F41912 SWAP1 POP DUP2 DUP2 SSTORE POP POP JUMP JUMPDEST PUSH2 0xAF3 DUP1 PUSH2 0x148 PUSH1 0x0 CODECOPY PUSH1 0x0 RETURN INVALID PUSH1 0x80 PUSH1 0x40 MSTORE PUSH1 0x4 CALLDATASIZE LT PUSH2 0x74 JUMPI PUSH1 0x0 CALLDATALOAD PUSH1 0xE0 SHR DUP1 PUSH4 0x715018A6 GT PUSH2 0x4E JUMPI DUP1 PUSH4 0x715018A6 EQ PUSH2 0x104 JUMPI DUP1 PUSH4 0x8DA5CB5B EQ PUSH2 0x11B JUMPI DUP1 PUSH4 0xF1739CAE EQ PUSH2 0x146 JUMPI DUP1 PUSH4 0xF2FDE38B EQ PUSH2 0x16F JUMPI PUSH2 0x7B JUMP JUMPDEST DUP1 PUSH4 0x25313A2 EQ PUSH2 0x85 JUMPI DUP1 PUSH4 0x3659CFE6 EQ PUSH2 0xB0 JUMPI DUP1 PUSH4 0x5C60DA1B EQ PUSH2 0xD9 JUMPI PUSH2 0x7B JUMP JUMPDEST CALLDATASIZE PUSH2 0x7B JUMPI STOP JUMPDEST PUSH2 0x83 PUSH2 0x198 JUMP JUMPDEST STOP JUMPDEST CALLVALUE DUP1 ISZERO PUSH2 0x91 JUMPI PUSH1 0x0 DUP1 REVERT JUMPDEST POP PUSH2 0x9A PUSH2 0x23F JUMP JUMPDEST PUSH1 0x40 MLOAD PUSH2 0xA7 SWAP2 SWAP1 PUSH2 0x864 JUMP JUMPDEST PUSH1 0x40 MLOAD DUP1 SWAP2 SUB SWAP1 RETURN JUMPDEST CALLVALUE DUP1 ISZERO PUSH2 0xBC JUMPI PUSH1 0x0 DUP1 REVERT JUMPDEST POP PUSH2 0xD7 PUSH1 0x4 DUP1 CALLDATASIZE SUB DUP2 ADD SWAP1 PUSH2 0xD2 SWAP2 SWAP1 PUSH2 0x779 JUMP JUMPDEST PUSH2 0x26D JUMP JUMPDEST STOP JUMPDEST CALLVALUE DUP1 ISZERO PUSH2 0xE5 JUMPI PUSH1 0x0 DUP1 REVERT JUMPDEST POP PUSH2 0xEE PUSH2 0x341 JUMP JUMPDEST PUSH1 0x40 MLOAD PUSH2 0xFB SWAP2 SWAP1 PUSH2 0x864 JUMP JUMPDEST PUSH1 0x40 MLOAD DUP1 SWAP2 SUB SWAP1 RETURN JUMPDEST CALLVALUE DUP1 ISZERO PUSH2 0x110 JUMPI PUSH1 0x0 DUP1 REVERT JUMPDEST POP PUSH2 0x119 PUSH2 0x36F JUMP JUMPDEST STOP JUMPDEST CALLVALUE DUP1 ISZERO PUSH2 0x127 JUMPI PUSH1 0x0 DUP1 REVERT JUMPDEST POP PUSH2 0x130 PUSH2 0x383 JUMP JUMPDEST PUSH1 0x40 MLOAD PUSH2 0x13D SWAP2 SWAP1 PUSH2 0x864 JUMP JUMPDEST PUSH1 0x40 MLOAD DUP1 SWAP2 SUB SWAP1 RETURN JUMPDEST CALLVALUE DUP1 ISZERO PUSH2 0x152 JUMPI PUSH1 0x0 DUP1 REVERT JUMPDEST POP PUSH2 0x16D PUSH1 0x4 DUP1 CALLDATASIZE SUB DUP2 ADD SWAP1 PUSH2 0x168 SWAP2 SWAP1 PUSH2 0x779 JUMP JUMPDEST PUSH2 0x3AC JUMP JUMPDEST STOP JUMPDEST CALLVALUE DUP1 ISZERO PUSH2 0x17B JUMPI PUSH1 0x0 DUP1 REVERT JUMPDEST POP PUSH2 0x196 PUSH1 0x4 DUP1 CALLDATASIZE SUB DUP2 ADD SWAP1 PUSH2 0x191 SWAP2 SWAP1 PUSH2 0x779 JUMP JUMPDEST PUSH2 0x53E JUMP JUMPDEST STOP JUMPDEST PUSH1 0x0 PUSH2 0x1A2 PUSH2 0x341 JUMP JUMPDEST SWAP1 POP PUSH1 0x0 PUSH20 0xFFFFFFFFFFFFFFFFFFFFFFFFFFFFFFFFFFFFFFFF AND DUP2 PUSH20 0xFFFFFFFFFFFFFFFFFFFFFFFFFFFFFFFFFFFFFFFF AND EQ ISZERO PUSH2 0x214 JUMPI PUSH1 0x40 MLOAD PUSH32 0x8C379A000000000000000000000000000000000000000000000000000000000 DUP2 MSTORE PUSH1 0x4 ADD PUSH2 0x20B SWAP1 PUSH2 0x8DF JUMP JUMPDEST PUSH1 0x40 MLOAD DUP1 SWAP2 SUB SWAP1 REVERT JUMPDEST PUSH1 0x40 MLOAD CALLDATASIZE PUSH1 0x0 DUP3 CALLDATACOPY PUSH1 0x0 DUP1 CALLDATASIZE DUP4 DUP6 PUSH2 0x2710 GAS SUB DELEGATECALL RETURNDATASIZE DUP1 PUSH1 0x0 DUP5 RETURNDATACOPY DUP2 PUSH1 0x0 DUP2 EQ PUSH2 0x23B JUMPI DUP2 DUP5 RETURN JUMPDEST DUP2 DUP5 REVERT JUMPDEST PUSH1 0x0 DUP1 PUSH32 0x602D78BAA5535DCDA7F8B79E40E6339E355543A4727ADD9270060248E9F41912 SWAP1 POP DUP1 SLOAD SWAP2 POP POP SWAP1 JUMP JUMPDEST PUSH2 0x275 PUSH2 0x23F JUMP JUMPDEST PUSH20 0xFFFFFFFFFFFFFFFFFFFFFFFFFFFFFFFFFFFFFFFF AND CALLER PUSH20 0xFFFFFFFFFFFFFFFFFFFFFFFFFFFFFFFFFFFFFFFF AND EQ PUSH2 0x2AC JUMPI PUSH1 0x0 DUP1 REVERT JUMPDEST PUSH1 0x0 PUSH2 0x2B6 PUSH2 0x341 JUMP JUMPDEST SWAP1 POP DUP2 PUSH20 0xFFFFFFFFFFFFFFFFFFFFFFFFFFFFFFFFFFFFFFFF AND DUP2 PUSH20 0xFFFFFFFFFFFFFFFFFFFFFFFFFFFFFFFFFFFFFFFF AND EQ ISZERO PUSH2 0x2F1 JUMPI PUSH1 0x0 DUP1 REVERT JUMPDEST PUSH2 0x2FA DUP3 PUSH2 0x5C2 JUMP JUMPDEST DUP2 PUSH20 0xFFFFFFFFFFFFFFFFFFFFFFFFFFFFFFFFFFFFFFFF AND PUSH32 0xBC7CD75A20EE27FD9ADEBAB32041F755214DBC6BFFA90CC0225B39DA2E5C2D3B PUSH1 0x40 MLOAD PUSH1 0x40 MLOAD DUP1 SWAP2 SUB SWAP1 LOG2 POP POP JUMP JUMPDEST PUSH1 0x0 DUP1 PUSH32 0x491FA9FF5DD08277A905CF36956E3786A257E6DFD0023908066C75C4559F86AF SWAP1 POP DUP1 SLOAD SWAP2 POP POP SWAP1 JUMP JUMPDEST PUSH2 0x377 PUSH2 0x5EE JUMP JUMPDEST PUSH2 0x381 PUSH1 0x0 PUSH2 0x66C JUMP JUMPDEST JUMP JUMPDEST PUSH1 0x0 DUP1 PUSH1 0x0 SWAP1 SLOAD SWAP1 PUSH2 0x100 EXP SWAP1 DIV PUSH20 0xFFFFFFFFFFFFFFFFFFFFFFFFFFFFFFFFFFFFFFFF AND SWAP1 POP SWAP1 JUMP JUMPDEST PUSH2 0x3B4 PUSH2 0x23F JUMP JUMPDEST PUSH20 0xFFFFFFFFFFFFFFFFFFFFFFFFFFFFFFFFFFFFFFFF AND CALLER PUSH20 0xFFFFFFFFFFFFFFFFFFFFFFFFFFFFFFFFFFFFFFFF AND EQ PUSH2 0x3EB JUMPI PUSH1 0x0 DUP1 REVERT JUMPDEST PUSH1 0x0 PUSH20 0xFFFFFFFFFFFFFFFFFFFFFFFFFFFFFFFFFFFFFFFF AND DUP2 PUSH20 0xFFFFFFFFFFFFFFFFFFFFFFFFFFFFFFFFFFFFFFFF AND EQ ISZERO PUSH2 0x45B JUMPI PUSH1 0x40 MLOAD PUSH32 0x8C379A000000000000000000000000000000000000000000000000000000000 DUP2 MSTORE PUSH1 0x4 ADD PUSH2 0x452 SWAP1 PUSH2 0x89F JUMP JUMPDEST PUSH1 0x40 MLOAD DUP1 SWAP2 SUB SWAP1 REVERT JUMPDEST PUSH2 0x463 PUSH2 0x23F JUMP JUMPDEST PUSH20 0xFFFFFFFFFFFFFFFFFFFFFFFFFFFFFFFFFFFFFFFF AND DUP2 PUSH20 0xFFFFFFFFFFFFFFFFFFFFFFFFFFFFFFFFFFFFFFFF AND EQ ISZERO PUSH2 0x4D1 JUMPI PUSH1 0x40 MLOAD PUSH32 0x8C379A000000000000000000000000000000000000000000000000000000000 DUP2 MSTORE PUSH1 0x4 ADD PUSH2 0x4C8 SWAP1 PUSH2 0x8FF JUMP JUMPDEST PUSH1 0x40 MLOAD DUP1 SWAP2 SUB SWAP1 REVERT JUMPDEST DUP1 PUSH20 0xFFFFFFFFFFFFFFFFFFFFFFFFFFFFFFFFFFFFFFFF AND PUSH2 0x4F0 PUSH2 0x23F JUMP JUMPDEST PUSH20 0xFFFFFFFFFFFFFFFFFFFFFFFFFFFFFFFFFFFFFFFF AND PUSH32 0x5A3E66EFAA1E445EBD894728A69D6959842EA1E97BD79B892797106E270EFCD9 PUSH1 0x40 MLOAD PUSH1 0x40 MLOAD DUP1 SWAP2 SUB SWAP1 LOG3 PUSH2 0x53B DUP2 PUSH2 0x730 JUMP JUMPDEST POP JUMP JUMPDEST PUSH2 0x546 PUSH2 0x5EE JUMP JUMPDEST PUSH1 0x0 PUSH20 0xFFFFFFFFFFFFFFFFFFFFFFFFFFFFFFFFFFFFFFFF AND DUP2 PUSH20 0xFFFFFFFFFFFFFFFFFFFFFFFFFFFFFFFFFFFFFFFF AND EQ ISZERO PUSH2 0x5B6 JUMPI PUSH1 0x40 MLOAD PUSH32 0x8C379A000000000000000000000000000000000000000000000000000000000 DUP2 MSTORE PUSH1 0x4 ADD PUSH2 0x5AD SWAP1 PUSH2 0x87F JUMP JUMPDEST PUSH1 0x40 MLOAD DUP1 SWAP2 SUB SWAP1 REVERT JUMPDEST PUSH2 0x5BF DUP2 PUSH2 0x66C JUMP JUMPDEST POP JUMP JUMPDEST PUSH1 0x0 PUSH32 0x491FA9FF5DD08277A905CF36956E3786A257E6DFD0023908066C75C4559F86AF SWAP1 POP DUP2 DUP2 SSTORE POP POP JUMP JUMPDEST PUSH2 0x5F6 PUSH2 0x75C JUMP JUMPDEST PUSH20 0xFFFFFFFFFFFFFFFFFFFFFFFFFFFFFFFFFFFFFFFF AND PUSH2 0x614 PUSH2 0x383 JUMP JUMPDEST PUSH20 0xFFFFFFFFFFFFFFFFFFFFFFFFFFFFFFFFFFFFFFFF AND EQ PUSH2 0x66A JUMPI PUSH1 0x40 MLOAD PUSH32 0x8C379A000000000000000000000000000000000000000000000000000000000 DUP2 MSTORE PUSH1 0x4 ADD PUSH2 0x661 SWAP1 PUSH2 0x8BF JUMP JUMPDEST PUSH1 0x40 MLOAD DUP1 SWAP2 SUB SWAP1 REVERT JUMPDEST JUMP JUMPDEST PUSH1 0x0 DUP1 PUSH1 0x0 SWAP1 SLOAD SWAP1 PUSH2 0x100 EXP SWAP1 DIV PUSH20 0xFFFFFFFFFFFFFFFFFFFFFFFFFFFFFFFFFFFFFFFF AND SWAP1 POP DUP2 PUSH1 0x0 DUP1 PUSH2 0x100 EXP DUP2 SLOAD DUP2 PUSH20 0xFFFFFFFFFFFFFFFFFFFFFFFFFFFFFFFFFFFFFFFF MUL NOT AND SWAP1 DUP4 PUSH20 0xFFFFFFFFFFFFFFFFFFFFFFFFFFFFFFFFFFFFFFFF AND MUL OR SWAP1 SSTORE POP DUP2 PUSH20 0xFFFFFFFFFFFFFFFFFFFFFFFFFFFFFFFFFFFFFFFF AND DUP2 PUSH20 0xFFFFFFFFFFFFFFFFFFFFFFFFFFFFFFFFFFFFFFFF AND PUSH32 0x8BE0079C531659141344CD1FD0A4F28419497F9722A3DAAFE3B4186F6B6457E0 PUSH1 0x40 MLOAD PUSH1 0x40 MLOAD DUP1 SWAP2 SUB SWAP1 LOG3 POP POP JUMP JUMPDEST PUSH1 0x0 PUSH32 0x602D78BAA5535DCDA7F8B79E40E6339E355543A4727ADD9270060248E9F41912 SWAP1 POP DUP2 DUP2 SSTORE POP POP JUMP JUMPDEST PUSH1 0x0 CALLER SWAP1 POP SWAP1 JUMP JUMPDEST PUSH1 0x0 DUP2 CALLDATALOAD SWAP1 POP PUSH2 0x773 DUP2 PUSH2 0xAA6 JUMP JUMPDEST SWAP3 SWAP2 POP POP JUMP JUMPDEST PUSH1 0x0 PUSH1 0x20 DUP3 DUP5 SUB SLT ISZERO PUSH2 0x78F JUMPI PUSH2 0x78E PUSH2 0x962 JUMP JUMPDEST JUMPDEST PUSH1 0x0 PUSH2 0x79D DUP5 DUP3 DUP6 ADD PUSH2 0x764 JUMP JUMPDEST SWAP2 POP POP SWAP3 SWAP2 POP POP JUMP JUMPDEST PUSH2 0x7AF DUP2 PUSH2 0x930 JUMP JUMPDEST DUP3 MSTORE POP POP JUMP JUMPDEST PUSH1 0x0 PUSH2 0x7C2 PUSH1 0x26 DUP4 PUSH2 0x91F JUMP JUMPDEST SWAP2 POP PUSH2 0x7CD DUP3 PUSH2 0x967 JUMP JUMPDEST PUSH1 0x40 DUP3 ADD SWAP1 POP SWAP2 SWAP1 POP JUMP JUMPDEST PUSH1 0x0 PUSH2 0x7E5 PUSH1 0x28 DUP4 PUSH2 0x91F JUMP JUMPDEST SWAP2 POP PUSH2 0x7F0 DUP3 PUSH2 0x9B6 JUMP JUMPDEST PUSH1 0x40 DUP3 ADD SWAP1 POP SWAP2 SWAP1 POP JUMP JUMPDEST PUSH1 0x0 PUSH2 0x808 PUSH1 0x20 DUP4 PUSH2 0x91F JUMP JUMPDEST SWAP2 POP PUSH2 0x813 DUP3 PUSH2 0xA05 JUMP JUMPDEST PUSH1 0x20 DUP3 ADD SWAP1 POP SWAP2 SWAP1 POP JUMP JUMPDEST PUSH1 0x0 PUSH2 0x82B PUSH1 0x11 DUP4 PUSH2 0x91F JUMP JUMPDEST SWAP2 POP PUSH2 0x836 DUP3 PUSH2 0xA2E JUMP JUMPDEST PUSH1 0x20 DUP3 ADD SWAP1 POP SWAP2 SWAP1 POP JUMP JUMPDEST PUSH1 0x0 PUSH2 0x84E PUSH1 0x29 DUP4 PUSH2 0x91F JUMP JUMPDEST SWAP2 POP PUSH2 0x859 DUP3 PUSH2 0xA57 JUMP JUMPDEST PUSH1 0x40 DUP3 ADD SWAP1 POP SWAP2 SWAP1 POP JUMP JUMPDEST PUSH1 0x0 PUSH1 0x20 DUP3 ADD SWAP1 POP PUSH2 0x879 PUSH1 0x0 DUP4 ADD DUP5 PUSH2 0x7A6 JUMP JUMPDEST SWAP3 SWAP2 POP POP JUMP JUMPDEST PUSH1 0x0 PUSH1 0x20 DUP3 ADD SWAP1 POP DUP2 DUP2 SUB PUSH1 0x0 DUP4 ADD MSTORE PUSH2 0x898 DUP2 PUSH2 0x7B5 JUMP JUMPDEST SWAP1 POP SWAP2 SWAP1 POP JUMP JUMPDEST PUSH1 0x0 PUSH1 0x20 DUP3 ADD SWAP1 POP DUP2 DUP2 SUB PUSH1 0x0 DUP4 ADD MSTORE PUSH2 0x8B8 DUP2 PUSH2 0x7D8 JUMP JUMPDEST SWAP1 POP SWAP2 SWAP1 POP JUMP JUMPDEST PUSH1 0x0 PUSH1 0x20 DUP3 ADD SWAP1 POP DUP2 DUP2 SUB PUSH1 0x0 DUP4 ADD MSTORE PUSH2 0x8D8 DUP2 PUSH2 0x7FB JUMP JUMPDEST SWAP1 POP SWAP2 SWAP1 POP JUMP JUMPDEST PUSH1 0x0 PUSH1 0x20 DUP3 ADD SWAP1 POP DUP2 DUP2 SUB PUSH1 0x0 DUP4 ADD MSTORE PUSH2 0x8F8 DUP2 PUSH2 0x81E JUMP JUMPDEST SWAP1 POP SWAP2 SWAP1 POP JUMP JUMPDEST PUSH1 0x0 PUSH1 0x20 DUP3 ADD SWAP1 POP DUP2 DUP2 SUB PUSH1 0x0 DUP4 ADD MSTORE PUSH2 0x918 DUP2 PUSH2 0x841 JUMP JUMPDEST SWAP1 POP SWAP2 SWAP1 POP JUMP JUMPDEST PUSH1 0x0 DUP3 DUP3 MSTORE PUSH1 0x20 DUP3 ADD SWAP1 POP SWAP3 SWAP2 POP POP JUMP JUMPDEST PUSH1 0x0 PUSH2 0x93B DUP3 PUSH2 0x942 JUMP JUMPDEST SWAP1 POP SWAP2 SWAP1 POP JUMP JUMPDEST PUSH1 0x0 PUSH20 0xFFFFFFFFFFFFFFFFFFFFFFFFFFFFFFFFFFFFFFFF DUP3 AND SWAP1 POP SWAP2 SWAP1 POP JUMP JUMPDEST PUSH1 0x0 DUP1 REVERT JUMPDEST PUSH32 0x4F776E61626C653A206E6577206F776E657220697320746865207A65726F2061 PUSH1 0x0 DUP3 ADD MSTORE PUSH32 0x6464726573730000000000000000000000000000000000000000000000000000 PUSH1 0x20 DUP3 ADD MSTORE POP JUMP JUMPDEST PUSH32 0x5472616E736665722070726F7879206F776E65727368697020746F207A65726F PUSH1 0x0 DUP3 ADD MSTORE PUSH32 0x2061646472657373000000000000000000000000000000000000000000000000 PUSH1 0x20 DUP3 ADD MSTORE POP JUMP JUMPDEST PUSH32 0x4F776E61626C653A2063616C6C6572206973206E6F7420746865206F776E6572 PUSH1 0x0 DUP3 ADD MSTORE POP JUMP JUMPDEST PUSH32 0x496D706C20616464726573732069732030000000000000000000000000000000 PUSH1 0x0 DUP3 ADD MSTORE POP JUMP JUMPDEST PUSH32 0x5472616E736665722070726F7879206F776E65727368697020746F2063757272 PUSH1 0x0 DUP3 ADD MSTORE PUSH32 0x656E74206F776E65720000000000000000000000000000000000000000000000 PUSH1 0x20 DUP3 ADD MSTORE POP JUMP JUMPDEST PUSH2 0xAAF DUP2 PUSH2 0x930 JUMP JUMPDEST DUP2 EQ PUSH2 0xABA JUMPI PUSH1 0x0 DUP1 REVERT JUMPDEST POP JUMP INVALID LOG2 PUSH5 0x6970667358 0x22 SLT KECCAK256 0xC 0xBE DUP7 0xE8 0xCA DUP15 0xF9 PUSH9 0xECA70A61B4A4354B17 0xC5 0xE4 0xBF 0xB7 0xD9 PUSH21 0xA193BAC3456FE0F4F264736F6C6343000807003300 "
				},
				"gasEstimates": {
					"creation": {
						"codeDepositCost": "560600",
						"executionCost": "infinite",
						"totalCost": "infinite"
					},
					"external": {
						"": "infinite",
						"implementation()": "2544",
						"owner()": "2544",
						"proxyOwner()": "2500",
						"renounceOwnership()": "30398",
						"transferOwnership(address)": "30813",
						"transferProxyOwnership(address)": "infinite",
						"upgradeTo(address)": "28168"
					},
					"internal": {
						"_delegatecall()": "infinite",
						"_setImplementation(address)": "22130",
						"_setUpgradeabilityOwner(address)": "22130"
					}
				},
				"methodIdentifiers": {
					"implementation()": "5c60da1b",
					"owner()": "8da5cb5b",
					"proxyOwner()": "025313a2",
					"renounceOwnership()": "715018a6",
					"transferOwnership(address)": "f2fde38b",
					"transferProxyOwnership(address)": "f1739cae",
					"upgradeTo(address)": "3659cfe6"
				}
			},
			"storageLayout": {
				"storage": [
					{
						"astId": 7,
						"contract": "study/token-airdrop/contracts/Proxy.sol:Proxy",
						"label": "_owner",
						"offset": 0,
						"slot": "0",
						"type": "t_address"
					}
				],
				"types": {
					"t_address": {
						"encoding": "inplace",
						"label": "address",
						"numberOfBytes": "20"
					}
				}
			},
			"userdoc": {
				"kind": "user",
				"methods": {},
				"version": 1
			}
		}
	}
}