{
	"study/token-airdrop/contracts/proxy1967.sol": {
		"MyProxyBaseContract": {
			"abi": [
				{
					"inputs": [
						{
							"internalType": "address",
							"name": "_logic",
							"type": "address"
						},
						{
							"internalType": "bytes",
							"name": "_data",
							"type": "bytes"
						}
					],
					"stateMutability": "nonpayable",
					"type": "constructor"
				},
				{
					"anonymous": false,
					"inputs": [
						{
							"indexed": false,
							"internalType": "address",
							"name": "previousAdmin",
							"type": "address"
						},
						{
							"indexed": false,
							"internalType": "address",
							"name": "newAdmin",
							"type": "address"
						}
					],
					"name": "AdminChanged",
					"type": "event"
				},
				{
					"anonymous": false,
					"inputs": [
						{
							"indexed": true,
							"internalType": "address",
							"name": "beacon",
							"type": "address"
						}
					],
					"name": "BeaconUpgraded",
					"type": "event"
				},
				{
					"anonymous": false,
					"inputs": [
						{
							"indexed": true,
							"internalType": "address",
							"name": "previousOwner",
							"type": "address"
						},
						{
							"indexed": true,
							"internalType": "address",
							"name": "newOwner",
							"type": "address"
						}
					],
					"name": "OwnershipTransferred",
					"type": "event"
				},
				{
					"anonymous": false,
					"inputs": [
						{
							"indexed": true,
							"internalType": "address",
							"name": "implementation",
							"type": "address"
						}
					],
					"name": "Upgraded",
					"type": "event"
				},
				{
					"stateMutability": "payable",
					"type": "fallback"
				},
				{
					"inputs": [],
					"name": "implementation",
					"outputs": [
						{
							"internalType": "address",
							"name": "",
							"type": "address"
						}
					],
					"stateMutability": "view",
					"type": "function"
				},
				{
					"inputs": [],
					"name": "owner",
					"outputs": [
						{
							"internalType": "address",
							"name": "",
							"type": "address"
						}
					],
					"stateMutability": "view",
					"type": "function"
				},
				{
					"inputs": [],
					"name": "renounceOwnership",
					"outputs": [],
					"stateMutability": "nonpayable",
					"type": "function"
				},
				{
					"inputs": [
						{
							"internalType": "address",
							"name": "newOwner",
							"type": "address"
						}
					],
					"name": "transferOwnership",
					"outputs": [],
					"stateMutability": "nonpayable",
					"type": "function"
				},
				{
					"inputs": [
						{
							"internalType": "address",
							"name": "_newLogic",
							"type": "address"
						}
					],
					"name": "upgrade",
					"outputs": [],
					"stateMutability": "nonpayable",
					"type": "function"
				},
				{
					"stateMutability": "payable",
					"type": "receive"
				}
			],
			"devdoc": {
				"kind": "dev",
				"methods": {
					"owner()": {
						"details": "Returns the address of the current owner."
					},
					"renounceOwnership()": {
						"details": "Leaves the contract without owner. It will not be possible to call `onlyOwner` functions anymore. Can only be called by the current owner. NOTE: Renouncing ownership will leave the contract without an owner, thereby removing any functionality that is only available to the owner."
					},
					"transferOwnership(address)": {
						"details": "Transfers ownership of the contract to a new account (`newOwner`). Can only be called by the current owner."
					}
				},
				"version": 1
			},
			"evm": {
				"assembly": "    /* \"study/token-airdrop/contracts/proxy1967.sol\":184:532  contract MyProxyBaseContract is ERC1967Proxy, Ownable {\r... */\n  mstore(0x40, 0x80)\n    /* \"study/token-airdrop/contracts/proxy1967.sol\":247:325  constructor(address _logic, bytes memory _data) ERC1967Proxy(_logic, _data) {} */\n  callvalue\n  dup1\n  iszero\n  tag_1\n  jumpi\n  0x00\n  dup1\n  revert\ntag_1:\n  pop\n  mload(0x40)\n  sub(codesize, bytecodeSize)\n  dup1\n  bytecodeSize\n  dup4\n  codecopy\n  dup2\n  dup2\n  add\n  0x40\n  mstore\n  dup2\n  add\n  swap1\n  tag_2\n  swap2\n  swap1\n  tag_3\n  jump\t// in\ntag_2:\n    /* \"study/token-airdrop/contracts/proxy1967.sol\":308:314  _logic */\n  dup2\n    /* \"study/token-airdrop/contracts/proxy1967.sol\":316:321  _data */\n  dup2\n    /* \"@openzeppelin/contracts/proxy/ERC1967/ERC1967Proxy.sol\":1024:1063  _upgradeToAndCall(_logic, _data, false) */\n  tag_8\n    /* \"@openzeppelin/contracts/proxy/ERC1967/ERC1967Proxy.sol\":1042:1048  _logic */\n  dup3\n    /* \"@openzeppelin/contracts/proxy/ERC1967/ERC1967Proxy.sol\":1050:1055  _data */\n  dup3\n    /* \"@openzeppelin/contracts/proxy/ERC1967/ERC1967Proxy.sol\":1057:1062  false */\n  0x00\n    /* \"@openzeppelin/contracts/proxy/ERC1967/ERC1967Proxy.sol\":1024:1041  _upgradeToAndCall */\n  shl(0x20, tag_9)\n    /* \"@openzeppelin/contracts/proxy/ERC1967/ERC1967Proxy.sol\":1024:1063  _upgradeToAndCall(_logic, _data, false) */\n  0x20\n  shr\n  jump\t// in\ntag_8:\n    /* \"@openzeppelin/contracts/proxy/ERC1967/ERC1967Proxy.sol\":958:1070  constructor(address _logic, bytes memory _data) payable {... */\n  pop\n  pop\n    /* \"@openzeppelin/contracts/access/Ownable.sol\":936:968  _transferOwnership(_msgSender()) */\n  tag_11\n    /* \"@openzeppelin/contracts/access/Ownable.sol\":955:967  _msgSender() */\n  tag_12\n    /* \"@openzeppelin/contracts/access/Ownable.sol\":955:965  _msgSender */\n  shl(0x20, tag_13)\n    /* \"@openzeppelin/contracts/access/Ownable.sol\":955:967  _msgSender() */\n  0x20\n  shr\n  jump\t// in\ntag_12:\n    /* \"@openzeppelin/contracts/access/Ownable.sol\":936:954  _transferOwnership */\n  shl(0x20, tag_14)\n    /* \"@openzeppelin/contracts/access/Ownable.sol\":936:968  _transferOwnership(_msgSender()) */\n  0x20\n  shr\n  jump\t// in\ntag_11:\n    /* \"study/token-airdrop/contracts/proxy1967.sol\":247:325  constructor(address _logic, bytes memory _data) ERC1967Proxy(_logic, _data) {} */\n  pop\n  pop\n    /* \"study/token-airdrop/contracts/proxy1967.sol\":184:532  contract MyProxyBaseContract is ERC1967Proxy, Ownable {\r... */\n  jump(tag_16)\n    /* \"@openzeppelin/contracts/proxy/ERC1967/ERC1967Upgrade.sol\":2183:2478  function _upgradeToAndCall(... */\ntag_9:\n    /* \"@openzeppelin/contracts/proxy/ERC1967/ERC1967Upgrade.sol\":2321:2350  _upgradeTo(newImplementation) */\n  tag_18\n    /* \"@openzeppelin/contracts/proxy/ERC1967/ERC1967Upgrade.sol\":2332:2349  newImplementation */\n  dup4\n    /* \"@openzeppelin/contracts/proxy/ERC1967/ERC1967Upgrade.sol\":2321:2331  _upgradeTo */\n  shl(0x20, tag_19)\n    /* \"@openzeppelin/contracts/proxy/ERC1967/ERC1967Upgrade.sol\":2321:2350  _upgradeTo(newImplementation) */\n  0x20\n  shr\n  jump\t// in\ntag_18:\n    /* \"@openzeppelin/contracts/proxy/ERC1967/ERC1967Upgrade.sol\":2378:2379  0 */\n  0x00\n    /* \"@openzeppelin/contracts/proxy/ERC1967/ERC1967Upgrade.sol\":2364:2368  data */\n  dup3\n    /* \"@openzeppelin/contracts/proxy/ERC1967/ERC1967Upgrade.sol\":2364:2375  data.length */\n  mload\n    /* \"@openzeppelin/contracts/proxy/ERC1967/ERC1967Upgrade.sol\":2364:2379  data.length > 0 */\n  gt\n    /* \"@openzeppelin/contracts/proxy/ERC1967/ERC1967Upgrade.sol\":2364:2392  data.length > 0 || forceCall */\n  dup1\n  tag_20\n  jumpi\n  pop\n    /* \"@openzeppelin/contracts/proxy/ERC1967/ERC1967Upgrade.sol\":2383:2392  forceCall */\n  dup1\n    /* \"@openzeppelin/contracts/proxy/ERC1967/ERC1967Upgrade.sol\":2364:2392  data.length > 0 || forceCall */\ntag_20:\n    /* \"@openzeppelin/contracts/proxy/ERC1967/ERC1967Upgrade.sol\":2360:2472  if (data.length > 0 || forceCall) {... */\n  iszero\n  tag_21\n  jumpi\n    /* \"@openzeppelin/contracts/proxy/ERC1967/ERC1967Upgrade.sol\":2408:2461  Address.functionDelegateCall(newImplementation, data) */\n  tag_22\n    /* \"@openzeppelin/contracts/proxy/ERC1967/ERC1967Upgrade.sol\":2437:2454  newImplementation */\n  dup4\n    /* \"@openzeppelin/contracts/proxy/ERC1967/ERC1967Upgrade.sol\":2456:2460  data */\n  dup4\n    /* \"@openzeppelin/contracts/proxy/ERC1967/ERC1967Upgrade.sol\":2408:2436  Address.functionDelegateCall */\n  or(tag_0_36, shl(0x20, tag_23))\n    /* \"@openzeppelin/contracts/proxy/ERC1967/ERC1967Upgrade.sol\":2408:2461  Address.functionDelegateCall(newImplementation, data) */\n  0x20\n  shr\n  jump\t// in\ntag_22:\n  pop\n    /* \"@openzeppelin/contracts/proxy/ERC1967/ERC1967Upgrade.sol\":2360:2472  if (data.length > 0 || forceCall) {... */\ntag_21:\n    /* \"@openzeppelin/contracts/proxy/ERC1967/ERC1967Upgrade.sol\":2183:2478  function _upgradeToAndCall(... */\n  pop\n  pop\n  pop\n  jump\t// out\n    /* \"@openzeppelin/contracts/utils/Context.sol\":640:736  function _msgSender() internal view virtual returns (address) {... */\ntag_13:\n    /* \"@openzeppelin/contracts/utils/Context.sol\":693:700  address */\n  0x00\n    /* \"@openzeppelin/contracts/utils/Context.sol\":719:729  msg.sender */\n  caller\n    /* \"@openzeppelin/contracts/utils/Context.sol\":712:729  return msg.sender */\n  swap1\n  pop\n    /* \"@openzeppelin/contracts/utils/Context.sol\":640:736  function _msgSender() internal view virtual returns (address) {... */\n  swap1\n  jump\t// out\n    /* \"@openzeppelin/contracts/access/Ownable.sol\":2433:2620  function _transferOwnership(address newOwner) internal virtual {... */\ntag_14:\n    /* \"@openzeppelin/contracts/access/Ownable.sol\":2506:2522  address oldOwner */\n  0x00\n    /* \"@openzeppelin/contracts/access/Ownable.sol\":2525:2531  _owner */\n  dup1\n  0x00\n  swap1\n  sload\n  swap1\n  0x0100\n  exp\n  swap1\n  div\n  0xffffffffffffffffffffffffffffffffffffffff\n  and\n    /* \"@openzeppelin/contracts/access/Ownable.sol\":2506:2531  address oldOwner = _owner */\n  swap1\n  pop\n    /* \"@openzeppelin/contracts/access/Ownable.sol\":2550:2558  newOwner */\n  dup2\n    /* \"@openzeppelin/contracts/access/Ownable.sol\":2541:2547  _owner */\n  0x00\n  dup1\n    /* \"@openzeppelin/contracts/access/Ownable.sol\":2541:2558  _owner = newOwner */\n  0x0100\n  exp\n  dup2\n  sload\n  dup2\n  0xffffffffffffffffffffffffffffffffffffffff\n  mul\n  not\n  and\n  swap1\n  dup4\n  0xffffffffffffffffffffffffffffffffffffffff\n  and\n  mul\n  or\n  swap1\n  sstore\n  pop\n    /* \"@openzeppelin/contracts/access/Ownable.sol\":2604:2612  newOwner */\n  dup2\n    /* \"@openzeppelin/contracts/access/Ownable.sol\":2573:2613  OwnershipTransferred(oldOwner, newOwner) */\n  0xffffffffffffffffffffffffffffffffffffffff\n  and\n    /* \"@openzeppelin/contracts/access/Ownable.sol\":2594:2602  oldOwner */\n  dup2\n    /* \"@openzeppelin/contracts/access/Ownable.sol\":2573:2613  OwnershipTransferred(oldOwner, newOwner) */\n  0xffffffffffffffffffffffffffffffffffffffff\n  and\n  0x8be0079c531659141344cd1fd0a4f28419497f9722a3daafe3b4186f6b6457e0\n  mload(0x40)\n  mload(0x40)\n  dup1\n  swap2\n  sub\n  swap1\n  log3\n    /* \"@openzeppelin/contracts/access/Ownable.sol\":2496:2620  {... */\n  pop\n    /* \"@openzeppelin/contracts/access/Ownable.sol\":2433:2620  function _transferOwnership(address newOwner) internal virtual {... */\n  pop\n  jump\t// out\n    /* \"@openzeppelin/contracts/proxy/ERC1967/ERC1967Upgrade.sol\":1897:2049  function _upgradeTo(address newImplementation) internal {... */\ntag_19:\n    /* \"@openzeppelin/contracts/proxy/ERC1967/ERC1967Upgrade.sol\":1963:2000  _setImplementation(newImplementation) */\n  tag_27\n    /* \"@openzeppelin/contracts/proxy/ERC1967/ERC1967Upgrade.sol\":1982:1999  newImplementation */\n  dup2\n    /* \"@openzeppelin/contracts/proxy/ERC1967/ERC1967Upgrade.sol\":1963:1981  _setImplementation */\n  shl(0x20, tag_28)\n    /* \"@openzeppelin/contracts/proxy/ERC1967/ERC1967Upgrade.sol\":1963:2000  _setImplementation(newImplementation) */\n  0x20\n  shr\n  jump\t// in\ntag_27:\n    /* \"@openzeppelin/contracts/proxy/ERC1967/ERC1967Upgrade.sol\":2024:2041  newImplementation */\n  dup1\n    /* \"@openzeppelin/contracts/proxy/ERC1967/ERC1967Upgrade.sol\":2015:2042  Upgraded(newImplementation) */\n  0xffffffffffffffffffffffffffffffffffffffff\n  and\n  0xbc7cd75a20ee27fd9adebab32041f755214dbc6bffa90cc0225b39da2e5c2d3b\n  mload(0x40)\n  mload(0x40)\n  dup1\n  swap2\n  sub\n  swap1\n  log2\n    /* \"@openzeppelin/contracts/proxy/ERC1967/ERC1967Upgrade.sol\":1897:2049  function _upgradeTo(address newImplementation) internal {... */\n  pop\n  jump\t// out\n    /* \"@openzeppelin/contracts/utils/Address.sol\":6469:6667  function functionDelegateCall(address target, bytes memory data) internal returns (bytes memory) {... */\ntag_23:\n    /* \"@openzeppelin/contracts/utils/Address.sol\":6552:6564  bytes memory */\n  0x60\n    /* \"@openzeppelin/contracts/utils/Address.sol\":6583:6660  functionDelegateCall(target, data, \"Address: low-level delegate call failed\") */\n  tag_30\n    /* \"@openzeppelin/contracts/utils/Address.sol\":6604:6610  target */\n  dup4\n    /* \"@openzeppelin/contracts/utils/Address.sol\":6612:6616  data */\n  dup4\n    /* \"@openzeppelin/contracts/utils/Address.sol\":6583:6660  functionDelegateCall(target, data, \"Address: low-level delegate call failed\") */\n  mload(0x40)\n  dup1\n  0x60\n  add\n  0x40\n  mstore\n  dup1\n  0x27\n  dup2\n  mstore\n  0x20\n  add\n  data_9fdcd12e4b726339b32a442b0a448365d5d85c96b2d2cff917b4f66c63110398\n  0x27\n  swap2\n  codecopy\n    /* \"@openzeppelin/contracts/utils/Address.sol\":6583:6603  functionDelegateCall */\n  shl(0x20, tag_31)\n    /* \"@openzeppelin/contracts/utils/Address.sol\":6583:6660  functionDelegateCall(target, data, \"Address: low-level delegate call failed\") */\n  0x20\n  shr\n  jump\t// in\ntag_30:\n    /* \"@openzeppelin/contracts/utils/Address.sol\":6576:6660  return functionDelegateCall(target, data, \"Address: low-level delegate call failed\") */\n  swap1\n  pop\n    /* \"@openzeppelin/contracts/utils/Address.sol\":6469:6667  function functionDelegateCall(address target, bytes memory data) internal returns (bytes memory) {... */\n  swap3\n  swap2\n  pop\n  pop\n  jump\t// out\n    /* \"@openzeppelin/contracts/proxy/ERC1967/ERC1967Upgrade.sol\":1532:1791  function _setImplementation(address newImplementation) private {... */\ntag_28:\n    /* \"@openzeppelin/contracts/proxy/ERC1967/ERC1967Upgrade.sol\":1613:1650  Address.isContract(newImplementation) */\n  tag_33\n    /* \"@openzeppelin/contracts/proxy/ERC1967/ERC1967Upgrade.sol\":1632:1649  newImplementation */\n  dup2\n    /* \"@openzeppelin/contracts/proxy/ERC1967/ERC1967Upgrade.sol\":1613:1631  Address.isContract */\n  or(tag_0_37, shl(0x20, tag_34))\n    /* \"@openzeppelin/contracts/proxy/ERC1967/ERC1967Upgrade.sol\":1613:1650  Address.isContract(newImplementation) */\n  0x20\n  shr\n  jump\t// in\ntag_33:\n    /* \"@openzeppelin/contracts/proxy/ERC1967/ERC1967Upgrade.sol\":1605:1700  require(Address.isContract(newImplementation), \"ERC1967: new implementation is not a contract\") */\n  tag_35\n  jumpi\n  mload(0x40)\n  0x08c379a000000000000000000000000000000000000000000000000000000000\n  dup2\n  mstore\n  0x04\n  add\n  tag_36\n  swap1\n  tag_37\n  jump\t// in\ntag_36:\n  mload(0x40)\n  dup1\n  swap2\n  sub\n  swap1\n  revert\ntag_35:\n    /* \"@openzeppelin/contracts/proxy/ERC1967/ERC1967Upgrade.sol\":1767:1784  newImplementation */\n  dup1\n    /* \"@openzeppelin/contracts/proxy/ERC1967/ERC1967Upgrade.sol\":1710:1758  StorageSlot.getAddressSlot(_IMPLEMENTATION_SLOT) */\n  tag_38\n    /* \"@openzeppelin/contracts/proxy/ERC1967/ERC1967Upgrade.sol\":1030:1096  0x360894a13ba1a3210667c828492db98dca3e2076cc3735a920a3ca505d382bbc */\n  0x360894a13ba1a3210667c828492db98dca3e2076cc3735a920a3ca505d382bbc\n    /* \"@openzeppelin/contracts/proxy/ERC1967/ERC1967Upgrade.sol\":1737:1757  _IMPLEMENTATION_SLOT */\n  0x00\n  shl\n    /* \"@openzeppelin/contracts/proxy/ERC1967/ERC1967Upgrade.sol\":1710:1736  StorageSlot.getAddressSlot */\n  or(tag_0_38, shl(0x20, tag_39))\n    /* \"@openzeppelin/contracts/proxy/ERC1967/ERC1967Upgrade.sol\":1710:1758  StorageSlot.getAddressSlot(_IMPLEMENTATION_SLOT) */\n  0x20\n  shr\n  jump\t// in\ntag_38:\n    /* \"@openzeppelin/contracts/proxy/ERC1967/ERC1967Upgrade.sol\":1710:1764  StorageSlot.getAddressSlot(_IMPLEMENTATION_SLOT).value */\n  0x00\n  add\n  0x00\n    /* \"@openzeppelin/contracts/proxy/ERC1967/ERC1967Upgrade.sol\":1710:1784  StorageSlot.getAddressSlot(_IMPLEMENTATION_SLOT).value = newImplementation */\n  0x0100\n  exp\n  dup2\n  sload\n  dup2\n  0xffffffffffffffffffffffffffffffffffffffff\n  mul\n  not\n  and\n  swap1\n  dup4\n  0xffffffffffffffffffffffffffffffffffffffff\n  and\n  mul\n  or\n  swap1\n  sstore\n  pop\n    /* \"@openzeppelin/contracts/proxy/ERC1967/ERC1967Upgrade.sol\":1532:1791  function _setImplementation(address newImplementation) private {... */\n  pop\n  jump\t// out\n    /* \"@openzeppelin/contracts/utils/Address.sol\":6853:7178  function functionDelegateCall(... */\ntag_31:\n    /* \"@openzeppelin/contracts/utils/Address.sol\":6994:7006  bytes memory */\n  0x60\n    /* \"@openzeppelin/contracts/utils/Address.sol\":7019:7031  bool success */\n  0x00\n    /* \"@openzeppelin/contracts/utils/Address.sol\":7033:7056  bytes memory returndata */\n  dup1\n    /* \"@openzeppelin/contracts/utils/Address.sol\":7060:7066  target */\n  dup6\n    /* \"@openzeppelin/contracts/utils/Address.sol\":7060:7079  target.delegatecall */\n  0xffffffffffffffffffffffffffffffffffffffff\n  and\n    /* \"@openzeppelin/contracts/utils/Address.sol\":7080:7084  data */\n  dup6\n    /* \"@openzeppelin/contracts/utils/Address.sol\":7060:7085  target.delegatecall(data) */\n  mload(0x40)\n  tag_41\n  swap2\n  swap1\n  tag_42\n  jump\t// in\ntag_41:\n  0x00\n  mload(0x40)\n  dup1\n  dup4\n  sub\n  dup2\n  dup6\n  gas\n  delegatecall\n  swap2\n  pop\n  pop\n  returndatasize\n  dup1\n  0x00\n  dup2\n  eq\n  tag_45\n  jumpi\n  mload(0x40)\n  swap2\n  pop\n  and(add(returndatasize, 0x3f), not(0x1f))\n  dup3\n  add\n  0x40\n  mstore\n  returndatasize\n  dup3\n  mstore\n  returndatasize\n  0x00\n  0x20\n  dup5\n  add\n  returndatacopy\n  jump(tag_44)\ntag_45:\n  0x60\n  swap2\n  pop\ntag_44:\n  pop\n    /* \"@openzeppelin/contracts/utils/Address.sol\":7018:7085  (bool success, bytes memory returndata) = target.delegatecall(data) */\n  swap2\n  pop\n  swap2\n  pop\n    /* \"@openzeppelin/contracts/utils/Address.sol\":7102:7171  verifyCallResultFromTarget(target, success, returndata, errorMessage) */\n  tag_46\n    /* \"@openzeppelin/contracts/utils/Address.sol\":7129:7135  target */\n  dup7\n    /* \"@openzeppelin/contracts/utils/Address.sol\":7137:7144  success */\n  dup4\n    /* \"@openzeppelin/contracts/utils/Address.sol\":7146:7156  returndata */\n  dup4\n    /* \"@openzeppelin/contracts/utils/Address.sol\":7158:7170  errorMessage */\n  dup8\n    /* \"@openzeppelin/contracts/utils/Address.sol\":7102:7128  verifyCallResultFromTarget */\n  shl(0x20, tag_47)\n    /* \"@openzeppelin/contracts/utils/Address.sol\":7102:7171  verifyCallResultFromTarget(target, success, returndata, errorMessage) */\n  0x20\n  shr\n  jump\t// in\ntag_46:\n    /* \"@openzeppelin/contracts/utils/Address.sol\":7095:7171  return verifyCallResultFromTarget(target, success, returndata, errorMessage) */\n  swap3\n  pop\n  pop\n  pop\n    /* \"@openzeppelin/contracts/utils/Address.sol\":6853:7178  function functionDelegateCall(... */\n  swap4\n  swap3\n  pop\n  pop\n  pop\n  jump\t// out\n    /* \"@openzeppelin/contracts/utils/Address.sol\":1175:1495  function isContract(address account) internal view returns (bool) {... */\ntag_34:\n    /* \"@openzeppelin/contracts/utils/Address.sol\":1235:1239  bool */\n  0x00\n    /* \"@openzeppelin/contracts/utils/Address.sol\":1487:1488  0 */\n  dup1\n    /* \"@openzeppelin/contracts/utils/Address.sol\":1465:1472  account */\n  dup3\n    /* \"@openzeppelin/contracts/utils/Address.sol\":1465:1484  account.code.length */\n  0xffffffffffffffffffffffffffffffffffffffff\n  and\n  extcodesize\n    /* \"@openzeppelin/contracts/utils/Address.sol\":1465:1488  account.code.length > 0 */\n  gt\n    /* \"@openzeppelin/contracts/utils/Address.sol\":1458:1488  return account.code.length > 0 */\n  swap1\n  pop\n    /* \"@openzeppelin/contracts/utils/Address.sol\":1175:1495  function isContract(address account) internal view returns (bool) {... */\n  swap2\n  swap1\n  pop\n  jump\t// out\n    /* \"@openzeppelin/contracts/utils/StorageSlot.sol\":1614:1804  function getAddressSlot(bytes32 slot) internal pure returns (AddressSlot storage r) {... */\ntag_39:\n    /* \"@openzeppelin/contracts/utils/StorageSlot.sol\":1675:1696  AddressSlot storage r */\n  0x00\n    /* \"@openzeppelin/contracts/utils/StorageSlot.sol\":1784:1788  slot */\n  dup2\n    /* \"@openzeppelin/contracts/utils/StorageSlot.sol\":1774:1788  r.slot := slot */\n  swap1\n  pop\n    /* \"@openzeppelin/contracts/utils/StorageSlot.sol\":1614:1804  function getAddressSlot(bytes32 slot) internal pure returns (AddressSlot storage r) {... */\n  swap2\n  swap1\n  pop\n  jump\t// out\n    /* \"@openzeppelin/contracts/utils/Address.sol\":7466:8094  function verifyCallResultFromTarget(... */\ntag_47:\n    /* \"@openzeppelin/contracts/utils/Address.sol\":7646:7658  bytes memory */\n  0x60\n    /* \"@openzeppelin/contracts/utils/Address.sol\":7674:7681  success */\n  dup4\n    /* \"@openzeppelin/contracts/utils/Address.sol\":7670:8088  if (success) {... */\n  iszero\n  tag_51\n  jumpi\n    /* \"@openzeppelin/contracts/utils/Address.sol\":7722:7723  0 */\n  0x00\n    /* \"@openzeppelin/contracts/utils/Address.sol\":7701:7711  returndata */\n  dup4\n    /* \"@openzeppelin/contracts/utils/Address.sol\":7701:7718  returndata.length */\n  mload\n    /* \"@openzeppelin/contracts/utils/Address.sol\":7701:7723  returndata.length == 0 */\n  eq\n    /* \"@openzeppelin/contracts/utils/Address.sol\":7697:7983  if (returndata.length == 0) {... */\n  iszero\n  tag_52\n  jumpi\n    /* \"@openzeppelin/contracts/utils/Address.sol\":7916:7934  isContract(target) */\n  tag_53\n    /* \"@openzeppelin/contracts/utils/Address.sol\":7927:7933  target */\n  dup6\n    /* \"@openzeppelin/contracts/utils/Address.sol\":7916:7926  isContract */\n  shl(0x20, tag_34)\n    /* \"@openzeppelin/contracts/utils/Address.sol\":7916:7934  isContract(target) */\n  0x20\n  shr\n  jump\t// in\ntag_53:\n    /* \"@openzeppelin/contracts/utils/Address.sol\":7908:7968  require(isContract(target), \"Address: call to non-contract\") */\n  tag_54\n  jumpi\n  mload(0x40)\n  0x08c379a000000000000000000000000000000000000000000000000000000000\n  dup2\n  mstore\n  0x04\n  add\n  tag_55\n  swap1\n  tag_56\n  jump\t// in\ntag_55:\n  mload(0x40)\n  dup1\n  swap2\n  sub\n  swap1\n  revert\ntag_54:\n    /* \"@openzeppelin/contracts/utils/Address.sol\":7697:7983  if (returndata.length == 0) {... */\ntag_52:\n    /* \"@openzeppelin/contracts/utils/Address.sol\":8003:8013  returndata */\n  dup3\n    /* \"@openzeppelin/contracts/utils/Address.sol\":7996:8013  return returndata */\n  swap1\n  pop\n  jump(tag_50)\n    /* \"@openzeppelin/contracts/utils/Address.sol\":7670:8088  if (success) {... */\ntag_51:\n    /* \"@openzeppelin/contracts/utils/Address.sol\":8044:8077  _revert(returndata, errorMessage) */\n  tag_58\n    /* \"@openzeppelin/contracts/utils/Address.sol\":8052:8062  returndata */\n  dup4\n    /* \"@openzeppelin/contracts/utils/Address.sol\":8064:8076  errorMessage */\n  dup4\n    /* \"@openzeppelin/contracts/utils/Address.sol\":8044:8051  _revert */\n  shl(0x20, tag_59)\n    /* \"@openzeppelin/contracts/utils/Address.sol\":8044:8077  _revert(returndata, errorMessage) */\n  0x20\n  shr\n  jump\t// in\ntag_58:\n    /* \"@openzeppelin/contracts/utils/Address.sol\":7466:8094  function verifyCallResultFromTarget(... */\ntag_50:\n  swap5\n  swap4\n  pop\n  pop\n  pop\n  pop\n  jump\t// out\n    /* \"@openzeppelin/contracts/utils/Address.sol\":8616:9156  function _revert(bytes memory returndata, string memory errorMessage) private pure {... */\ntag_59:\n    /* \"@openzeppelin/contracts/utils/Address.sol\":8795:8796  0 */\n  0x00\n    /* \"@openzeppelin/contracts/utils/Address.sol\":8775:8785  returndata */\n  dup3\n    /* \"@openzeppelin/contracts/utils/Address.sol\":8775:8792  returndata.length */\n  mload\n    /* \"@openzeppelin/contracts/utils/Address.sol\":8775:8796  returndata.length > 0 */\n  gt\n    /* \"@openzeppelin/contracts/utils/Address.sol\":8771:9150  if (returndata.length > 0) {... */\n  iszero\n  tag_61\n  jumpi\n    /* \"@openzeppelin/contracts/utils/Address.sol\":9003:9013  returndata */\n  dup2\n    /* \"@openzeppelin/contracts/utils/Address.sol\":8997:9014  mload(returndata) */\n  mload\n    /* \"@openzeppelin/contracts/utils/Address.sol\":9059:9074  returndata_size */\n  dup1\n    /* \"@openzeppelin/contracts/utils/Address.sol\":9046:9056  returndata */\n  dup4\n    /* \"@openzeppelin/contracts/utils/Address.sol\":9042:9044  32 */\n  0x20\n    /* \"@openzeppelin/contracts/utils/Address.sol\":9038:9057  add(32, returndata) */\n  add\n    /* \"@openzeppelin/contracts/utils/Address.sol\":9031:9075  revert(add(32, returndata), returndata_size) */\n  revert\n    /* \"@openzeppelin/contracts/utils/Address.sol\":8771:9150  if (returndata.length > 0) {... */\ntag_61:\n    /* \"@openzeppelin/contracts/utils/Address.sol\":9126:9138  errorMessage */\n  dup1\n    /* \"@openzeppelin/contracts/utils/Address.sol\":9119:9139  revert(errorMessage) */\n  mload(0x40)\n  0x08c379a000000000000000000000000000000000000000000000000000000000\n  dup2\n  mstore\n  0x04\n  add\n  tag_63\n  swap2\n  swap1\n  tag_64\n  jump\t// in\ntag_63:\n  mload(0x40)\n  dup1\n  swap2\n  sub\n  swap1\n  revert\n    /* \"#utility.yul\":7:426   */\ntag_66:\n    /* \"#utility.yul\":95:100   */\n  0x00\n    /* \"#utility.yul\":120:185   */\n  tag_68\n    /* \"#utility.yul\":136:184   */\n  tag_69\n    /* \"#utility.yul\":177:183   */\n  dup5\n    /* \"#utility.yul\":136:184   */\n  tag_70\n  jump\t// in\ntag_69:\n    /* \"#utility.yul\":120:185   */\n  tag_71\n  jump\t// in\ntag_68:\n    /* \"#utility.yul\":111:185   */\n  swap1\n  pop\n    /* \"#utility.yul\":208:214   */\n  dup3\n    /* \"#utility.yul\":201:206   */\n  dup2\n    /* \"#utility.yul\":194:215   */\n  mstore\n    /* \"#utility.yul\":246:250   */\n  0x20\n    /* \"#utility.yul\":239:244   */\n  dup2\n    /* \"#utility.yul\":235:251   */\n  add\n    /* \"#utility.yul\":284:287   */\n  dup5\n    /* \"#utility.yul\":275:281   */\n  dup5\n    /* \"#utility.yul\":270:273   */\n  dup5\n    /* \"#utility.yul\":266:282   */\n  add\n    /* \"#utility.yul\":263:288   */\n  gt\n    /* \"#utility.yul\":260:372   */\n  iszero\n  tag_72\n  jumpi\n    /* \"#utility.yul\":291:370   */\n  tag_73\n  tag_74\n  jump\t// in\ntag_73:\n    /* \"#utility.yul\":260:372   */\ntag_72:\n    /* \"#utility.yul\":381:420   */\n  tag_75\n    /* \"#utility.yul\":413:419   */\n  dup5\n    /* \"#utility.yul\":408:411   */\n  dup3\n    /* \"#utility.yul\":403:406   */\n  dup6\n    /* \"#utility.yul\":381:420   */\n  tag_76\n  jump\t// in\ntag_75:\n    /* \"#utility.yul\":101:426   */\n  pop\n    /* \"#utility.yul\":7:426   */\n  swap4\n  swap3\n  pop\n  pop\n  pop\n  jump\t// out\n    /* \"#utility.yul\":432:575   */\ntag_77:\n    /* \"#utility.yul\":489:494   */\n  0x00\n    /* \"#utility.yul\":520:526   */\n  dup2\n    /* \"#utility.yul\":514:527   */\n  mload\n    /* \"#utility.yul\":505:527   */\n  swap1\n  pop\n    /* \"#utility.yul\":536:569   */\n  tag_79\n    /* \"#utility.yul\":563:568   */\n  dup2\n    /* \"#utility.yul\":536:569   */\n  tag_80\n  jump\t// in\ntag_79:\n    /* \"#utility.yul\":432:575   */\n  swap3\n  swap2\n  pop\n  pop\n  jump\t// out\n    /* \"#utility.yul\":594:947   */\ntag_81:\n    /* \"#utility.yul\":660:665   */\n  0x00\n    /* \"#utility.yul\":709:712   */\n  dup3\n    /* \"#utility.yul\":702:706   */\n  0x1f\n    /* \"#utility.yul\":694:700   */\n  dup4\n    /* \"#utility.yul\":690:707   */\n  add\n    /* \"#utility.yul\":686:713   */\n  slt\n    /* \"#utility.yul\":676:798   */\n  tag_83\n  jumpi\n    /* \"#utility.yul\":717:796   */\n  tag_84\n  tag_85\n  jump\t// in\ntag_84:\n    /* \"#utility.yul\":676:798   */\ntag_83:\n    /* \"#utility.yul\":827:833   */\n  dup2\n    /* \"#utility.yul\":821:834   */\n  mload\n    /* \"#utility.yul\":852:941   */\n  tag_86\n    /* \"#utility.yul\":937:940   */\n  dup5\n    /* \"#utility.yul\":929:935   */\n  dup3\n    /* \"#utility.yul\":922:926   */\n  0x20\n    /* \"#utility.yul\":914:920   */\n  dup7\n    /* \"#utility.yul\":910:927   */\n  add\n    /* \"#utility.yul\":852:941   */\n  tag_66\n  jump\t// in\ntag_86:\n    /* \"#utility.yul\":843:941   */\n  swap2\n  pop\n    /* \"#utility.yul\":666:947   */\n  pop\n    /* \"#utility.yul\":594:947   */\n  swap3\n  swap2\n  pop\n  pop\n  jump\t// out\n    /* \"#utility.yul\":953:1631   */\ntag_3:\n    /* \"#utility.yul\":1041:1047   */\n  0x00\n    /* \"#utility.yul\":1049:1055   */\n  dup1\n    /* \"#utility.yul\":1098:1100   */\n  0x40\n    /* \"#utility.yul\":1086:1095   */\n  dup4\n    /* \"#utility.yul\":1077:1084   */\n  dup6\n    /* \"#utility.yul\":1073:1096   */\n  sub\n    /* \"#utility.yul\":1069:1101   */\n  slt\n    /* \"#utility.yul\":1066:1185   */\n  iszero\n  tag_88\n  jumpi\n    /* \"#utility.yul\":1104:1183   */\n  tag_89\n  tag_90\n  jump\t// in\ntag_89:\n    /* \"#utility.yul\":1066:1185   */\ntag_88:\n    /* \"#utility.yul\":1224:1225   */\n  0x00\n    /* \"#utility.yul\":1249:1313   */\n  tag_91\n    /* \"#utility.yul\":1305:1312   */\n  dup6\n    /* \"#utility.yul\":1296:1302   */\n  dup3\n    /* \"#utility.yul\":1285:1294   */\n  dup7\n    /* \"#utility.yul\":1281:1303   */\n  add\n    /* \"#utility.yul\":1249:1313   */\n  tag_77\n  jump\t// in\ntag_91:\n    /* \"#utility.yul\":1239:1313   */\n  swap3\n  pop\n    /* \"#utility.yul\":1195:1323   */\n  pop\n    /* \"#utility.yul\":1383:1385   */\n  0x20\n    /* \"#utility.yul\":1372:1381   */\n  dup4\n    /* \"#utility.yul\":1368:1386   */\n  add\n    /* \"#utility.yul\":1362:1387   */\n  mload\n    /* \"#utility.yul\":1414:1432   */\n  0xffffffffffffffff\n    /* \"#utility.yul\":1406:1412   */\n  dup2\n    /* \"#utility.yul\":1403:1433   */\n  gt\n    /* \"#utility.yul\":1400:1517   */\n  iszero\n  tag_92\n  jumpi\n    /* \"#utility.yul\":1436:1515   */\n  tag_93\n  tag_94\n  jump\t// in\ntag_93:\n    /* \"#utility.yul\":1400:1517   */\ntag_92:\n    /* \"#utility.yul\":1541:1614   */\n  tag_95\n    /* \"#utility.yul\":1606:1613   */\n  dup6\n    /* \"#utility.yul\":1597:1603   */\n  dup3\n    /* \"#utility.yul\":1586:1595   */\n  dup7\n    /* \"#utility.yul\":1582:1604   */\n  add\n    /* \"#utility.yul\":1541:1614   */\n  tag_81\n  jump\t// in\ntag_95:\n    /* \"#utility.yul\":1531:1614   */\n  swap2\n  pop\n    /* \"#utility.yul\":1333:1624   */\n  pop\n    /* \"#utility.yul\":953:1631   */\n  swap3\n  pop\n  swap3\n  swap1\n  pop\n  jump\t// out\n    /* \"#utility.yul\":1637:2010   */\ntag_96:\n    /* \"#utility.yul\":1741:1744   */\n  0x00\n    /* \"#utility.yul\":1769:1807   */\n  tag_98\n    /* \"#utility.yul\":1801:1806   */\n  dup3\n    /* \"#utility.yul\":1769:1807   */\n  tag_99\n  jump\t// in\ntag_98:\n    /* \"#utility.yul\":1823:1911   */\n  tag_100\n    /* \"#utility.yul\":1904:1910   */\n  dup2\n    /* \"#utility.yul\":1899:1902   */\n  dup6\n    /* \"#utility.yul\":1823:1911   */\n  tag_101\n  jump\t// in\ntag_100:\n    /* \"#utility.yul\":1816:1911   */\n  swap4\n  pop\n    /* \"#utility.yul\":1920:1972   */\n  tag_102\n    /* \"#utility.yul\":1965:1971   */\n  dup2\n    /* \"#utility.yul\":1960:1963   */\n  dup6\n    /* \"#utility.yul\":1953:1957   */\n  0x20\n    /* \"#utility.yul\":1946:1951   */\n  dup7\n    /* \"#utility.yul\":1942:1958   */\n  add\n    /* \"#utility.yul\":1920:1972   */\n  tag_76\n  jump\t// in\ntag_102:\n    /* \"#utility.yul\":1997:2003   */\n  dup1\n    /* \"#utility.yul\":1992:1995   */\n  dup5\n    /* \"#utility.yul\":1988:2004   */\n  add\n    /* \"#utility.yul\":1981:2004   */\n  swap2\n  pop\n    /* \"#utility.yul\":1745:2010   */\n  pop\n    /* \"#utility.yul\":1637:2010   */\n  swap3\n  swap2\n  pop\n  pop\n  jump\t// out\n    /* \"#utility.yul\":2016:2380   */\ntag_103:\n    /* \"#utility.yul\":2104:2107   */\n  0x00\n    /* \"#utility.yul\":2132:2171   */\n  tag_105\n    /* \"#utility.yul\":2165:2170   */\n  dup3\n    /* \"#utility.yul\":2132:2171   */\n  tag_106\n  jump\t// in\ntag_105:\n    /* \"#utility.yul\":2187:2258   */\n  tag_107\n    /* \"#utility.yul\":2251:2257   */\n  dup2\n    /* \"#utility.yul\":2246:2249   */\n  dup6\n    /* \"#utility.yul\":2187:2258   */\n  tag_108\n  jump\t// in\ntag_107:\n    /* \"#utility.yul\":2180:2258   */\n  swap4\n  pop\n    /* \"#utility.yul\":2267:2319   */\n  tag_109\n    /* \"#utility.yul\":2312:2318   */\n  dup2\n    /* \"#utility.yul\":2307:2310   */\n  dup6\n    /* \"#utility.yul\":2300:2304   */\n  0x20\n    /* \"#utility.yul\":2293:2298   */\n  dup7\n    /* \"#utility.yul\":2289:2305   */\n  add\n    /* \"#utility.yul\":2267:2319   */\n  tag_76\n  jump\t// in\ntag_109:\n    /* \"#utility.yul\":2344:2373   */\n  tag_110\n    /* \"#utility.yul\":2366:2372   */\n  dup2\n    /* \"#utility.yul\":2344:2373   */\n  tag_111\n  jump\t// in\ntag_110:\n    /* \"#utility.yul\":2339:2342   */\n  dup5\n    /* \"#utility.yul\":2335:2374   */\n  add\n    /* \"#utility.yul\":2328:2374   */\n  swap2\n  pop\n    /* \"#utility.yul\":2108:2380   */\n  pop\n    /* \"#utility.yul\":2016:2380   */\n  swap3\n  swap2\n  pop\n  pop\n  jump\t// out\n    /* \"#utility.yul\":2386:2752   */\ntag_112:\n    /* \"#utility.yul\":2528:2531   */\n  0x00\n    /* \"#utility.yul\":2549:2616   */\n  tag_114\n    /* \"#utility.yul\":2613:2615   */\n  0x2d\n    /* \"#utility.yul\":2608:2611   */\n  dup4\n    /* \"#utility.yul\":2549:2616   */\n  tag_108\n  jump\t// in\ntag_114:\n    /* \"#utility.yul\":2542:2616   */\n  swap2\n  pop\n    /* \"#utility.yul\":2625:2718   */\n  tag_115\n    /* \"#utility.yul\":2714:2717   */\n  dup3\n    /* \"#utility.yul\":2625:2718   */\n  tag_116\n  jump\t// in\ntag_115:\n    /* \"#utility.yul\":2743:2745   */\n  0x40\n    /* \"#utility.yul\":2738:2741   */\n  dup3\n    /* \"#utility.yul\":2734:2746   */\n  add\n    /* \"#utility.yul\":2727:2746   */\n  swap1\n  pop\n    /* \"#utility.yul\":2386:2752   */\n  swap2\n  swap1\n  pop\n  jump\t// out\n    /* \"#utility.yul\":2758:3124   */\ntag_117:\n    /* \"#utility.yul\":2900:2903   */\n  0x00\n    /* \"#utility.yul\":2921:2988   */\n  tag_119\n    /* \"#utility.yul\":2985:2987   */\n  0x1d\n    /* \"#utility.yul\":2980:2983   */\n  dup4\n    /* \"#utility.yul\":2921:2988   */\n  tag_108\n  jump\t// in\ntag_119:\n    /* \"#utility.yul\":2914:2988   */\n  swap2\n  pop\n    /* \"#utility.yul\":2997:3090   */\n  tag_120\n    /* \"#utility.yul\":3086:3089   */\n  dup3\n    /* \"#utility.yul\":2997:3090   */\n  tag_121\n  jump\t// in\ntag_120:\n    /* \"#utility.yul\":3115:3117   */\n  0x20\n    /* \"#utility.yul\":3110:3113   */\n  dup3\n    /* \"#utility.yul\":3106:3118   */\n  add\n    /* \"#utility.yul\":3099:3118   */\n  swap1\n  pop\n    /* \"#utility.yul\":2758:3124   */\n  swap2\n  swap1\n  pop\n  jump\t// out\n    /* \"#utility.yul\":3130:3401   */\ntag_42:\n    /* \"#utility.yul\":3260:3263   */\n  0x00\n    /* \"#utility.yul\":3282:3375   */\n  tag_123\n    /* \"#utility.yul\":3371:3374   */\n  dup3\n    /* \"#utility.yul\":3362:3368   */\n  dup5\n    /* \"#utility.yul\":3282:3375   */\n  tag_96\n  jump\t// in\ntag_123:\n    /* \"#utility.yul\":3275:3375   */\n  swap2\n  pop\n    /* \"#utility.yul\":3392:3395   */\n  dup2\n    /* \"#utility.yul\":3385:3395   */\n  swap1\n  pop\n    /* \"#utility.yul\":3130:3401   */\n  swap3\n  swap2\n  pop\n  pop\n  jump\t// out\n    /* \"#utility.yul\":3407:3720   */\ntag_64:\n    /* \"#utility.yul\":3520:3524   */\n  0x00\n    /* \"#utility.yul\":3558:3560   */\n  0x20\n    /* \"#utility.yul\":3547:3556   */\n  dup3\n    /* \"#utility.yul\":3543:3561   */\n  add\n    /* \"#utility.yul\":3535:3561   */\n  swap1\n  pop\n    /* \"#utility.yul\":3607:3616   */\n  dup2\n    /* \"#utility.yul\":3601:3605   */\n  dup2\n    /* \"#utility.yul\":3597:3617   */\n  sub\n    /* \"#utility.yul\":3593:3594   */\n  0x00\n    /* \"#utility.yul\":3582:3591   */\n  dup4\n    /* \"#utility.yul\":3578:3595   */\n  add\n    /* \"#utility.yul\":3571:3618   */\n  mstore\n    /* \"#utility.yul\":3635:3713   */\n  tag_125\n    /* \"#utility.yul\":3708:3712   */\n  dup2\n    /* \"#utility.yul\":3699:3705   */\n  dup5\n    /* \"#utility.yul\":3635:3713   */\n  tag_103\n  jump\t// in\ntag_125:\n    /* \"#utility.yul\":3627:3713   */\n  swap1\n  pop\n    /* \"#utility.yul\":3407:3720   */\n  swap3\n  swap2\n  pop\n  pop\n  jump\t// out\n    /* \"#utility.yul\":3726:4145   */\ntag_37:\n    /* \"#utility.yul\":3892:3896   */\n  0x00\n    /* \"#utility.yul\":3930:3932   */\n  0x20\n    /* \"#utility.yul\":3919:3928   */\n  dup3\n    /* \"#utility.yul\":3915:3933   */\n  add\n    /* \"#utility.yul\":3907:3933   */\n  swap1\n  pop\n    /* \"#utility.yul\":3979:3988   */\n  dup2\n    /* \"#utility.yul\":3973:3977   */\n  dup2\n    /* \"#utility.yul\":3969:3989   */\n  sub\n    /* \"#utility.yul\":3965:3966   */\n  0x00\n    /* \"#utility.yul\":3954:3963   */\n  dup4\n    /* \"#utility.yul\":3950:3967   */\n  add\n    /* \"#utility.yul\":3943:3990   */\n  mstore\n    /* \"#utility.yul\":4007:4138   */\n  tag_127\n    /* \"#utility.yul\":4133:4137   */\n  dup2\n    /* \"#utility.yul\":4007:4138   */\n  tag_112\n  jump\t// in\ntag_127:\n    /* \"#utility.yul\":3999:4138   */\n  swap1\n  pop\n    /* \"#utility.yul\":3726:4145   */\n  swap2\n  swap1\n  pop\n  jump\t// out\n    /* \"#utility.yul\":4151:4570   */\ntag_56:\n    /* \"#utility.yul\":4317:4321   */\n  0x00\n    /* \"#utility.yul\":4355:4357   */\n  0x20\n    /* \"#utility.yul\":4344:4353   */\n  dup3\n    /* \"#utility.yul\":4340:4358   */\n  add\n    /* \"#utility.yul\":4332:4358   */\n  swap1\n  pop\n    /* \"#utility.yul\":4404:4413   */\n  dup2\n    /* \"#utility.yul\":4398:4402   */\n  dup2\n    /* \"#utility.yul\":4394:4414   */\n  sub\n    /* \"#utility.yul\":4390:4391   */\n  0x00\n    /* \"#utility.yul\":4379:4388   */\n  dup4\n    /* \"#utility.yul\":4375:4392   */\n  add\n    /* \"#utility.yul\":4368:4415   */\n  mstore\n    /* \"#utility.yul\":4432:4563   */\n  tag_129\n    /* \"#utility.yul\":4558:4562   */\n  dup2\n    /* \"#utility.yul\":4432:4563   */\n  tag_117\n  jump\t// in\ntag_129:\n    /* \"#utility.yul\":4424:4563   */\n  swap1\n  pop\n    /* \"#utility.yul\":4151:4570   */\n  swap2\n  swap1\n  pop\n  jump\t// out\n    /* \"#utility.yul\":4576:4705   */\ntag_71:\n    /* \"#utility.yul\":4610:4616   */\n  0x00\n    /* \"#utility.yul\":4637:4657   */\n  tag_131\n  tag_132\n  jump\t// in\ntag_131:\n    /* \"#utility.yul\":4627:4657   */\n  swap1\n  pop\n    /* \"#utility.yul\":4666:4699   */\n  tag_133\n    /* \"#utility.yul\":4694:4698   */\n  dup3\n    /* \"#utility.yul\":4686:4692   */\n  dup3\n    /* \"#utility.yul\":4666:4699   */\n  tag_134\n  jump\t// in\ntag_133:\n    /* \"#utility.yul\":4576:4705   */\n  swap2\n  swap1\n  pop\n  jump\t// out\n    /* \"#utility.yul\":4711:4786   */\ntag_132:\n    /* \"#utility.yul\":4744:4750   */\n  0x00\n    /* \"#utility.yul\":4777:4779   */\n  0x40\n    /* \"#utility.yul\":4771:4780   */\n  mload\n    /* \"#utility.yul\":4761:4780   */\n  swap1\n  pop\n    /* \"#utility.yul\":4711:4786   */\n  swap1\n  jump\t// out\n    /* \"#utility.yul\":4792:5099   */\ntag_70:\n    /* \"#utility.yul\":4853:4857   */\n  0x00\n    /* \"#utility.yul\":4943:4961   */\n  0xffffffffffffffff\n    /* \"#utility.yul\":4935:4941   */\n  dup3\n    /* \"#utility.yul\":4932:4962   */\n  gt\n    /* \"#utility.yul\":4929:4985   */\n  iszero\n  tag_137\n  jumpi\n    /* \"#utility.yul\":4965:4983   */\n  tag_138\n  tag_139\n  jump\t// in\ntag_138:\n    /* \"#utility.yul\":4929:4985   */\ntag_137:\n    /* \"#utility.yul\":5003:5032   */\n  tag_140\n    /* \"#utility.yul\":5025:5031   */\n  dup3\n    /* \"#utility.yul\":5003:5032   */\n  tag_111\n  jump\t// in\ntag_140:\n    /* \"#utility.yul\":4995:5032   */\n  swap1\n  pop\n    /* \"#utility.yul\":5087:5091   */\n  0x20\n    /* \"#utility.yul\":5081:5085   */\n  dup2\n    /* \"#utility.yul\":5077:5092   */\n  add\n    /* \"#utility.yul\":5069:5092   */\n  swap1\n  pop\n    /* \"#utility.yul\":4792:5099   */\n  swap2\n  swap1\n  pop\n  jump\t// out\n    /* \"#utility.yul\":5105:5203   */\ntag_99:\n    /* \"#utility.yul\":5156:5162   */\n  0x00\n    /* \"#utility.yul\":5190:5195   */\n  dup2\n    /* \"#utility.yul\":5184:5196   */\n  mload\n    /* \"#utility.yul\":5174:5196   */\n  swap1\n  pop\n    /* \"#utility.yul\":5105:5203   */\n  swap2\n  swap1\n  pop\n  jump\t// out\n    /* \"#utility.yul\":5209:5308   */\ntag_106:\n    /* \"#utility.yul\":5261:5267   */\n  0x00\n    /* \"#utility.yul\":5295:5300   */\n  dup2\n    /* \"#utility.yul\":5289:5301   */\n  mload\n    /* \"#utility.yul\":5279:5301   */\n  swap1\n  pop\n    /* \"#utility.yul\":5209:5308   */\n  swap2\n  swap1\n  pop\n  jump\t// out\n    /* \"#utility.yul\":5314:5461   */\ntag_101:\n    /* \"#utility.yul\":5415:5426   */\n  0x00\n    /* \"#utility.yul\":5452:5455   */\n  dup2\n    /* \"#utility.yul\":5437:5455   */\n  swap1\n  pop\n    /* \"#utility.yul\":5314:5461   */\n  swap3\n  swap2\n  pop\n  pop\n  jump\t// out\n    /* \"#utility.yul\":5467:5636   */\ntag_108:\n    /* \"#utility.yul\":5551:5562   */\n  0x00\n    /* \"#utility.yul\":5585:5591   */\n  dup3\n    /* \"#utility.yul\":5580:5583   */\n  dup3\n    /* \"#utility.yul\":5573:5592   */\n  mstore\n    /* \"#utility.yul\":5625:5629   */\n  0x20\n    /* \"#utility.yul\":5620:5623   */\n  dup3\n    /* \"#utility.yul\":5616:5630   */\n  add\n    /* \"#utility.yul\":5601:5630   */\n  swap1\n  pop\n    /* \"#utility.yul\":5467:5636   */\n  swap3\n  swap2\n  pop\n  pop\n  jump\t// out\n    /* \"#utility.yul\":5642:5738   */\ntag_145:\n    /* \"#utility.yul\":5679:5686   */\n  0x00\n    /* \"#utility.yul\":5708:5732   */\n  tag_147\n    /* \"#utility.yul\":5726:5731   */\n  dup3\n    /* \"#utility.yul\":5708:5732   */\n  tag_148\n  jump\t// in\ntag_147:\n    /* \"#utility.yul\":5697:5732   */\n  swap1\n  pop\n    /* \"#utility.yul\":5642:5738   */\n  swap2\n  swap1\n  pop\n  jump\t// out\n    /* \"#utility.yul\":5744:5870   */\ntag_148:\n    /* \"#utility.yul\":5781:5788   */\n  0x00\n    /* \"#utility.yul\":5821:5863   */\n  0xffffffffffffffffffffffffffffffffffffffff\n    /* \"#utility.yul\":5814:5819   */\n  dup3\n    /* \"#utility.yul\":5810:5864   */\n  and\n    /* \"#utility.yul\":5799:5864   */\n  swap1\n  pop\n    /* \"#utility.yul\":5744:5870   */\n  swap2\n  swap1\n  pop\n  jump\t// out\n    /* \"#utility.yul\":5876:6183   */\ntag_76:\n    /* \"#utility.yul\":5944:5945   */\n  0x00\n    /* \"#utility.yul\":5954:6067   */\ntag_151:\n    /* \"#utility.yul\":5968:5974   */\n  dup4\n    /* \"#utility.yul\":5965:5966   */\n  dup2\n    /* \"#utility.yul\":5962:5975   */\n  lt\n    /* \"#utility.yul\":5954:6067   */\n  iszero\n  tag_153\n  jumpi\n    /* \"#utility.yul\":6053:6054   */\n  dup1\n    /* \"#utility.yul\":6048:6051   */\n  dup3\n    /* \"#utility.yul\":6044:6055   */\n  add\n    /* \"#utility.yul\":6038:6056   */\n  mload\n    /* \"#utility.yul\":6034:6035   */\n  dup2\n    /* \"#utility.yul\":6029:6032   */\n  dup5\n    /* \"#utility.yul\":6025:6036   */\n  add\n    /* \"#utility.yul\":6018:6057   */\n  mstore\n    /* \"#utility.yul\":5990:5992   */\n  0x20\n    /* \"#utility.yul\":5987:5988   */\n  dup2\n    /* \"#utility.yul\":5983:5993   */\n  add\n    /* \"#utility.yul\":5978:5993   */\n  swap1\n  pop\n    /* \"#utility.yul\":5954:6067   */\n  jump(tag_151)\ntag_153:\n    /* \"#utility.yul\":6085:6091   */\n  dup4\n    /* \"#utility.yul\":6082:6083   */\n  dup2\n    /* \"#utility.yul\":6079:6092   */\n  gt\n    /* \"#utility.yul\":6076:6177   */\n  iszero\n  tag_154\n  jumpi\n    /* \"#utility.yul\":6165:6166   */\n  0x00\n    /* \"#utility.yul\":6156:6162   */\n  dup5\n    /* \"#utility.yul\":6151:6154   */\n  dup5\n    /* \"#utility.yul\":6147:6163   */\n  add\n    /* \"#utility.yul\":6140:6167   */\n  mstore\n    /* \"#utility.yul\":6076:6177   */\ntag_154:\n    /* \"#utility.yul\":5925:6183   */\n  pop\n    /* \"#utility.yul\":5876:6183   */\n  pop\n  pop\n  pop\n  jump\t// out\n    /* \"#utility.yul\":6189:6470   */\ntag_134:\n    /* \"#utility.yul\":6272:6299   */\n  tag_156\n    /* \"#utility.yul\":6294:6298   */\n  dup3\n    /* \"#utility.yul\":6272:6299   */\n  tag_111\n  jump\t// in\ntag_156:\n    /* \"#utility.yul\":6264:6270   */\n  dup2\n    /* \"#utility.yul\":6260:6300   */\n  add\n    /* \"#utility.yul\":6402:6408   */\n  dup2\n    /* \"#utility.yul\":6390:6400   */\n  dup2\n    /* \"#utility.yul\":6387:6409   */\n  lt\n    /* \"#utility.yul\":6366:6384   */\n  0xffffffffffffffff\n    /* \"#utility.yul\":6354:6364   */\n  dup3\n    /* \"#utility.yul\":6351:6385   */\n  gt\n    /* \"#utility.yul\":6348:6410   */\n  or\n    /* \"#utility.yul\":6345:6433   */\n  iszero\n  tag_157\n  jumpi\n    /* \"#utility.yul\":6413:6431   */\n  tag_158\n  tag_139\n  jump\t// in\ntag_158:\n    /* \"#utility.yul\":6345:6433   */\ntag_157:\n    /* \"#utility.yul\":6453:6463   */\n  dup1\n    /* \"#utility.yul\":6449:6451   */\n  0x40\n    /* \"#utility.yul\":6442:6464   */\n  mstore\n    /* \"#utility.yul\":6232:6470   */\n  pop\n    /* \"#utility.yul\":6189:6470   */\n  pop\n  pop\n  jump\t// out\n    /* \"#utility.yul\":6476:6656   */\ntag_139:\n    /* \"#utility.yul\":6524:6601   */\n  0x4e487b7100000000000000000000000000000000000000000000000000000000\n    /* \"#utility.yul\":6521:6522   */\n  0x00\n    /* \"#utility.yul\":6514:6602   */\n  mstore\n    /* \"#utility.yul\":6621:6625   */\n  0x41\n    /* \"#utility.yul\":6618:6619   */\n  0x04\n    /* \"#utility.yul\":6611:6626   */\n  mstore\n    /* \"#utility.yul\":6645:6649   */\n  0x24\n    /* \"#utility.yul\":6642:6643   */\n  0x00\n    /* \"#utility.yul\":6635:6650   */\n  revert\n    /* \"#utility.yul\":6662:6779   */\ntag_85:\n    /* \"#utility.yul\":6771:6772   */\n  0x00\n    /* \"#utility.yul\":6768:6769   */\n  dup1\n    /* \"#utility.yul\":6761:6773   */\n  revert\n    /* \"#utility.yul\":6785:6902   */\ntag_74:\n    /* \"#utility.yul\":6894:6895   */\n  0x00\n    /* \"#utility.yul\":6891:6892   */\n  dup1\n    /* \"#utility.yul\":6884:6896   */\n  revert\n    /* \"#utility.yul\":6908:7025   */\ntag_94:\n    /* \"#utility.yul\":7017:7018   */\n  0x00\n    /* \"#utility.yul\":7014:7015   */\n  dup1\n    /* \"#utility.yul\":7007:7019   */\n  revert\n    /* \"#utility.yul\":7031:7148   */\ntag_90:\n    /* \"#utility.yul\":7140:7141   */\n  0x00\n    /* \"#utility.yul\":7137:7138   */\n  dup1\n    /* \"#utility.yul\":7130:7142   */\n  revert\n    /* \"#utility.yul\":7154:7256   */\ntag_111:\n    /* \"#utility.yul\":7195:7201   */\n  0x00\n    /* \"#utility.yul\":7246:7248   */\n  0x1f\n    /* \"#utility.yul\":7242:7249   */\n  not\n    /* \"#utility.yul\":7237:7239   */\n  0x1f\n    /* \"#utility.yul\":7230:7235   */\n  dup4\n    /* \"#utility.yul\":7226:7240   */\n  add\n    /* \"#utility.yul\":7222:7250   */\n  and\n    /* \"#utility.yul\":7212:7250   */\n  swap1\n  pop\n    /* \"#utility.yul\":7154:7256   */\n  swap2\n  swap1\n  pop\n  jump\t// out\n    /* \"#utility.yul\":7262:7494   */\ntag_116:\n    /* \"#utility.yul\":7402:7436   */\n  0x455243313936373a206e657720696d706c656d656e746174696f6e206973206e\n    /* \"#utility.yul\":7398:7399   */\n  0x00\n    /* \"#utility.yul\":7390:7396   */\n  dup3\n    /* \"#utility.yul\":7386:7400   */\n  add\n    /* \"#utility.yul\":7379:7437   */\n  mstore\n    /* \"#utility.yul\":7471:7486   */\n  0x6f74206120636f6e747261637400000000000000000000000000000000000000\n    /* \"#utility.yul\":7466:7468   */\n  0x20\n    /* \"#utility.yul\":7458:7464   */\n  dup3\n    /* \"#utility.yul\":7454:7469   */\n  add\n    /* \"#utility.yul\":7447:7487   */\n  mstore\n    /* \"#utility.yul\":7262:7494   */\n  pop\n  jump\t// out\n    /* \"#utility.yul\":7500:7679   */\ntag_121:\n    /* \"#utility.yul\":7640:7671   */\n  0x416464726573733a2063616c6c20746f206e6f6e2d636f6e7472616374000000\n    /* \"#utility.yul\":7636:7637   */\n  0x00\n    /* \"#utility.yul\":7628:7634   */\n  dup3\n    /* \"#utility.yul\":7624:7638   */\n  add\n    /* \"#utility.yul\":7617:7672   */\n  mstore\n    /* \"#utility.yul\":7500:7679   */\n  pop\n  jump\t// out\n    /* \"#utility.yul\":7685:7807   */\ntag_80:\n    /* \"#utility.yul\":7758:7782   */\n  tag_168\n    /* \"#utility.yul\":7776:7781   */\n  dup2\n    /* \"#utility.yul\":7758:7782   */\n  tag_145\n  jump\t// in\ntag_168:\n    /* \"#utility.yul\":7751:7756   */\n  dup2\n    /* \"#utility.yul\":7748:7783   */\n  eq\n    /* \"#utility.yul\":7738:7801   */\n  tag_169\n  jumpi\n    /* \"#utility.yul\":7797:7798   */\n  0x00\n    /* \"#utility.yul\":7794:7795   */\n  dup1\n    /* \"#utility.yul\":7787:7799   */\n  revert\n    /* \"#utility.yul\":7738:7801   */\ntag_169:\n    /* \"#utility.yul\":7685:7807   */\n  pop\n  jump\t// out\n    /* \"study/token-airdrop/contracts/proxy1967.sol\":184:532  contract MyProxyBaseContract is ERC1967Proxy, Ownable {\r... */\ntag_16:\n  dataSize(sub_0)\n  dup1\n  dataOffset(sub_0)\n  0x00\n  codecopy\n  0x00\n  return\nstop\ndata_9fdcd12e4b726339b32a442b0a448365d5d85c96b2d2cff917b4f66c63110398 416464726573733a206c6f772d6c6576656c2064656c65676174652063616c6c206661696c6564\n\nsub_0: assembly {\n        /* \"study/token-airdrop/contracts/proxy1967.sol\":184:532  contract MyProxyBaseContract is ERC1967Proxy, Ownable {\r... */\n      mstore(0x40, 0x80)\n      jumpi(tag_1, lt(calldatasize, 0x04))\n      shr(0xe0, calldataload(0x00))\n      dup1\n      0x0900f010\n      eq\n      tag_3\n      jumpi\n      dup1\n      0x5c60da1b\n      eq\n      tag_4\n      jumpi\n      dup1\n      0x715018a6\n      eq\n      tag_5\n      jumpi\n      dup1\n      0x8da5cb5b\n      eq\n      tag_6\n      jumpi\n      dup1\n      0xf2fde38b\n      eq\n      tag_7\n      jumpi\n      jump(tag_2)\n    tag_1:\n      jumpi(tag_2, calldatasize)\n        /* \"@openzeppelin/contracts/proxy/Proxy.sol\":2898:2909  _fallback() */\n      tag_10\n        /* \"@openzeppelin/contracts/proxy/Proxy.sol\":2898:2907  _fallback */\n      tag_11\n        /* \"@openzeppelin/contracts/proxy/Proxy.sol\":2898:2909  _fallback() */\n      jump\t// in\n    tag_10:\n        /* \"study/token-airdrop/contracts/proxy1967.sol\":184:532  contract MyProxyBaseContract is ERC1967Proxy, Ownable {\r... */\n      stop\n    tag_2:\n        /* \"@openzeppelin/contracts/proxy/Proxy.sol\":2675:2686  _fallback() */\n      tag_14\n        /* \"@openzeppelin/contracts/proxy/Proxy.sol\":2675:2684  _fallback */\n      tag_11\n        /* \"@openzeppelin/contracts/proxy/Proxy.sol\":2675:2686  _fallback() */\n      jump\t// in\n    tag_14:\n        /* \"study/token-airdrop/contracts/proxy1967.sol\":184:532  contract MyProxyBaseContract is ERC1967Proxy, Ownable {\r... */\n      stop\n        /* \"study/token-airdrop/contracts/proxy1967.sol\":333:418  function upgrade(address _newLogic) external {\r... */\n    tag_3:\n      callvalue\n      dup1\n      iszero\n      tag_15\n      jumpi\n      0x00\n      dup1\n      revert\n    tag_15:\n      pop\n      tag_16\n      0x04\n      dup1\n      calldatasize\n      sub\n      dup2\n      add\n      swap1\n      tag_17\n      swap2\n      swap1\n      tag_18\n      jump\t// in\n    tag_17:\n      tag_19\n      jump\t// in\n    tag_16:\n      stop\n        /* \"study/token-airdrop/contracts/proxy1967.sol\":426:527  function implementation() external view returns (address) {\r... */\n    tag_4:\n      callvalue\n      dup1\n      iszero\n      tag_20\n      jumpi\n      0x00\n      dup1\n      revert\n    tag_20:\n      pop\n      tag_21\n      tag_22\n      jump\t// in\n    tag_21:\n      mload(0x40)\n      tag_23\n      swap2\n      swap1\n      tag_24\n      jump\t// in\n    tag_23:\n      mload(0x40)\n      dup1\n      swap2\n      sub\n      swap1\n      return\n        /* \"@openzeppelin/contracts/access/Ownable.sol\":1831:1932  function renounceOwnership() public virtual onlyOwner {... */\n    tag_5:\n      callvalue\n      dup1\n      iszero\n      tag_25\n      jumpi\n      0x00\n      dup1\n      revert\n    tag_25:\n      pop\n      tag_26\n      tag_27\n      jump\t// in\n    tag_26:\n      stop\n        /* \"@openzeppelin/contracts/access/Ownable.sol\":1201:1286  function owner() public view virtual returns (address) {... */\n    tag_6:\n      callvalue\n      dup1\n      iszero\n      tag_28\n      jumpi\n      0x00\n      dup1\n      revert\n    tag_28:\n      pop\n      tag_29\n      tag_30\n      jump\t// in\n    tag_29:\n      mload(0x40)\n      tag_31\n      swap2\n      swap1\n      tag_24\n      jump\t// in\n    tag_31:\n      mload(0x40)\n      dup1\n      swap2\n      sub\n      swap1\n      return\n        /* \"@openzeppelin/contracts/access/Ownable.sol\":2081:2279  function transferOwnership(address newOwner) public virtual onlyOwner {... */\n    tag_7:\n      callvalue\n      dup1\n      iszero\n      tag_32\n      jumpi\n      0x00\n      dup1\n      revert\n    tag_32:\n      pop\n      tag_33\n      0x04\n      dup1\n      calldatasize\n      sub\n      dup2\n      add\n      swap1\n      tag_34\n      swap2\n      swap1\n      tag_18\n      jump\t// in\n    tag_34:\n      tag_35\n      jump\t// in\n    tag_33:\n      stop\n        /* \"@openzeppelin/contracts/proxy/Proxy.sol\":2322:2432  function _fallback() internal virtual {... */\n    tag_11:\n        /* \"@openzeppelin/contracts/proxy/Proxy.sol\":2370:2387  _beforeFallback() */\n      tag_40\n        /* \"@openzeppelin/contracts/proxy/Proxy.sol\":2370:2385  _beforeFallback */\n      tag_41\n        /* \"@openzeppelin/contracts/proxy/Proxy.sol\":2370:2387  _beforeFallback() */\n      jump\t// in\n    tag_40:\n        /* \"@openzeppelin/contracts/proxy/Proxy.sol\":2397:2425  _delegate(_implementation()) */\n      tag_42\n        /* \"@openzeppelin/contracts/proxy/Proxy.sol\":2407:2424  _implementation() */\n      tag_43\n        /* \"@openzeppelin/contracts/proxy/Proxy.sol\":2407:2422  _implementation */\n      tag_44\n        /* \"@openzeppelin/contracts/proxy/Proxy.sol\":2407:2424  _implementation() */\n      jump\t// in\n    tag_43:\n        /* \"@openzeppelin/contracts/proxy/Proxy.sol\":2397:2406  _delegate */\n      tag_45\n        /* \"@openzeppelin/contracts/proxy/Proxy.sol\":2397:2425  _delegate(_implementation()) */\n      jump\t// in\n    tag_42:\n        /* \"@openzeppelin/contracts/proxy/Proxy.sol\":2322:2432  function _fallback() internal virtual {... */\n      jump\t// out\n        /* \"study/token-airdrop/contracts/proxy1967.sol\":333:418  function upgrade(address _newLogic) external {\r... */\n    tag_19:\n        /* \"study/token-airdrop/contracts/proxy1967.sol\":389:410  _upgradeTo(_newLogic) */\n      tag_47\n        /* \"study/token-airdrop/contracts/proxy1967.sol\":400:409  _newLogic */\n      dup2\n        /* \"study/token-airdrop/contracts/proxy1967.sol\":389:399  _upgradeTo */\n      tag_48\n        /* \"study/token-airdrop/contracts/proxy1967.sol\":389:410  _upgradeTo(_newLogic) */\n      jump\t// in\n    tag_47:\n        /* \"study/token-airdrop/contracts/proxy1967.sol\":333:418  function upgrade(address _newLogic) external {\r... */\n      pop\n      jump\t// out\n        /* \"study/token-airdrop/contracts/proxy1967.sol\":426:527  function implementation() external view returns (address) {\r... */\n    tag_22:\n        /* \"study/token-airdrop/contracts/proxy1967.sol\":475:482  address */\n      0x00\n        /* \"study/token-airdrop/contracts/proxy1967.sol\":502:519  _implementation() */\n      tag_50\n        /* \"study/token-airdrop/contracts/proxy1967.sol\":502:517  _implementation */\n      tag_44\n        /* \"study/token-airdrop/contracts/proxy1967.sol\":502:519  _implementation() */\n      jump\t// in\n    tag_50:\n        /* \"study/token-airdrop/contracts/proxy1967.sol\":495:519  return _implementation() */\n      swap1\n      pop\n        /* \"study/token-airdrop/contracts/proxy1967.sol\":426:527  function implementation() external view returns (address) {\r... */\n      swap1\n      jump\t// out\n        /* \"@openzeppelin/contracts/access/Ownable.sol\":1831:1932  function renounceOwnership() public virtual onlyOwner {... */\n    tag_27:\n        /* \"@openzeppelin/contracts/access/Ownable.sol\":1094:1107  _checkOwner() */\n      tag_52\n        /* \"@openzeppelin/contracts/access/Ownable.sol\":1094:1105  _checkOwner */\n      tag_53\n        /* \"@openzeppelin/contracts/access/Ownable.sol\":1094:1107  _checkOwner() */\n      jump\t// in\n    tag_52:\n        /* \"@openzeppelin/contracts/access/Ownable.sol\":1895:1925  _transferOwnership(address(0)) */\n      tag_55\n        /* \"@openzeppelin/contracts/access/Ownable.sol\":1922:1923  0 */\n      0x00\n        /* \"@openzeppelin/contracts/access/Ownable.sol\":1895:1913  _transferOwnership */\n      tag_56\n        /* \"@openzeppelin/contracts/access/Ownable.sol\":1895:1925  _transferOwnership(address(0)) */\n      jump\t// in\n    tag_55:\n        /* \"@openzeppelin/contracts/access/Ownable.sol\":1831:1932  function renounceOwnership() public virtual onlyOwner {... */\n      jump\t// out\n        /* \"@openzeppelin/contracts/access/Ownable.sol\":1201:1286  function owner() public view virtual returns (address) {... */\n    tag_30:\n        /* \"@openzeppelin/contracts/access/Ownable.sol\":1247:1254  address */\n      0x00\n        /* \"@openzeppelin/contracts/access/Ownable.sol\":1273:1279  _owner */\n      dup1\n      0x00\n      swap1\n      sload\n      swap1\n      0x0100\n      exp\n      swap1\n      div\n      0xffffffffffffffffffffffffffffffffffffffff\n      and\n        /* \"@openzeppelin/contracts/access/Ownable.sol\":1266:1279  return _owner */\n      swap1\n      pop\n        /* \"@openzeppelin/contracts/access/Ownable.sol\":1201:1286  function owner() public view virtual returns (address) {... */\n      swap1\n      jump\t// out\n        /* \"@openzeppelin/contracts/access/Ownable.sol\":2081:2279  function transferOwnership(address newOwner) public virtual onlyOwner {... */\n    tag_35:\n        /* \"@openzeppelin/contracts/access/Ownable.sol\":1094:1107  _checkOwner() */\n      tag_59\n        /* \"@openzeppelin/contracts/access/Ownable.sol\":1094:1105  _checkOwner */\n      tag_53\n        /* \"@openzeppelin/contracts/access/Ownable.sol\":1094:1107  _checkOwner() */\n      jump\t// in\n    tag_59:\n        /* \"@openzeppelin/contracts/access/Ownable.sol\":2189:2190  0 */\n      0x00\n        /* \"@openzeppelin/contracts/access/Ownable.sol\":2169:2191  newOwner != address(0) */\n      0xffffffffffffffffffffffffffffffffffffffff\n      and\n        /* \"@openzeppelin/contracts/access/Ownable.sol\":2169:2177  newOwner */\n      dup2\n        /* \"@openzeppelin/contracts/access/Ownable.sol\":2169:2191  newOwner != address(0) */\n      0xffffffffffffffffffffffffffffffffffffffff\n      and\n      eq\n      iszero\n        /* \"@openzeppelin/contracts/access/Ownable.sol\":2161:2234  require(newOwner != address(0), \"Ownable: new owner is the zero address\") */\n      tag_61\n      jumpi\n      mload(0x40)\n      0x08c379a000000000000000000000000000000000000000000000000000000000\n      dup2\n      mstore\n      0x04\n      add\n      tag_62\n      swap1\n      tag_63\n      jump\t// in\n    tag_62:\n      mload(0x40)\n      dup1\n      swap2\n      sub\n      swap1\n      revert\n    tag_61:\n        /* \"@openzeppelin/contracts/access/Ownable.sol\":2244:2272  _transferOwnership(newOwner) */\n      tag_64\n        /* \"@openzeppelin/contracts/access/Ownable.sol\":2263:2271  newOwner */\n      dup2\n        /* \"@openzeppelin/contracts/access/Ownable.sol\":2244:2262  _transferOwnership */\n      tag_56\n        /* \"@openzeppelin/contracts/access/Ownable.sol\":2244:2272  _transferOwnership(newOwner) */\n      jump\t// in\n    tag_64:\n        /* \"@openzeppelin/contracts/access/Ownable.sol\":2081:2279  function transferOwnership(address newOwner) public virtual onlyOwner {... */\n      pop\n      jump\t// out\n        /* \"@openzeppelin/contracts/utils/Address.sol\":6469:6667  function functionDelegateCall(address target, bytes memory data) internal returns (bytes memory) {... */\n    tag_36:\n        /* \"@openzeppelin/contracts/utils/Address.sol\":6552:6564  bytes memory */\n      0x60\n        /* \"@openzeppelin/contracts/utils/Address.sol\":6583:6660  functionDelegateCall(target, data, \"Address: low-level delegate call failed\") */\n      tag_66\n        /* \"@openzeppelin/contracts/utils/Address.sol\":6604:6610  target */\n      dup4\n        /* \"@openzeppelin/contracts/utils/Address.sol\":6612:6616  data */\n      dup4\n        /* \"@openzeppelin/contracts/utils/Address.sol\":6583:6660  functionDelegateCall(target, data, \"Address: low-level delegate call failed\") */\n      mload(0x40)\n      dup1\n      0x60\n      add\n      0x40\n      mstore\n      dup1\n      0x27\n      dup2\n      mstore\n      0x20\n      add\n      data_9fdcd12e4b726339b32a442b0a448365d5d85c96b2d2cff917b4f66c63110398\n      0x27\n      swap2\n      codecopy\n        /* \"@openzeppelin/contracts/utils/Address.sol\":6583:6603  functionDelegateCall */\n      tag_67\n        /* \"@openzeppelin/contracts/utils/Address.sol\":6583:6660  functionDelegateCall(target, data, \"Address: low-level delegate call failed\") */\n      jump\t// in\n    tag_66:\n        /* \"@openzeppelin/contracts/utils/Address.sol\":6576:6660  return functionDelegateCall(target, data, \"Address: low-level delegate call failed\") */\n      swap1\n      pop\n        /* \"@openzeppelin/contracts/utils/Address.sol\":6469:6667  function functionDelegateCall(address target, bytes memory data) internal returns (bytes memory) {... */\n      swap3\n      swap2\n      pop\n      pop\n      jump\t// out\n        /* \"@openzeppelin/contracts/utils/Address.sol\":1175:1495  function isContract(address account) internal view returns (bool) {... */\n    tag_37:\n        /* \"@openzeppelin/contracts/utils/Address.sol\":1235:1239  bool */\n      0x00\n        /* \"@openzeppelin/contracts/utils/Address.sol\":1487:1488  0 */\n      dup1\n        /* \"@openzeppelin/contracts/utils/Address.sol\":1465:1472  account */\n      dup3\n        /* \"@openzeppelin/contracts/utils/Address.sol\":1465:1484  account.code.length */\n      0xffffffffffffffffffffffffffffffffffffffff\n      and\n      extcodesize\n        /* \"@openzeppelin/contracts/utils/Address.sol\":1465:1488  account.code.length > 0 */\n      gt\n        /* \"@openzeppelin/contracts/utils/Address.sol\":1458:1488  return account.code.length > 0 */\n      swap1\n      pop\n        /* \"@openzeppelin/contracts/utils/Address.sol\":1175:1495  function isContract(address account) internal view returns (bool) {... */\n      swap2\n      swap1\n      pop\n      jump\t// out\n        /* \"@openzeppelin/contracts/utils/StorageSlot.sol\":1614:1804  function getAddressSlot(bytes32 slot) internal pure returns (AddressSlot storage r) {... */\n    tag_38:\n        /* \"@openzeppelin/contracts/utils/StorageSlot.sol\":1675:1696  AddressSlot storage r */\n      0x00\n        /* \"@openzeppelin/contracts/utils/StorageSlot.sol\":1784:1788  slot */\n      dup2\n        /* \"@openzeppelin/contracts/utils/StorageSlot.sol\":1774:1788  r.slot := slot */\n      swap1\n      pop\n        /* \"@openzeppelin/contracts/utils/StorageSlot.sol\":1614:1804  function getAddressSlot(bytes32 slot) internal pure returns (AddressSlot storage r) {... */\n      swap2\n      swap1\n      pop\n      jump\t// out\n        /* \"@openzeppelin/contracts/proxy/Proxy.sol\":3198:3244  function _beforeFallback() internal virtual {} */\n    tag_41:\n      jump\t// out\n        /* \"@openzeppelin/contracts/proxy/ERC1967/ERC1967Proxy.sol\":1148:1288  function _implementation() internal view virtual override returns (address impl) {... */\n    tag_44:\n        /* \"@openzeppelin/contracts/proxy/ERC1967/ERC1967Proxy.sol\":1215:1227  address impl */\n      0x00\n        /* \"@openzeppelin/contracts/proxy/ERC1967/ERC1967Proxy.sol\":1246:1281  ERC1967Upgrade._getImplementation() */\n      tag_72\n        /* \"@openzeppelin/contracts/proxy/ERC1967/ERC1967Proxy.sol\":1246:1279  ERC1967Upgrade._getImplementation */\n      tag_73\n        /* \"@openzeppelin/contracts/proxy/ERC1967/ERC1967Proxy.sol\":1246:1281  ERC1967Upgrade._getImplementation() */\n      jump\t// in\n    tag_72:\n        /* \"@openzeppelin/contracts/proxy/ERC1967/ERC1967Proxy.sol\":1239:1281  return ERC1967Upgrade._getImplementation() */\n      swap1\n      pop\n        /* \"@openzeppelin/contracts/proxy/ERC1967/ERC1967Proxy.sol\":1148:1288  function _implementation() internal view virtual override returns (address impl) {... */\n      swap1\n      jump\t// out\n        /* \"@openzeppelin/contracts/proxy/Proxy.sol\":948:1843  function _delegate(address implementation) internal virtual {... */\n    tag_45:\n        /* \"@openzeppelin/contracts/proxy/Proxy.sol\":1286:1300  calldatasize() */\n      calldatasize\n        /* \"@openzeppelin/contracts/proxy/Proxy.sol\":1283:1284  0 */\n      0x00\n        /* \"@openzeppelin/contracts/proxy/Proxy.sol\":1280:1281  0 */\n      dup1\n        /* \"@openzeppelin/contracts/proxy/Proxy.sol\":1267:1301  calldatacopy(0, 0, calldatasize()) */\n      calldatacopy\n        /* \"@openzeppelin/contracts/proxy/Proxy.sol\":1500:1501  0 */\n      0x00\n        /* \"@openzeppelin/contracts/proxy/Proxy.sol\":1497:1498  0 */\n      dup1\n        /* \"@openzeppelin/contracts/proxy/Proxy.sol\":1481:1495  calldatasize() */\n      calldatasize\n        /* \"@openzeppelin/contracts/proxy/Proxy.sol\":1478:1479  0 */\n      0x00\n        /* \"@openzeppelin/contracts/proxy/Proxy.sol\":1462:1476  implementation */\n      dup5\n        /* \"@openzeppelin/contracts/proxy/Proxy.sol\":1455:1460  gas() */\n      gas\n        /* \"@openzeppelin/contracts/proxy/Proxy.sol\":1442:1502  delegatecall(gas(), implementation, 0, calldatasize(), 0, 0) */\n      delegatecall\n        /* \"@openzeppelin/contracts/proxy/Proxy.sol\":1576:1592  returndatasize() */\n      returndatasize\n        /* \"@openzeppelin/contracts/proxy/Proxy.sol\":1573:1574  0 */\n      0x00\n        /* \"@openzeppelin/contracts/proxy/Proxy.sol\":1570:1571  0 */\n      dup1\n        /* \"@openzeppelin/contracts/proxy/Proxy.sol\":1555:1593  returndatacopy(0, 0, returndatasize()) */\n      returndatacopy\n        /* \"@openzeppelin/contracts/proxy/Proxy.sol\":1614:1620  result */\n      dup1\n        /* \"@openzeppelin/contracts/proxy/Proxy.sol\":1686:1687  0 */\n      0x00\n        /* \"@openzeppelin/contracts/proxy/Proxy.sol\":1681:1747  case 0 {... */\n      dup2\n      eq\n      tag_76\n      jumpi\n        /* \"@openzeppelin/contracts/proxy/Proxy.sol\":1796:1812  returndatasize() */\n      returndatasize\n        /* \"@openzeppelin/contracts/proxy/Proxy.sol\":1793:1794  0 */\n      0x00\n        /* \"@openzeppelin/contracts/proxy/Proxy.sol\":1786:1813  return(0, returndatasize()) */\n      return\n        /* \"@openzeppelin/contracts/proxy/Proxy.sol\":1681:1747  case 0 {... */\n    tag_76:\n        /* \"@openzeppelin/contracts/proxy/Proxy.sol\":1716:1732  returndatasize() */\n      returndatasize\n        /* \"@openzeppelin/contracts/proxy/Proxy.sol\":1713:1714  0 */\n      0x00\n        /* \"@openzeppelin/contracts/proxy/Proxy.sol\":1706:1733  revert(0, returndatasize()) */\n      revert\n        /* \"@openzeppelin/contracts/proxy/ERC1967/ERC1967Upgrade.sol\":1897:2049  function _upgradeTo(address newImplementation) internal {... */\n    tag_48:\n        /* \"@openzeppelin/contracts/proxy/ERC1967/ERC1967Upgrade.sol\":1963:2000  _setImplementation(newImplementation) */\n      tag_78\n        /* \"@openzeppelin/contracts/proxy/ERC1967/ERC1967Upgrade.sol\":1982:1999  newImplementation */\n      dup2\n        /* \"@openzeppelin/contracts/proxy/ERC1967/ERC1967Upgrade.sol\":1963:1981  _setImplementation */\n      tag_79\n        /* \"@openzeppelin/contracts/proxy/ERC1967/ERC1967Upgrade.sol\":1963:2000  _setImplementation(newImplementation) */\n      jump\t// in\n    tag_78:\n        /* \"@openzeppelin/contracts/proxy/ERC1967/ERC1967Upgrade.sol\":2024:2041  newImplementation */\n      dup1\n        /* \"@openzeppelin/contracts/proxy/ERC1967/ERC1967Upgrade.sol\":2015:2042  Upgraded(newImplementation) */\n      0xffffffffffffffffffffffffffffffffffffffff\n      and\n      0xbc7cd75a20ee27fd9adebab32041f755214dbc6bffa90cc0225b39da2e5c2d3b\n      mload(0x40)\n      mload(0x40)\n      dup1\n      swap2\n      sub\n      swap1\n      log2\n        /* \"@openzeppelin/contracts/proxy/ERC1967/ERC1967Upgrade.sol\":1897:2049  function _upgradeTo(address newImplementation) internal {... */\n      pop\n      jump\t// out\n        /* \"@openzeppelin/contracts/access/Ownable.sol\":1359:1489  function _checkOwner() internal view virtual {... */\n    tag_53:\n        /* \"@openzeppelin/contracts/access/Ownable.sol\":1433:1445  _msgSender() */\n      tag_81\n        /* \"@openzeppelin/contracts/access/Ownable.sol\":1433:1443  _msgSender */\n      tag_82\n        /* \"@openzeppelin/contracts/access/Ownable.sol\":1433:1445  _msgSender() */\n      jump\t// in\n    tag_81:\n        /* \"@openzeppelin/contracts/access/Ownable.sol\":1422:1445  owner() == _msgSender() */\n      0xffffffffffffffffffffffffffffffffffffffff\n      and\n        /* \"@openzeppelin/contracts/access/Ownable.sol\":1422:1429  owner() */\n      tag_83\n        /* \"@openzeppelin/contracts/access/Ownable.sol\":1422:1427  owner */\n      tag_30\n        /* \"@openzeppelin/contracts/access/Ownable.sol\":1422:1429  owner() */\n      jump\t// in\n    tag_83:\n        /* \"@openzeppelin/contracts/access/Ownable.sol\":1422:1445  owner() == _msgSender() */\n      0xffffffffffffffffffffffffffffffffffffffff\n      and\n      eq\n        /* \"@openzeppelin/contracts/access/Ownable.sol\":1414:1482  require(owner() == _msgSender(), \"Ownable: caller is not the owner\") */\n      tag_84\n      jumpi\n      mload(0x40)\n      0x08c379a000000000000000000000000000000000000000000000000000000000\n      dup2\n      mstore\n      0x04\n      add\n      tag_85\n      swap1\n      tag_86\n      jump\t// in\n    tag_85:\n      mload(0x40)\n      dup1\n      swap2\n      sub\n      swap1\n      revert\n    tag_84:\n        /* \"@openzeppelin/contracts/access/Ownable.sol\":1359:1489  function _checkOwner() internal view virtual {... */\n      jump\t// out\n        /* \"@openzeppelin/contracts/access/Ownable.sol\":2433:2620  function _transferOwnership(address newOwner) internal virtual {... */\n    tag_56:\n        /* \"@openzeppelin/contracts/access/Ownable.sol\":2506:2522  address oldOwner */\n      0x00\n        /* \"@openzeppelin/contracts/access/Ownable.sol\":2525:2531  _owner */\n      dup1\n      0x00\n      swap1\n      sload\n      swap1\n      0x0100\n      exp\n      swap1\n      div\n      0xffffffffffffffffffffffffffffffffffffffff\n      and\n        /* \"@openzeppelin/contracts/access/Ownable.sol\":2506:2531  address oldOwner = _owner */\n      swap1\n      pop\n        /* \"@openzeppelin/contracts/access/Ownable.sol\":2550:2558  newOwner */\n      dup2\n        /* \"@openzeppelin/contracts/access/Ownable.sol\":2541:2547  _owner */\n      0x00\n      dup1\n        /* \"@openzeppelin/contracts/access/Ownable.sol\":2541:2558  _owner = newOwner */\n      0x0100\n      exp\n      dup2\n      sload\n      dup2\n      0xffffffffffffffffffffffffffffffffffffffff\n      mul\n      not\n      and\n      swap1\n      dup4\n      0xffffffffffffffffffffffffffffffffffffffff\n      and\n      mul\n      or\n      swap1\n      sstore\n      pop\n        /* \"@openzeppelin/contracts/access/Ownable.sol\":2604:2612  newOwner */\n      dup2\n        /* \"@openzeppelin/contracts/access/Ownable.sol\":2573:2613  OwnershipTransferred(oldOwner, newOwner) */\n      0xffffffffffffffffffffffffffffffffffffffff\n      and\n        /* \"@openzeppelin/contracts/access/Ownable.sol\":2594:2602  oldOwner */\n      dup2\n        /* \"@openzeppelin/contracts/access/Ownable.sol\":2573:2613  OwnershipTransferred(oldOwner, newOwner) */\n      0xffffffffffffffffffffffffffffffffffffffff\n      and\n      0x8be0079c531659141344cd1fd0a4f28419497f9722a3daafe3b4186f6b6457e0\n      mload(0x40)\n      mload(0x40)\n      dup1\n      swap2\n      sub\n      swap1\n      log3\n        /* \"@openzeppelin/contracts/access/Ownable.sol\":2496:2620  {... */\n      pop\n        /* \"@openzeppelin/contracts/access/Ownable.sol\":2433:2620  function _transferOwnership(address newOwner) internal virtual {... */\n      pop\n      jump\t// out\n        /* \"@openzeppelin/contracts/utils/Address.sol\":6853:7178  function functionDelegateCall(... */\n    tag_67:\n        /* \"@openzeppelin/contracts/utils/Address.sol\":6994:7006  bytes memory */\n      0x60\n        /* \"@openzeppelin/contracts/utils/Address.sol\":7019:7031  bool success */\n      0x00\n        /* \"@openzeppelin/contracts/utils/Address.sol\":7033:7056  bytes memory returndata */\n      dup1\n        /* \"@openzeppelin/contracts/utils/Address.sol\":7060:7066  target */\n      dup6\n        /* \"@openzeppelin/contracts/utils/Address.sol\":7060:7079  target.delegatecall */\n      0xffffffffffffffffffffffffffffffffffffffff\n      and\n        /* \"@openzeppelin/contracts/utils/Address.sol\":7080:7084  data */\n      dup6\n        /* \"@openzeppelin/contracts/utils/Address.sol\":7060:7085  target.delegatecall(data) */\n      mload(0x40)\n      tag_89\n      swap2\n      swap1\n      tag_90\n      jump\t// in\n    tag_89:\n      0x00\n      mload(0x40)\n      dup1\n      dup4\n      sub\n      dup2\n      dup6\n      gas\n      delegatecall\n      swap2\n      pop\n      pop\n      returndatasize\n      dup1\n      0x00\n      dup2\n      eq\n      tag_93\n      jumpi\n      mload(0x40)\n      swap2\n      pop\n      and(add(returndatasize, 0x3f), not(0x1f))\n      dup3\n      add\n      0x40\n      mstore\n      returndatasize\n      dup3\n      mstore\n      returndatasize\n      0x00\n      0x20\n      dup5\n      add\n      returndatacopy\n      jump(tag_92)\n    tag_93:\n      0x60\n      swap2\n      pop\n    tag_92:\n      pop\n        /* \"@openzeppelin/contracts/utils/Address.sol\":7018:7085  (bool success, bytes memory returndata) = target.delegatecall(data) */\n      swap2\n      pop\n      swap2\n      pop\n        /* \"@openzeppelin/contracts/utils/Address.sol\":7102:7171  verifyCallResultFromTarget(target, success, returndata, errorMessage) */\n      tag_94\n        /* \"@openzeppelin/contracts/utils/Address.sol\":7129:7135  target */\n      dup7\n        /* \"@openzeppelin/contracts/utils/Address.sol\":7137:7144  success */\n      dup4\n        /* \"@openzeppelin/contracts/utils/Address.sol\":7146:7156  returndata */\n      dup4\n        /* \"@openzeppelin/contracts/utils/Address.sol\":7158:7170  errorMessage */\n      dup8\n        /* \"@openzeppelin/contracts/utils/Address.sol\":7102:7128  verifyCallResultFromTarget */\n      tag_95\n        /* \"@openzeppelin/contracts/utils/Address.sol\":7102:7171  verifyCallResultFromTarget(target, success, returndata, errorMessage) */\n      jump\t// in\n    tag_94:\n        /* \"@openzeppelin/contracts/utils/Address.sol\":7095:7171  return verifyCallResultFromTarget(target, success, returndata, errorMessage) */\n      swap3\n      pop\n      pop\n      pop\n        /* \"@openzeppelin/contracts/utils/Address.sol\":6853:7178  function functionDelegateCall(... */\n      swap4\n      swap3\n      pop\n      pop\n      pop\n      jump\t// out\n        /* \"@openzeppelin/contracts/proxy/ERC1967/ERC1967Upgrade.sol\":1301:1441  function _getImplementation() internal view returns (address) {... */\n    tag_73:\n        /* \"@openzeppelin/contracts/proxy/ERC1967/ERC1967Upgrade.sol\":1354:1361  address */\n      0x00\n        /* \"@openzeppelin/contracts/proxy/ERC1967/ERC1967Upgrade.sol\":1380:1428  StorageSlot.getAddressSlot(_IMPLEMENTATION_SLOT) */\n      tag_97\n        /* \"@openzeppelin/contracts/proxy/ERC1967/ERC1967Upgrade.sol\":1030:1096  0x360894a13ba1a3210667c828492db98dca3e2076cc3735a920a3ca505d382bbc */\n      0x360894a13ba1a3210667c828492db98dca3e2076cc3735a920a3ca505d382bbc\n        /* \"@openzeppelin/contracts/proxy/ERC1967/ERC1967Upgrade.sol\":1407:1427  _IMPLEMENTATION_SLOT */\n      0x00\n      shl\n        /* \"@openzeppelin/contracts/proxy/ERC1967/ERC1967Upgrade.sol\":1380:1406  StorageSlot.getAddressSlot */\n      tag_38\n        /* \"@openzeppelin/contracts/proxy/ERC1967/ERC1967Upgrade.sol\":1380:1428  StorageSlot.getAddressSlot(_IMPLEMENTATION_SLOT) */\n      jump\t// in\n    tag_97:\n        /* \"@openzeppelin/contracts/proxy/ERC1967/ERC1967Upgrade.sol\":1380:1434  StorageSlot.getAddressSlot(_IMPLEMENTATION_SLOT).value */\n      0x00\n      add\n      0x00\n      swap1\n      sload\n      swap1\n      0x0100\n      exp\n      swap1\n      div\n      0xffffffffffffffffffffffffffffffffffffffff\n      and\n        /* \"@openzeppelin/contracts/proxy/ERC1967/ERC1967Upgrade.sol\":1373:1434  return StorageSlot.getAddressSlot(_IMPLEMENTATION_SLOT).value */\n      swap1\n      pop\n        /* \"@openzeppelin/contracts/proxy/ERC1967/ERC1967Upgrade.sol\":1301:1441  function _getImplementation() internal view returns (address) {... */\n      swap1\n      jump\t// out\n        /* \"@openzeppelin/contracts/proxy/ERC1967/ERC1967Upgrade.sol\":1532:1791  function _setImplementation(address newImplementation) private {... */\n    tag_79:\n        /* \"@openzeppelin/contracts/proxy/ERC1967/ERC1967Upgrade.sol\":1613:1650  Address.isContract(newImplementation) */\n      tag_99\n        /* \"@openzeppelin/contracts/proxy/ERC1967/ERC1967Upgrade.sol\":1632:1649  newImplementation */\n      dup2\n        /* \"@openzeppelin/contracts/proxy/ERC1967/ERC1967Upgrade.sol\":1613:1631  Address.isContract */\n      tag_37\n        /* \"@openzeppelin/contracts/proxy/ERC1967/ERC1967Upgrade.sol\":1613:1650  Address.isContract(newImplementation) */\n      jump\t// in\n    tag_99:\n        /* \"@openzeppelin/contracts/proxy/ERC1967/ERC1967Upgrade.sol\":1605:1700  require(Address.isContract(newImplementation), \"ERC1967: new implementation is not a contract\") */\n      tag_100\n      jumpi\n      mload(0x40)\n      0x08c379a000000000000000000000000000000000000000000000000000000000\n      dup2\n      mstore\n      0x04\n      add\n      tag_101\n      swap1\n      tag_102\n      jump\t// in\n    tag_101:\n      mload(0x40)\n      dup1\n      swap2\n      sub\n      swap1\n      revert\n    tag_100:\n        /* \"@openzeppelin/contracts/proxy/ERC1967/ERC1967Upgrade.sol\":1767:1784  newImplementation */\n      dup1\n        /* \"@openzeppelin/contracts/proxy/ERC1967/ERC1967Upgrade.sol\":1710:1758  StorageSlot.getAddressSlot(_IMPLEMENTATION_SLOT) */\n      tag_103\n        /* \"@openzeppelin/contracts/proxy/ERC1967/ERC1967Upgrade.sol\":1030:1096  0x360894a13ba1a3210667c828492db98dca3e2076cc3735a920a3ca505d382bbc */\n      0x360894a13ba1a3210667c828492db98dca3e2076cc3735a920a3ca505d382bbc\n        /* \"@openzeppelin/contracts/proxy/ERC1967/ERC1967Upgrade.sol\":1737:1757  _IMPLEMENTATION_SLOT */\n      0x00\n      shl\n        /* \"@openzeppelin/contracts/proxy/ERC1967/ERC1967Upgrade.sol\":1710:1736  StorageSlot.getAddressSlot */\n      tag_38\n        /* \"@openzeppelin/contracts/proxy/ERC1967/ERC1967Upgrade.sol\":1710:1758  StorageSlot.getAddressSlot(_IMPLEMENTATION_SLOT) */\n      jump\t// in\n    tag_103:\n        /* \"@openzeppelin/contracts/proxy/ERC1967/ERC1967Upgrade.sol\":1710:1764  StorageSlot.getAddressSlot(_IMPLEMENTATION_SLOT).value */\n      0x00\n      add\n      0x00\n        /* \"@openzeppelin/contracts/proxy/ERC1967/ERC1967Upgrade.sol\":1710:1784  StorageSlot.getAddressSlot(_IMPLEMENTATION_SLOT).value = newImplementation */\n      0x0100\n      exp\n      dup2\n      sload\n      dup2\n      0xffffffffffffffffffffffffffffffffffffffff\n      mul\n      not\n      and\n      swap1\n      dup4\n      0xffffffffffffffffffffffffffffffffffffffff\n      and\n      mul\n      or\n      swap1\n      sstore\n      pop\n        /* \"@openzeppelin/contracts/proxy/ERC1967/ERC1967Upgrade.sol\":1532:1791  function _setImplementation(address newImplementation) private {... */\n      pop\n      jump\t// out\n        /* \"@openzeppelin/contracts/utils/Context.sol\":640:736  function _msgSender() internal view virtual returns (address) {... */\n    tag_82:\n        /* \"@openzeppelin/contracts/utils/Context.sol\":693:700  address */\n      0x00\n        /* \"@openzeppelin/contracts/utils/Context.sol\":719:729  msg.sender */\n      caller\n        /* \"@openzeppelin/contracts/utils/Context.sol\":712:729  return msg.sender */\n      swap1\n      pop\n        /* \"@openzeppelin/contracts/utils/Context.sol\":640:736  function _msgSender() internal view virtual returns (address) {... */\n      swap1\n      jump\t// out\n        /* \"@openzeppelin/contracts/utils/Address.sol\":7466:8094  function verifyCallResultFromTarget(... */\n    tag_95:\n        /* \"@openzeppelin/contracts/utils/Address.sol\":7646:7658  bytes memory */\n      0x60\n        /* \"@openzeppelin/contracts/utils/Address.sol\":7674:7681  success */\n      dup4\n        /* \"@openzeppelin/contracts/utils/Address.sol\":7670:8088  if (success) {... */\n      iszero\n      tag_106\n      jumpi\n        /* \"@openzeppelin/contracts/utils/Address.sol\":7722:7723  0 */\n      0x00\n        /* \"@openzeppelin/contracts/utils/Address.sol\":7701:7711  returndata */\n      dup4\n        /* \"@openzeppelin/contracts/utils/Address.sol\":7701:7718  returndata.length */\n      mload\n        /* \"@openzeppelin/contracts/utils/Address.sol\":7701:7723  returndata.length == 0 */\n      eq\n        /* \"@openzeppelin/contracts/utils/Address.sol\":7697:7983  if (returndata.length == 0) {... */\n      iszero\n      tag_107\n      jumpi\n        /* \"@openzeppelin/contracts/utils/Address.sol\":7916:7934  isContract(target) */\n      tag_108\n        /* \"@openzeppelin/contracts/utils/Address.sol\":7927:7933  target */\n      dup6\n        /* \"@openzeppelin/contracts/utils/Address.sol\":7916:7926  isContract */\n      tag_37\n        /* \"@openzeppelin/contracts/utils/Address.sol\":7916:7934  isContract(target) */\n      jump\t// in\n    tag_108:\n        /* \"@openzeppelin/contracts/utils/Address.sol\":7908:7968  require(isContract(target), \"Address: call to non-contract\") */\n      tag_109\n      jumpi\n      mload(0x40)\n      0x08c379a000000000000000000000000000000000000000000000000000000000\n      dup2\n      mstore\n      0x04\n      add\n      tag_110\n      swap1\n      tag_111\n      jump\t// in\n    tag_110:\n      mload(0x40)\n      dup1\n      swap2\n      sub\n      swap1\n      revert\n    tag_109:\n        /* \"@openzeppelin/contracts/utils/Address.sol\":7697:7983  if (returndata.length == 0) {... */\n    tag_107:\n        /* \"@openzeppelin/contracts/utils/Address.sol\":8003:8013  returndata */\n      dup3\n        /* \"@openzeppelin/contracts/utils/Address.sol\":7996:8013  return returndata */\n      swap1\n      pop\n      jump(tag_105)\n        /* \"@openzeppelin/contracts/utils/Address.sol\":7670:8088  if (success) {... */\n    tag_106:\n        /* \"@openzeppelin/contracts/utils/Address.sol\":8044:8077  _revert(returndata, errorMessage) */\n      tag_113\n        /* \"@openzeppelin/contracts/utils/Address.sol\":8052:8062  returndata */\n      dup4\n        /* \"@openzeppelin/contracts/utils/Address.sol\":8064:8076  errorMessage */\n      dup4\n        /* \"@openzeppelin/contracts/utils/Address.sol\":8044:8051  _revert */\n      tag_114\n        /* \"@openzeppelin/contracts/utils/Address.sol\":8044:8077  _revert(returndata, errorMessage) */\n      jump\t// in\n    tag_113:\n        /* \"@openzeppelin/contracts/utils/Address.sol\":7466:8094  function verifyCallResultFromTarget(... */\n    tag_105:\n      swap5\n      swap4\n      pop\n      pop\n      pop\n      pop\n      jump\t// out\n        /* \"@openzeppelin/contracts/utils/Address.sol\":8616:9156  function _revert(bytes memory returndata, string memory errorMessage) private pure {... */\n    tag_114:\n        /* \"@openzeppelin/contracts/utils/Address.sol\":8795:8796  0 */\n      0x00\n        /* \"@openzeppelin/contracts/utils/Address.sol\":8775:8785  returndata */\n      dup3\n        /* \"@openzeppelin/contracts/utils/Address.sol\":8775:8792  returndata.length */\n      mload\n        /* \"@openzeppelin/contracts/utils/Address.sol\":8775:8796  returndata.length > 0 */\n      gt\n        /* \"@openzeppelin/contracts/utils/Address.sol\":8771:9150  if (returndata.length > 0) {... */\n      iszero\n      tag_116\n      jumpi\n        /* \"@openzeppelin/contracts/utils/Address.sol\":9003:9013  returndata */\n      dup2\n        /* \"@openzeppelin/contracts/utils/Address.sol\":8997:9014  mload(returndata) */\n      mload\n        /* \"@openzeppelin/contracts/utils/Address.sol\":9059:9074  returndata_size */\n      dup1\n        /* \"@openzeppelin/contracts/utils/Address.sol\":9046:9056  returndata */\n      dup4\n        /* \"@openzeppelin/contracts/utils/Address.sol\":9042:9044  32 */\n      0x20\n        /* \"@openzeppelin/contracts/utils/Address.sol\":9038:9057  add(32, returndata) */\n      add\n        /* \"@openzeppelin/contracts/utils/Address.sol\":9031:9075  revert(add(32, returndata), returndata_size) */\n      revert\n        /* \"@openzeppelin/contracts/utils/Address.sol\":8771:9150  if (returndata.length > 0) {... */\n    tag_116:\n        /* \"@openzeppelin/contracts/utils/Address.sol\":9126:9138  errorMessage */\n      dup1\n        /* \"@openzeppelin/contracts/utils/Address.sol\":9119:9139  revert(errorMessage) */\n      mload(0x40)\n      0x08c379a000000000000000000000000000000000000000000000000000000000\n      dup2\n      mstore\n      0x04\n      add\n      tag_118\n      swap2\n      swap1\n      tag_119\n      jump\t// in\n    tag_118:\n      mload(0x40)\n      dup1\n      swap2\n      sub\n      swap1\n      revert\n        /* \"#utility.yul\":7:146   */\n    tag_121:\n        /* \"#utility.yul\":53:58   */\n      0x00\n        /* \"#utility.yul\":91:97   */\n      dup2\n        /* \"#utility.yul\":78:98   */\n      calldataload\n        /* \"#utility.yul\":69:98   */\n      swap1\n      pop\n        /* \"#utility.yul\":107:140   */\n      tag_123\n        /* \"#utility.yul\":134:139   */\n      dup2\n        /* \"#utility.yul\":107:140   */\n      tag_124\n      jump\t// in\n    tag_123:\n        /* \"#utility.yul\":7:146   */\n      swap3\n      swap2\n      pop\n      pop\n      jump\t// out\n        /* \"#utility.yul\":152:481   */\n    tag_18:\n        /* \"#utility.yul\":211:217   */\n      0x00\n        /* \"#utility.yul\":260:262   */\n      0x20\n        /* \"#utility.yul\":248:257   */\n      dup3\n        /* \"#utility.yul\":239:246   */\n      dup5\n        /* \"#utility.yul\":235:258   */\n      sub\n        /* \"#utility.yul\":231:263   */\n      slt\n        /* \"#utility.yul\":228:347   */\n      iszero\n      tag_126\n      jumpi\n        /* \"#utility.yul\":266:345   */\n      tag_127\n      tag_128\n      jump\t// in\n    tag_127:\n        /* \"#utility.yul\":228:347   */\n    tag_126:\n        /* \"#utility.yul\":386:387   */\n      0x00\n        /* \"#utility.yul\":411:464   */\n      tag_129\n        /* \"#utility.yul\":456:463   */\n      dup5\n        /* \"#utility.yul\":447:453   */\n      dup3\n        /* \"#utility.yul\":436:445   */\n      dup6\n        /* \"#utility.yul\":432:454   */\n      add\n        /* \"#utility.yul\":411:464   */\n      tag_121\n      jump\t// in\n    tag_129:\n        /* \"#utility.yul\":401:464   */\n      swap2\n      pop\n        /* \"#utility.yul\":357:474   */\n      pop\n        /* \"#utility.yul\":152:481   */\n      swap3\n      swap2\n      pop\n      pop\n      jump\t// out\n        /* \"#utility.yul\":487:605   */\n    tag_130:\n        /* \"#utility.yul\":574:598   */\n      tag_132\n        /* \"#utility.yul\":592:597   */\n      dup2\n        /* \"#utility.yul\":574:598   */\n      tag_133\n      jump\t// in\n    tag_132:\n        /* \"#utility.yul\":569:572   */\n      dup3\n        /* \"#utility.yul\":562:599   */\n      mstore\n        /* \"#utility.yul\":487:605   */\n      pop\n      pop\n      jump\t// out\n        /* \"#utility.yul\":611:984   */\n    tag_134:\n        /* \"#utility.yul\":715:718   */\n      0x00\n        /* \"#utility.yul\":743:781   */\n      tag_136\n        /* \"#utility.yul\":775:780   */\n      dup3\n        /* \"#utility.yul\":743:781   */\n      tag_137\n      jump\t// in\n    tag_136:\n        /* \"#utility.yul\":797:885   */\n      tag_138\n        /* \"#utility.yul\":878:884   */\n      dup2\n        /* \"#utility.yul\":873:876   */\n      dup6\n        /* \"#utility.yul\":797:885   */\n      tag_139\n      jump\t// in\n    tag_138:\n        /* \"#utility.yul\":790:885   */\n      swap4\n      pop\n        /* \"#utility.yul\":894:946   */\n      tag_140\n        /* \"#utility.yul\":939:945   */\n      dup2\n        /* \"#utility.yul\":934:937   */\n      dup6\n        /* \"#utility.yul\":927:931   */\n      0x20\n        /* \"#utility.yul\":920:925   */\n      dup7\n        /* \"#utility.yul\":916:932   */\n      add\n        /* \"#utility.yul\":894:946   */\n      tag_141\n      jump\t// in\n    tag_140:\n        /* \"#utility.yul\":971:977   */\n      dup1\n        /* \"#utility.yul\":966:969   */\n      dup5\n        /* \"#utility.yul\":962:978   */\n      add\n        /* \"#utility.yul\":955:978   */\n      swap2\n      pop\n        /* \"#utility.yul\":719:984   */\n      pop\n        /* \"#utility.yul\":611:984   */\n      swap3\n      swap2\n      pop\n      pop\n      jump\t// out\n        /* \"#utility.yul\":990:1354   */\n    tag_142:\n        /* \"#utility.yul\":1078:1081   */\n      0x00\n        /* \"#utility.yul\":1106:1145   */\n      tag_144\n        /* \"#utility.yul\":1139:1144   */\n      dup3\n        /* \"#utility.yul\":1106:1145   */\n      tag_145\n      jump\t// in\n    tag_144:\n        /* \"#utility.yul\":1161:1232   */\n      tag_146\n        /* \"#utility.yul\":1225:1231   */\n      dup2\n        /* \"#utility.yul\":1220:1223   */\n      dup6\n        /* \"#utility.yul\":1161:1232   */\n      tag_147\n      jump\t// in\n    tag_146:\n        /* \"#utility.yul\":1154:1232   */\n      swap4\n      pop\n        /* \"#utility.yul\":1241:1293   */\n      tag_148\n        /* \"#utility.yul\":1286:1292   */\n      dup2\n        /* \"#utility.yul\":1281:1284   */\n      dup6\n        /* \"#utility.yul\":1274:1278   */\n      0x20\n        /* \"#utility.yul\":1267:1272   */\n      dup7\n        /* \"#utility.yul\":1263:1279   */\n      add\n        /* \"#utility.yul\":1241:1293   */\n      tag_141\n      jump\t// in\n    tag_148:\n        /* \"#utility.yul\":1318:1347   */\n      tag_149\n        /* \"#utility.yul\":1340:1346   */\n      dup2\n        /* \"#utility.yul\":1318:1347   */\n      tag_150\n      jump\t// in\n    tag_149:\n        /* \"#utility.yul\":1313:1316   */\n      dup5\n        /* \"#utility.yul\":1309:1348   */\n      add\n        /* \"#utility.yul\":1302:1348   */\n      swap2\n      pop\n        /* \"#utility.yul\":1082:1354   */\n      pop\n        /* \"#utility.yul\":990:1354   */\n      swap3\n      swap2\n      pop\n      pop\n      jump\t// out\n        /* \"#utility.yul\":1360:1726   */\n    tag_151:\n        /* \"#utility.yul\":1502:1505   */\n      0x00\n        /* \"#utility.yul\":1523:1590   */\n      tag_153\n        /* \"#utility.yul\":1587:1589   */\n      0x26\n        /* \"#utility.yul\":1582:1585   */\n      dup4\n        /* \"#utility.yul\":1523:1590   */\n      tag_147\n      jump\t// in\n    tag_153:\n        /* \"#utility.yul\":1516:1590   */\n      swap2\n      pop\n        /* \"#utility.yul\":1599:1692   */\n      tag_154\n        /* \"#utility.yul\":1688:1691   */\n      dup3\n        /* \"#utility.yul\":1599:1692   */\n      tag_155\n      jump\t// in\n    tag_154:\n        /* \"#utility.yul\":1717:1719   */\n      0x40\n        /* \"#utility.yul\":1712:1715   */\n      dup3\n        /* \"#utility.yul\":1708:1720   */\n      add\n        /* \"#utility.yul\":1701:1720   */\n      swap1\n      pop\n        /* \"#utility.yul\":1360:1726   */\n      swap2\n      swap1\n      pop\n      jump\t// out\n        /* \"#utility.yul\":1732:2098   */\n    tag_156:\n        /* \"#utility.yul\":1874:1877   */\n      0x00\n        /* \"#utility.yul\":1895:1962   */\n      tag_158\n        /* \"#utility.yul\":1959:1961   */\n      0x2d\n        /* \"#utility.yul\":1954:1957   */\n      dup4\n        /* \"#utility.yul\":1895:1962   */\n      tag_147\n      jump\t// in\n    tag_158:\n        /* \"#utility.yul\":1888:1962   */\n      swap2\n      pop\n        /* \"#utility.yul\":1971:2064   */\n      tag_159\n        /* \"#utility.yul\":2060:2063   */\n      dup3\n        /* \"#utility.yul\":1971:2064   */\n      tag_160\n      jump\t// in\n    tag_159:\n        /* \"#utility.yul\":2089:2091   */\n      0x40\n        /* \"#utility.yul\":2084:2087   */\n      dup3\n        /* \"#utility.yul\":2080:2092   */\n      add\n        /* \"#utility.yul\":2073:2092   */\n      swap1\n      pop\n        /* \"#utility.yul\":1732:2098   */\n      swap2\n      swap1\n      pop\n      jump\t// out\n        /* \"#utility.yul\":2104:2470   */\n    tag_161:\n        /* \"#utility.yul\":2246:2249   */\n      0x00\n        /* \"#utility.yul\":2267:2334   */\n      tag_163\n        /* \"#utility.yul\":2331:2333   */\n      0x20\n        /* \"#utility.yul\":2326:2329   */\n      dup4\n        /* \"#utility.yul\":2267:2334   */\n      tag_147\n      jump\t// in\n    tag_163:\n        /* \"#utility.yul\":2260:2334   */\n      swap2\n      pop\n        /* \"#utility.yul\":2343:2436   */\n      tag_164\n        /* \"#utility.yul\":2432:2435   */\n      dup3\n        /* \"#utility.yul\":2343:2436   */\n      tag_165\n      jump\t// in\n    tag_164:\n        /* \"#utility.yul\":2461:2463   */\n      0x20\n        /* \"#utility.yul\":2456:2459   */\n      dup3\n        /* \"#utility.yul\":2452:2464   */\n      add\n        /* \"#utility.yul\":2445:2464   */\n      swap1\n      pop\n        /* \"#utility.yul\":2104:2470   */\n      swap2\n      swap1\n      pop\n      jump\t// out\n        /* \"#utility.yul\":2476:2842   */\n    tag_166:\n        /* \"#utility.yul\":2618:2621   */\n      0x00\n        /* \"#utility.yul\":2639:2706   */\n      tag_168\n        /* \"#utility.yul\":2703:2705   */\n      0x1d\n        /* \"#utility.yul\":2698:2701   */\n      dup4\n        /* \"#utility.yul\":2639:2706   */\n      tag_147\n      jump\t// in\n    tag_168:\n        /* \"#utility.yul\":2632:2706   */\n      swap2\n      pop\n        /* \"#utility.yul\":2715:2808   */\n      tag_169\n        /* \"#utility.yul\":2804:2807   */\n      dup3\n        /* \"#utility.yul\":2715:2808   */\n      tag_170\n      jump\t// in\n    tag_169:\n        /* \"#utility.yul\":2833:2835   */\n      0x20\n        /* \"#utility.yul\":2828:2831   */\n      dup3\n        /* \"#utility.yul\":2824:2836   */\n      add\n        /* \"#utility.yul\":2817:2836   */\n      swap1\n      pop\n        /* \"#utility.yul\":2476:2842   */\n      swap2\n      swap1\n      pop\n      jump\t// out\n        /* \"#utility.yul\":2848:3119   */\n    tag_90:\n        /* \"#utility.yul\":2978:2981   */\n      0x00\n        /* \"#utility.yul\":3000:3093   */\n      tag_172\n        /* \"#utility.yul\":3089:3092   */\n      dup3\n        /* \"#utility.yul\":3080:3086   */\n      dup5\n        /* \"#utility.yul\":3000:3093   */\n      tag_134\n      jump\t// in\n    tag_172:\n        /* \"#utility.yul\":2993:3093   */\n      swap2\n      pop\n        /* \"#utility.yul\":3110:3113   */\n      dup2\n        /* \"#utility.yul\":3103:3113   */\n      swap1\n      pop\n        /* \"#utility.yul\":2848:3119   */\n      swap3\n      swap2\n      pop\n      pop\n      jump\t// out\n        /* \"#utility.yul\":3125:3347   */\n    tag_24:\n        /* \"#utility.yul\":3218:3222   */\n      0x00\n        /* \"#utility.yul\":3256:3258   */\n      0x20\n        /* \"#utility.yul\":3245:3254   */\n      dup3\n        /* \"#utility.yul\":3241:3259   */\n      add\n        /* \"#utility.yul\":3233:3259   */\n      swap1\n      pop\n        /* \"#utility.yul\":3269:3340   */\n      tag_174\n        /* \"#utility.yul\":3337:3338   */\n      0x00\n        /* \"#utility.yul\":3326:3335   */\n      dup4\n        /* \"#utility.yul\":3322:3339   */\n      add\n        /* \"#utility.yul\":3313:3319   */\n      dup5\n        /* \"#utility.yul\":3269:3340   */\n      tag_130\n      jump\t// in\n    tag_174:\n        /* \"#utility.yul\":3125:3347   */\n      swap3\n      swap2\n      pop\n      pop\n      jump\t// out\n        /* \"#utility.yul\":3353:3666   */\n    tag_119:\n        /* \"#utility.yul\":3466:3470   */\n      0x00\n        /* \"#utility.yul\":3504:3506   */\n      0x20\n        /* \"#utility.yul\":3493:3502   */\n      dup3\n        /* \"#utility.yul\":3489:3507   */\n      add\n        /* \"#utility.yul\":3481:3507   */\n      swap1\n      pop\n        /* \"#utility.yul\":3553:3562   */\n      dup2\n        /* \"#utility.yul\":3547:3551   */\n      dup2\n        /* \"#utility.yul\":3543:3563   */\n      sub\n        /* \"#utility.yul\":3539:3540   */\n      0x00\n        /* \"#utility.yul\":3528:3537   */\n      dup4\n        /* \"#utility.yul\":3524:3541   */\n      add\n        /* \"#utility.yul\":3517:3564   */\n      mstore\n        /* \"#utility.yul\":3581:3659   */\n      tag_176\n        /* \"#utility.yul\":3654:3658   */\n      dup2\n        /* \"#utility.yul\":3645:3651   */\n      dup5\n        /* \"#utility.yul\":3581:3659   */\n      tag_142\n      jump\t// in\n    tag_176:\n        /* \"#utility.yul\":3573:3659   */\n      swap1\n      pop\n        /* \"#utility.yul\":3353:3666   */\n      swap3\n      swap2\n      pop\n      pop\n      jump\t// out\n        /* \"#utility.yul\":3672:4091   */\n    tag_63:\n        /* \"#utility.yul\":3838:3842   */\n      0x00\n        /* \"#utility.yul\":3876:3878   */\n      0x20\n        /* \"#utility.yul\":3865:3874   */\n      dup3\n        /* \"#utility.yul\":3861:3879   */\n      add\n        /* \"#utility.yul\":3853:3879   */\n      swap1\n      pop\n        /* \"#utility.yul\":3925:3934   */\n      dup2\n        /* \"#utility.yul\":3919:3923   */\n      dup2\n        /* \"#utility.yul\":3915:3935   */\n      sub\n        /* \"#utility.yul\":3911:3912   */\n      0x00\n        /* \"#utility.yul\":3900:3909   */\n      dup4\n        /* \"#utility.yul\":3896:3913   */\n      add\n        /* \"#utility.yul\":3889:3936   */\n      mstore\n        /* \"#utility.yul\":3953:4084   */\n      tag_178\n        /* \"#utility.yul\":4079:4083   */\n      dup2\n        /* \"#utility.yul\":3953:4084   */\n      tag_151\n      jump\t// in\n    tag_178:\n        /* \"#utility.yul\":3945:4084   */\n      swap1\n      pop\n        /* \"#utility.yul\":3672:4091   */\n      swap2\n      swap1\n      pop\n      jump\t// out\n        /* \"#utility.yul\":4097:4516   */\n    tag_102:\n        /* \"#utility.yul\":4263:4267   */\n      0x00\n        /* \"#utility.yul\":4301:4303   */\n      0x20\n        /* \"#utility.yul\":4290:4299   */\n      dup3\n        /* \"#utility.yul\":4286:4304   */\n      add\n        /* \"#utility.yul\":4278:4304   */\n      swap1\n      pop\n        /* \"#utility.yul\":4350:4359   */\n      dup2\n        /* \"#utility.yul\":4344:4348   */\n      dup2\n        /* \"#utility.yul\":4340:4360   */\n      sub\n        /* \"#utility.yul\":4336:4337   */\n      0x00\n        /* \"#utility.yul\":4325:4334   */\n      dup4\n        /* \"#utility.yul\":4321:4338   */\n      add\n        /* \"#utility.yul\":4314:4361   */\n      mstore\n        /* \"#utility.yul\":4378:4509   */\n      tag_180\n        /* \"#utility.yul\":4504:4508   */\n      dup2\n        /* \"#utility.yul\":4378:4509   */\n      tag_156\n      jump\t// in\n    tag_180:\n        /* \"#utility.yul\":4370:4509   */\n      swap1\n      pop\n        /* \"#utility.yul\":4097:4516   */\n      swap2\n      swap1\n      pop\n      jump\t// out\n        /* \"#utility.yul\":4522:4941   */\n    tag_86:\n        /* \"#utility.yul\":4688:4692   */\n      0x00\n        /* \"#utility.yul\":4726:4728   */\n      0x20\n        /* \"#utility.yul\":4715:4724   */\n      dup3\n        /* \"#utility.yul\":4711:4729   */\n      add\n        /* \"#utility.yul\":4703:4729   */\n      swap1\n      pop\n        /* \"#utility.yul\":4775:4784   */\n      dup2\n        /* \"#utility.yul\":4769:4773   */\n      dup2\n        /* \"#utility.yul\":4765:4785   */\n      sub\n        /* \"#utility.yul\":4761:4762   */\n      0x00\n        /* \"#utility.yul\":4750:4759   */\n      dup4\n        /* \"#utility.yul\":4746:4763   */\n      add\n        /* \"#utility.yul\":4739:4786   */\n      mstore\n        /* \"#utility.yul\":4803:4934   */\n      tag_182\n        /* \"#utility.yul\":4929:4933   */\n      dup2\n        /* \"#utility.yul\":4803:4934   */\n      tag_161\n      jump\t// in\n    tag_182:\n        /* \"#utility.yul\":4795:4934   */\n      swap1\n      pop\n        /* \"#utility.yul\":4522:4941   */\n      swap2\n      swap1\n      pop\n      jump\t// out\n        /* \"#utility.yul\":4947:5366   */\n    tag_111:\n        /* \"#utility.yul\":5113:5117   */\n      0x00\n        /* \"#utility.yul\":5151:5153   */\n      0x20\n        /* \"#utility.yul\":5140:5149   */\n      dup3\n        /* \"#utility.yul\":5136:5154   */\n      add\n        /* \"#utility.yul\":5128:5154   */\n      swap1\n      pop\n        /* \"#utility.yul\":5200:5209   */\n      dup2\n        /* \"#utility.yul\":5194:5198   */\n      dup2\n        /* \"#utility.yul\":5190:5210   */\n      sub\n        /* \"#utility.yul\":5186:5187   */\n      0x00\n        /* \"#utility.yul\":5175:5184   */\n      dup4\n        /* \"#utility.yul\":5171:5188   */\n      add\n        /* \"#utility.yul\":5164:5211   */\n      mstore\n        /* \"#utility.yul\":5228:5359   */\n      tag_184\n        /* \"#utility.yul\":5354:5358   */\n      dup2\n        /* \"#utility.yul\":5228:5359   */\n      tag_166\n      jump\t// in\n    tag_184:\n        /* \"#utility.yul\":5220:5359   */\n      swap1\n      pop\n        /* \"#utility.yul\":4947:5366   */\n      swap2\n      swap1\n      pop\n      jump\t// out\n        /* \"#utility.yul\":5453:5551   */\n    tag_137:\n        /* \"#utility.yul\":5504:5510   */\n      0x00\n        /* \"#utility.yul\":5538:5543   */\n      dup2\n        /* \"#utility.yul\":5532:5544   */\n      mload\n        /* \"#utility.yul\":5522:5544   */\n      swap1\n      pop\n        /* \"#utility.yul\":5453:5551   */\n      swap2\n      swap1\n      pop\n      jump\t// out\n        /* \"#utility.yul\":5557:5656   */\n    tag_145:\n        /* \"#utility.yul\":5609:5615   */\n      0x00\n        /* \"#utility.yul\":5643:5648   */\n      dup2\n        /* \"#utility.yul\":5637:5649   */\n      mload\n        /* \"#utility.yul\":5627:5649   */\n      swap1\n      pop\n        /* \"#utility.yul\":5557:5656   */\n      swap2\n      swap1\n      pop\n      jump\t// out\n        /* \"#utility.yul\":5662:5809   */\n    tag_139:\n        /* \"#utility.yul\":5763:5774   */\n      0x00\n        /* \"#utility.yul\":5800:5803   */\n      dup2\n        /* \"#utility.yul\":5785:5803   */\n      swap1\n      pop\n        /* \"#utility.yul\":5662:5809   */\n      swap3\n      swap2\n      pop\n      pop\n      jump\t// out\n        /* \"#utility.yul\":5815:5984   */\n    tag_147:\n        /* \"#utility.yul\":5899:5910   */\n      0x00\n        /* \"#utility.yul\":5933:5939   */\n      dup3\n        /* \"#utility.yul\":5928:5931   */\n      dup3\n        /* \"#utility.yul\":5921:5940   */\n      mstore\n        /* \"#utility.yul\":5973:5977   */\n      0x20\n        /* \"#utility.yul\":5968:5971   */\n      dup3\n        /* \"#utility.yul\":5964:5978   */\n      add\n        /* \"#utility.yul\":5949:5978   */\n      swap1\n      pop\n        /* \"#utility.yul\":5815:5984   */\n      swap3\n      swap2\n      pop\n      pop\n      jump\t// out\n        /* \"#utility.yul\":5990:6086   */\n    tag_133:\n        /* \"#utility.yul\":6027:6034   */\n      0x00\n        /* \"#utility.yul\":6056:6080   */\n      tag_192\n        /* \"#utility.yul\":6074:6079   */\n      dup3\n        /* \"#utility.yul\":6056:6080   */\n      tag_193\n      jump\t// in\n    tag_192:\n        /* \"#utility.yul\":6045:6080   */\n      swap1\n      pop\n        /* \"#utility.yul\":5990:6086   */\n      swap2\n      swap1\n      pop\n      jump\t// out\n        /* \"#utility.yul\":6092:6218   */\n    tag_193:\n        /* \"#utility.yul\":6129:6136   */\n      0x00\n        /* \"#utility.yul\":6169:6211   */\n      0xffffffffffffffffffffffffffffffffffffffff\n        /* \"#utility.yul\":6162:6167   */\n      dup3\n        /* \"#utility.yul\":6158:6212   */\n      and\n        /* \"#utility.yul\":6147:6212   */\n      swap1\n      pop\n        /* \"#utility.yul\":6092:6218   */\n      swap2\n      swap1\n      pop\n      jump\t// out\n        /* \"#utility.yul\":6224:6531   */\n    tag_141:\n        /* \"#utility.yul\":6292:6293   */\n      0x00\n        /* \"#utility.yul\":6302:6415   */\n    tag_196:\n        /* \"#utility.yul\":6316:6322   */\n      dup4\n        /* \"#utility.yul\":6313:6314   */\n      dup2\n        /* \"#utility.yul\":6310:6323   */\n      lt\n        /* \"#utility.yul\":6302:6415   */\n      iszero\n      tag_198\n      jumpi\n        /* \"#utility.yul\":6401:6402   */\n      dup1\n        /* \"#utility.yul\":6396:6399   */\n      dup3\n        /* \"#utility.yul\":6392:6403   */\n      add\n        /* \"#utility.yul\":6386:6404   */\n      mload\n        /* \"#utility.yul\":6382:6383   */\n      dup2\n        /* \"#utility.yul\":6377:6380   */\n      dup5\n        /* \"#utility.yul\":6373:6384   */\n      add\n        /* \"#utility.yul\":6366:6405   */\n      mstore\n        /* \"#utility.yul\":6338:6340   */\n      0x20\n        /* \"#utility.yul\":6335:6336   */\n      dup2\n        /* \"#utility.yul\":6331:6341   */\n      add\n        /* \"#utility.yul\":6326:6341   */\n      swap1\n      pop\n        /* \"#utility.yul\":6302:6415   */\n      jump(tag_196)\n    tag_198:\n        /* \"#utility.yul\":6433:6439   */\n      dup4\n        /* \"#utility.yul\":6430:6431   */\n      dup2\n        /* \"#utility.yul\":6427:6440   */\n      gt\n        /* \"#utility.yul\":6424:6525   */\n      iszero\n      tag_199\n      jumpi\n        /* \"#utility.yul\":6513:6514   */\n      0x00\n        /* \"#utility.yul\":6504:6510   */\n      dup5\n        /* \"#utility.yul\":6499:6502   */\n      dup5\n        /* \"#utility.yul\":6495:6511   */\n      add\n        /* \"#utility.yul\":6488:6515   */\n      mstore\n        /* \"#utility.yul\":6424:6525   */\n    tag_199:\n        /* \"#utility.yul\":6273:6531   */\n      pop\n        /* \"#utility.yul\":6224:6531   */\n      pop\n      pop\n      pop\n      jump\t// out\n        /* \"#utility.yul\":6660:6777   */\n    tag_128:\n        /* \"#utility.yul\":6769:6770   */\n      0x00\n        /* \"#utility.yul\":6766:6767   */\n      dup1\n        /* \"#utility.yul\":6759:6771   */\n      revert\n        /* \"#utility.yul\":6783:6885   */\n    tag_150:\n        /* \"#utility.yul\":6824:6830   */\n      0x00\n        /* \"#utility.yul\":6875:6877   */\n      0x1f\n        /* \"#utility.yul\":6871:6878   */\n      not\n        /* \"#utility.yul\":6866:6868   */\n      0x1f\n        /* \"#utility.yul\":6859:6864   */\n      dup4\n        /* \"#utility.yul\":6855:6869   */\n      add\n        /* \"#utility.yul\":6851:6879   */\n      and\n        /* \"#utility.yul\":6841:6879   */\n      swap1\n      pop\n        /* \"#utility.yul\":6783:6885   */\n      swap2\n      swap1\n      pop\n      jump\t// out\n        /* \"#utility.yul\":6891:7116   */\n    tag_155:\n        /* \"#utility.yul\":7031:7065   */\n      0x4f776e61626c653a206e6577206f776e657220697320746865207a65726f2061\n        /* \"#utility.yul\":7027:7028   */\n      0x00\n        /* \"#utility.yul\":7019:7025   */\n      dup3\n        /* \"#utility.yul\":7015:7029   */\n      add\n        /* \"#utility.yul\":7008:7066   */\n      mstore\n        /* \"#utility.yul\":7100:7108   */\n      0x6464726573730000000000000000000000000000000000000000000000000000\n        /* \"#utility.yul\":7095:7097   */\n      0x20\n        /* \"#utility.yul\":7087:7093   */\n      dup3\n        /* \"#utility.yul\":7083:7098   */\n      add\n        /* \"#utility.yul\":7076:7109   */\n      mstore\n        /* \"#utility.yul\":6891:7116   */\n      pop\n      jump\t// out\n        /* \"#utility.yul\":7122:7354   */\n    tag_160:\n        /* \"#utility.yul\":7262:7296   */\n      0x455243313936373a206e657720696d706c656d656e746174696f6e206973206e\n        /* \"#utility.yul\":7258:7259   */\n      0x00\n        /* \"#utility.yul\":7250:7256   */\n      dup3\n        /* \"#utility.yul\":7246:7260   */\n      add\n        /* \"#utility.yul\":7239:7297   */\n      mstore\n        /* \"#utility.yul\":7331:7346   */\n      0x6f74206120636f6e747261637400000000000000000000000000000000000000\n        /* \"#utility.yul\":7326:7328   */\n      0x20\n        /* \"#utility.yul\":7318:7324   */\n      dup3\n        /* \"#utility.yul\":7314:7329   */\n      add\n        /* \"#utility.yul\":7307:7347   */\n      mstore\n        /* \"#utility.yul\":7122:7354   */\n      pop\n      jump\t// out\n        /* \"#utility.yul\":7360:7542   */\n    tag_165:\n        /* \"#utility.yul\":7500:7534   */\n      0x4f776e61626c653a2063616c6c6572206973206e6f7420746865206f776e6572\n        /* \"#utility.yul\":7496:7497   */\n      0x00\n        /* \"#utility.yul\":7488:7494   */\n      dup3\n        /* \"#utility.yul\":7484:7498   */\n      add\n        /* \"#utility.yul\":7477:7535   */\n      mstore\n        /* \"#utility.yul\":7360:7542   */\n      pop\n      jump\t// out\n        /* \"#utility.yul\":7548:7727   */\n    tag_170:\n        /* \"#utility.yul\":7688:7719   */\n      0x416464726573733a2063616c6c20746f206e6f6e2d636f6e7472616374000000\n        /* \"#utility.yul\":7684:7685   */\n      0x00\n        /* \"#utility.yul\":7676:7682   */\n      dup3\n        /* \"#utility.yul\":7672:7686   */\n      add\n        /* \"#utility.yul\":7665:7720   */\n      mstore\n        /* \"#utility.yul\":7548:7727   */\n      pop\n      jump\t// out\n        /* \"#utility.yul\":7733:7855   */\n    tag_124:\n        /* \"#utility.yul\":7806:7830   */\n      tag_209\n        /* \"#utility.yul\":7824:7829   */\n      dup2\n        /* \"#utility.yul\":7806:7830   */\n      tag_133\n      jump\t// in\n    tag_209:\n        /* \"#utility.yul\":7799:7804   */\n      dup2\n        /* \"#utility.yul\":7796:7831   */\n      eq\n        /* \"#utility.yul\":7786:7849   */\n      tag_210\n      jumpi\n        /* \"#utility.yul\":7845:7846   */\n      0x00\n        /* \"#utility.yul\":7842:7843   */\n      dup1\n        /* \"#utility.yul\":7835:7847   */\n      revert\n        /* \"#utility.yul\":7786:7849   */\n    tag_210:\n        /* \"#utility.yul\":7733:7855   */\n      pop\n      jump\t// out\n    stop\n    data_9fdcd12e4b726339b32a442b0a448365d5d85c96b2d2cff917b4f66c63110398 416464726573733a206c6f772d6c6576656c2064656c65676174652063616c6c206661696c6564\n\n    auxdata: 0xa2646970667358221220dfffe0bf96396eb83959ffd7167af32f66fbf081428e1aa392ab103cc23bcc4764736f6c63430008070033\n}\n",
				"bytecode": {
					"linkReferences": {},
					"object": "60806040523480156200001157600080fd5b50604051620013e5380380620013e583398181016040528101906200003791906200051c565b81816200004d828260006200007760201b60201c565b50506200006f62000063620000ba60201b60201c565b620000c260201b60201c565b5050620008e0565b62000088836200018660201b60201c565b600082511180620000965750805b15620000b557620000b38383620001dd60201b6200021c1760201c565b505b505050565b600033905090565b60008060009054906101000a900473ffffffffffffffffffffffffffffffffffffffff169050816000806101000a81548173ffffffffffffffffffffffffffffffffffffffff021916908373ffffffffffffffffffffffffffffffffffffffff1602179055508173ffffffffffffffffffffffffffffffffffffffff168173ffffffffffffffffffffffffffffffffffffffff167f8be0079c531659141344cd1fd0a4f28419497f9722a3daafe3b4186f6b6457e060405160405180910390a35050565b62000197816200021360201b60201c565b8073ffffffffffffffffffffffffffffffffffffffff167fbc7cd75a20ee27fd9adebab32041f755214dbc6bffa90cc0225b39da2e5c2d3b60405160405180910390a250565b60606200020b8383604051806060016040528060278152602001620013be60279139620002e960201b60201c565b905092915050565b62000229816200037b60201b620002491760201c565b6200026b576040517f08c379a0000000000000000000000000000000000000000000000000000000008152600401620002629062000685565b60405180910390fd5b80620002a57f360894a13ba1a3210667c828492db98dca3e2076cc3735a920a3ca505d382bbc60001b6200039e60201b6200026c1760201c565b60000160006101000a81548173ffffffffffffffffffffffffffffffffffffffff021916908373ffffffffffffffffffffffffffffffffffffffff16021790555050565b60606000808573ffffffffffffffffffffffffffffffffffffffff168560405162000315919062000648565b600060405180830381855af49150503d806000811462000352576040519150601f19603f3d011682016040523d82523d6000602084013e62000357565b606091505b50915091506200037086838387620003a860201b60201c565b925050509392505050565b6000808273ffffffffffffffffffffffffffffffffffffffff163b119050919050565b6000819050919050565b6060831562000419576000835114156200041057620003cd856200037b60201b60201c565b6200040f576040517f08c379a00000000000000000000000000000000000000000000000000000000081526004016200040690620006a7565b60405180910390fd5b5b8290506200042c565b6200042b83836200043460201b60201c565b5b949350505050565b600082511115620004485781518083602001fd5b806040517f08c379a00000000000000000000000000000000000000000000000000000000081526004016200047e919062000661565b60405180910390fd5b60006200049e6200049884620006f2565b620006c9565b905082815260208101848484011115620004bd57620004bc6200082e565b5b620004ca8482856200078e565b509392505050565b600081519050620004e381620008c6565b92915050565b600082601f83011262000501576200050062000829565b5b81516200051384826020860162000487565b91505092915050565b6000806040838503121562000536576200053562000838565b5b60006200054685828601620004d2565b925050602083015167ffffffffffffffff8111156200056a576200056962000833565b5b6200057885828601620004e9565b9150509250929050565b60006200058f8262000728565b6200059b81856200073e565b9350620005ad8185602086016200078e565b80840191505092915050565b6000620005c68262000733565b620005d2818562000749565b9350620005e48185602086016200078e565b620005ef816200083d565b840191505092915050565b600062000609602d8362000749565b915062000616826200084e565b604082019050919050565b600062000630601d8362000749565b91506200063d826200089d565b602082019050919050565b600062000656828462000582565b915081905092915050565b600060208201905081810360008301526200067d8184620005b9565b905092915050565b60006020820190508181036000830152620006a081620005fa565b9050919050565b60006020820190508181036000830152620006c28162000621565b9050919050565b6000620006d5620006e8565b9050620006e38282620007c4565b919050565b6000604051905090565b600067ffffffffffffffff82111562000710576200070f620007fa565b5b6200071b826200083d565b9050602081019050919050565b600081519050919050565b600081519050919050565b600081905092915050565b600082825260208201905092915050565b600062000767826200076e565b9050919050565b600073ffffffffffffffffffffffffffffffffffffffff82169050919050565b60005b83811015620007ae57808201518184015260208101905062000791565b83811115620007be576000848401525b50505050565b620007cf826200083d565b810181811067ffffffffffffffff82111715620007f157620007f0620007fa565b5b80604052505050565b7f4e487b7100000000000000000000000000000000000000000000000000000000600052604160045260246000fd5b600080fd5b600080fd5b600080fd5b600080fd5b6000601f19601f8301169050919050565b7f455243313936373a206e657720696d706c656d656e746174696f6e206973206e60008201527f6f74206120636f6e747261637400000000000000000000000000000000000000602082015250565b7f416464726573733a2063616c6c20746f206e6f6e2d636f6e7472616374000000600082015250565b620008d1816200075a565b8114620008dd57600080fd5b50565b610ace80620008f06000396000f3fe60806040526004361061004e5760003560e01c80630900f010146100675780635c60da1b14610090578063715018a6146100bb5780638da5cb5b146100d2578063f2fde38b146100fd5761005d565b3661005d5761005b610126565b005b610065610126565b005b34801561007357600080fd5b5061008e600480360381019061008991906106b7565b610140565b005b34801561009c57600080fd5b506100a561014c565b6040516100b29190610800565b60405180910390f35b3480156100c757600080fd5b506100d061015b565b005b3480156100de57600080fd5b506100e761016f565b6040516100f49190610800565b60405180910390f35b34801561010957600080fd5b50610124600480360381019061011f91906106b7565b610198565b005b61012e610276565b61013e610139610278565b610287565b565b610149816102ad565b50565b6000610156610278565b905090565b6101636102fc565b61016d600061037a565b565b60008060009054906101000a900473ffffffffffffffffffffffffffffffffffffffff16905090565b6101a06102fc565b600073ffffffffffffffffffffffffffffffffffffffff168173ffffffffffffffffffffffffffffffffffffffff161415610210576040517f08c379a00000000000000000000000000000000000000000000000000000000081526004016102079061083d565b60405180910390fd5b6102198161037a565b50565b60606102418383604051806060016040528060278152602001610a726027913961043e565b905092915050565b6000808273ffffffffffffffffffffffffffffffffffffffff163b119050919050565b6000819050919050565b565b60006102826104c4565b905090565b3660008037600080366000845af43d6000803e80600081146102a8573d6000f35b3d6000fd5b6102b68161051b565b8073ffffffffffffffffffffffffffffffffffffffff167fbc7cd75a20ee27fd9adebab32041f755214dbc6bffa90cc0225b39da2e5c2d3b60405160405180910390a250565b6103046105d4565b73ffffffffffffffffffffffffffffffffffffffff1661032261016f565b73ffffffffffffffffffffffffffffffffffffffff1614610378576040517f08c379a000000000000000000000000000000000000000000000000000000000815260040161036f9061087d565b60405180910390fd5b565b60008060009054906101000a900473ffffffffffffffffffffffffffffffffffffffff169050816000806101000a81548173ffffffffffffffffffffffffffffffffffffffff021916908373ffffffffffffffffffffffffffffffffffffffff1602179055508173ffffffffffffffffffffffffffffffffffffffff168173ffffffffffffffffffffffffffffffffffffffff167f8be0079c531659141344cd1fd0a4f28419497f9722a3daafe3b4186f6b6457e060405160405180910390a35050565b60606000808573ffffffffffffffffffffffffffffffffffffffff168560405161046891906107e9565b600060405180830381855af49150503d80600081146104a3576040519150601f19603f3d011682016040523d82523d6000602084013e6104a8565b606091505b50915091506104b9868383876105dc565b925050509392505050565b60006104f27f360894a13ba1a3210667c828492db98dca3e2076cc3735a920a3ca505d382bbc60001b61026c565b60000160009054906101000a900473ffffffffffffffffffffffffffffffffffffffff16905090565b61052481610249565b610563576040517f08c379a000000000000000000000000000000000000000000000000000000000815260040161055a9061085d565b60405180910390fd5b806105907f360894a13ba1a3210667c828492db98dca3e2076cc3735a920a3ca505d382bbc60001b61026c565b60000160006101000a81548173ffffffffffffffffffffffffffffffffffffffff021916908373ffffffffffffffffffffffffffffffffffffffff16021790555050565b600033905090565b6060831561063f57600083511415610637576105f785610249565b610636576040517f08c379a000000000000000000000000000000000000000000000000000000000815260040161062d9061089d565b60405180910390fd5b5b82905061064a565b6106498383610652565b5b949350505050565b6000825111156106655781518083602001fd5b806040517f08c379a0000000000000000000000000000000000000000000000000000000008152600401610699919061081b565b60405180910390fd5b6000813590506106b181610a5a565b92915050565b6000602082840312156106cd576106cc610954565b5b60006106db848285016106a2565b91505092915050565b6106ed816108ef565b82525050565b60006106fe826108bd565b61070881856108d3565b9350610718818560208601610921565b80840191505092915050565b600061072f826108c8565b61073981856108de565b9350610749818560208601610921565b61075281610959565b840191505092915050565b600061076a6026836108de565b91506107758261096a565b604082019050919050565b600061078d602d836108de565b9150610798826109b9565b604082019050919050565b60006107b06020836108de565b91506107bb82610a08565b602082019050919050565b60006107d3601d836108de565b91506107de82610a31565b602082019050919050565b60006107f582846106f3565b915081905092915050565b600060208201905061081560008301846106e4565b92915050565b600060208201905081810360008301526108358184610724565b905092915050565b600060208201905081810360008301526108568161075d565b9050919050565b6000602082019050818103600083015261087681610780565b9050919050565b60006020820190508181036000830152610896816107a3565b9050919050565b600060208201905081810360008301526108b6816107c6565b9050919050565b600081519050919050565b600081519050919050565b600081905092915050565b600082825260208201905092915050565b60006108fa82610901565b9050919050565b600073ffffffffffffffffffffffffffffffffffffffff82169050919050565b60005b8381101561093f578082015181840152602081019050610924565b8381111561094e576000848401525b50505050565b600080fd5b6000601f19601f8301169050919050565b7f4f776e61626c653a206e6577206f776e657220697320746865207a65726f206160008201527f6464726573730000000000000000000000000000000000000000000000000000602082015250565b7f455243313936373a206e657720696d706c656d656e746174696f6e206973206e60008201527f6f74206120636f6e747261637400000000000000000000000000000000000000602082015250565b7f4f776e61626c653a2063616c6c6572206973206e6f7420746865206f776e6572600082015250565b7f416464726573733a2063616c6c20746f206e6f6e2d636f6e7472616374000000600082015250565b610a63816108ef565b8114610a6e57600080fd5b5056fe416464726573733a206c6f772d6c6576656c2064656c65676174652063616c6c206661696c6564a2646970667358221220dfffe0bf96396eb83959ffd7167af32f66fbf081428e1aa392ab103cc23bcc4764736f6c63430008070033416464726573733a206c6f772d6c6576656c2064656c65676174652063616c6c206661696c6564",
					"opcodes": "PUSH1 0x80 PUSH1 0x40 MSTORE CALLVALUE DUP1 ISZERO PUSH3 0x11 JUMPI PUSH1 0x0 DUP1 REVERT JUMPDEST POP PUSH1 0x40 MLOAD PUSH3 0x13E5 CODESIZE SUB DUP1 PUSH3 0x13E5 DUP4 CODECOPY DUP2 DUP2 ADD PUSH1 0x40 MSTORE DUP2 ADD SWAP1 PUSH3 0x37 SWAP2 SWAP1 PUSH3 0x51C JUMP JUMPDEST DUP2 DUP2 PUSH3 0x4D DUP3 DUP3 PUSH1 0x0 PUSH3 0x77 PUSH1 0x20 SHL PUSH1 0x20 SHR JUMP JUMPDEST POP POP PUSH3 0x6F PUSH3 0x63 PUSH3 0xBA PUSH1 0x20 SHL PUSH1 0x20 SHR JUMP JUMPDEST PUSH3 0xC2 PUSH1 0x20 SHL PUSH1 0x20 SHR JUMP JUMPDEST POP POP PUSH3 0x8E0 JUMP JUMPDEST PUSH3 0x88 DUP4 PUSH3 0x186 PUSH1 0x20 SHL PUSH1 0x20 SHR JUMP JUMPDEST PUSH1 0x0 DUP3 MLOAD GT DUP1 PUSH3 0x96 JUMPI POP DUP1 JUMPDEST ISZERO PUSH3 0xB5 JUMPI PUSH3 0xB3 DUP4 DUP4 PUSH3 0x1DD PUSH1 0x20 SHL PUSH3 0x21C OR PUSH1 0x20 SHR JUMP JUMPDEST POP JUMPDEST POP POP POP JUMP JUMPDEST PUSH1 0x0 CALLER SWAP1 POP SWAP1 JUMP JUMPDEST PUSH1 0x0 DUP1 PUSH1 0x0 SWAP1 SLOAD SWAP1 PUSH2 0x100 EXP SWAP1 DIV PUSH20 0xFFFFFFFFFFFFFFFFFFFFFFFFFFFFFFFFFFFFFFFF AND SWAP1 POP DUP2 PUSH1 0x0 DUP1 PUSH2 0x100 EXP DUP2 SLOAD DUP2 PUSH20 0xFFFFFFFFFFFFFFFFFFFFFFFFFFFFFFFFFFFFFFFF MUL NOT AND SWAP1 DUP4 PUSH20 0xFFFFFFFFFFFFFFFFFFFFFFFFFFFFFFFFFFFFFFFF AND MUL OR SWAP1 SSTORE POP DUP2 PUSH20 0xFFFFFFFFFFFFFFFFFFFFFFFFFFFFFFFFFFFFFFFF AND DUP2 PUSH20 0xFFFFFFFFFFFFFFFFFFFFFFFFFFFFFFFFFFFFFFFF AND PUSH32 0x8BE0079C531659141344CD1FD0A4F28419497F9722A3DAAFE3B4186F6B6457E0 PUSH1 0x40 MLOAD PUSH1 0x40 MLOAD DUP1 SWAP2 SUB SWAP1 LOG3 POP POP JUMP JUMPDEST PUSH3 0x197 DUP2 PUSH3 0x213 PUSH1 0x20 SHL PUSH1 0x20 SHR JUMP JUMPDEST DUP1 PUSH20 0xFFFFFFFFFFFFFFFFFFFFFFFFFFFFFFFFFFFFFFFF AND PUSH32 0xBC7CD75A20EE27FD9ADEBAB32041F755214DBC6BFFA90CC0225B39DA2E5C2D3B PUSH1 0x40 MLOAD PUSH1 0x40 MLOAD DUP1 SWAP2 SUB SWAP1 LOG2 POP JUMP JUMPDEST PUSH1 0x60 PUSH3 0x20B DUP4 DUP4 PUSH1 0x40 MLOAD DUP1 PUSH1 0x60 ADD PUSH1 0x40 MSTORE DUP1 PUSH1 0x27 DUP2 MSTORE PUSH1 0x20 ADD PUSH3 0x13BE PUSH1 0x27 SWAP2 CODECOPY PUSH3 0x2E9 PUSH1 0x20 SHL PUSH1 0x20 SHR JUMP JUMPDEST SWAP1 POP SWAP3 SWAP2 POP POP JUMP JUMPDEST PUSH3 0x229 DUP2 PUSH3 0x37B PUSH1 0x20 SHL PUSH3 0x249 OR PUSH1 0x20 SHR JUMP JUMPDEST PUSH3 0x26B JUMPI PUSH1 0x40 MLOAD PUSH32 0x8C379A000000000000000000000000000000000000000000000000000000000 DUP2 MSTORE PUSH1 0x4 ADD PUSH3 0x262 SWAP1 PUSH3 0x685 JUMP JUMPDEST PUSH1 0x40 MLOAD DUP1 SWAP2 SUB SWAP1 REVERT JUMPDEST DUP1 PUSH3 0x2A5 PUSH32 0x360894A13BA1A3210667C828492DB98DCA3E2076CC3735A920A3CA505D382BBC PUSH1 0x0 SHL PUSH3 0x39E PUSH1 0x20 SHL PUSH3 0x26C OR PUSH1 0x20 SHR JUMP JUMPDEST PUSH1 0x0 ADD PUSH1 0x0 PUSH2 0x100 EXP DUP2 SLOAD DUP2 PUSH20 0xFFFFFFFFFFFFFFFFFFFFFFFFFFFFFFFFFFFFFFFF MUL NOT AND SWAP1 DUP4 PUSH20 0xFFFFFFFFFFFFFFFFFFFFFFFFFFFFFFFFFFFFFFFF AND MUL OR SWAP1 SSTORE POP POP JUMP JUMPDEST PUSH1 0x60 PUSH1 0x0 DUP1 DUP6 PUSH20 0xFFFFFFFFFFFFFFFFFFFFFFFFFFFFFFFFFFFFFFFF AND DUP6 PUSH1 0x40 MLOAD PUSH3 0x315 SWAP2 SWAP1 PUSH3 0x648 JUMP JUMPDEST PUSH1 0x0 PUSH1 0x40 MLOAD DUP1 DUP4 SUB DUP2 DUP6 GAS DELEGATECALL SWAP2 POP POP RETURNDATASIZE DUP1 PUSH1 0x0 DUP2 EQ PUSH3 0x352 JUMPI PUSH1 0x40 MLOAD SWAP2 POP PUSH1 0x1F NOT PUSH1 0x3F RETURNDATASIZE ADD AND DUP3 ADD PUSH1 0x40 MSTORE RETURNDATASIZE DUP3 MSTORE RETURNDATASIZE PUSH1 0x0 PUSH1 0x20 DUP5 ADD RETURNDATACOPY PUSH3 0x357 JUMP JUMPDEST PUSH1 0x60 SWAP2 POP JUMPDEST POP SWAP2 POP SWAP2 POP PUSH3 0x370 DUP7 DUP4 DUP4 DUP8 PUSH3 0x3A8 PUSH1 0x20 SHL PUSH1 0x20 SHR JUMP JUMPDEST SWAP3 POP POP POP SWAP4 SWAP3 POP POP POP JUMP JUMPDEST PUSH1 0x0 DUP1 DUP3 PUSH20 0xFFFFFFFFFFFFFFFFFFFFFFFFFFFFFFFFFFFFFFFF AND EXTCODESIZE GT SWAP1 POP SWAP2 SWAP1 POP JUMP JUMPDEST PUSH1 0x0 DUP2 SWAP1 POP SWAP2 SWAP1 POP JUMP JUMPDEST PUSH1 0x60 DUP4 ISZERO PUSH3 0x419 JUMPI PUSH1 0x0 DUP4 MLOAD EQ ISZERO PUSH3 0x410 JUMPI PUSH3 0x3CD DUP6 PUSH3 0x37B PUSH1 0x20 SHL PUSH1 0x20 SHR JUMP JUMPDEST PUSH3 0x40F JUMPI PUSH1 0x40 MLOAD PUSH32 0x8C379A000000000000000000000000000000000000000000000000000000000 DUP2 MSTORE PUSH1 0x4 ADD PUSH3 0x406 SWAP1 PUSH3 0x6A7 JUMP JUMPDEST PUSH1 0x40 MLOAD DUP1 SWAP2 SUB SWAP1 REVERT JUMPDEST JUMPDEST DUP3 SWAP1 POP PUSH3 0x42C JUMP JUMPDEST PUSH3 0x42B DUP4 DUP4 PUSH3 0x434 PUSH1 0x20 SHL PUSH1 0x20 SHR JUMP JUMPDEST JUMPDEST SWAP5 SWAP4 POP POP POP POP JUMP JUMPDEST PUSH1 0x0 DUP3 MLOAD GT ISZERO PUSH3 0x448 JUMPI DUP2 MLOAD DUP1 DUP4 PUSH1 0x20 ADD REVERT JUMPDEST DUP1 PUSH1 0x40 MLOAD PUSH32 0x8C379A000000000000000000000000000000000000000000000000000000000 DUP2 MSTORE PUSH1 0x4 ADD PUSH3 0x47E SWAP2 SWAP1 PUSH3 0x661 JUMP JUMPDEST PUSH1 0x40 MLOAD DUP1 SWAP2 SUB SWAP1 REVERT JUMPDEST PUSH1 0x0 PUSH3 0x49E PUSH3 0x498 DUP5 PUSH3 0x6F2 JUMP JUMPDEST PUSH3 0x6C9 JUMP JUMPDEST SWAP1 POP DUP3 DUP2 MSTORE PUSH1 0x20 DUP2 ADD DUP5 DUP5 DUP5 ADD GT ISZERO PUSH3 0x4BD JUMPI PUSH3 0x4BC PUSH3 0x82E JUMP JUMPDEST JUMPDEST PUSH3 0x4CA DUP5 DUP3 DUP6 PUSH3 0x78E JUMP JUMPDEST POP SWAP4 SWAP3 POP POP POP JUMP JUMPDEST PUSH1 0x0 DUP2 MLOAD SWAP1 POP PUSH3 0x4E3 DUP2 PUSH3 0x8C6 JUMP JUMPDEST SWAP3 SWAP2 POP POP JUMP JUMPDEST PUSH1 0x0 DUP3 PUSH1 0x1F DUP4 ADD SLT PUSH3 0x501 JUMPI PUSH3 0x500 PUSH3 0x829 JUMP JUMPDEST JUMPDEST DUP2 MLOAD PUSH3 0x513 DUP5 DUP3 PUSH1 0x20 DUP7 ADD PUSH3 0x487 JUMP JUMPDEST SWAP2 POP POP SWAP3 SWAP2 POP POP JUMP JUMPDEST PUSH1 0x0 DUP1 PUSH1 0x40 DUP4 DUP6 SUB SLT ISZERO PUSH3 0x536 JUMPI PUSH3 0x535 PUSH3 0x838 JUMP JUMPDEST JUMPDEST PUSH1 0x0 PUSH3 0x546 DUP6 DUP3 DUP7 ADD PUSH3 0x4D2 JUMP JUMPDEST SWAP3 POP POP PUSH1 0x20 DUP4 ADD MLOAD PUSH8 0xFFFFFFFFFFFFFFFF DUP2 GT ISZERO PUSH3 0x56A JUMPI PUSH3 0x569 PUSH3 0x833 JUMP JUMPDEST JUMPDEST PUSH3 0x578 DUP6 DUP3 DUP7 ADD PUSH3 0x4E9 JUMP JUMPDEST SWAP2 POP POP SWAP3 POP SWAP3 SWAP1 POP JUMP JUMPDEST PUSH1 0x0 PUSH3 0x58F DUP3 PUSH3 0x728 JUMP JUMPDEST PUSH3 0x59B DUP2 DUP6 PUSH3 0x73E JUMP JUMPDEST SWAP4 POP PUSH3 0x5AD DUP2 DUP6 PUSH1 0x20 DUP7 ADD PUSH3 0x78E JUMP JUMPDEST DUP1 DUP5 ADD SWAP2 POP POP SWAP3 SWAP2 POP POP JUMP JUMPDEST PUSH1 0x0 PUSH3 0x5C6 DUP3 PUSH3 0x733 JUMP JUMPDEST PUSH3 0x5D2 DUP2 DUP6 PUSH3 0x749 JUMP JUMPDEST SWAP4 POP PUSH3 0x5E4 DUP2 DUP6 PUSH1 0x20 DUP7 ADD PUSH3 0x78E JUMP JUMPDEST PUSH3 0x5EF DUP2 PUSH3 0x83D JUMP JUMPDEST DUP5 ADD SWAP2 POP POP SWAP3 SWAP2 POP POP JUMP JUMPDEST PUSH1 0x0 PUSH3 0x609 PUSH1 0x2D DUP4 PUSH3 0x749 JUMP JUMPDEST SWAP2 POP PUSH3 0x616 DUP3 PUSH3 0x84E JUMP JUMPDEST PUSH1 0x40 DUP3 ADD SWAP1 POP SWAP2 SWAP1 POP JUMP JUMPDEST PUSH1 0x0 PUSH3 0x630 PUSH1 0x1D DUP4 PUSH3 0x749 JUMP JUMPDEST SWAP2 POP PUSH3 0x63D DUP3 PUSH3 0x89D JUMP JUMPDEST PUSH1 0x20 DUP3 ADD SWAP1 POP SWAP2 SWAP1 POP JUMP JUMPDEST PUSH1 0x0 PUSH3 0x656 DUP3 DUP5 PUSH3 0x582 JUMP JUMPDEST SWAP2 POP DUP2 SWAP1 POP SWAP3 SWAP2 POP POP JUMP JUMPDEST PUSH1 0x0 PUSH1 0x20 DUP3 ADD SWAP1 POP DUP2 DUP2 SUB PUSH1 0x0 DUP4 ADD MSTORE PUSH3 0x67D DUP2 DUP5 PUSH3 0x5B9 JUMP JUMPDEST SWAP1 POP SWAP3 SWAP2 POP POP JUMP JUMPDEST PUSH1 0x0 PUSH1 0x20 DUP3 ADD SWAP1 POP DUP2 DUP2 SUB PUSH1 0x0 DUP4 ADD MSTORE PUSH3 0x6A0 DUP2 PUSH3 0x5FA JUMP JUMPDEST SWAP1 POP SWAP2 SWAP1 POP JUMP JUMPDEST PUSH1 0x0 PUSH1 0x20 DUP3 ADD SWAP1 POP DUP2 DUP2 SUB PUSH1 0x0 DUP4 ADD MSTORE PUSH3 0x6C2 DUP2 PUSH3 0x621 JUMP JUMPDEST SWAP1 POP SWAP2 SWAP1 POP JUMP JUMPDEST PUSH1 0x0 PUSH3 0x6D5 PUSH3 0x6E8 JUMP JUMPDEST SWAP1 POP PUSH3 0x6E3 DUP3 DUP3 PUSH3 0x7C4 JUMP JUMPDEST SWAP2 SWAP1 POP JUMP JUMPDEST PUSH1 0x0 PUSH1 0x40 MLOAD SWAP1 POP SWAP1 JUMP JUMPDEST PUSH1 0x0 PUSH8 0xFFFFFFFFFFFFFFFF DUP3 GT ISZERO PUSH3 0x710 JUMPI PUSH3 0x70F PUSH3 0x7FA JUMP JUMPDEST JUMPDEST PUSH3 0x71B DUP3 PUSH3 0x83D JUMP JUMPDEST SWAP1 POP PUSH1 0x20 DUP2 ADD SWAP1 POP SWAP2 SWAP1 POP JUMP JUMPDEST PUSH1 0x0 DUP2 MLOAD SWAP1 POP SWAP2 SWAP1 POP JUMP JUMPDEST PUSH1 0x0 DUP2 MLOAD SWAP1 POP SWAP2 SWAP1 POP JUMP JUMPDEST PUSH1 0x0 DUP2 SWAP1 POP SWAP3 SWAP2 POP POP JUMP JUMPDEST PUSH1 0x0 DUP3 DUP3 MSTORE PUSH1 0x20 DUP3 ADD SWAP1 POP SWAP3 SWAP2 POP POP JUMP JUMPDEST PUSH1 0x0 PUSH3 0x767 DUP3 PUSH3 0x76E JUMP JUMPDEST SWAP1 POP SWAP2 SWAP1 POP JUMP JUMPDEST PUSH1 0x0 PUSH20 0xFFFFFFFFFFFFFFFFFFFFFFFFFFFFFFFFFFFFFFFF DUP3 AND SWAP1 POP SWAP2 SWAP1 POP JUMP JUMPDEST PUSH1 0x0 JUMPDEST DUP4 DUP2 LT ISZERO PUSH3 0x7AE JUMPI DUP1 DUP3 ADD MLOAD DUP2 DUP5 ADD MSTORE PUSH1 0x20 DUP2 ADD SWAP1 POP PUSH3 0x791 JUMP JUMPDEST DUP4 DUP2 GT ISZERO PUSH3 0x7BE JUMPI PUSH1 0x0 DUP5 DUP5 ADD MSTORE JUMPDEST POP POP POP POP JUMP JUMPDEST PUSH3 0x7CF DUP3 PUSH3 0x83D JUMP JUMPDEST DUP2 ADD DUP2 DUP2 LT PUSH8 0xFFFFFFFFFFFFFFFF DUP3 GT OR ISZERO PUSH3 0x7F1 JUMPI PUSH3 0x7F0 PUSH3 0x7FA JUMP JUMPDEST JUMPDEST DUP1 PUSH1 0x40 MSTORE POP POP POP JUMP JUMPDEST PUSH32 0x4E487B7100000000000000000000000000000000000000000000000000000000 PUSH1 0x0 MSTORE PUSH1 0x41 PUSH1 0x4 MSTORE PUSH1 0x24 PUSH1 0x0 REVERT JUMPDEST PUSH1 0x0 DUP1 REVERT JUMPDEST PUSH1 0x0 DUP1 REVERT JUMPDEST PUSH1 0x0 DUP1 REVERT JUMPDEST PUSH1 0x0 DUP1 REVERT JUMPDEST PUSH1 0x0 PUSH1 0x1F NOT PUSH1 0x1F DUP4 ADD AND SWAP1 POP SWAP2 SWAP1 POP JUMP JUMPDEST PUSH32 0x455243313936373A206E657720696D706C656D656E746174696F6E206973206E PUSH1 0x0 DUP3 ADD MSTORE PUSH32 0x6F74206120636F6E747261637400000000000000000000000000000000000000 PUSH1 0x20 DUP3 ADD MSTORE POP JUMP JUMPDEST PUSH32 0x416464726573733A2063616C6C20746F206E6F6E2D636F6E7472616374000000 PUSH1 0x0 DUP3 ADD MSTORE POP JUMP JUMPDEST PUSH3 0x8D1 DUP2 PUSH3 0x75A JUMP JUMPDEST DUP2 EQ PUSH3 0x8DD JUMPI PUSH1 0x0 DUP1 REVERT JUMPDEST POP JUMP JUMPDEST PUSH2 0xACE DUP1 PUSH3 0x8F0 PUSH1 0x0 CODECOPY PUSH1 0x0 RETURN INVALID PUSH1 0x80 PUSH1 0x40 MSTORE PUSH1 0x4 CALLDATASIZE LT PUSH2 0x4E JUMPI PUSH1 0x0 CALLDATALOAD PUSH1 0xE0 SHR DUP1 PUSH4 0x900F010 EQ PUSH2 0x67 JUMPI DUP1 PUSH4 0x5C60DA1B EQ PUSH2 0x90 JUMPI DUP1 PUSH4 0x715018A6 EQ PUSH2 0xBB JUMPI DUP1 PUSH4 0x8DA5CB5B EQ PUSH2 0xD2 JUMPI DUP1 PUSH4 0xF2FDE38B EQ PUSH2 0xFD JUMPI PUSH2 0x5D JUMP JUMPDEST CALLDATASIZE PUSH2 0x5D JUMPI PUSH2 0x5B PUSH2 0x126 JUMP JUMPDEST STOP JUMPDEST PUSH2 0x65 PUSH2 0x126 JUMP JUMPDEST STOP JUMPDEST CALLVALUE DUP1 ISZERO PUSH2 0x73 JUMPI PUSH1 0x0 DUP1 REVERT JUMPDEST POP PUSH2 0x8E PUSH1 0x4 DUP1 CALLDATASIZE SUB DUP2 ADD SWAP1 PUSH2 0x89 SWAP2 SWAP1 PUSH2 0x6B7 JUMP JUMPDEST PUSH2 0x140 JUMP JUMPDEST STOP JUMPDEST CALLVALUE DUP1 ISZERO PUSH2 0x9C JUMPI PUSH1 0x0 DUP1 REVERT JUMPDEST POP PUSH2 0xA5 PUSH2 0x14C JUMP JUMPDEST PUSH1 0x40 MLOAD PUSH2 0xB2 SWAP2 SWAP1 PUSH2 0x800 JUMP JUMPDEST PUSH1 0x40 MLOAD DUP1 SWAP2 SUB SWAP1 RETURN JUMPDEST CALLVALUE DUP1 ISZERO PUSH2 0xC7 JUMPI PUSH1 0x0 DUP1 REVERT JUMPDEST POP PUSH2 0xD0 PUSH2 0x15B JUMP JUMPDEST STOP JUMPDEST CALLVALUE DUP1 ISZERO PUSH2 0xDE JUMPI PUSH1 0x0 DUP1 REVERT JUMPDEST POP PUSH2 0xE7 PUSH2 0x16F JUMP JUMPDEST PUSH1 0x40 MLOAD PUSH2 0xF4 SWAP2 SWAP1 PUSH2 0x800 JUMP JUMPDEST PUSH1 0x40 MLOAD DUP1 SWAP2 SUB SWAP1 RETURN JUMPDEST CALLVALUE DUP1 ISZERO PUSH2 0x109 JUMPI PUSH1 0x0 DUP1 REVERT JUMPDEST POP PUSH2 0x124 PUSH1 0x4 DUP1 CALLDATASIZE SUB DUP2 ADD SWAP1 PUSH2 0x11F SWAP2 SWAP1 PUSH2 0x6B7 JUMP JUMPDEST PUSH2 0x198 JUMP JUMPDEST STOP JUMPDEST PUSH2 0x12E PUSH2 0x276 JUMP JUMPDEST PUSH2 0x13E PUSH2 0x139 PUSH2 0x278 JUMP JUMPDEST PUSH2 0x287 JUMP JUMPDEST JUMP JUMPDEST PUSH2 0x149 DUP2 PUSH2 0x2AD JUMP JUMPDEST POP JUMP JUMPDEST PUSH1 0x0 PUSH2 0x156 PUSH2 0x278 JUMP JUMPDEST SWAP1 POP SWAP1 JUMP JUMPDEST PUSH2 0x163 PUSH2 0x2FC JUMP JUMPDEST PUSH2 0x16D PUSH1 0x0 PUSH2 0x37A JUMP JUMPDEST JUMP JUMPDEST PUSH1 0x0 DUP1 PUSH1 0x0 SWAP1 SLOAD SWAP1 PUSH2 0x100 EXP SWAP1 DIV PUSH20 0xFFFFFFFFFFFFFFFFFFFFFFFFFFFFFFFFFFFFFFFF AND SWAP1 POP SWAP1 JUMP JUMPDEST PUSH2 0x1A0 PUSH2 0x2FC JUMP JUMPDEST PUSH1 0x0 PUSH20 0xFFFFFFFFFFFFFFFFFFFFFFFFFFFFFFFFFFFFFFFF AND DUP2 PUSH20 0xFFFFFFFFFFFFFFFFFFFFFFFFFFFFFFFFFFFFFFFF AND EQ ISZERO PUSH2 0x210 JUMPI PUSH1 0x40 MLOAD PUSH32 0x8C379A000000000000000000000000000000000000000000000000000000000 DUP2 MSTORE PUSH1 0x4 ADD PUSH2 0x207 SWAP1 PUSH2 0x83D JUMP JUMPDEST PUSH1 0x40 MLOAD DUP1 SWAP2 SUB SWAP1 REVERT JUMPDEST PUSH2 0x219 DUP2 PUSH2 0x37A JUMP JUMPDEST POP JUMP JUMPDEST PUSH1 0x60 PUSH2 0x241 DUP4 DUP4 PUSH1 0x40 MLOAD DUP1 PUSH1 0x60 ADD PUSH1 0x40 MSTORE DUP1 PUSH1 0x27 DUP2 MSTORE PUSH1 0x20 ADD PUSH2 0xA72 PUSH1 0x27 SWAP2 CODECOPY PUSH2 0x43E JUMP JUMPDEST SWAP1 POP SWAP3 SWAP2 POP POP JUMP JUMPDEST PUSH1 0x0 DUP1 DUP3 PUSH20 0xFFFFFFFFFFFFFFFFFFFFFFFFFFFFFFFFFFFFFFFF AND EXTCODESIZE GT SWAP1 POP SWAP2 SWAP1 POP JUMP JUMPDEST PUSH1 0x0 DUP2 SWAP1 POP SWAP2 SWAP1 POP JUMP JUMPDEST JUMP JUMPDEST PUSH1 0x0 PUSH2 0x282 PUSH2 0x4C4 JUMP JUMPDEST SWAP1 POP SWAP1 JUMP JUMPDEST CALLDATASIZE PUSH1 0x0 DUP1 CALLDATACOPY PUSH1 0x0 DUP1 CALLDATASIZE PUSH1 0x0 DUP5 GAS DELEGATECALL RETURNDATASIZE PUSH1 0x0 DUP1 RETURNDATACOPY DUP1 PUSH1 0x0 DUP2 EQ PUSH2 0x2A8 JUMPI RETURNDATASIZE PUSH1 0x0 RETURN JUMPDEST RETURNDATASIZE PUSH1 0x0 REVERT JUMPDEST PUSH2 0x2B6 DUP2 PUSH2 0x51B JUMP JUMPDEST DUP1 PUSH20 0xFFFFFFFFFFFFFFFFFFFFFFFFFFFFFFFFFFFFFFFF AND PUSH32 0xBC7CD75A20EE27FD9ADEBAB32041F755214DBC6BFFA90CC0225B39DA2E5C2D3B PUSH1 0x40 MLOAD PUSH1 0x40 MLOAD DUP1 SWAP2 SUB SWAP1 LOG2 POP JUMP JUMPDEST PUSH2 0x304 PUSH2 0x5D4 JUMP JUMPDEST PUSH20 0xFFFFFFFFFFFFFFFFFFFFFFFFFFFFFFFFFFFFFFFF AND PUSH2 0x322 PUSH2 0x16F JUMP JUMPDEST PUSH20 0xFFFFFFFFFFFFFFFFFFFFFFFFFFFFFFFFFFFFFFFF AND EQ PUSH2 0x378 JUMPI PUSH1 0x40 MLOAD PUSH32 0x8C379A000000000000000000000000000000000000000000000000000000000 DUP2 MSTORE PUSH1 0x4 ADD PUSH2 0x36F SWAP1 PUSH2 0x87D JUMP JUMPDEST PUSH1 0x40 MLOAD DUP1 SWAP2 SUB SWAP1 REVERT JUMPDEST JUMP JUMPDEST PUSH1 0x0 DUP1 PUSH1 0x0 SWAP1 SLOAD SWAP1 PUSH2 0x100 EXP SWAP1 DIV PUSH20 0xFFFFFFFFFFFFFFFFFFFFFFFFFFFFFFFFFFFFFFFF AND SWAP1 POP DUP2 PUSH1 0x0 DUP1 PUSH2 0x100 EXP DUP2 SLOAD DUP2 PUSH20 0xFFFFFFFFFFFFFFFFFFFFFFFFFFFFFFFFFFFFFFFF MUL NOT AND SWAP1 DUP4 PUSH20 0xFFFFFFFFFFFFFFFFFFFFFFFFFFFFFFFFFFFFFFFF AND MUL OR SWAP1 SSTORE POP DUP2 PUSH20 0xFFFFFFFFFFFFFFFFFFFFFFFFFFFFFFFFFFFFFFFF AND DUP2 PUSH20 0xFFFFFFFFFFFFFFFFFFFFFFFFFFFFFFFFFFFFFFFF AND PUSH32 0x8BE0079C531659141344CD1FD0A4F28419497F9722A3DAAFE3B4186F6B6457E0 PUSH1 0x40 MLOAD PUSH1 0x40 MLOAD DUP1 SWAP2 SUB SWAP1 LOG3 POP POP JUMP JUMPDEST PUSH1 0x60 PUSH1 0x0 DUP1 DUP6 PUSH20 0xFFFFFFFFFFFFFFFFFFFFFFFFFFFFFFFFFFFFFFFF AND DUP6 PUSH1 0x40 MLOAD PUSH2 0x468 SWAP2 SWAP1 PUSH2 0x7E9 JUMP JUMPDEST PUSH1 0x0 PUSH1 0x40 MLOAD DUP1 DUP4 SUB DUP2 DUP6 GAS DELEGATECALL SWAP2 POP POP RETURNDATASIZE DUP1 PUSH1 0x0 DUP2 EQ PUSH2 0x4A3 JUMPI PUSH1 0x40 MLOAD SWAP2 POP PUSH1 0x1F NOT PUSH1 0x3F RETURNDATASIZE ADD AND DUP3 ADD PUSH1 0x40 MSTORE RETURNDATASIZE DUP3 MSTORE RETURNDATASIZE PUSH1 0x0 PUSH1 0x20 DUP5 ADD RETURNDATACOPY PUSH2 0x4A8 JUMP JUMPDEST PUSH1 0x60 SWAP2 POP JUMPDEST POP SWAP2 POP SWAP2 POP PUSH2 0x4B9 DUP7 DUP4 DUP4 DUP8 PUSH2 0x5DC JUMP JUMPDEST SWAP3 POP POP POP SWAP4 SWAP3 POP POP POP JUMP JUMPDEST PUSH1 0x0 PUSH2 0x4F2 PUSH32 0x360894A13BA1A3210667C828492DB98DCA3E2076CC3735A920A3CA505D382BBC PUSH1 0x0 SHL PUSH2 0x26C JUMP JUMPDEST PUSH1 0x0 ADD PUSH1 0x0 SWAP1 SLOAD SWAP1 PUSH2 0x100 EXP SWAP1 DIV PUSH20 0xFFFFFFFFFFFFFFFFFFFFFFFFFFFFFFFFFFFFFFFF AND SWAP1 POP SWAP1 JUMP JUMPDEST PUSH2 0x524 DUP2 PUSH2 0x249 JUMP JUMPDEST PUSH2 0x563 JUMPI PUSH1 0x40 MLOAD PUSH32 0x8C379A000000000000000000000000000000000000000000000000000000000 DUP2 MSTORE PUSH1 0x4 ADD PUSH2 0x55A SWAP1 PUSH2 0x85D JUMP JUMPDEST PUSH1 0x40 MLOAD DUP1 SWAP2 SUB SWAP1 REVERT JUMPDEST DUP1 PUSH2 0x590 PUSH32 0x360894A13BA1A3210667C828492DB98DCA3E2076CC3735A920A3CA505D382BBC PUSH1 0x0 SHL PUSH2 0x26C JUMP JUMPDEST PUSH1 0x0 ADD PUSH1 0x0 PUSH2 0x100 EXP DUP2 SLOAD DUP2 PUSH20 0xFFFFFFFFFFFFFFFFFFFFFFFFFFFFFFFFFFFFFFFF MUL NOT AND SWAP1 DUP4 PUSH20 0xFFFFFFFFFFFFFFFFFFFFFFFFFFFFFFFFFFFFFFFF AND MUL OR SWAP1 SSTORE POP POP JUMP JUMPDEST PUSH1 0x0 CALLER SWAP1 POP SWAP1 JUMP JUMPDEST PUSH1 0x60 DUP4 ISZERO PUSH2 0x63F JUMPI PUSH1 0x0 DUP4 MLOAD EQ ISZERO PUSH2 0x637 JUMPI PUSH2 0x5F7 DUP6 PUSH2 0x249 JUMP JUMPDEST PUSH2 0x636 JUMPI PUSH1 0x40 MLOAD PUSH32 0x8C379A000000000000000000000000000000000000000000000000000000000 DUP2 MSTORE PUSH1 0x4 ADD PUSH2 0x62D SWAP1 PUSH2 0x89D JUMP JUMPDEST PUSH1 0x40 MLOAD DUP1 SWAP2 SUB SWAP1 REVERT JUMPDEST JUMPDEST DUP3 SWAP1 POP PUSH2 0x64A JUMP JUMPDEST PUSH2 0x649 DUP4 DUP4 PUSH2 0x652 JUMP JUMPDEST JUMPDEST SWAP5 SWAP4 POP POP POP POP JUMP JUMPDEST PUSH1 0x0 DUP3 MLOAD GT ISZERO PUSH2 0x665 JUMPI DUP2 MLOAD DUP1 DUP4 PUSH1 0x20 ADD REVERT JUMPDEST DUP1 PUSH1 0x40 MLOAD PUSH32 0x8C379A000000000000000000000000000000000000000000000000000000000 DUP2 MSTORE PUSH1 0x4 ADD PUSH2 0x699 SWAP2 SWAP1 PUSH2 0x81B JUMP JUMPDEST PUSH1 0x40 MLOAD DUP1 SWAP2 SUB SWAP1 REVERT JUMPDEST PUSH1 0x0 DUP2 CALLDATALOAD SWAP1 POP PUSH2 0x6B1 DUP2 PUSH2 0xA5A JUMP JUMPDEST SWAP3 SWAP2 POP POP JUMP JUMPDEST PUSH1 0x0 PUSH1 0x20 DUP3 DUP5 SUB SLT ISZERO PUSH2 0x6CD JUMPI PUSH2 0x6CC PUSH2 0x954 JUMP JUMPDEST JUMPDEST PUSH1 0x0 PUSH2 0x6DB DUP5 DUP3 DUP6 ADD PUSH2 0x6A2 JUMP JUMPDEST SWAP2 POP POP SWAP3 SWAP2 POP POP JUMP JUMPDEST PUSH2 0x6ED DUP2 PUSH2 0x8EF JUMP JUMPDEST DUP3 MSTORE POP POP JUMP JUMPDEST PUSH1 0x0 PUSH2 0x6FE DUP3 PUSH2 0x8BD JUMP JUMPDEST PUSH2 0x708 DUP2 DUP6 PUSH2 0x8D3 JUMP JUMPDEST SWAP4 POP PUSH2 0x718 DUP2 DUP6 PUSH1 0x20 DUP7 ADD PUSH2 0x921 JUMP JUMPDEST DUP1 DUP5 ADD SWAP2 POP POP SWAP3 SWAP2 POP POP JUMP JUMPDEST PUSH1 0x0 PUSH2 0x72F DUP3 PUSH2 0x8C8 JUMP JUMPDEST PUSH2 0x739 DUP2 DUP6 PUSH2 0x8DE JUMP JUMPDEST SWAP4 POP PUSH2 0x749 DUP2 DUP6 PUSH1 0x20 DUP7 ADD PUSH2 0x921 JUMP JUMPDEST PUSH2 0x752 DUP2 PUSH2 0x959 JUMP JUMPDEST DUP5 ADD SWAP2 POP POP SWAP3 SWAP2 POP POP JUMP JUMPDEST PUSH1 0x0 PUSH2 0x76A PUSH1 0x26 DUP4 PUSH2 0x8DE JUMP JUMPDEST SWAP2 POP PUSH2 0x775 DUP3 PUSH2 0x96A JUMP JUMPDEST PUSH1 0x40 DUP3 ADD SWAP1 POP SWAP2 SWAP1 POP JUMP JUMPDEST PUSH1 0x0 PUSH2 0x78D PUSH1 0x2D DUP4 PUSH2 0x8DE JUMP JUMPDEST SWAP2 POP PUSH2 0x798 DUP3 PUSH2 0x9B9 JUMP JUMPDEST PUSH1 0x40 DUP3 ADD SWAP1 POP SWAP2 SWAP1 POP JUMP JUMPDEST PUSH1 0x0 PUSH2 0x7B0 PUSH1 0x20 DUP4 PUSH2 0x8DE JUMP JUMPDEST SWAP2 POP PUSH2 0x7BB DUP3 PUSH2 0xA08 JUMP JUMPDEST PUSH1 0x20 DUP3 ADD SWAP1 POP SWAP2 SWAP1 POP JUMP JUMPDEST PUSH1 0x0 PUSH2 0x7D3 PUSH1 0x1D DUP4 PUSH2 0x8DE JUMP JUMPDEST SWAP2 POP PUSH2 0x7DE DUP3 PUSH2 0xA31 JUMP JUMPDEST PUSH1 0x20 DUP3 ADD SWAP1 POP SWAP2 SWAP1 POP JUMP JUMPDEST PUSH1 0x0 PUSH2 0x7F5 DUP3 DUP5 PUSH2 0x6F3 JUMP JUMPDEST SWAP2 POP DUP2 SWAP1 POP SWAP3 SWAP2 POP POP JUMP JUMPDEST PUSH1 0x0 PUSH1 0x20 DUP3 ADD SWAP1 POP PUSH2 0x815 PUSH1 0x0 DUP4 ADD DUP5 PUSH2 0x6E4 JUMP JUMPDEST SWAP3 SWAP2 POP POP JUMP JUMPDEST PUSH1 0x0 PUSH1 0x20 DUP3 ADD SWAP1 POP DUP2 DUP2 SUB PUSH1 0x0 DUP4 ADD MSTORE PUSH2 0x835 DUP2 DUP5 PUSH2 0x724 JUMP JUMPDEST SWAP1 POP SWAP3 SWAP2 POP POP JUMP JUMPDEST PUSH1 0x0 PUSH1 0x20 DUP3 ADD SWAP1 POP DUP2 DUP2 SUB PUSH1 0x0 DUP4 ADD MSTORE PUSH2 0x856 DUP2 PUSH2 0x75D JUMP JUMPDEST SWAP1 POP SWAP2 SWAP1 POP JUMP JUMPDEST PUSH1 0x0 PUSH1 0x20 DUP3 ADD SWAP1 POP DUP2 DUP2 SUB PUSH1 0x0 DUP4 ADD MSTORE PUSH2 0x876 DUP2 PUSH2 0x780 JUMP JUMPDEST SWAP1 POP SWAP2 SWAP1 POP JUMP JUMPDEST PUSH1 0x0 PUSH1 0x20 DUP3 ADD SWAP1 POP DUP2 DUP2 SUB PUSH1 0x0 DUP4 ADD MSTORE PUSH2 0x896 DUP2 PUSH2 0x7A3 JUMP JUMPDEST SWAP1 POP SWAP2 SWAP1 POP JUMP JUMPDEST PUSH1 0x0 PUSH1 0x20 DUP3 ADD SWAP1 POP DUP2 DUP2 SUB PUSH1 0x0 DUP4 ADD MSTORE PUSH2 0x8B6 DUP2 PUSH2 0x7C6 JUMP JUMPDEST SWAP1 POP SWAP2 SWAP1 POP JUMP JUMPDEST PUSH1 0x0 DUP2 MLOAD SWAP1 POP SWAP2 SWAP1 POP JUMP JUMPDEST PUSH1 0x0 DUP2 MLOAD SWAP1 POP SWAP2 SWAP1 POP JUMP JUMPDEST PUSH1 0x0 DUP2 SWAP1 POP SWAP3 SWAP2 POP POP JUMP JUMPDEST PUSH1 0x0 DUP3 DUP3 MSTORE PUSH1 0x20 DUP3 ADD SWAP1 POP SWAP3 SWAP2 POP POP JUMP JUMPDEST PUSH1 0x0 PUSH2 0x8FA DUP3 PUSH2 0x901 JUMP JUMPDEST SWAP1 POP SWAP2 SWAP1 POP JUMP JUMPDEST PUSH1 0x0 PUSH20 0xFFFFFFFFFFFFFFFFFFFFFFFFFFFFFFFFFFFFFFFF DUP3 AND SWAP1 POP SWAP2 SWAP1 POP JUMP JUMPDEST PUSH1 0x0 JUMPDEST DUP4 DUP2 LT ISZERO PUSH2 0x93F JUMPI DUP1 DUP3 ADD MLOAD DUP2 DUP5 ADD MSTORE PUSH1 0x20 DUP2 ADD SWAP1 POP PUSH2 0x924 JUMP JUMPDEST DUP4 DUP2 GT ISZERO PUSH2 0x94E JUMPI PUSH1 0x0 DUP5 DUP5 ADD MSTORE JUMPDEST POP POP POP POP JUMP JUMPDEST PUSH1 0x0 DUP1 REVERT JUMPDEST PUSH1 0x0 PUSH1 0x1F NOT PUSH1 0x1F DUP4 ADD AND SWAP1 POP SWAP2 SWAP1 POP JUMP JUMPDEST PUSH32 0x4F776E61626C653A206E6577206F776E657220697320746865207A65726F2061 PUSH1 0x0 DUP3 ADD MSTORE PUSH32 0x6464726573730000000000000000000000000000000000000000000000000000 PUSH1 0x20 DUP3 ADD MSTORE POP JUMP JUMPDEST PUSH32 0x455243313936373A206E657720696D706C656D656E746174696F6E206973206E PUSH1 0x0 DUP3 ADD MSTORE PUSH32 0x6F74206120636F6E747261637400000000000000000000000000000000000000 PUSH1 0x20 DUP3 ADD MSTORE POP JUMP JUMPDEST PUSH32 0x4F776E61626C653A2063616C6C6572206973206E6F7420746865206F776E6572 PUSH1 0x0 DUP3 ADD MSTORE POP JUMP JUMPDEST PUSH32 0x416464726573733A2063616C6C20746F206E6F6E2D636F6E7472616374000000 PUSH1 0x0 DUP3 ADD MSTORE POP JUMP JUMPDEST PUSH2 0xA63 DUP2 PUSH2 0x8EF JUMP JUMPDEST DUP2 EQ PUSH2 0xA6E JUMPI PUSH1 0x0 DUP1 REVERT JUMPDEST POP JUMP INVALID COINBASE PUSH5 0x6472657373 GASPRICE KECCAK256 PUSH13 0x6F772D6C6576656C2064656C65 PUSH8 0x6174652063616C6C KECCAK256 PUSH7 0x61696C6564A264 PUSH10 0x70667358221220DFFFE0 0xBF SWAP7 CODECOPY PUSH15 0xB83959FFD7167AF32F66FBF081428E BYTE LOG3 SWAP3 0xAB LT EXTCODECOPY 0xC2 EXTCODESIZE 0xCC SELFBALANCE PUSH5 0x736F6C6343 STOP ADDMOD SMOD STOP CALLER COINBASE PUSH5 0x6472657373 GASPRICE KECCAK256 PUSH13 0x6F772D6C6576656C2064656C65 PUSH8 0x6174652063616C6C KECCAK256 PUSH7 0x61696C65640000 "
				},
				"gasEstimates": {
					"creation": {
						"codeDepositCost": "553200",
						"executionCost": "infinite",
						"totalCost": "infinite"
					},
					"external": {
						"": "infinite",
						"implementation()": "2647",
						"owner()": "2566",
						"renounceOwnership()": "30420",
						"transferOwnership(address)": "30813",
						"upgrade(address)": "28646"
					}
				},
				"methodIdentifiers": {
					"implementation()": "5c60da1b",
					"owner()": "8da5cb5b",
					"renounceOwnership()": "715018a6",
					"transferOwnership(address)": "f2fde38b",
					"upgrade(address)": "0900f010"
				}
			},
			"storageLayout": {
				"storage": [
					{
						"astId": 7,
						"contract": "study/token-airdrop/contracts/proxy1967.sol:MyProxyBaseContract",
						"label": "_owner",
						"offset": 0,
						"slot": "0",
						"type": "t_address"
					}
				],
				"types": {
					"t_address": {
						"encoding": "inplace",
						"label": "address",
						"numberOfBytes": "20"
					}
				}
			},
			"userdoc": {
				"kind": "user",
				"methods": {},
				"version": 1
			}
		}
	}
}