{
	"study/token-airdrop/contracts/handler/AirdropHandler.sol": {
		"AirdropHandler": {
			"abi": [
				{
					"anonymous": false,
					"inputs": [
						{
							"indexed": true,
							"internalType": "address",
							"name": "_receiver",
							"type": "address"
						},
						{
							"indexed": false,
							"internalType": "uint256",
							"name": "_amount",
							"type": "uint256"
						}
					],
					"name": "AirdropEvent",
					"type": "event"
				},
				{
					"anonymous": false,
					"inputs": [
						{
							"indexed": true,
							"internalType": "address",
							"name": "previousOwner",
							"type": "address"
						},
						{
							"indexed": true,
							"internalType": "address",
							"name": "newOwner",
							"type": "address"
						}
					],
					"name": "OwnershipTransferred",
					"type": "event"
				},
				{
					"inputs": [
						{
							"internalType": "address[]",
							"name": "_receiver",
							"type": "address[]"
						},
						{
							"internalType": "uint256",
							"name": "_amount",
							"type": "uint256"
						}
					],
					"name": "Airdrop",
					"outputs": [],
					"stateMutability": "nonpayable",
					"type": "function"
				},
				{
					"inputs": [],
					"name": "AirdropHandler",
					"outputs": [
						{
							"internalType": "address",
							"name": "",
							"type": "address"
						}
					],
					"stateMutability": "view",
					"type": "function"
				},
				{
					"inputs": [
						{
							"internalType": "uint256",
							"name": "",
							"type": "uint256"
						}
					],
					"name": "adminArray",
					"outputs": [
						{
							"internalType": "address",
							"name": "",
							"type": "address"
						}
					],
					"stateMutability": "view",
					"type": "function"
				},
				{
					"inputs": [],
					"name": "owner",
					"outputs": [
						{
							"internalType": "address",
							"name": "",
							"type": "address"
						}
					],
					"stateMutability": "view",
					"type": "function"
				},
				{
					"inputs": [],
					"name": "renounceOwnership",
					"outputs": [],
					"stateMutability": "nonpayable",
					"type": "function"
				},
				{
					"inputs": [],
					"name": "token20Address",
					"outputs": [
						{
							"internalType": "address",
							"name": "",
							"type": "address"
						}
					],
					"stateMutability": "view",
					"type": "function"
				},
				{
					"inputs": [
						{
							"internalType": "address",
							"name": "newOwner",
							"type": "address"
						}
					],
					"name": "transferOwnership",
					"outputs": [],
					"stateMutability": "nonpayable",
					"type": "function"
				},
				{
					"inputs": [
						{
							"internalType": "uint256",
							"name": "",
							"type": "uint256"
						}
					],
					"name": "whitelistArray",
					"outputs": [
						{
							"internalType": "address",
							"name": "",
							"type": "address"
						}
					],
					"stateMutability": "view",
					"type": "function"
				}
			],
			"devdoc": {
				"kind": "dev",
				"methods": {
					"Airdrop(address[],uint256)": {
						"details": "Airdrop Token to Whitelist User ** Params **",
						"params": {
							"_amount": "amount of token to airdrop for each user",
							"_receiver": "list of receiver"
						}
					},
					"owner()": {
						"details": "Returns the address of the current owner."
					},
					"renounceOwnership()": {
						"details": "Leaves the contract without owner. It will not be possible to call `onlyOwner` functions anymore. Can only be called by the current owner. NOTE: Renouncing ownership will leave the contract without an owner, thereby removing any functionality that is only available to the owner."
					},
					"transferOwnership(address)": {
						"details": "Transfers ownership of the contract to a new account (`newOwner`). Can only be called by the current owner."
					}
				},
				"version": 1
			},
			"evm": {
				"assembly": "    /* \"study/token-airdrop/contracts/handler/AirdropHandler.sol\":156:843  contract AirdropHandler is Upgradeable{\r... */\n  mstore(0x40, 0x80)\n  callvalue\n  dup1\n  iszero\n  tag_1\n  jumpi\n  0x00\n  dup1\n  revert\ntag_1:\n  pop\n    /* \"@openzeppelin/contracts/access/Ownable.sol\":936:968  _transferOwnership(_msgSender()) */\n  tag_5\n    /* \"@openzeppelin/contracts/access/Ownable.sol\":955:967  _msgSender() */\n  tag_6\n    /* \"@openzeppelin/contracts/access/Ownable.sol\":955:965  _msgSender */\n  shl(0x20, tag_7)\n    /* \"@openzeppelin/contracts/access/Ownable.sol\":955:967  _msgSender() */\n  0x20\n  shr\n  jump\t// in\ntag_6:\n    /* \"@openzeppelin/contracts/access/Ownable.sol\":936:954  _transferOwnership */\n  shl(0x20, tag_8)\n    /* \"@openzeppelin/contracts/access/Ownable.sol\":936:968  _transferOwnership(_msgSender()) */\n  0x20\n  shr\n  jump\t// in\ntag_5:\n    /* \"study/token-airdrop/contracts/common/ReentrancyGuard.sol\":1734:1735  1 */\n  0x01\n    /* \"study/token-airdrop/contracts/common/ReentrancyGuard.sol\":1845:1852  _status */\n  dup1\n    /* \"study/token-airdrop/contracts/common/ReentrancyGuard.sol\":1845:1867  _status = _NOT_ENTERED */\n  dup2\n  swap1\n  sstore\n  pop\n    /* \"study/token-airdrop/contracts/handler/AirdropHandler.sol\":156:843  contract AirdropHandler is Upgradeable{\r... */\n  jump(tag_10)\n    /* \"@openzeppelin/contracts/utils/Context.sol\":640:736  function _msgSender() internal view virtual returns (address) {... */\ntag_7:\n    /* \"@openzeppelin/contracts/utils/Context.sol\":693:700  address */\n  0x00\n    /* \"@openzeppelin/contracts/utils/Context.sol\":719:729  msg.sender */\n  caller\n    /* \"@openzeppelin/contracts/utils/Context.sol\":712:729  return msg.sender */\n  swap1\n  pop\n    /* \"@openzeppelin/contracts/utils/Context.sol\":640:736  function _msgSender() internal view virtual returns (address) {... */\n  swap1\n  jump\t// out\n    /* \"@openzeppelin/contracts/access/Ownable.sol\":2433:2620  function _transferOwnership(address newOwner) internal virtual {... */\ntag_8:\n    /* \"@openzeppelin/contracts/access/Ownable.sol\":2506:2522  address oldOwner */\n  0x00\n    /* \"@openzeppelin/contracts/access/Ownable.sol\":2525:2531  _owner */\n  dup1\n  0x00\n  swap1\n  sload\n  swap1\n  0x0100\n  exp\n  swap1\n  div\n  0xffffffffffffffffffffffffffffffffffffffff\n  and\n    /* \"@openzeppelin/contracts/access/Ownable.sol\":2506:2531  address oldOwner = _owner */\n  swap1\n  pop\n    /* \"@openzeppelin/contracts/access/Ownable.sol\":2550:2558  newOwner */\n  dup2\n    /* \"@openzeppelin/contracts/access/Ownable.sol\":2541:2547  _owner */\n  0x00\n  dup1\n    /* \"@openzeppelin/contracts/access/Ownable.sol\":2541:2558  _owner = newOwner */\n  0x0100\n  exp\n  dup2\n  sload\n  dup2\n  0xffffffffffffffffffffffffffffffffffffffff\n  mul\n  not\n  and\n  swap1\n  dup4\n  0xffffffffffffffffffffffffffffffffffffffff\n  and\n  mul\n  or\n  swap1\n  sstore\n  pop\n    /* \"@openzeppelin/contracts/access/Ownable.sol\":2604:2612  newOwner */\n  dup2\n    /* \"@openzeppelin/contracts/access/Ownable.sol\":2573:2613  OwnershipTransferred(oldOwner, newOwner) */\n  0xffffffffffffffffffffffffffffffffffffffff\n  and\n    /* \"@openzeppelin/contracts/access/Ownable.sol\":2594:2602  oldOwner */\n  dup2\n    /* \"@openzeppelin/contracts/access/Ownable.sol\":2573:2613  OwnershipTransferred(oldOwner, newOwner) */\n  0xffffffffffffffffffffffffffffffffffffffff\n  and\n  0x8be0079c531659141344cd1fd0a4f28419497f9722a3daafe3b4186f6b6457e0\n  mload(0x40)\n  mload(0x40)\n  dup1\n  swap2\n  sub\n  swap1\n  log3\n    /* \"@openzeppelin/contracts/access/Ownable.sol\":2496:2620  {... */\n  pop\n    /* \"@openzeppelin/contracts/access/Ownable.sol\":2433:2620  function _transferOwnership(address newOwner) internal virtual {... */\n  pop\n  jump\t// out\n    /* \"study/token-airdrop/contracts/handler/AirdropHandler.sol\":156:843  contract AirdropHandler is Upgradeable{\r... */\ntag_10:\n  dataSize(sub_0)\n  dup1\n  dataOffset(sub_0)\n  0x00\n  codecopy\n  0x00\n  return\nstop\n\nsub_0: assembly {\n        /* \"study/token-airdrop/contracts/handler/AirdropHandler.sol\":156:843  contract AirdropHandler is Upgradeable{\r... */\n      mstore(0x40, 0x80)\n      callvalue\n      dup1\n      iszero\n      tag_1\n      jumpi\n      0x00\n      dup1\n      revert\n    tag_1:\n      pop\n      jumpi(tag_2, lt(calldatasize, 0x04))\n      shr(0xe0, calldataload(0x00))\n      dup1\n      0x8da5cb5b\n      gt\n      tag_11\n      jumpi\n      dup1\n      0x8da5cb5b\n      eq\n      tag_7\n      jumpi\n      dup1\n      0x973f6129\n      eq\n      tag_8\n      jumpi\n      dup1\n      0xd251fefc\n      eq\n      tag_9\n      jumpi\n      dup1\n      0xf2fde38b\n      eq\n      tag_10\n      jumpi\n      jump(tag_2)\n    tag_11:\n      dup1\n      0x08b3e419\n      eq\n      tag_3\n      jumpi\n      dup1\n      0x6566d39a\n      eq\n      tag_4\n      jumpi\n      dup1\n      0x6e636c97\n      eq\n      tag_5\n      jumpi\n      dup1\n      0x715018a6\n      eq\n      tag_6\n      jumpi\n    tag_2:\n      0x00\n      dup1\n      revert\n        /* \"study/token-airdrop/contracts/handler/AirdropHandler.sol\":393:838  function Airdrop(\r... */\n    tag_3:\n      tag_12\n      0x04\n      dup1\n      calldatasize\n      sub\n      dup2\n      add\n      swap1\n      tag_13\n      swap2\n      swap1\n      tag_14\n      jump\t// in\n    tag_13:\n      tag_15\n      jump\t// in\n    tag_12:\n      stop\n        /* \"study/token-airdrop/contracts/common/Upgradeable.sol\":207:236  address public token20Address */\n    tag_4:\n      tag_16\n      tag_17\n      jump\t// in\n    tag_16:\n      mload(0x40)\n      tag_18\n      swap2\n      swap1\n      tag_19\n      jump\t// in\n    tag_18:\n      mload(0x40)\n      dup1\n      swap2\n      sub\n      swap1\n      return\n        /* \"study/token-airdrop/contracts/common/Upgradeable.sol\":247:276  address public AirdropHandler */\n    tag_5:\n      tag_20\n      tag_21\n      jump\t// in\n    tag_20:\n      mload(0x40)\n      tag_22\n      swap2\n      swap1\n      tag_19\n      jump\t// in\n    tag_22:\n      mload(0x40)\n      dup1\n      swap2\n      sub\n      swap1\n      return\n        /* \"@openzeppelin/contracts/access/Ownable.sol\":1831:1932  function renounceOwnership() public virtual onlyOwner {... */\n    tag_6:\n      tag_23\n      tag_24\n      jump\t// in\n    tag_23:\n      stop\n        /* \"@openzeppelin/contracts/access/Ownable.sol\":1201:1286  function owner() public view virtual returns (address) {... */\n    tag_7:\n      tag_25\n      tag_26\n      jump\t// in\n    tag_25:\n      mload(0x40)\n      tag_27\n      swap2\n      swap1\n      tag_19\n      jump\t// in\n    tag_27:\n      mload(0x40)\n      dup1\n      swap2\n      sub\n      swap1\n      return\n        /* \"study/token-airdrop/contracts/common/Upgradeable.sol\":285:312  address[] public adminArray */\n    tag_8:\n      tag_28\n      0x04\n      dup1\n      calldatasize\n      sub\n      dup2\n      add\n      swap1\n      tag_29\n      swap2\n      swap1\n      tag_30\n      jump\t// in\n    tag_29:\n      tag_31\n      jump\t// in\n    tag_28:\n      mload(0x40)\n      tag_32\n      swap2\n      swap1\n      tag_19\n      jump\t// in\n    tag_32:\n      mload(0x40)\n      dup1\n      swap2\n      sub\n      swap1\n      return\n        /* \"study/token-airdrop/contracts/common/Upgradeable.sol\":319:350  address[] public whitelistArray */\n    tag_9:\n      tag_33\n      0x04\n      dup1\n      calldatasize\n      sub\n      dup2\n      add\n      swap1\n      tag_34\n      swap2\n      swap1\n      tag_30\n      jump\t// in\n    tag_34:\n      tag_35\n      jump\t// in\n    tag_33:\n      mload(0x40)\n      tag_36\n      swap2\n      swap1\n      tag_19\n      jump\t// in\n    tag_36:\n      mload(0x40)\n      dup1\n      swap2\n      sub\n      swap1\n      return\n        /* \"@openzeppelin/contracts/access/Ownable.sol\":2081:2279  function transferOwnership(address newOwner) public virtual onlyOwner {... */\n    tag_10:\n      tag_37\n      0x04\n      dup1\n      calldatasize\n      sub\n      dup2\n      add\n      swap1\n      tag_38\n      swap2\n      swap1\n      tag_39\n      jump\t// in\n    tag_38:\n      tag_40\n      jump\t// in\n    tag_37:\n      stop\n        /* \"study/token-airdrop/contracts/handler/AirdropHandler.sol\":393:838  function Airdrop(\r... */\n    tag_15:\n        /* \"@openzeppelin/contracts/access/Ownable.sol\":1094:1107  _checkOwner() */\n      tag_42\n        /* \"@openzeppelin/contracts/access/Ownable.sol\":1094:1105  _checkOwner */\n      tag_43\n        /* \"@openzeppelin/contracts/access/Ownable.sol\":1094:1107  _checkOwner() */\n      jump\t// in\n    tag_42:\n        /* \"study/token-airdrop/contracts/handler/AirdropHandler.sol\":526:527  0 */\n      0x00\n        /* \"study/token-airdrop/contracts/handler/AirdropHandler.sol\":516:523  _amount */\n      dup2\n        /* \"study/token-airdrop/contracts/handler/AirdropHandler.sol\":516:527  _amount > 0 */\n      gt\n        /* \"study/token-airdrop/contracts/handler/AirdropHandler.sol\":508:570  require(_amount > 0, \"Airdrop: Amount must be greater than 0\") */\n      tag_45\n      jumpi\n      mload(0x40)\n      0x08c379a000000000000000000000000000000000000000000000000000000000\n      dup2\n      mstore\n      0x04\n      add\n      tag_46\n      swap1\n      tag_47\n      jump\t// in\n    tag_46:\n      mload(0x40)\n      dup1\n      swap2\n      sub\n      swap1\n      revert\n    tag_45:\n        /* \"study/token-airdrop/contracts/handler/AirdropHandler.sol\":586:595  uint256 i */\n      0x00\n        /* \"study/token-airdrop/contracts/handler/AirdropHandler.sol\":581:831  for (uint256 i = 0; i < _receiver.length; i++) {\r... */\n    tag_48:\n        /* \"study/token-airdrop/contracts/handler/AirdropHandler.sol\":605:614  _receiver */\n      dup3\n        /* \"study/token-airdrop/contracts/handler/AirdropHandler.sol\":605:621  _receiver.length */\n      mload\n        /* \"study/token-airdrop/contracts/handler/AirdropHandler.sol\":601:602  i */\n      dup2\n        /* \"study/token-airdrop/contracts/handler/AirdropHandler.sol\":601:621  i < _receiver.length */\n      lt\n        /* \"study/token-airdrop/contracts/handler/AirdropHandler.sol\":581:831  for (uint256 i = 0; i < _receiver.length; i++) {\r... */\n      iszero\n      tag_49\n      jumpi\n        /* \"study/token-airdrop/contracts/handler/AirdropHandler.sol\":674:678  true */\n      0x01\n        /* \"study/token-airdrop/contracts/handler/AirdropHandler.sol\":647:678  whiteList[_receiver[i]] == true */\n      iszero\n      iszero\n        /* \"study/token-airdrop/contracts/handler/AirdropHandler.sol\":647:656  whiteList */\n      0x07\n        /* \"study/token-airdrop/contracts/handler/AirdropHandler.sol\":647:670  whiteList[_receiver[i]] */\n      0x00\n        /* \"study/token-airdrop/contracts/handler/AirdropHandler.sol\":657:666  _receiver */\n      dup6\n        /* \"study/token-airdrop/contracts/handler/AirdropHandler.sol\":667:668  i */\n      dup5\n        /* \"study/token-airdrop/contracts/handler/AirdropHandler.sol\":657:669  _receiver[i] */\n      dup2\n      mload\n      dup2\n      lt\n      tag_51\n      jumpi\n      tag_52\n      tag_53\n      jump\t// in\n    tag_52:\n    tag_51:\n      0x20\n      mul\n      0x20\n      add\n      add\n      mload\n        /* \"study/token-airdrop/contracts/handler/AirdropHandler.sol\":647:670  whiteList[_receiver[i]] */\n      0xffffffffffffffffffffffffffffffffffffffff\n      and\n      0xffffffffffffffffffffffffffffffffffffffff\n      and\n      dup2\n      mstore\n      0x20\n      add\n      swap1\n      dup2\n      mstore\n      0x20\n      add\n      0x00\n      keccak256\n      0x00\n      swap1\n      sload\n      swap1\n      0x0100\n      exp\n      swap1\n      div\n      0xff\n      and\n        /* \"study/token-airdrop/contracts/handler/AirdropHandler.sol\":647:678  whiteList[_receiver[i]] == true */\n      iszero\n      iszero\n      eq\n        /* \"study/token-airdrop/contracts/handler/AirdropHandler.sol\":643:765  if (whiteList[_receiver[i]] == true) {\r... */\n      iszero\n      tag_54\n      jumpi\n        /* \"study/token-airdrop/contracts/handler/AirdropHandler.sol\":706:720  token20Address */\n      0x02\n      0x00\n      swap1\n      sload\n      swap1\n      0x0100\n      exp\n      swap1\n      div\n      0xffffffffffffffffffffffffffffffffffffffff\n      and\n        /* \"study/token-airdrop/contracts/handler/AirdropHandler.sol\":699:726  IERC20(token20Address).mint */\n      0xffffffffffffffffffffffffffffffffffffffff\n      and\n      0x40c10f19\n        /* \"study/token-airdrop/contracts/handler/AirdropHandler.sol\":727:736  _receiver */\n      dup5\n        /* \"study/token-airdrop/contracts/handler/AirdropHandler.sol\":737:738  i */\n      dup4\n        /* \"study/token-airdrop/contracts/handler/AirdropHandler.sol\":727:739  _receiver[i] */\n      dup2\n      mload\n      dup2\n      lt\n      tag_55\n      jumpi\n      tag_56\n      tag_53\n      jump\t// in\n    tag_56:\n    tag_55:\n      0x20\n      mul\n      0x20\n      add\n      add\n      mload\n        /* \"study/token-airdrop/contracts/handler/AirdropHandler.sol\":741:748  _amount */\n      dup5\n        /* \"study/token-airdrop/contracts/handler/AirdropHandler.sol\":699:749  IERC20(token20Address).mint(_receiver[i], _amount) */\n      mload(0x40)\n      dup4\n      0xffffffff\n      and\n      0xe0\n      shl\n      dup2\n      mstore\n      0x04\n      add\n      tag_57\n      swap3\n      swap2\n      swap1\n      tag_58\n      jump\t// in\n    tag_57:\n      0x00\n      mload(0x40)\n      dup1\n      dup4\n      sub\n      dup2\n      0x00\n      dup8\n      dup1\n      extcodesize\n      iszero\n      dup1\n      iszero\n      tag_59\n      jumpi\n      0x00\n      dup1\n      revert\n    tag_59:\n      pop\n      gas\n      call\n      iszero\n      dup1\n      iszero\n      tag_61\n      jumpi\n      returndatasize\n      0x00\n      dup1\n      returndatacopy\n      revert(0x00, returndatasize)\n    tag_61:\n      pop\n      pop\n      pop\n      pop\n        /* \"study/token-airdrop/contracts/handler/AirdropHandler.sol\":643:765  if (whiteList[_receiver[i]] == true) {\r... */\n    tag_54:\n        /* \"study/token-airdrop/contracts/handler/AirdropHandler.sol\":797:806  _receiver */\n      dup3\n        /* \"study/token-airdrop/contracts/handler/AirdropHandler.sol\":807:808  i */\n      dup2\n        /* \"study/token-airdrop/contracts/handler/AirdropHandler.sol\":797:809  _receiver[i] */\n      dup2\n      mload\n      dup2\n      lt\n      tag_62\n      jumpi\n      tag_63\n      tag_53\n      jump\t// in\n    tag_63:\n    tag_62:\n      0x20\n      mul\n      0x20\n      add\n      add\n      mload\n        /* \"study/token-airdrop/contracts/handler/AirdropHandler.sol\":784:819  AirdropEvent(_receiver[i], _amount) */\n      0xffffffffffffffffffffffffffffffffffffffff\n      and\n      0x7d78c37200c09313fc0b6a46a20a9ee4a158922da166168d876bc00ce420c84a\n        /* \"study/token-airdrop/contracts/handler/AirdropHandler.sol\":811:818  _amount */\n      dup4\n        /* \"study/token-airdrop/contracts/handler/AirdropHandler.sol\":784:819  AirdropEvent(_receiver[i], _amount) */\n      mload(0x40)\n      tag_64\n      swap2\n      swap1\n      tag_65\n      jump\t// in\n    tag_64:\n      mload(0x40)\n      dup1\n      swap2\n      sub\n      swap1\n      log2\n        /* \"study/token-airdrop/contracts/handler/AirdropHandler.sol\":623:626  i++ */\n      dup1\n      dup1\n      tag_66\n      swap1\n      tag_67\n      jump\t// in\n    tag_66:\n      swap2\n      pop\n      pop\n        /* \"study/token-airdrop/contracts/handler/AirdropHandler.sol\":581:831  for (uint256 i = 0; i < _receiver.length; i++) {\r... */\n      jump(tag_48)\n    tag_49:\n      pop\n        /* \"study/token-airdrop/contracts/handler/AirdropHandler.sol\":393:838  function Airdrop(\r... */\n      pop\n      pop\n      jump\t// out\n        /* \"study/token-airdrop/contracts/common/Upgradeable.sol\":207:236  address public token20Address */\n    tag_17:\n      0x02\n      0x00\n      swap1\n      sload\n      swap1\n      0x0100\n      exp\n      swap1\n      div\n      0xffffffffffffffffffffffffffffffffffffffff\n      and\n      dup2\n      jump\t// out\n        /* \"study/token-airdrop/contracts/common/Upgradeable.sol\":247:276  address public AirdropHandler */\n    tag_21:\n      0x03\n      0x00\n      swap1\n      sload\n      swap1\n      0x0100\n      exp\n      swap1\n      div\n      0xffffffffffffffffffffffffffffffffffffffff\n      and\n      dup2\n      jump\t// out\n        /* \"@openzeppelin/contracts/access/Ownable.sol\":1831:1932  function renounceOwnership() public virtual onlyOwner {... */\n    tag_24:\n        /* \"@openzeppelin/contracts/access/Ownable.sol\":1094:1107  _checkOwner() */\n      tag_69\n        /* \"@openzeppelin/contracts/access/Ownable.sol\":1094:1105  _checkOwner */\n      tag_43\n        /* \"@openzeppelin/contracts/access/Ownable.sol\":1094:1107  _checkOwner() */\n      jump\t// in\n    tag_69:\n        /* \"@openzeppelin/contracts/access/Ownable.sol\":1895:1925  _transferOwnership(address(0)) */\n      tag_71\n        /* \"@openzeppelin/contracts/access/Ownable.sol\":1922:1923  0 */\n      0x00\n        /* \"@openzeppelin/contracts/access/Ownable.sol\":1895:1913  _transferOwnership */\n      tag_72\n        /* \"@openzeppelin/contracts/access/Ownable.sol\":1895:1925  _transferOwnership(address(0)) */\n      jump\t// in\n    tag_71:\n        /* \"@openzeppelin/contracts/access/Ownable.sol\":1831:1932  function renounceOwnership() public virtual onlyOwner {... */\n      jump\t// out\n        /* \"@openzeppelin/contracts/access/Ownable.sol\":1201:1286  function owner() public view virtual returns (address) {... */\n    tag_26:\n        /* \"@openzeppelin/contracts/access/Ownable.sol\":1247:1254  address */\n      0x00\n        /* \"@openzeppelin/contracts/access/Ownable.sol\":1273:1279  _owner */\n      dup1\n      0x00\n      swap1\n      sload\n      swap1\n      0x0100\n      exp\n      swap1\n      div\n      0xffffffffffffffffffffffffffffffffffffffff\n      and\n        /* \"@openzeppelin/contracts/access/Ownable.sol\":1266:1279  return _owner */\n      swap1\n      pop\n        /* \"@openzeppelin/contracts/access/Ownable.sol\":1201:1286  function owner() public view virtual returns (address) {... */\n      swap1\n      jump\t// out\n        /* \"study/token-airdrop/contracts/common/Upgradeable.sol\":285:312  address[] public adminArray */\n    tag_31:\n      0x04\n      dup2\n      dup2\n      sload\n      dup2\n      lt\n      tag_74\n      jumpi\n      0x00\n      dup1\n      revert\n    tag_74:\n      swap1\n      0x00\n      mstore\n      keccak256(0x00, 0x20)\n      add\n      0x00\n      swap2\n      pop\n      sload\n      swap1\n      0x0100\n      exp\n      swap1\n      div\n      0xffffffffffffffffffffffffffffffffffffffff\n      and\n      dup2\n      jump\t// out\n        /* \"study/token-airdrop/contracts/common/Upgradeable.sol\":319:350  address[] public whitelistArray */\n    tag_35:\n      0x05\n      dup2\n      dup2\n      sload\n      dup2\n      lt\n      tag_76\n      jumpi\n      0x00\n      dup1\n      revert\n    tag_76:\n      swap1\n      0x00\n      mstore\n      keccak256(0x00, 0x20)\n      add\n      0x00\n      swap2\n      pop\n      sload\n      swap1\n      0x0100\n      exp\n      swap1\n      div\n      0xffffffffffffffffffffffffffffffffffffffff\n      and\n      dup2\n      jump\t// out\n        /* \"@openzeppelin/contracts/access/Ownable.sol\":2081:2279  function transferOwnership(address newOwner) public virtual onlyOwner {... */\n    tag_40:\n        /* \"@openzeppelin/contracts/access/Ownable.sol\":1094:1107  _checkOwner() */\n      tag_79\n        /* \"@openzeppelin/contracts/access/Ownable.sol\":1094:1105  _checkOwner */\n      tag_43\n        /* \"@openzeppelin/contracts/access/Ownable.sol\":1094:1107  _checkOwner() */\n      jump\t// in\n    tag_79:\n        /* \"@openzeppelin/contracts/access/Ownable.sol\":2189:2190  0 */\n      0x00\n        /* \"@openzeppelin/contracts/access/Ownable.sol\":2169:2191  newOwner != address(0) */\n      0xffffffffffffffffffffffffffffffffffffffff\n      and\n        /* \"@openzeppelin/contracts/access/Ownable.sol\":2169:2177  newOwner */\n      dup2\n        /* \"@openzeppelin/contracts/access/Ownable.sol\":2169:2191  newOwner != address(0) */\n      0xffffffffffffffffffffffffffffffffffffffff\n      and\n      eq\n      iszero\n        /* \"@openzeppelin/contracts/access/Ownable.sol\":2161:2234  require(newOwner != address(0), \"Ownable: new owner is the zero address\") */\n      tag_81\n      jumpi\n      mload(0x40)\n      0x08c379a000000000000000000000000000000000000000000000000000000000\n      dup2\n      mstore\n      0x04\n      add\n      tag_82\n      swap1\n      tag_83\n      jump\t// in\n    tag_82:\n      mload(0x40)\n      dup1\n      swap2\n      sub\n      swap1\n      revert\n    tag_81:\n        /* \"@openzeppelin/contracts/access/Ownable.sol\":2244:2272  _transferOwnership(newOwner) */\n      tag_84\n        /* \"@openzeppelin/contracts/access/Ownable.sol\":2263:2271  newOwner */\n      dup2\n        /* \"@openzeppelin/contracts/access/Ownable.sol\":2244:2262  _transferOwnership */\n      tag_72\n        /* \"@openzeppelin/contracts/access/Ownable.sol\":2244:2272  _transferOwnership(newOwner) */\n      jump\t// in\n    tag_84:\n        /* \"@openzeppelin/contracts/access/Ownable.sol\":2081:2279  function transferOwnership(address newOwner) public virtual onlyOwner {... */\n      pop\n      jump\t// out\n        /* \"@openzeppelin/contracts/access/Ownable.sol\":1359:1489  function _checkOwner() internal view virtual {... */\n    tag_43:\n        /* \"@openzeppelin/contracts/access/Ownable.sol\":1433:1445  _msgSender() */\n      tag_86\n        /* \"@openzeppelin/contracts/access/Ownable.sol\":1433:1443  _msgSender */\n      tag_87\n        /* \"@openzeppelin/contracts/access/Ownable.sol\":1433:1445  _msgSender() */\n      jump\t// in\n    tag_86:\n        /* \"@openzeppelin/contracts/access/Ownable.sol\":1422:1445  owner() == _msgSender() */\n      0xffffffffffffffffffffffffffffffffffffffff\n      and\n        /* \"@openzeppelin/contracts/access/Ownable.sol\":1422:1429  owner() */\n      tag_88\n        /* \"@openzeppelin/contracts/access/Ownable.sol\":1422:1427  owner */\n      tag_26\n        /* \"@openzeppelin/contracts/access/Ownable.sol\":1422:1429  owner() */\n      jump\t// in\n    tag_88:\n        /* \"@openzeppelin/contracts/access/Ownable.sol\":1422:1445  owner() == _msgSender() */\n      0xffffffffffffffffffffffffffffffffffffffff\n      and\n      eq\n        /* \"@openzeppelin/contracts/access/Ownable.sol\":1414:1482  require(owner() == _msgSender(), \"Ownable: caller is not the owner\") */\n      tag_89\n      jumpi\n      mload(0x40)\n      0x08c379a000000000000000000000000000000000000000000000000000000000\n      dup2\n      mstore\n      0x04\n      add\n      tag_90\n      swap1\n      tag_91\n      jump\t// in\n    tag_90:\n      mload(0x40)\n      dup1\n      swap2\n      sub\n      swap1\n      revert\n    tag_89:\n        /* \"@openzeppelin/contracts/access/Ownable.sol\":1359:1489  function _checkOwner() internal view virtual {... */\n      jump\t// out\n        /* \"@openzeppelin/contracts/access/Ownable.sol\":2433:2620  function _transferOwnership(address newOwner) internal virtual {... */\n    tag_72:\n        /* \"@openzeppelin/contracts/access/Ownable.sol\":2506:2522  address oldOwner */\n      0x00\n        /* \"@openzeppelin/contracts/access/Ownable.sol\":2525:2531  _owner */\n      dup1\n      0x00\n      swap1\n      sload\n      swap1\n      0x0100\n      exp\n      swap1\n      div\n      0xffffffffffffffffffffffffffffffffffffffff\n      and\n        /* \"@openzeppelin/contracts/access/Ownable.sol\":2506:2531  address oldOwner = _owner */\n      swap1\n      pop\n        /* \"@openzeppelin/contracts/access/Ownable.sol\":2550:2558  newOwner */\n      dup2\n        /* \"@openzeppelin/contracts/access/Ownable.sol\":2541:2547  _owner */\n      0x00\n      dup1\n        /* \"@openzeppelin/contracts/access/Ownable.sol\":2541:2558  _owner = newOwner */\n      0x0100\n      exp\n      dup2\n      sload\n      dup2\n      0xffffffffffffffffffffffffffffffffffffffff\n      mul\n      not\n      and\n      swap1\n      dup4\n      0xffffffffffffffffffffffffffffffffffffffff\n      and\n      mul\n      or\n      swap1\n      sstore\n      pop\n        /* \"@openzeppelin/contracts/access/Ownable.sol\":2604:2612  newOwner */\n      dup2\n        /* \"@openzeppelin/contracts/access/Ownable.sol\":2573:2613  OwnershipTransferred(oldOwner, newOwner) */\n      0xffffffffffffffffffffffffffffffffffffffff\n      and\n        /* \"@openzeppelin/contracts/access/Ownable.sol\":2594:2602  oldOwner */\n      dup2\n        /* \"@openzeppelin/contracts/access/Ownable.sol\":2573:2613  OwnershipTransferred(oldOwner, newOwner) */\n      0xffffffffffffffffffffffffffffffffffffffff\n      and\n      0x8be0079c531659141344cd1fd0a4f28419497f9722a3daafe3b4186f6b6457e0\n      mload(0x40)\n      mload(0x40)\n      dup1\n      swap2\n      sub\n      swap1\n      log3\n        /* \"@openzeppelin/contracts/access/Ownable.sol\":2496:2620  {... */\n      pop\n        /* \"@openzeppelin/contracts/access/Ownable.sol\":2433:2620  function _transferOwnership(address newOwner) internal virtual {... */\n      pop\n      jump\t// out\n        /* \"@openzeppelin/contracts/utils/Context.sol\":640:736  function _msgSender() internal view virtual returns (address) {... */\n    tag_87:\n        /* \"@openzeppelin/contracts/utils/Context.sol\":693:700  address */\n      0x00\n        /* \"@openzeppelin/contracts/utils/Context.sol\":719:729  msg.sender */\n      caller\n        /* \"@openzeppelin/contracts/utils/Context.sol\":712:729  return msg.sender */\n      swap1\n      pop\n        /* \"@openzeppelin/contracts/utils/Context.sol\":640:736  function _msgSender() internal view virtual returns (address) {... */\n      swap1\n      jump\t// out\n        /* \"#utility.yul\":24:746   */\n    tag_95:\n        /* \"#utility.yul\":120:125   */\n      0x00\n        /* \"#utility.yul\":145:226   */\n      tag_97\n        /* \"#utility.yul\":161:225   */\n      tag_98\n        /* \"#utility.yul\":218:224   */\n      dup5\n        /* \"#utility.yul\":161:225   */\n      tag_99\n      jump\t// in\n    tag_98:\n        /* \"#utility.yul\":145:226   */\n      tag_100\n      jump\t// in\n    tag_97:\n        /* \"#utility.yul\":136:226   */\n      swap1\n      pop\n        /* \"#utility.yul\":246:251   */\n      dup1\n        /* \"#utility.yul\":275:281   */\n      dup4\n        /* \"#utility.yul\":268:273   */\n      dup3\n        /* \"#utility.yul\":261:282   */\n      mstore\n        /* \"#utility.yul\":309:313   */\n      0x20\n        /* \"#utility.yul\":302:307   */\n      dup3\n        /* \"#utility.yul\":298:314   */\n      add\n        /* \"#utility.yul\":291:314   */\n      swap1\n      pop\n        /* \"#utility.yul\":335:341   */\n      dup3\n        /* \"#utility.yul\":385:388   */\n      dup6\n        /* \"#utility.yul\":377:381   */\n      0x20\n        /* \"#utility.yul\":369:375   */\n      dup7\n        /* \"#utility.yul\":365:382   */\n      mul\n        /* \"#utility.yul\":360:363   */\n      dup3\n        /* \"#utility.yul\":356:383   */\n      add\n        /* \"#utility.yul\":353:389   */\n      gt\n        /* \"#utility.yul\":350:493   */\n      iszero\n      tag_101\n      jumpi\n        /* \"#utility.yul\":404:483   */\n      tag_102\n      tag_103\n      jump\t// in\n    tag_102:\n        /* \"#utility.yul\":350:493   */\n    tag_101:\n        /* \"#utility.yul\":517:518   */\n      0x00\n        /* \"#utility.yul\":502:740   */\n    tag_104:\n        /* \"#utility.yul\":527:533   */\n      dup6\n        /* \"#utility.yul\":524:525   */\n      dup2\n        /* \"#utility.yul\":521:534   */\n      lt\n        /* \"#utility.yul\":502:740   */\n      iszero\n      tag_106\n      jumpi\n        /* \"#utility.yul\":595:598   */\n      dup2\n        /* \"#utility.yul\":624:661   */\n      tag_107\n        /* \"#utility.yul\":657:660   */\n      dup9\n        /* \"#utility.yul\":645:655   */\n      dup3\n        /* \"#utility.yul\":624:661   */\n      tag_108\n      jump\t// in\n    tag_107:\n        /* \"#utility.yul\":619:622   */\n      dup5\n        /* \"#utility.yul\":612:662   */\n      mstore\n        /* \"#utility.yul\":691:695   */\n      0x20\n        /* \"#utility.yul\":686:689   */\n      dup5\n        /* \"#utility.yul\":682:696   */\n      add\n        /* \"#utility.yul\":675:696   */\n      swap4\n      pop\n        /* \"#utility.yul\":725:729   */\n      0x20\n        /* \"#utility.yul\":720:723   */\n      dup4\n        /* \"#utility.yul\":716:730   */\n      add\n        /* \"#utility.yul\":709:730   */\n      swap3\n      pop\n        /* \"#utility.yul\":562:740   */\n      pop\n        /* \"#utility.yul\":549:550   */\n      0x01\n        /* \"#utility.yul\":546:547   */\n      dup2\n        /* \"#utility.yul\":542:551   */\n      add\n        /* \"#utility.yul\":537:551   */\n      swap1\n      pop\n        /* \"#utility.yul\":502:740   */\n      jump(tag_104)\n    tag_106:\n        /* \"#utility.yul\":506:520   */\n      pop\n        /* \"#utility.yul\":126:746   */\n      pop\n      pop\n        /* \"#utility.yul\":24:746   */\n      swap4\n      swap3\n      pop\n      pop\n      pop\n      jump\t// out\n        /* \"#utility.yul\":752:891   */\n    tag_108:\n        /* \"#utility.yul\":798:803   */\n      0x00\n        /* \"#utility.yul\":836:842   */\n      dup2\n        /* \"#utility.yul\":823:843   */\n      calldataload\n        /* \"#utility.yul\":814:843   */\n      swap1\n      pop\n        /* \"#utility.yul\":852:885   */\n      tag_110\n        /* \"#utility.yul\":879:884   */\n      dup2\n        /* \"#utility.yul\":852:885   */\n      tag_111\n      jump\t// in\n    tag_110:\n        /* \"#utility.yul\":752:891   */\n      swap3\n      swap2\n      pop\n      pop\n      jump\t// out\n        /* \"#utility.yul\":914:1284   */\n    tag_112:\n        /* \"#utility.yul\":985:990   */\n      0x00\n        /* \"#utility.yul\":1034:1037   */\n      dup3\n        /* \"#utility.yul\":1027:1031   */\n      0x1f\n        /* \"#utility.yul\":1019:1025   */\n      dup4\n        /* \"#utility.yul\":1015:1032   */\n      add\n        /* \"#utility.yul\":1011:1038   */\n      slt\n        /* \"#utility.yul\":1001:1123   */\n      tag_114\n      jumpi\n        /* \"#utility.yul\":1042:1121   */\n      tag_115\n      tag_116\n      jump\t// in\n    tag_115:\n        /* \"#utility.yul\":1001:1123   */\n    tag_114:\n        /* \"#utility.yul\":1159:1165   */\n      dup2\n        /* \"#utility.yul\":1146:1166   */\n      calldataload\n        /* \"#utility.yul\":1184:1278   */\n      tag_117\n        /* \"#utility.yul\":1274:1277   */\n      dup5\n        /* \"#utility.yul\":1266:1272   */\n      dup3\n        /* \"#utility.yul\":1259:1263   */\n      0x20\n        /* \"#utility.yul\":1251:1257   */\n      dup7\n        /* \"#utility.yul\":1247:1264   */\n      add\n        /* \"#utility.yul\":1184:1278   */\n      tag_95\n      jump\t// in\n    tag_117:\n        /* \"#utility.yul\":1175:1278   */\n      swap2\n      pop\n        /* \"#utility.yul\":991:1284   */\n      pop\n        /* \"#utility.yul\":914:1284   */\n      swap3\n      swap2\n      pop\n      pop\n      jump\t// out\n        /* \"#utility.yul\":1290:1429   */\n    tag_118:\n        /* \"#utility.yul\":1336:1341   */\n      0x00\n        /* \"#utility.yul\":1374:1380   */\n      dup2\n        /* \"#utility.yul\":1361:1381   */\n      calldataload\n        /* \"#utility.yul\":1352:1381   */\n      swap1\n      pop\n        /* \"#utility.yul\":1390:1423   */\n      tag_120\n        /* \"#utility.yul\":1417:1422   */\n      dup2\n        /* \"#utility.yul\":1390:1423   */\n      tag_121\n      jump\t// in\n    tag_120:\n        /* \"#utility.yul\":1290:1429   */\n      swap3\n      swap2\n      pop\n      pop\n      jump\t// out\n        /* \"#utility.yul\":1435:1764   */\n    tag_39:\n        /* \"#utility.yul\":1494:1500   */\n      0x00\n        /* \"#utility.yul\":1543:1545   */\n      0x20\n        /* \"#utility.yul\":1531:1540   */\n      dup3\n        /* \"#utility.yul\":1522:1529   */\n      dup5\n        /* \"#utility.yul\":1518:1541   */\n      sub\n        /* \"#utility.yul\":1514:1546   */\n      slt\n        /* \"#utility.yul\":1511:1630   */\n      iszero\n      tag_123\n      jumpi\n        /* \"#utility.yul\":1549:1628   */\n      tag_124\n      tag_125\n      jump\t// in\n    tag_124:\n        /* \"#utility.yul\":1511:1630   */\n    tag_123:\n        /* \"#utility.yul\":1669:1670   */\n      0x00\n        /* \"#utility.yul\":1694:1747   */\n      tag_126\n        /* \"#utility.yul\":1739:1746   */\n      dup5\n        /* \"#utility.yul\":1730:1736   */\n      dup3\n        /* \"#utility.yul\":1719:1728   */\n      dup6\n        /* \"#utility.yul\":1715:1737   */\n      add\n        /* \"#utility.yul\":1694:1747   */\n      tag_108\n      jump\t// in\n    tag_126:\n        /* \"#utility.yul\":1684:1747   */\n      swap2\n      pop\n        /* \"#utility.yul\":1640:1757   */\n      pop\n        /* \"#utility.yul\":1435:1764   */\n      swap3\n      swap2\n      pop\n      pop\n      jump\t// out\n        /* \"#utility.yul\":1770:2454   */\n    tag_14:\n        /* \"#utility.yul\":1863:1869   */\n      0x00\n        /* \"#utility.yul\":1871:1877   */\n      dup1\n        /* \"#utility.yul\":1920:1922   */\n      0x40\n        /* \"#utility.yul\":1908:1917   */\n      dup4\n        /* \"#utility.yul\":1899:1906   */\n      dup6\n        /* \"#utility.yul\":1895:1918   */\n      sub\n        /* \"#utility.yul\":1891:1923   */\n      slt\n        /* \"#utility.yul\":1888:2007   */\n      iszero\n      tag_128\n      jumpi\n        /* \"#utility.yul\":1926:2005   */\n      tag_129\n      tag_125\n      jump\t// in\n    tag_129:\n        /* \"#utility.yul\":1888:2007   */\n    tag_128:\n        /* \"#utility.yul\":2074:2075   */\n      0x00\n        /* \"#utility.yul\":2063:2072   */\n      dup4\n        /* \"#utility.yul\":2059:2076   */\n      add\n        /* \"#utility.yul\":2046:2077   */\n      calldataload\n        /* \"#utility.yul\":2104:2122   */\n      0xffffffffffffffff\n        /* \"#utility.yul\":2096:2102   */\n      dup2\n        /* \"#utility.yul\":2093:2123   */\n      gt\n        /* \"#utility.yul\":2090:2207   */\n      iszero\n      tag_130\n      jumpi\n        /* \"#utility.yul\":2126:2205   */\n      tag_131\n      tag_132\n      jump\t// in\n    tag_131:\n        /* \"#utility.yul\":2090:2207   */\n    tag_130:\n        /* \"#utility.yul\":2231:2309   */\n      tag_133\n        /* \"#utility.yul\":2301:2308   */\n      dup6\n        /* \"#utility.yul\":2292:2298   */\n      dup3\n        /* \"#utility.yul\":2281:2290   */\n      dup7\n        /* \"#utility.yul\":2277:2299   */\n      add\n        /* \"#utility.yul\":2231:2309   */\n      tag_112\n      jump\t// in\n    tag_133:\n        /* \"#utility.yul\":2221:2309   */\n      swap3\n      pop\n        /* \"#utility.yul\":2017:2319   */\n      pop\n        /* \"#utility.yul\":2358:2360   */\n      0x20\n        /* \"#utility.yul\":2384:2437   */\n      tag_134\n        /* \"#utility.yul\":2429:2436   */\n      dup6\n        /* \"#utility.yul\":2420:2426   */\n      dup3\n        /* \"#utility.yul\":2409:2418   */\n      dup7\n        /* \"#utility.yul\":2405:2427   */\n      add\n        /* \"#utility.yul\":2384:2437   */\n      tag_118\n      jump\t// in\n    tag_134:\n        /* \"#utility.yul\":2374:2437   */\n      swap2\n      pop\n        /* \"#utility.yul\":2329:2447   */\n      pop\n        /* \"#utility.yul\":1770:2454   */\n      swap3\n      pop\n      swap3\n      swap1\n      pop\n      jump\t// out\n        /* \"#utility.yul\":2460:2789   */\n    tag_30:\n        /* \"#utility.yul\":2519:2525   */\n      0x00\n        /* \"#utility.yul\":2568:2570   */\n      0x20\n        /* \"#utility.yul\":2556:2565   */\n      dup3\n        /* \"#utility.yul\":2547:2554   */\n      dup5\n        /* \"#utility.yul\":2543:2566   */\n      sub\n        /* \"#utility.yul\":2539:2571   */\n      slt\n        /* \"#utility.yul\":2536:2655   */\n      iszero\n      tag_136\n      jumpi\n        /* \"#utility.yul\":2574:2653   */\n      tag_137\n      tag_125\n      jump\t// in\n    tag_137:\n        /* \"#utility.yul\":2536:2655   */\n    tag_136:\n        /* \"#utility.yul\":2694:2695   */\n      0x00\n        /* \"#utility.yul\":2719:2772   */\n      tag_138\n        /* \"#utility.yul\":2764:2771   */\n      dup5\n        /* \"#utility.yul\":2755:2761   */\n      dup3\n        /* \"#utility.yul\":2744:2753   */\n      dup6\n        /* \"#utility.yul\":2740:2762   */\n      add\n        /* \"#utility.yul\":2719:2772   */\n      tag_118\n      jump\t// in\n    tag_138:\n        /* \"#utility.yul\":2709:2772   */\n      swap2\n      pop\n        /* \"#utility.yul\":2665:2782   */\n      pop\n        /* \"#utility.yul\":2460:2789   */\n      swap3\n      swap2\n      pop\n      pop\n      jump\t// out\n        /* \"#utility.yul\":2795:2913   */\n    tag_139:\n        /* \"#utility.yul\":2882:2906   */\n      tag_141\n        /* \"#utility.yul\":2900:2905   */\n      dup2\n        /* \"#utility.yul\":2882:2906   */\n      tag_142\n      jump\t// in\n    tag_141:\n        /* \"#utility.yul\":2877:2880   */\n      dup3\n        /* \"#utility.yul\":2870:2907   */\n      mstore\n        /* \"#utility.yul\":2795:2913   */\n      pop\n      pop\n      jump\t// out\n        /* \"#utility.yul\":2919:3285   */\n    tag_143:\n        /* \"#utility.yul\":3061:3064   */\n      0x00\n        /* \"#utility.yul\":3082:3149   */\n      tag_145\n        /* \"#utility.yul\":3146:3148   */\n      0x26\n        /* \"#utility.yul\":3141:3144   */\n      dup4\n        /* \"#utility.yul\":3082:3149   */\n      tag_146\n      jump\t// in\n    tag_145:\n        /* \"#utility.yul\":3075:3149   */\n      swap2\n      pop\n        /* \"#utility.yul\":3158:3251   */\n      tag_147\n        /* \"#utility.yul\":3247:3250   */\n      dup3\n        /* \"#utility.yul\":3158:3251   */\n      tag_148\n      jump\t// in\n    tag_147:\n        /* \"#utility.yul\":3276:3278   */\n      0x40\n        /* \"#utility.yul\":3271:3274   */\n      dup3\n        /* \"#utility.yul\":3267:3279   */\n      add\n        /* \"#utility.yul\":3260:3279   */\n      swap1\n      pop\n        /* \"#utility.yul\":2919:3285   */\n      swap2\n      swap1\n      pop\n      jump\t// out\n        /* \"#utility.yul\":3291:3657   */\n    tag_149:\n        /* \"#utility.yul\":3433:3436   */\n      0x00\n        /* \"#utility.yul\":3454:3521   */\n      tag_151\n        /* \"#utility.yul\":3518:3520   */\n      0x20\n        /* \"#utility.yul\":3513:3516   */\n      dup4\n        /* \"#utility.yul\":3454:3521   */\n      tag_146\n      jump\t// in\n    tag_151:\n        /* \"#utility.yul\":3447:3521   */\n      swap2\n      pop\n        /* \"#utility.yul\":3530:3623   */\n      tag_152\n        /* \"#utility.yul\":3619:3622   */\n      dup3\n        /* \"#utility.yul\":3530:3623   */\n      tag_153\n      jump\t// in\n    tag_152:\n        /* \"#utility.yul\":3648:3650   */\n      0x20\n        /* \"#utility.yul\":3643:3646   */\n      dup3\n        /* \"#utility.yul\":3639:3651   */\n      add\n        /* \"#utility.yul\":3632:3651   */\n      swap1\n      pop\n        /* \"#utility.yul\":3291:3657   */\n      swap2\n      swap1\n      pop\n      jump\t// out\n        /* \"#utility.yul\":3663:4029   */\n    tag_154:\n        /* \"#utility.yul\":3805:3808   */\n      0x00\n        /* \"#utility.yul\":3826:3893   */\n      tag_156\n        /* \"#utility.yul\":3890:3892   */\n      0x26\n        /* \"#utility.yul\":3885:3888   */\n      dup4\n        /* \"#utility.yul\":3826:3893   */\n      tag_146\n      jump\t// in\n    tag_156:\n        /* \"#utility.yul\":3819:3893   */\n      swap2\n      pop\n        /* \"#utility.yul\":3902:3995   */\n      tag_157\n        /* \"#utility.yul\":3991:3994   */\n      dup3\n        /* \"#utility.yul\":3902:3995   */\n      tag_158\n      jump\t// in\n    tag_157:\n        /* \"#utility.yul\":4020:4022   */\n      0x40\n        /* \"#utility.yul\":4015:4018   */\n      dup3\n        /* \"#utility.yul\":4011:4023   */\n      add\n        /* \"#utility.yul\":4004:4023   */\n      swap1\n      pop\n        /* \"#utility.yul\":3663:4029   */\n      swap2\n      swap1\n      pop\n      jump\t// out\n        /* \"#utility.yul\":4035:4153   */\n    tag_159:\n        /* \"#utility.yul\":4122:4146   */\n      tag_161\n        /* \"#utility.yul\":4140:4145   */\n      dup2\n        /* \"#utility.yul\":4122:4146   */\n      tag_162\n      jump\t// in\n    tag_161:\n        /* \"#utility.yul\":4117:4120   */\n      dup3\n        /* \"#utility.yul\":4110:4147   */\n      mstore\n        /* \"#utility.yul\":4035:4153   */\n      pop\n      pop\n      jump\t// out\n        /* \"#utility.yul\":4159:4381   */\n    tag_19:\n        /* \"#utility.yul\":4252:4256   */\n      0x00\n        /* \"#utility.yul\":4290:4292   */\n      0x20\n        /* \"#utility.yul\":4279:4288   */\n      dup3\n        /* \"#utility.yul\":4275:4293   */\n      add\n        /* \"#utility.yul\":4267:4293   */\n      swap1\n      pop\n        /* \"#utility.yul\":4303:4374   */\n      tag_164\n        /* \"#utility.yul\":4371:4372   */\n      0x00\n        /* \"#utility.yul\":4360:4369   */\n      dup4\n        /* \"#utility.yul\":4356:4373   */\n      add\n        /* \"#utility.yul\":4347:4353   */\n      dup5\n        /* \"#utility.yul\":4303:4374   */\n      tag_139\n      jump\t// in\n    tag_164:\n        /* \"#utility.yul\":4159:4381   */\n      swap3\n      swap2\n      pop\n      pop\n      jump\t// out\n        /* \"#utility.yul\":4387:4719   */\n    tag_58:\n        /* \"#utility.yul\":4508:4512   */\n      0x00\n        /* \"#utility.yul\":4546:4548   */\n      0x40\n        /* \"#utility.yul\":4535:4544   */\n      dup3\n        /* \"#utility.yul\":4531:4549   */\n      add\n        /* \"#utility.yul\":4523:4549   */\n      swap1\n      pop\n        /* \"#utility.yul\":4559:4630   */\n      tag_166\n        /* \"#utility.yul\":4627:4628   */\n      0x00\n        /* \"#utility.yul\":4616:4625   */\n      dup4\n        /* \"#utility.yul\":4612:4629   */\n      add\n        /* \"#utility.yul\":4603:4609   */\n      dup6\n        /* \"#utility.yul\":4559:4630   */\n      tag_139\n      jump\t// in\n    tag_166:\n        /* \"#utility.yul\":4640:4712   */\n      tag_167\n        /* \"#utility.yul\":4708:4710   */\n      0x20\n        /* \"#utility.yul\":4697:4706   */\n      dup4\n        /* \"#utility.yul\":4693:4711   */\n      add\n        /* \"#utility.yul\":4684:4690   */\n      dup5\n        /* \"#utility.yul\":4640:4712   */\n      tag_159\n      jump\t// in\n    tag_167:\n        /* \"#utility.yul\":4387:4719   */\n      swap4\n      swap3\n      pop\n      pop\n      pop\n      jump\t// out\n        /* \"#utility.yul\":4725:5144   */\n    tag_83:\n        /* \"#utility.yul\":4891:4895   */\n      0x00\n        /* \"#utility.yul\":4929:4931   */\n      0x20\n        /* \"#utility.yul\":4918:4927   */\n      dup3\n        /* \"#utility.yul\":4914:4932   */\n      add\n        /* \"#utility.yul\":4906:4932   */\n      swap1\n      pop\n        /* \"#utility.yul\":4978:4987   */\n      dup2\n        /* \"#utility.yul\":4972:4976   */\n      dup2\n        /* \"#utility.yul\":4968:4988   */\n      sub\n        /* \"#utility.yul\":4964:4965   */\n      0x00\n        /* \"#utility.yul\":4953:4962   */\n      dup4\n        /* \"#utility.yul\":4949:4966   */\n      add\n        /* \"#utility.yul\":4942:4989   */\n      mstore\n        /* \"#utility.yul\":5006:5137   */\n      tag_169\n        /* \"#utility.yul\":5132:5136   */\n      dup2\n        /* \"#utility.yul\":5006:5137   */\n      tag_143\n      jump\t// in\n    tag_169:\n        /* \"#utility.yul\":4998:5137   */\n      swap1\n      pop\n        /* \"#utility.yul\":4725:5144   */\n      swap2\n      swap1\n      pop\n      jump\t// out\n        /* \"#utility.yul\":5150:5569   */\n    tag_91:\n        /* \"#utility.yul\":5316:5320   */\n      0x00\n        /* \"#utility.yul\":5354:5356   */\n      0x20\n        /* \"#utility.yul\":5343:5352   */\n      dup3\n        /* \"#utility.yul\":5339:5357   */\n      add\n        /* \"#utility.yul\":5331:5357   */\n      swap1\n      pop\n        /* \"#utility.yul\":5403:5412   */\n      dup2\n        /* \"#utility.yul\":5397:5401   */\n      dup2\n        /* \"#utility.yul\":5393:5413   */\n      sub\n        /* \"#utility.yul\":5389:5390   */\n      0x00\n        /* \"#utility.yul\":5378:5387   */\n      dup4\n        /* \"#utility.yul\":5374:5391   */\n      add\n        /* \"#utility.yul\":5367:5414   */\n      mstore\n        /* \"#utility.yul\":5431:5562   */\n      tag_171\n        /* \"#utility.yul\":5557:5561   */\n      dup2\n        /* \"#utility.yul\":5431:5562   */\n      tag_149\n      jump\t// in\n    tag_171:\n        /* \"#utility.yul\":5423:5562   */\n      swap1\n      pop\n        /* \"#utility.yul\":5150:5569   */\n      swap2\n      swap1\n      pop\n      jump\t// out\n        /* \"#utility.yul\":5575:5994   */\n    tag_47:\n        /* \"#utility.yul\":5741:5745   */\n      0x00\n        /* \"#utility.yul\":5779:5781   */\n      0x20\n        /* \"#utility.yul\":5768:5777   */\n      dup3\n        /* \"#utility.yul\":5764:5782   */\n      add\n        /* \"#utility.yul\":5756:5782   */\n      swap1\n      pop\n        /* \"#utility.yul\":5828:5837   */\n      dup2\n        /* \"#utility.yul\":5822:5826   */\n      dup2\n        /* \"#utility.yul\":5818:5838   */\n      sub\n        /* \"#utility.yul\":5814:5815   */\n      0x00\n        /* \"#utility.yul\":5803:5812   */\n      dup4\n        /* \"#utility.yul\":5799:5816   */\n      add\n        /* \"#utility.yul\":5792:5839   */\n      mstore\n        /* \"#utility.yul\":5856:5987   */\n      tag_173\n        /* \"#utility.yul\":5982:5986   */\n      dup2\n        /* \"#utility.yul\":5856:5987   */\n      tag_154\n      jump\t// in\n    tag_173:\n        /* \"#utility.yul\":5848:5987   */\n      swap1\n      pop\n        /* \"#utility.yul\":5575:5994   */\n      swap2\n      swap1\n      pop\n      jump\t// out\n        /* \"#utility.yul\":6000:6222   */\n    tag_65:\n        /* \"#utility.yul\":6093:6097   */\n      0x00\n        /* \"#utility.yul\":6131:6133   */\n      0x20\n        /* \"#utility.yul\":6120:6129   */\n      dup3\n        /* \"#utility.yul\":6116:6134   */\n      add\n        /* \"#utility.yul\":6108:6134   */\n      swap1\n      pop\n        /* \"#utility.yul\":6144:6215   */\n      tag_175\n        /* \"#utility.yul\":6212:6213   */\n      0x00\n        /* \"#utility.yul\":6201:6210   */\n      dup4\n        /* \"#utility.yul\":6197:6214   */\n      add\n        /* \"#utility.yul\":6188:6194   */\n      dup5\n        /* \"#utility.yul\":6144:6215   */\n      tag_159\n      jump\t// in\n    tag_175:\n        /* \"#utility.yul\":6000:6222   */\n      swap3\n      swap2\n      pop\n      pop\n      jump\t// out\n        /* \"#utility.yul\":6228:6357   */\n    tag_100:\n        /* \"#utility.yul\":6262:6268   */\n      0x00\n        /* \"#utility.yul\":6289:6309   */\n      tag_177\n      tag_178\n      jump\t// in\n    tag_177:\n        /* \"#utility.yul\":6279:6309   */\n      swap1\n      pop\n        /* \"#utility.yul\":6318:6351   */\n      tag_179\n        /* \"#utility.yul\":6346:6350   */\n      dup3\n        /* \"#utility.yul\":6338:6344   */\n      dup3\n        /* \"#utility.yul\":6318:6351   */\n      tag_180\n      jump\t// in\n    tag_179:\n        /* \"#utility.yul\":6228:6357   */\n      swap2\n      swap1\n      pop\n      jump\t// out\n        /* \"#utility.yul\":6363:6438   */\n    tag_178:\n        /* \"#utility.yul\":6396:6402   */\n      0x00\n        /* \"#utility.yul\":6429:6431   */\n      0x40\n        /* \"#utility.yul\":6423:6432   */\n      mload\n        /* \"#utility.yul\":6413:6432   */\n      swap1\n      pop\n        /* \"#utility.yul\":6363:6438   */\n      swap1\n      jump\t// out\n        /* \"#utility.yul\":6444:6755   */\n    tag_99:\n        /* \"#utility.yul\":6521:6525   */\n      0x00\n        /* \"#utility.yul\":6611:6629   */\n      0xffffffffffffffff\n        /* \"#utility.yul\":6603:6609   */\n      dup3\n        /* \"#utility.yul\":6600:6630   */\n      gt\n        /* \"#utility.yul\":6597:6653   */\n      iszero\n      tag_183\n      jumpi\n        /* \"#utility.yul\":6633:6651   */\n      tag_184\n      tag_185\n      jump\t// in\n    tag_184:\n        /* \"#utility.yul\":6597:6653   */\n    tag_183:\n        /* \"#utility.yul\":6683:6687   */\n      0x20\n        /* \"#utility.yul\":6675:6681   */\n      dup3\n        /* \"#utility.yul\":6671:6688   */\n      mul\n        /* \"#utility.yul\":6663:6688   */\n      swap1\n      pop\n        /* \"#utility.yul\":6743:6747   */\n      0x20\n        /* \"#utility.yul\":6737:6741   */\n      dup2\n        /* \"#utility.yul\":6733:6748   */\n      add\n        /* \"#utility.yul\":6725:6748   */\n      swap1\n      pop\n        /* \"#utility.yul\":6444:6755   */\n      swap2\n      swap1\n      pop\n      jump\t// out\n        /* \"#utility.yul\":6761:6930   */\n    tag_146:\n        /* \"#utility.yul\":6845:6856   */\n      0x00\n        /* \"#utility.yul\":6879:6885   */\n      dup3\n        /* \"#utility.yul\":6874:6877   */\n      dup3\n        /* \"#utility.yul\":6867:6886   */\n      mstore\n        /* \"#utility.yul\":6919:6923   */\n      0x20\n        /* \"#utility.yul\":6914:6917   */\n      dup3\n        /* \"#utility.yul\":6910:6924   */\n      add\n        /* \"#utility.yul\":6895:6924   */\n      swap1\n      pop\n        /* \"#utility.yul\":6761:6930   */\n      swap3\n      swap2\n      pop\n      pop\n      jump\t// out\n        /* \"#utility.yul\":6936:7032   */\n    tag_142:\n        /* \"#utility.yul\":6973:6980   */\n      0x00\n        /* \"#utility.yul\":7002:7026   */\n      tag_188\n        /* \"#utility.yul\":7020:7025   */\n      dup3\n        /* \"#utility.yul\":7002:7026   */\n      tag_189\n      jump\t// in\n    tag_188:\n        /* \"#utility.yul\":6991:7026   */\n      swap1\n      pop\n        /* \"#utility.yul\":6936:7032   */\n      swap2\n      swap1\n      pop\n      jump\t// out\n        /* \"#utility.yul\":7038:7164   */\n    tag_189:\n        /* \"#utility.yul\":7075:7082   */\n      0x00\n        /* \"#utility.yul\":7115:7157   */\n      0xffffffffffffffffffffffffffffffffffffffff\n        /* \"#utility.yul\":7108:7113   */\n      dup3\n        /* \"#utility.yul\":7104:7158   */\n      and\n        /* \"#utility.yul\":7093:7158   */\n      swap1\n      pop\n        /* \"#utility.yul\":7038:7164   */\n      swap2\n      swap1\n      pop\n      jump\t// out\n        /* \"#utility.yul\":7170:7247   */\n    tag_162:\n        /* \"#utility.yul\":7207:7214   */\n      0x00\n        /* \"#utility.yul\":7236:7241   */\n      dup2\n        /* \"#utility.yul\":7225:7241   */\n      swap1\n      pop\n        /* \"#utility.yul\":7170:7247   */\n      swap2\n      swap1\n      pop\n      jump\t// out\n        /* \"#utility.yul\":7253:7534   */\n    tag_180:\n        /* \"#utility.yul\":7336:7363   */\n      tag_193\n        /* \"#utility.yul\":7358:7362   */\n      dup3\n        /* \"#utility.yul\":7336:7363   */\n      tag_194\n      jump\t// in\n    tag_193:\n        /* \"#utility.yul\":7328:7334   */\n      dup2\n        /* \"#utility.yul\":7324:7364   */\n      add\n        /* \"#utility.yul\":7466:7472   */\n      dup2\n        /* \"#utility.yul\":7454:7464   */\n      dup2\n        /* \"#utility.yul\":7451:7473   */\n      lt\n        /* \"#utility.yul\":7430:7448   */\n      0xffffffffffffffff\n        /* \"#utility.yul\":7418:7428   */\n      dup3\n        /* \"#utility.yul\":7415:7449   */\n      gt\n        /* \"#utility.yul\":7412:7474   */\n      or\n        /* \"#utility.yul\":7409:7497   */\n      iszero\n      tag_195\n      jumpi\n        /* \"#utility.yul\":7477:7495   */\n      tag_196\n      tag_185\n      jump\t// in\n    tag_196:\n        /* \"#utility.yul\":7409:7497   */\n    tag_195:\n        /* \"#utility.yul\":7517:7527   */\n      dup1\n        /* \"#utility.yul\":7513:7515   */\n      0x40\n        /* \"#utility.yul\":7506:7528   */\n      mstore\n        /* \"#utility.yul\":7296:7534   */\n      pop\n        /* \"#utility.yul\":7253:7534   */\n      pop\n      pop\n      jump\t// out\n        /* \"#utility.yul\":7540:7773   */\n    tag_67:\n        /* \"#utility.yul\":7579:7582   */\n      0x00\n        /* \"#utility.yul\":7602:7626   */\n      tag_198\n        /* \"#utility.yul\":7620:7625   */\n      dup3\n        /* \"#utility.yul\":7602:7626   */\n      tag_162\n      jump\t// in\n    tag_198:\n        /* \"#utility.yul\":7593:7626   */\n      swap2\n      pop\n        /* \"#utility.yul\":7648:7714   */\n      0xffffffffffffffffffffffffffffffffffffffffffffffffffffffffffffffff\n        /* \"#utility.yul\":7641:7646   */\n      dup3\n        /* \"#utility.yul\":7638:7715   */\n      eq\n        /* \"#utility.yul\":7635:7738   */\n      iszero\n      tag_199\n      jumpi\n        /* \"#utility.yul\":7718:7736   */\n      tag_200\n      tag_201\n      jump\t// in\n    tag_200:\n        /* \"#utility.yul\":7635:7738   */\n    tag_199:\n        /* \"#utility.yul\":7765:7766   */\n      0x01\n        /* \"#utility.yul\":7758:7763   */\n      dup3\n        /* \"#utility.yul\":7754:7767   */\n      add\n        /* \"#utility.yul\":7747:7767   */\n      swap1\n      pop\n        /* \"#utility.yul\":7540:7773   */\n      swap2\n      swap1\n      pop\n      jump\t// out\n        /* \"#utility.yul\":7779:7959   */\n    tag_201:\n        /* \"#utility.yul\":7827:7904   */\n      0x4e487b7100000000000000000000000000000000000000000000000000000000\n        /* \"#utility.yul\":7824:7825   */\n      0x00\n        /* \"#utility.yul\":7817:7905   */\n      mstore\n        /* \"#utility.yul\":7924:7928   */\n      0x11\n        /* \"#utility.yul\":7921:7922   */\n      0x04\n        /* \"#utility.yul\":7914:7929   */\n      mstore\n        /* \"#utility.yul\":7948:7952   */\n      0x24\n        /* \"#utility.yul\":7945:7946   */\n      0x00\n        /* \"#utility.yul\":7938:7953   */\n      revert\n        /* \"#utility.yul\":7965:8145   */\n    tag_53:\n        /* \"#utility.yul\":8013:8090   */\n      0x4e487b7100000000000000000000000000000000000000000000000000000000\n        /* \"#utility.yul\":8010:8011   */\n      0x00\n        /* \"#utility.yul\":8003:8091   */\n      mstore\n        /* \"#utility.yul\":8110:8114   */\n      0x32\n        /* \"#utility.yul\":8107:8108   */\n      0x04\n        /* \"#utility.yul\":8100:8115   */\n      mstore\n        /* \"#utility.yul\":8134:8138   */\n      0x24\n        /* \"#utility.yul\":8131:8132   */\n      0x00\n        /* \"#utility.yul\":8124:8139   */\n      revert\n        /* \"#utility.yul\":8151:8331   */\n    tag_185:\n        /* \"#utility.yul\":8199:8276   */\n      0x4e487b7100000000000000000000000000000000000000000000000000000000\n        /* \"#utility.yul\":8196:8197   */\n      0x00\n        /* \"#utility.yul\":8189:8277   */\n      mstore\n        /* \"#utility.yul\":8296:8300   */\n      0x41\n        /* \"#utility.yul\":8293:8294   */\n      0x04\n        /* \"#utility.yul\":8286:8301   */\n      mstore\n        /* \"#utility.yul\":8320:8324   */\n      0x24\n        /* \"#utility.yul\":8317:8318   */\n      0x00\n        /* \"#utility.yul\":8310:8325   */\n      revert\n        /* \"#utility.yul\":8337:8454   */\n    tag_116:\n        /* \"#utility.yul\":8446:8447   */\n      0x00\n        /* \"#utility.yul\":8443:8444   */\n      dup1\n        /* \"#utility.yul\":8436:8448   */\n      revert\n        /* \"#utility.yul\":8460:8577   */\n    tag_103:\n        /* \"#utility.yul\":8569:8570   */\n      0x00\n        /* \"#utility.yul\":8566:8567   */\n      dup1\n        /* \"#utility.yul\":8559:8571   */\n      revert\n        /* \"#utility.yul\":8583:8700   */\n    tag_132:\n        /* \"#utility.yul\":8692:8693   */\n      0x00\n        /* \"#utility.yul\":8689:8690   */\n      dup1\n        /* \"#utility.yul\":8682:8694   */\n      revert\n        /* \"#utility.yul\":8706:8823   */\n    tag_125:\n        /* \"#utility.yul\":8815:8816   */\n      0x00\n        /* \"#utility.yul\":8812:8813   */\n      dup1\n        /* \"#utility.yul\":8805:8817   */\n      revert\n        /* \"#utility.yul\":8829:8931   */\n    tag_194:\n        /* \"#utility.yul\":8870:8876   */\n      0x00\n        /* \"#utility.yul\":8921:8923   */\n      0x1f\n        /* \"#utility.yul\":8917:8924   */\n      not\n        /* \"#utility.yul\":8912:8914   */\n      0x1f\n        /* \"#utility.yul\":8905:8910   */\n      dup4\n        /* \"#utility.yul\":8901:8915   */\n      add\n        /* \"#utility.yul\":8897:8925   */\n      and\n        /* \"#utility.yul\":8887:8925   */\n      swap1\n      pop\n        /* \"#utility.yul\":8829:8931   */\n      swap2\n      swap1\n      pop\n      jump\t// out\n        /* \"#utility.yul\":8937:9162   */\n    tag_148:\n        /* \"#utility.yul\":9077:9111   */\n      0x4f776e61626c653a206e6577206f776e657220697320746865207a65726f2061\n        /* \"#utility.yul\":9073:9074   */\n      0x00\n        /* \"#utility.yul\":9065:9071   */\n      dup3\n        /* \"#utility.yul\":9061:9075   */\n      add\n        /* \"#utility.yul\":9054:9112   */\n      mstore\n        /* \"#utility.yul\":9146:9154   */\n      0x6464726573730000000000000000000000000000000000000000000000000000\n        /* \"#utility.yul\":9141:9143   */\n      0x20\n        /* \"#utility.yul\":9133:9139   */\n      dup3\n        /* \"#utility.yul\":9129:9144   */\n      add\n        /* \"#utility.yul\":9122:9155   */\n      mstore\n        /* \"#utility.yul\":8937:9162   */\n      pop\n      jump\t// out\n        /* \"#utility.yul\":9168:9350   */\n    tag_153:\n        /* \"#utility.yul\":9308:9342   */\n      0x4f776e61626c653a2063616c6c6572206973206e6f7420746865206f776e6572\n        /* \"#utility.yul\":9304:9305   */\n      0x00\n        /* \"#utility.yul\":9296:9302   */\n      dup3\n        /* \"#utility.yul\":9292:9306   */\n      add\n        /* \"#utility.yul\":9285:9343   */\n      mstore\n        /* \"#utility.yul\":9168:9350   */\n      pop\n      jump\t// out\n        /* \"#utility.yul\":9356:9581   */\n    tag_158:\n        /* \"#utility.yul\":9496:9530   */\n      0x41697264726f703a20416d6f756e74206d757374206265206772656174657220\n        /* \"#utility.yul\":9492:9493   */\n      0x00\n        /* \"#utility.yul\":9484:9490   */\n      dup3\n        /* \"#utility.yul\":9480:9494   */\n      add\n        /* \"#utility.yul\":9473:9531   */\n      mstore\n        /* \"#utility.yul\":9565:9573   */\n      0x7468616e20300000000000000000000000000000000000000000000000000000\n        /* \"#utility.yul\":9560:9562   */\n      0x20\n        /* \"#utility.yul\":9552:9558   */\n      dup3\n        /* \"#utility.yul\":9548:9563   */\n      add\n        /* \"#utility.yul\":9541:9574   */\n      mstore\n        /* \"#utility.yul\":9356:9581   */\n      pop\n      jump\t// out\n        /* \"#utility.yul\":9587:9709   */\n    tag_111:\n        /* \"#utility.yul\":9660:9684   */\n      tag_214\n        /* \"#utility.yul\":9678:9683   */\n      dup2\n        /* \"#utility.yul\":9660:9684   */\n      tag_142\n      jump\t// in\n    tag_214:\n        /* \"#utility.yul\":9653:9658   */\n      dup2\n        /* \"#utility.yul\":9650:9685   */\n      eq\n        /* \"#utility.yul\":9640:9703   */\n      tag_215\n      jumpi\n        /* \"#utility.yul\":9699:9700   */\n      0x00\n        /* \"#utility.yul\":9696:9697   */\n      dup1\n        /* \"#utility.yul\":9689:9701   */\n      revert\n        /* \"#utility.yul\":9640:9703   */\n    tag_215:\n        /* \"#utility.yul\":9587:9709   */\n      pop\n      jump\t// out\n        /* \"#utility.yul\":9715:9837   */\n    tag_121:\n        /* \"#utility.yul\":9788:9812   */\n      tag_217\n        /* \"#utility.yul\":9806:9811   */\n      dup2\n        /* \"#utility.yul\":9788:9812   */\n      tag_162\n      jump\t// in\n    tag_217:\n        /* \"#utility.yul\":9781:9786   */\n      dup2\n        /* \"#utility.yul\":9778:9813   */\n      eq\n        /* \"#utility.yul\":9768:9831   */\n      tag_218\n      jumpi\n        /* \"#utility.yul\":9827:9828   */\n      0x00\n        /* \"#utility.yul\":9824:9825   */\n      dup1\n        /* \"#utility.yul\":9817:9829   */\n      revert\n        /* \"#utility.yul\":9768:9831   */\n    tag_218:\n        /* \"#utility.yul\":9715:9837   */\n      pop\n      jump\t// out\n\n    auxdata: 0xa2646970667358221220c5a67dff5bb680626ac3ebf42335fe55a3f34ff885ff58a8c26a33281acde59564736f6c63430008070033\n}\n",
				"bytecode": {
					"linkReferences": {},
					"object": "608060405234801561001057600080fd5b5061002d61002261003960201b60201c565b61004160201b60201c565b60018081905550610105565b600033905090565b60008060009054906101000a900473ffffffffffffffffffffffffffffffffffffffff169050816000806101000a81548173ffffffffffffffffffffffffffffffffffffffff021916908373ffffffffffffffffffffffffffffffffffffffff1602179055508173ffffffffffffffffffffffffffffffffffffffff168173ffffffffffffffffffffffffffffffffffffffff167f8be0079c531659141344cd1fd0a4f28419497f9722a3daafe3b4186f6b6457e060405160405180910390a35050565b610c0b806101146000396000f3fe608060405234801561001057600080fd5b50600436106100885760003560e01c80638da5cb5b1161005b5780638da5cb5b146100ef578063973f61291461010d578063d251fefc1461013d578063f2fde38b1461016d57610088565b806308b3e4191461008d5780636566d39a146100a95780636e636c97146100c7578063715018a6146100e5575b600080fd5b6100a760048036038101906100a29190610747565b610189565b005b6100b161037d565b6040516100be9190610857565b60405180910390f35b6100cf6103a3565b6040516100dc9190610857565b60405180910390f35b6100ed6103c9565b005b6100f76103dd565b6040516101049190610857565b60405180910390f35b610127600480360381019061012291906107a3565b610406565b6040516101349190610857565b60405180910390f35b610157600480360381019061015291906107a3565b610445565b6040516101649190610857565b60405180910390f35b6101876004803603810190610182919061071a565b610484565b005b610191610508565b600081116101d4576040517f08c379a00000000000000000000000000000000000000000000000000000000081526004016101cb906108db565b60405180910390fd5b60005b82518110156103785760011515600760008584815181106101fb576101fa610a5d565b5b602002602001015173ffffffffffffffffffffffffffffffffffffffff1673ffffffffffffffffffffffffffffffffffffffff16815260200190815260200160002060009054906101000a900460ff16151514156102fd57600260009054906101000a900473ffffffffffffffffffffffffffffffffffffffff1673ffffffffffffffffffffffffffffffffffffffff166340c10f198483815181106102a4576102a3610a5d565b5b6020026020010151846040518363ffffffff1660e01b81526004016102ca929190610872565b600060405180830381600087803b1580156102e457600080fd5b505af11580156102f8573d6000803e3d6000fd5b505050505b8281815181106103105761030f610a5d565b5b602002602001015173ffffffffffffffffffffffffffffffffffffffff167f7d78c37200c09313fc0b6a46a20a9ee4a158922da166168d876bc00ce420c84a8360405161035d91906108fb565b60405180910390a28080610370906109e5565b9150506101d7565b505050565b600260009054906101000a900473ffffffffffffffffffffffffffffffffffffffff1681565b600360009054906101000a900473ffffffffffffffffffffffffffffffffffffffff1681565b6103d1610508565b6103db6000610586565b565b60008060009054906101000a900473ffffffffffffffffffffffffffffffffffffffff16905090565b6004818154811061041657600080fd5b906000526020600020016000915054906101000a900473ffffffffffffffffffffffffffffffffffffffff1681565b6005818154811061045557600080fd5b906000526020600020016000915054906101000a900473ffffffffffffffffffffffffffffffffffffffff1681565b61048c610508565b600073ffffffffffffffffffffffffffffffffffffffff168173ffffffffffffffffffffffffffffffffffffffff1614156104fc576040517f08c379a00000000000000000000000000000000000000000000000000000000081526004016104f39061089b565b60405180910390fd5b61050581610586565b50565b61051061064a565b73ffffffffffffffffffffffffffffffffffffffff1661052e6103dd565b73ffffffffffffffffffffffffffffffffffffffff1614610584576040517f08c379a000000000000000000000000000000000000000000000000000000000815260040161057b906108bb565b60405180910390fd5b565b60008060009054906101000a900473ffffffffffffffffffffffffffffffffffffffff169050816000806101000a81548173ffffffffffffffffffffffffffffffffffffffff021916908373ffffffffffffffffffffffffffffffffffffffff1602179055508173ffffffffffffffffffffffffffffffffffffffff168173ffffffffffffffffffffffffffffffffffffffff167f8be0079c531659141344cd1fd0a4f28419497f9722a3daafe3b4186f6b6457e060405160405180910390a35050565b600033905090565b60006106656106608461093b565b610916565b9050808382526020820190508285602086028201111561068857610687610ac0565b5b60005b858110156106b8578161069e88826106c2565b84526020840193506020830192505060018101905061068b565b5050509392505050565b6000813590506106d181610ba7565b92915050565b600082601f8301126106ec576106eb610abb565b5b81356106fc848260208601610652565b91505092915050565b60008135905061071481610bbe565b92915050565b6000602082840312156107305761072f610aca565b5b600061073e848285016106c2565b91505092915050565b6000806040838503121561075e5761075d610aca565b5b600083013567ffffffffffffffff81111561077c5761077b610ac5565b5b610788858286016106d7565b925050602061079985828601610705565b9150509250929050565b6000602082840312156107b9576107b8610aca565b5b60006107c784828501610705565b91505092915050565b6107d981610978565b82525050565b60006107ec602683610967565b91506107f782610ae0565b604082019050919050565b600061080f602083610967565b915061081a82610b2f565b602082019050919050565b6000610832602683610967565b915061083d82610b58565b604082019050919050565b610851816109aa565b82525050565b600060208201905061086c60008301846107d0565b92915050565b600060408201905061088760008301856107d0565b6108946020830184610848565b9392505050565b600060208201905081810360008301526108b4816107df565b9050919050565b600060208201905081810360008301526108d481610802565b9050919050565b600060208201905081810360008301526108f481610825565b9050919050565b60006020820190506109106000830184610848565b92915050565b6000610920610931565b905061092c82826109b4565b919050565b6000604051905090565b600067ffffffffffffffff82111561095657610955610a8c565b5b602082029050602081019050919050565b600082825260208201905092915050565b60006109838261098a565b9050919050565b600073ffffffffffffffffffffffffffffffffffffffff82169050919050565b6000819050919050565b6109bd82610acf565b810181811067ffffffffffffffff821117156109dc576109db610a8c565b5b80604052505050565b60006109f0826109aa565b91507fffffffffffffffffffffffffffffffffffffffffffffffffffffffffffffffff821415610a2357610a22610a2e565b5b600182019050919050565b7f4e487b7100000000000000000000000000000000000000000000000000000000600052601160045260246000fd5b7f4e487b7100000000000000000000000000000000000000000000000000000000600052603260045260246000fd5b7f4e487b7100000000000000000000000000000000000000000000000000000000600052604160045260246000fd5b600080fd5b600080fd5b600080fd5b600080fd5b6000601f19601f8301169050919050565b7f4f776e61626c653a206e6577206f776e657220697320746865207a65726f206160008201527f6464726573730000000000000000000000000000000000000000000000000000602082015250565b7f4f776e61626c653a2063616c6c6572206973206e6f7420746865206f776e6572600082015250565b7f41697264726f703a20416d6f756e74206d75737420626520677265617465722060008201527f7468616e20300000000000000000000000000000000000000000000000000000602082015250565b610bb081610978565b8114610bbb57600080fd5b50565b610bc7816109aa565b8114610bd257600080fd5b5056fea2646970667358221220c5a67dff5bb680626ac3ebf42335fe55a3f34ff885ff58a8c26a33281acde59564736f6c63430008070033",
					"opcodes": "PUSH1 0x80 PUSH1 0x40 MSTORE CALLVALUE DUP1 ISZERO PUSH2 0x10 JUMPI PUSH1 0x0 DUP1 REVERT JUMPDEST POP PUSH2 0x2D PUSH2 0x22 PUSH2 0x39 PUSH1 0x20 SHL PUSH1 0x20 SHR JUMP JUMPDEST PUSH2 0x41 PUSH1 0x20 SHL PUSH1 0x20 SHR JUMP JUMPDEST PUSH1 0x1 DUP1 DUP2 SWAP1 SSTORE POP PUSH2 0x105 JUMP JUMPDEST PUSH1 0x0 CALLER SWAP1 POP SWAP1 JUMP JUMPDEST PUSH1 0x0 DUP1 PUSH1 0x0 SWAP1 SLOAD SWAP1 PUSH2 0x100 EXP SWAP1 DIV PUSH20 0xFFFFFFFFFFFFFFFFFFFFFFFFFFFFFFFFFFFFFFFF AND SWAP1 POP DUP2 PUSH1 0x0 DUP1 PUSH2 0x100 EXP DUP2 SLOAD DUP2 PUSH20 0xFFFFFFFFFFFFFFFFFFFFFFFFFFFFFFFFFFFFFFFF MUL NOT AND SWAP1 DUP4 PUSH20 0xFFFFFFFFFFFFFFFFFFFFFFFFFFFFFFFFFFFFFFFF AND MUL OR SWAP1 SSTORE POP DUP2 PUSH20 0xFFFFFFFFFFFFFFFFFFFFFFFFFFFFFFFFFFFFFFFF AND DUP2 PUSH20 0xFFFFFFFFFFFFFFFFFFFFFFFFFFFFFFFFFFFFFFFF AND PUSH32 0x8BE0079C531659141344CD1FD0A4F28419497F9722A3DAAFE3B4186F6B6457E0 PUSH1 0x40 MLOAD PUSH1 0x40 MLOAD DUP1 SWAP2 SUB SWAP1 LOG3 POP POP JUMP JUMPDEST PUSH2 0xC0B DUP1 PUSH2 0x114 PUSH1 0x0 CODECOPY PUSH1 0x0 RETURN INVALID PUSH1 0x80 PUSH1 0x40 MSTORE CALLVALUE DUP1 ISZERO PUSH2 0x10 JUMPI PUSH1 0x0 DUP1 REVERT JUMPDEST POP PUSH1 0x4 CALLDATASIZE LT PUSH2 0x88 JUMPI PUSH1 0x0 CALLDATALOAD PUSH1 0xE0 SHR DUP1 PUSH4 0x8DA5CB5B GT PUSH2 0x5B JUMPI DUP1 PUSH4 0x8DA5CB5B EQ PUSH2 0xEF JUMPI DUP1 PUSH4 0x973F6129 EQ PUSH2 0x10D JUMPI DUP1 PUSH4 0xD251FEFC EQ PUSH2 0x13D JUMPI DUP1 PUSH4 0xF2FDE38B EQ PUSH2 0x16D JUMPI PUSH2 0x88 JUMP JUMPDEST DUP1 PUSH4 0x8B3E419 EQ PUSH2 0x8D JUMPI DUP1 PUSH4 0x6566D39A EQ PUSH2 0xA9 JUMPI DUP1 PUSH4 0x6E636C97 EQ PUSH2 0xC7 JUMPI DUP1 PUSH4 0x715018A6 EQ PUSH2 0xE5 JUMPI JUMPDEST PUSH1 0x0 DUP1 REVERT JUMPDEST PUSH2 0xA7 PUSH1 0x4 DUP1 CALLDATASIZE SUB DUP2 ADD SWAP1 PUSH2 0xA2 SWAP2 SWAP1 PUSH2 0x747 JUMP JUMPDEST PUSH2 0x189 JUMP JUMPDEST STOP JUMPDEST PUSH2 0xB1 PUSH2 0x37D JUMP JUMPDEST PUSH1 0x40 MLOAD PUSH2 0xBE SWAP2 SWAP1 PUSH2 0x857 JUMP JUMPDEST PUSH1 0x40 MLOAD DUP1 SWAP2 SUB SWAP1 RETURN JUMPDEST PUSH2 0xCF PUSH2 0x3A3 JUMP JUMPDEST PUSH1 0x40 MLOAD PUSH2 0xDC SWAP2 SWAP1 PUSH2 0x857 JUMP JUMPDEST PUSH1 0x40 MLOAD DUP1 SWAP2 SUB SWAP1 RETURN JUMPDEST PUSH2 0xED PUSH2 0x3C9 JUMP JUMPDEST STOP JUMPDEST PUSH2 0xF7 PUSH2 0x3DD JUMP JUMPDEST PUSH1 0x40 MLOAD PUSH2 0x104 SWAP2 SWAP1 PUSH2 0x857 JUMP JUMPDEST PUSH1 0x40 MLOAD DUP1 SWAP2 SUB SWAP1 RETURN JUMPDEST PUSH2 0x127 PUSH1 0x4 DUP1 CALLDATASIZE SUB DUP2 ADD SWAP1 PUSH2 0x122 SWAP2 SWAP1 PUSH2 0x7A3 JUMP JUMPDEST PUSH2 0x406 JUMP JUMPDEST PUSH1 0x40 MLOAD PUSH2 0x134 SWAP2 SWAP1 PUSH2 0x857 JUMP JUMPDEST PUSH1 0x40 MLOAD DUP1 SWAP2 SUB SWAP1 RETURN JUMPDEST PUSH2 0x157 PUSH1 0x4 DUP1 CALLDATASIZE SUB DUP2 ADD SWAP1 PUSH2 0x152 SWAP2 SWAP1 PUSH2 0x7A3 JUMP JUMPDEST PUSH2 0x445 JUMP JUMPDEST PUSH1 0x40 MLOAD PUSH2 0x164 SWAP2 SWAP1 PUSH2 0x857 JUMP JUMPDEST PUSH1 0x40 MLOAD DUP1 SWAP2 SUB SWAP1 RETURN JUMPDEST PUSH2 0x187 PUSH1 0x4 DUP1 CALLDATASIZE SUB DUP2 ADD SWAP1 PUSH2 0x182 SWAP2 SWAP1 PUSH2 0x71A JUMP JUMPDEST PUSH2 0x484 JUMP JUMPDEST STOP JUMPDEST PUSH2 0x191 PUSH2 0x508 JUMP JUMPDEST PUSH1 0x0 DUP2 GT PUSH2 0x1D4 JUMPI PUSH1 0x40 MLOAD PUSH32 0x8C379A000000000000000000000000000000000000000000000000000000000 DUP2 MSTORE PUSH1 0x4 ADD PUSH2 0x1CB SWAP1 PUSH2 0x8DB JUMP JUMPDEST PUSH1 0x40 MLOAD DUP1 SWAP2 SUB SWAP1 REVERT JUMPDEST PUSH1 0x0 JUMPDEST DUP3 MLOAD DUP2 LT ISZERO PUSH2 0x378 JUMPI PUSH1 0x1 ISZERO ISZERO PUSH1 0x7 PUSH1 0x0 DUP6 DUP5 DUP2 MLOAD DUP2 LT PUSH2 0x1FB JUMPI PUSH2 0x1FA PUSH2 0xA5D JUMP JUMPDEST JUMPDEST PUSH1 0x20 MUL PUSH1 0x20 ADD ADD MLOAD PUSH20 0xFFFFFFFFFFFFFFFFFFFFFFFFFFFFFFFFFFFFFFFF AND PUSH20 0xFFFFFFFFFFFFFFFFFFFFFFFFFFFFFFFFFFFFFFFF AND DUP2 MSTORE PUSH1 0x20 ADD SWAP1 DUP2 MSTORE PUSH1 0x20 ADD PUSH1 0x0 KECCAK256 PUSH1 0x0 SWAP1 SLOAD SWAP1 PUSH2 0x100 EXP SWAP1 DIV PUSH1 0xFF AND ISZERO ISZERO EQ ISZERO PUSH2 0x2FD JUMPI PUSH1 0x2 PUSH1 0x0 SWAP1 SLOAD SWAP1 PUSH2 0x100 EXP SWAP1 DIV PUSH20 0xFFFFFFFFFFFFFFFFFFFFFFFFFFFFFFFFFFFFFFFF AND PUSH20 0xFFFFFFFFFFFFFFFFFFFFFFFFFFFFFFFFFFFFFFFF AND PUSH4 0x40C10F19 DUP5 DUP4 DUP2 MLOAD DUP2 LT PUSH2 0x2A4 JUMPI PUSH2 0x2A3 PUSH2 0xA5D JUMP JUMPDEST JUMPDEST PUSH1 0x20 MUL PUSH1 0x20 ADD ADD MLOAD DUP5 PUSH1 0x40 MLOAD DUP4 PUSH4 0xFFFFFFFF AND PUSH1 0xE0 SHL DUP2 MSTORE PUSH1 0x4 ADD PUSH2 0x2CA SWAP3 SWAP2 SWAP1 PUSH2 0x872 JUMP JUMPDEST PUSH1 0x0 PUSH1 0x40 MLOAD DUP1 DUP4 SUB DUP2 PUSH1 0x0 DUP8 DUP1 EXTCODESIZE ISZERO DUP1 ISZERO PUSH2 0x2E4 JUMPI PUSH1 0x0 DUP1 REVERT JUMPDEST POP GAS CALL ISZERO DUP1 ISZERO PUSH2 0x2F8 JUMPI RETURNDATASIZE PUSH1 0x0 DUP1 RETURNDATACOPY RETURNDATASIZE PUSH1 0x0 REVERT JUMPDEST POP POP POP POP JUMPDEST DUP3 DUP2 DUP2 MLOAD DUP2 LT PUSH2 0x310 JUMPI PUSH2 0x30F PUSH2 0xA5D JUMP JUMPDEST JUMPDEST PUSH1 0x20 MUL PUSH1 0x20 ADD ADD MLOAD PUSH20 0xFFFFFFFFFFFFFFFFFFFFFFFFFFFFFFFFFFFFFFFF AND PUSH32 0x7D78C37200C09313FC0B6A46A20A9EE4A158922DA166168D876BC00CE420C84A DUP4 PUSH1 0x40 MLOAD PUSH2 0x35D SWAP2 SWAP1 PUSH2 0x8FB JUMP JUMPDEST PUSH1 0x40 MLOAD DUP1 SWAP2 SUB SWAP1 LOG2 DUP1 DUP1 PUSH2 0x370 SWAP1 PUSH2 0x9E5 JUMP JUMPDEST SWAP2 POP POP PUSH2 0x1D7 JUMP JUMPDEST POP POP POP JUMP JUMPDEST PUSH1 0x2 PUSH1 0x0 SWAP1 SLOAD SWAP1 PUSH2 0x100 EXP SWAP1 DIV PUSH20 0xFFFFFFFFFFFFFFFFFFFFFFFFFFFFFFFFFFFFFFFF AND DUP2 JUMP JUMPDEST PUSH1 0x3 PUSH1 0x0 SWAP1 SLOAD SWAP1 PUSH2 0x100 EXP SWAP1 DIV PUSH20 0xFFFFFFFFFFFFFFFFFFFFFFFFFFFFFFFFFFFFFFFF AND DUP2 JUMP JUMPDEST PUSH2 0x3D1 PUSH2 0x508 JUMP JUMPDEST PUSH2 0x3DB PUSH1 0x0 PUSH2 0x586 JUMP JUMPDEST JUMP JUMPDEST PUSH1 0x0 DUP1 PUSH1 0x0 SWAP1 SLOAD SWAP1 PUSH2 0x100 EXP SWAP1 DIV PUSH20 0xFFFFFFFFFFFFFFFFFFFFFFFFFFFFFFFFFFFFFFFF AND SWAP1 POP SWAP1 JUMP JUMPDEST PUSH1 0x4 DUP2 DUP2 SLOAD DUP2 LT PUSH2 0x416 JUMPI PUSH1 0x0 DUP1 REVERT JUMPDEST SWAP1 PUSH1 0x0 MSTORE PUSH1 0x20 PUSH1 0x0 KECCAK256 ADD PUSH1 0x0 SWAP2 POP SLOAD SWAP1 PUSH2 0x100 EXP SWAP1 DIV PUSH20 0xFFFFFFFFFFFFFFFFFFFFFFFFFFFFFFFFFFFFFFFF AND DUP2 JUMP JUMPDEST PUSH1 0x5 DUP2 DUP2 SLOAD DUP2 LT PUSH2 0x455 JUMPI PUSH1 0x0 DUP1 REVERT JUMPDEST SWAP1 PUSH1 0x0 MSTORE PUSH1 0x20 PUSH1 0x0 KECCAK256 ADD PUSH1 0x0 SWAP2 POP SLOAD SWAP1 PUSH2 0x100 EXP SWAP1 DIV PUSH20 0xFFFFFFFFFFFFFFFFFFFFFFFFFFFFFFFFFFFFFFFF AND DUP2 JUMP JUMPDEST PUSH2 0x48C PUSH2 0x508 JUMP JUMPDEST PUSH1 0x0 PUSH20 0xFFFFFFFFFFFFFFFFFFFFFFFFFFFFFFFFFFFFFFFF AND DUP2 PUSH20 0xFFFFFFFFFFFFFFFFFFFFFFFFFFFFFFFFFFFFFFFF AND EQ ISZERO PUSH2 0x4FC JUMPI PUSH1 0x40 MLOAD PUSH32 0x8C379A000000000000000000000000000000000000000000000000000000000 DUP2 MSTORE PUSH1 0x4 ADD PUSH2 0x4F3 SWAP1 PUSH2 0x89B JUMP JUMPDEST PUSH1 0x40 MLOAD DUP1 SWAP2 SUB SWAP1 REVERT JUMPDEST PUSH2 0x505 DUP2 PUSH2 0x586 JUMP JUMPDEST POP JUMP JUMPDEST PUSH2 0x510 PUSH2 0x64A JUMP JUMPDEST PUSH20 0xFFFFFFFFFFFFFFFFFFFFFFFFFFFFFFFFFFFFFFFF AND PUSH2 0x52E PUSH2 0x3DD JUMP JUMPDEST PUSH20 0xFFFFFFFFFFFFFFFFFFFFFFFFFFFFFFFFFFFFFFFF AND EQ PUSH2 0x584 JUMPI PUSH1 0x40 MLOAD PUSH32 0x8C379A000000000000000000000000000000000000000000000000000000000 DUP2 MSTORE PUSH1 0x4 ADD PUSH2 0x57B SWAP1 PUSH2 0x8BB JUMP JUMPDEST PUSH1 0x40 MLOAD DUP1 SWAP2 SUB SWAP1 REVERT JUMPDEST JUMP JUMPDEST PUSH1 0x0 DUP1 PUSH1 0x0 SWAP1 SLOAD SWAP1 PUSH2 0x100 EXP SWAP1 DIV PUSH20 0xFFFFFFFFFFFFFFFFFFFFFFFFFFFFFFFFFFFFFFFF AND SWAP1 POP DUP2 PUSH1 0x0 DUP1 PUSH2 0x100 EXP DUP2 SLOAD DUP2 PUSH20 0xFFFFFFFFFFFFFFFFFFFFFFFFFFFFFFFFFFFFFFFF MUL NOT AND SWAP1 DUP4 PUSH20 0xFFFFFFFFFFFFFFFFFFFFFFFFFFFFFFFFFFFFFFFF AND MUL OR SWAP1 SSTORE POP DUP2 PUSH20 0xFFFFFFFFFFFFFFFFFFFFFFFFFFFFFFFFFFFFFFFF AND DUP2 PUSH20 0xFFFFFFFFFFFFFFFFFFFFFFFFFFFFFFFFFFFFFFFF AND PUSH32 0x8BE0079C531659141344CD1FD0A4F28419497F9722A3DAAFE3B4186F6B6457E0 PUSH1 0x40 MLOAD PUSH1 0x40 MLOAD DUP1 SWAP2 SUB SWAP1 LOG3 POP POP JUMP JUMPDEST PUSH1 0x0 CALLER SWAP1 POP SWAP1 JUMP JUMPDEST PUSH1 0x0 PUSH2 0x665 PUSH2 0x660 DUP5 PUSH2 0x93B JUMP JUMPDEST PUSH2 0x916 JUMP JUMPDEST SWAP1 POP DUP1 DUP4 DUP3 MSTORE PUSH1 0x20 DUP3 ADD SWAP1 POP DUP3 DUP6 PUSH1 0x20 DUP7 MUL DUP3 ADD GT ISZERO PUSH2 0x688 JUMPI PUSH2 0x687 PUSH2 0xAC0 JUMP JUMPDEST JUMPDEST PUSH1 0x0 JUMPDEST DUP6 DUP2 LT ISZERO PUSH2 0x6B8 JUMPI DUP2 PUSH2 0x69E DUP9 DUP3 PUSH2 0x6C2 JUMP JUMPDEST DUP5 MSTORE PUSH1 0x20 DUP5 ADD SWAP4 POP PUSH1 0x20 DUP4 ADD SWAP3 POP POP PUSH1 0x1 DUP2 ADD SWAP1 POP PUSH2 0x68B JUMP JUMPDEST POP POP POP SWAP4 SWAP3 POP POP POP JUMP JUMPDEST PUSH1 0x0 DUP2 CALLDATALOAD SWAP1 POP PUSH2 0x6D1 DUP2 PUSH2 0xBA7 JUMP JUMPDEST SWAP3 SWAP2 POP POP JUMP JUMPDEST PUSH1 0x0 DUP3 PUSH1 0x1F DUP4 ADD SLT PUSH2 0x6EC JUMPI PUSH2 0x6EB PUSH2 0xABB JUMP JUMPDEST JUMPDEST DUP2 CALLDATALOAD PUSH2 0x6FC DUP5 DUP3 PUSH1 0x20 DUP7 ADD PUSH2 0x652 JUMP JUMPDEST SWAP2 POP POP SWAP3 SWAP2 POP POP JUMP JUMPDEST PUSH1 0x0 DUP2 CALLDATALOAD SWAP1 POP PUSH2 0x714 DUP2 PUSH2 0xBBE JUMP JUMPDEST SWAP3 SWAP2 POP POP JUMP JUMPDEST PUSH1 0x0 PUSH1 0x20 DUP3 DUP5 SUB SLT ISZERO PUSH2 0x730 JUMPI PUSH2 0x72F PUSH2 0xACA JUMP JUMPDEST JUMPDEST PUSH1 0x0 PUSH2 0x73E DUP5 DUP3 DUP6 ADD PUSH2 0x6C2 JUMP JUMPDEST SWAP2 POP POP SWAP3 SWAP2 POP POP JUMP JUMPDEST PUSH1 0x0 DUP1 PUSH1 0x40 DUP4 DUP6 SUB SLT ISZERO PUSH2 0x75E JUMPI PUSH2 0x75D PUSH2 0xACA JUMP JUMPDEST JUMPDEST PUSH1 0x0 DUP4 ADD CALLDATALOAD PUSH8 0xFFFFFFFFFFFFFFFF DUP2 GT ISZERO PUSH2 0x77C JUMPI PUSH2 0x77B PUSH2 0xAC5 JUMP JUMPDEST JUMPDEST PUSH2 0x788 DUP6 DUP3 DUP7 ADD PUSH2 0x6D7 JUMP JUMPDEST SWAP3 POP POP PUSH1 0x20 PUSH2 0x799 DUP6 DUP3 DUP7 ADD PUSH2 0x705 JUMP JUMPDEST SWAP2 POP POP SWAP3 POP SWAP3 SWAP1 POP JUMP JUMPDEST PUSH1 0x0 PUSH1 0x20 DUP3 DUP5 SUB SLT ISZERO PUSH2 0x7B9 JUMPI PUSH2 0x7B8 PUSH2 0xACA JUMP JUMPDEST JUMPDEST PUSH1 0x0 PUSH2 0x7C7 DUP5 DUP3 DUP6 ADD PUSH2 0x705 JUMP JUMPDEST SWAP2 POP POP SWAP3 SWAP2 POP POP JUMP JUMPDEST PUSH2 0x7D9 DUP2 PUSH2 0x978 JUMP JUMPDEST DUP3 MSTORE POP POP JUMP JUMPDEST PUSH1 0x0 PUSH2 0x7EC PUSH1 0x26 DUP4 PUSH2 0x967 JUMP JUMPDEST SWAP2 POP PUSH2 0x7F7 DUP3 PUSH2 0xAE0 JUMP JUMPDEST PUSH1 0x40 DUP3 ADD SWAP1 POP SWAP2 SWAP1 POP JUMP JUMPDEST PUSH1 0x0 PUSH2 0x80F PUSH1 0x20 DUP4 PUSH2 0x967 JUMP JUMPDEST SWAP2 POP PUSH2 0x81A DUP3 PUSH2 0xB2F JUMP JUMPDEST PUSH1 0x20 DUP3 ADD SWAP1 POP SWAP2 SWAP1 POP JUMP JUMPDEST PUSH1 0x0 PUSH2 0x832 PUSH1 0x26 DUP4 PUSH2 0x967 JUMP JUMPDEST SWAP2 POP PUSH2 0x83D DUP3 PUSH2 0xB58 JUMP JUMPDEST PUSH1 0x40 DUP3 ADD SWAP1 POP SWAP2 SWAP1 POP JUMP JUMPDEST PUSH2 0x851 DUP2 PUSH2 0x9AA JUMP JUMPDEST DUP3 MSTORE POP POP JUMP JUMPDEST PUSH1 0x0 PUSH1 0x20 DUP3 ADD SWAP1 POP PUSH2 0x86C PUSH1 0x0 DUP4 ADD DUP5 PUSH2 0x7D0 JUMP JUMPDEST SWAP3 SWAP2 POP POP JUMP JUMPDEST PUSH1 0x0 PUSH1 0x40 DUP3 ADD SWAP1 POP PUSH2 0x887 PUSH1 0x0 DUP4 ADD DUP6 PUSH2 0x7D0 JUMP JUMPDEST PUSH2 0x894 PUSH1 0x20 DUP4 ADD DUP5 PUSH2 0x848 JUMP JUMPDEST SWAP4 SWAP3 POP POP POP JUMP JUMPDEST PUSH1 0x0 PUSH1 0x20 DUP3 ADD SWAP1 POP DUP2 DUP2 SUB PUSH1 0x0 DUP4 ADD MSTORE PUSH2 0x8B4 DUP2 PUSH2 0x7DF JUMP JUMPDEST SWAP1 POP SWAP2 SWAP1 POP JUMP JUMPDEST PUSH1 0x0 PUSH1 0x20 DUP3 ADD SWAP1 POP DUP2 DUP2 SUB PUSH1 0x0 DUP4 ADD MSTORE PUSH2 0x8D4 DUP2 PUSH2 0x802 JUMP JUMPDEST SWAP1 POP SWAP2 SWAP1 POP JUMP JUMPDEST PUSH1 0x0 PUSH1 0x20 DUP3 ADD SWAP1 POP DUP2 DUP2 SUB PUSH1 0x0 DUP4 ADD MSTORE PUSH2 0x8F4 DUP2 PUSH2 0x825 JUMP JUMPDEST SWAP1 POP SWAP2 SWAP1 POP JUMP JUMPDEST PUSH1 0x0 PUSH1 0x20 DUP3 ADD SWAP1 POP PUSH2 0x910 PUSH1 0x0 DUP4 ADD DUP5 PUSH2 0x848 JUMP JUMPDEST SWAP3 SWAP2 POP POP JUMP JUMPDEST PUSH1 0x0 PUSH2 0x920 PUSH2 0x931 JUMP JUMPDEST SWAP1 POP PUSH2 0x92C DUP3 DUP3 PUSH2 0x9B4 JUMP JUMPDEST SWAP2 SWAP1 POP JUMP JUMPDEST PUSH1 0x0 PUSH1 0x40 MLOAD SWAP1 POP SWAP1 JUMP JUMPDEST PUSH1 0x0 PUSH8 0xFFFFFFFFFFFFFFFF DUP3 GT ISZERO PUSH2 0x956 JUMPI PUSH2 0x955 PUSH2 0xA8C JUMP JUMPDEST JUMPDEST PUSH1 0x20 DUP3 MUL SWAP1 POP PUSH1 0x20 DUP2 ADD SWAP1 POP SWAP2 SWAP1 POP JUMP JUMPDEST PUSH1 0x0 DUP3 DUP3 MSTORE PUSH1 0x20 DUP3 ADD SWAP1 POP SWAP3 SWAP2 POP POP JUMP JUMPDEST PUSH1 0x0 PUSH2 0x983 DUP3 PUSH2 0x98A JUMP JUMPDEST SWAP1 POP SWAP2 SWAP1 POP JUMP JUMPDEST PUSH1 0x0 PUSH20 0xFFFFFFFFFFFFFFFFFFFFFFFFFFFFFFFFFFFFFFFF DUP3 AND SWAP1 POP SWAP2 SWAP1 POP JUMP JUMPDEST PUSH1 0x0 DUP2 SWAP1 POP SWAP2 SWAP1 POP JUMP JUMPDEST PUSH2 0x9BD DUP3 PUSH2 0xACF JUMP JUMPDEST DUP2 ADD DUP2 DUP2 LT PUSH8 0xFFFFFFFFFFFFFFFF DUP3 GT OR ISZERO PUSH2 0x9DC JUMPI PUSH2 0x9DB PUSH2 0xA8C JUMP JUMPDEST JUMPDEST DUP1 PUSH1 0x40 MSTORE POP POP POP JUMP JUMPDEST PUSH1 0x0 PUSH2 0x9F0 DUP3 PUSH2 0x9AA JUMP JUMPDEST SWAP2 POP PUSH32 0xFFFFFFFFFFFFFFFFFFFFFFFFFFFFFFFFFFFFFFFFFFFFFFFFFFFFFFFFFFFFFFFF DUP3 EQ ISZERO PUSH2 0xA23 JUMPI PUSH2 0xA22 PUSH2 0xA2E JUMP JUMPDEST JUMPDEST PUSH1 0x1 DUP3 ADD SWAP1 POP SWAP2 SWAP1 POP JUMP JUMPDEST PUSH32 0x4E487B7100000000000000000000000000000000000000000000000000000000 PUSH1 0x0 MSTORE PUSH1 0x11 PUSH1 0x4 MSTORE PUSH1 0x24 PUSH1 0x0 REVERT JUMPDEST PUSH32 0x4E487B7100000000000000000000000000000000000000000000000000000000 PUSH1 0x0 MSTORE PUSH1 0x32 PUSH1 0x4 MSTORE PUSH1 0x24 PUSH1 0x0 REVERT JUMPDEST PUSH32 0x4E487B7100000000000000000000000000000000000000000000000000000000 PUSH1 0x0 MSTORE PUSH1 0x41 PUSH1 0x4 MSTORE PUSH1 0x24 PUSH1 0x0 REVERT JUMPDEST PUSH1 0x0 DUP1 REVERT JUMPDEST PUSH1 0x0 DUP1 REVERT JUMPDEST PUSH1 0x0 DUP1 REVERT JUMPDEST PUSH1 0x0 DUP1 REVERT JUMPDEST PUSH1 0x0 PUSH1 0x1F NOT PUSH1 0x1F DUP4 ADD AND SWAP1 POP SWAP2 SWAP1 POP JUMP JUMPDEST PUSH32 0x4F776E61626C653A206E6577206F776E657220697320746865207A65726F2061 PUSH1 0x0 DUP3 ADD MSTORE PUSH32 0x6464726573730000000000000000000000000000000000000000000000000000 PUSH1 0x20 DUP3 ADD MSTORE POP JUMP JUMPDEST PUSH32 0x4F776E61626C653A2063616C6C6572206973206E6F7420746865206F776E6572 PUSH1 0x0 DUP3 ADD MSTORE POP JUMP JUMPDEST PUSH32 0x41697264726F703A20416D6F756E74206D757374206265206772656174657220 PUSH1 0x0 DUP3 ADD MSTORE PUSH32 0x7468616E20300000000000000000000000000000000000000000000000000000 PUSH1 0x20 DUP3 ADD MSTORE POP JUMP JUMPDEST PUSH2 0xBB0 DUP2 PUSH2 0x978 JUMP JUMPDEST DUP2 EQ PUSH2 0xBBB JUMPI PUSH1 0x0 DUP1 REVERT JUMPDEST POP JUMP JUMPDEST PUSH2 0xBC7 DUP2 PUSH2 0x9AA JUMP JUMPDEST DUP2 EQ PUSH2 0xBD2 JUMPI PUSH1 0x0 DUP1 REVERT JUMPDEST POP JUMP INVALID LOG2 PUSH5 0x6970667358 0x22 SLT KECCAK256 0xC5 0xA6 PUSH30 0xFF5BB680626AC3EBF42335FE55A3F34FF885FF58A8C26A33281ACDE59564 PUSH20 0x6F6C634300080700330000000000000000000000 "
				},
				"gasEstimates": {
					"creation": {
						"codeDepositCost": "616600",
						"executionCost": "infinite",
						"totalCost": "infinite"
					},
					"external": {
						"Airdrop(address[],uint256)": "infinite",
						"AirdropHandler()": "2559",
						"adminArray(uint256)": "4978",
						"owner()": "2522",
						"renounceOwnership()": "30465",
						"token20Address()": "2537",
						"transferOwnership(address)": "30813",
						"whitelistArray(uint256)": "5000"
					}
				},
				"methodIdentifiers": {
					"Airdrop(address[],uint256)": "08b3e419",
					"AirdropHandler()": "6e636c97",
					"adminArray(uint256)": "973f6129",
					"owner()": "8da5cb5b",
					"renounceOwnership()": "715018a6",
					"token20Address()": "6566d39a",
					"transferOwnership(address)": "f2fde38b",
					"whitelistArray(uint256)": "d251fefc"
				}
			},
			"storageLayout": {
				"storage": [
					{
						"astId": 7,
						"contract": "study/token-airdrop/contracts/handler/AirdropHandler.sol:AirdropHandler",
						"label": "_owner",
						"offset": 0,
						"slot": "0",
						"type": "t_address"
					},
					{
						"astId": 145,
						"contract": "study/token-airdrop/contracts/handler/AirdropHandler.sol:AirdropHandler",
						"label": "_status",
						"offset": 0,
						"slot": "1",
						"type": "t_uint256"
					},
					{
						"astId": 184,
						"contract": "study/token-airdrop/contracts/handler/AirdropHandler.sol:AirdropHandler",
						"label": "token20Address",
						"offset": 0,
						"slot": "2",
						"type": "t_address"
					},
					{
						"astId": 186,
						"contract": "study/token-airdrop/contracts/handler/AirdropHandler.sol:AirdropHandler",
						"label": "AirdropHandler",
						"offset": 0,
						"slot": "3",
						"type": "t_address"
					},
					{
						"astId": 189,
						"contract": "study/token-airdrop/contracts/handler/AirdropHandler.sol:AirdropHandler",
						"label": "adminArray",
						"offset": 0,
						"slot": "4",
						"type": "t_array(t_address)dyn_storage"
					},
					{
						"astId": 192,
						"contract": "study/token-airdrop/contracts/handler/AirdropHandler.sol:AirdropHandler",
						"label": "whitelistArray",
						"offset": 0,
						"slot": "5",
						"type": "t_array(t_address)dyn_storage"
					},
					{
						"astId": 196,
						"contract": "study/token-airdrop/contracts/handler/AirdropHandler.sol:AirdropHandler",
						"label": "admin",
						"offset": 0,
						"slot": "6",
						"type": "t_mapping(t_address,t_bool)"
					},
					{
						"astId": 200,
						"contract": "study/token-airdrop/contracts/handler/AirdropHandler.sol:AirdropHandler",
						"label": "whiteList",
						"offset": 0,
						"slot": "7",
						"type": "t_mapping(t_address,t_bool)"
					}
				],
				"types": {
					"t_address": {
						"encoding": "inplace",
						"label": "address",
						"numberOfBytes": "20"
					},
					"t_array(t_address)dyn_storage": {
						"base": "t_address",
						"encoding": "dynamic_array",
						"label": "address[]",
						"numberOfBytes": "32"
					},
					"t_bool": {
						"encoding": "inplace",
						"label": "bool",
						"numberOfBytes": "1"
					},
					"t_mapping(t_address,t_bool)": {
						"encoding": "mapping",
						"key": "t_address",
						"label": "mapping(address => bool)",
						"numberOfBytes": "32",
						"value": "t_bool"
					},
					"t_uint256": {
						"encoding": "inplace",
						"label": "uint256",
						"numberOfBytes": "32"
					}
				}
			},
			"userdoc": {
				"kind": "user",
				"methods": {},
				"version": 1
			}
		}
	}
}