{
	"study/token-airdrop/contracts/token/ERC20.sol": {
		"Token": {
			"abi": [
				{
					"inputs": [
						{
							"internalType": "address",
							"name": "_controller",
							"type": "address"
						},
						{
							"internalType": "string",
							"name": "name",
							"type": "string"
						},
						{
							"internalType": "string",
							"name": "symbol",
							"type": "string"
						}
					],
					"stateMutability": "nonpayable",
					"type": "constructor"
				},
				{
					"anonymous": false,
					"inputs": [
						{
							"indexed": true,
							"internalType": "address",
							"name": "owner",
							"type": "address"
						},
						{
							"indexed": true,
							"internalType": "address",
							"name": "spender",
							"type": "address"
						},
						{
							"indexed": false,
							"internalType": "uint256",
							"name": "value",
							"type": "uint256"
						}
					],
					"name": "Approval",
					"type": "event"
				},
				{
					"anonymous": false,
					"inputs": [
						{
							"indexed": true,
							"internalType": "address",
							"name": "previousOwner",
							"type": "address"
						},
						{
							"indexed": true,
							"internalType": "address",
							"name": "newOwner",
							"type": "address"
						}
					],
					"name": "OwnershipTransferred",
					"type": "event"
				},
				{
					"anonymous": false,
					"inputs": [
						{
							"indexed": true,
							"internalType": "address",
							"name": "from",
							"type": "address"
						},
						{
							"indexed": true,
							"internalType": "address",
							"name": "to",
							"type": "address"
						},
						{
							"indexed": false,
							"internalType": "uint256",
							"name": "value",
							"type": "uint256"
						}
					],
					"name": "Transfer",
					"type": "event"
				},
				{
					"inputs": [
						{
							"internalType": "address",
							"name": "owner",
							"type": "address"
						},
						{
							"internalType": "address",
							"name": "spender",
							"type": "address"
						}
					],
					"name": "allowance",
					"outputs": [
						{
							"internalType": "uint256",
							"name": "",
							"type": "uint256"
						}
					],
					"stateMutability": "view",
					"type": "function"
				},
				{
					"inputs": [
						{
							"internalType": "address",
							"name": "spender",
							"type": "address"
						},
						{
							"internalType": "uint256",
							"name": "amount",
							"type": "uint256"
						}
					],
					"name": "approve",
					"outputs": [
						{
							"internalType": "bool",
							"name": "",
							"type": "bool"
						}
					],
					"stateMutability": "nonpayable",
					"type": "function"
				},
				{
					"inputs": [
						{
							"internalType": "address",
							"name": "account",
							"type": "address"
						}
					],
					"name": "balanceOf",
					"outputs": [
						{
							"internalType": "uint256",
							"name": "",
							"type": "uint256"
						}
					],
					"stateMutability": "view",
					"type": "function"
				},
				{
					"inputs": [
						{
							"internalType": "address",
							"name": "_from",
							"type": "address"
						},
						{
							"internalType": "uint256",
							"name": "_amount",
							"type": "uint256"
						}
					],
					"name": "burn",
					"outputs": [],
					"stateMutability": "nonpayable",
					"type": "function"
				},
				{
					"inputs": [],
					"name": "controller",
					"outputs": [
						{
							"internalType": "address",
							"name": "",
							"type": "address"
						}
					],
					"stateMutability": "view",
					"type": "function"
				},
				{
					"inputs": [],
					"name": "decimals",
					"outputs": [
						{
							"internalType": "uint8",
							"name": "",
							"type": "uint8"
						}
					],
					"stateMutability": "view",
					"type": "function"
				},
				{
					"inputs": [
						{
							"internalType": "address",
							"name": "spender",
							"type": "address"
						},
						{
							"internalType": "uint256",
							"name": "subtractedValue",
							"type": "uint256"
						}
					],
					"name": "decreaseAllowance",
					"outputs": [
						{
							"internalType": "bool",
							"name": "",
							"type": "bool"
						}
					],
					"stateMutability": "nonpayable",
					"type": "function"
				},
				{
					"inputs": [
						{
							"internalType": "address",
							"name": "spender",
							"type": "address"
						},
						{
							"internalType": "uint256",
							"name": "addedValue",
							"type": "uint256"
						}
					],
					"name": "increaseAllowance",
					"outputs": [
						{
							"internalType": "bool",
							"name": "",
							"type": "bool"
						}
					],
					"stateMutability": "nonpayable",
					"type": "function"
				},
				{
					"inputs": [
						{
							"internalType": "address",
							"name": "_to",
							"type": "address"
						},
						{
							"internalType": "uint256",
							"name": "_amount",
							"type": "uint256"
						}
					],
					"name": "mint",
					"outputs": [],
					"stateMutability": "nonpayable",
					"type": "function"
				},
				{
					"inputs": [],
					"name": "name",
					"outputs": [
						{
							"internalType": "string",
							"name": "",
							"type": "string"
						}
					],
					"stateMutability": "view",
					"type": "function"
				},
				{
					"inputs": [],
					"name": "owner",
					"outputs": [
						{
							"internalType": "address",
							"name": "",
							"type": "address"
						}
					],
					"stateMutability": "view",
					"type": "function"
				},
				{
					"inputs": [],
					"name": "renounceOwnership",
					"outputs": [],
					"stateMutability": "nonpayable",
					"type": "function"
				},
				{
					"inputs": [
						{
							"internalType": "address",
							"name": "_controller",
							"type": "address"
						}
					],
					"name": "setController",
					"outputs": [],
					"stateMutability": "nonpayable",
					"type": "function"
				},
				{
					"inputs": [],
					"name": "symbol",
					"outputs": [
						{
							"internalType": "string",
							"name": "",
							"type": "string"
						}
					],
					"stateMutability": "view",
					"type": "function"
				},
				{
					"inputs": [],
					"name": "totalSupply",
					"outputs": [
						{
							"internalType": "uint256",
							"name": "",
							"type": "uint256"
						}
					],
					"stateMutability": "view",
					"type": "function"
				},
				{
					"inputs": [
						{
							"internalType": "address",
							"name": "to",
							"type": "address"
						},
						{
							"internalType": "uint256",
							"name": "amount",
							"type": "uint256"
						}
					],
					"name": "transfer",
					"outputs": [
						{
							"internalType": "bool",
							"name": "",
							"type": "bool"
						}
					],
					"stateMutability": "nonpayable",
					"type": "function"
				},
				{
					"inputs": [
						{
							"internalType": "address",
							"name": "from",
							"type": "address"
						},
						{
							"internalType": "address",
							"name": "to",
							"type": "address"
						},
						{
							"internalType": "uint256",
							"name": "amount",
							"type": "uint256"
						}
					],
					"name": "transferFrom",
					"outputs": [
						{
							"internalType": "bool",
							"name": "",
							"type": "bool"
						}
					],
					"stateMutability": "nonpayable",
					"type": "function"
				},
				{
					"inputs": [
						{
							"internalType": "address",
							"name": "newOwner",
							"type": "address"
						}
					],
					"name": "transferOwnership",
					"outputs": [],
					"stateMutability": "nonpayable",
					"type": "function"
				}
			],
			"devdoc": {
				"kind": "dev",
				"methods": {
					"allowance(address,address)": {
						"details": "See {IERC20-allowance}."
					},
					"approve(address,uint256)": {
						"details": "See {IERC20-approve}. NOTE: If `amount` is the maximum `uint256`, the allowance is not updated on `transferFrom`. This is semantically equivalent to an infinite approval. Requirements: - `spender` cannot be the zero address."
					},
					"balanceOf(address)": {
						"details": "See {IERC20-balanceOf}."
					},
					"decimals()": {
						"details": "Returns the number of decimals used to get its user representation. For example, if `decimals` equals `2`, a balance of `505` tokens should be displayed to a user as `5.05` (`505 / 10 ** 2`). Tokens usually opt for a value of 18, imitating the relationship between Ether and Wei. This is the value {ERC20} uses, unless this function is overridden; NOTE: This information is only used for _display_ purposes: it in no way affects any of the arithmetic of the contract, including {IERC20-balanceOf} and {IERC20-transfer}."
					},
					"decreaseAllowance(address,uint256)": {
						"details": "Atomically decreases the allowance granted to `spender` by the caller. This is an alternative to {approve} that can be used as a mitigation for problems described in {IERC20-approve}. Emits an {Approval} event indicating the updated allowance. Requirements: - `spender` cannot be the zero address. - `spender` must have allowance for the caller of at least `subtractedValue`."
					},
					"increaseAllowance(address,uint256)": {
						"details": "Atomically increases the allowance granted to `spender` by the caller. This is an alternative to {approve} that can be used as a mitigation for problems described in {IERC20-approve}. Emits an {Approval} event indicating the updated allowance. Requirements: - `spender` cannot be the zero address."
					},
					"name()": {
						"details": "Returns the name of the token."
					},
					"owner()": {
						"details": "Returns the address of the current owner."
					},
					"renounceOwnership()": {
						"details": "Leaves the contract without owner. It will not be possible to call `onlyOwner` functions anymore. Can only be called by the current owner. NOTE: Renouncing ownership will leave the contract without an owner, thereby removing any functionality that is only available to the owner."
					},
					"symbol()": {
						"details": "Returns the symbol of the token, usually a shorter version of the name."
					},
					"totalSupply()": {
						"details": "See {IERC20-totalSupply}."
					},
					"transfer(address,uint256)": {
						"details": "See {IERC20-transfer}. Requirements: - `to` cannot be the zero address. - the caller must have a balance of at least `amount`."
					},
					"transferFrom(address,address,uint256)": {
						"details": "See {IERC20-transferFrom}. Emits an {Approval} event indicating the updated allowance. This is not required by the EIP. See the note at the beginning of {ERC20}. NOTE: Does not update the allowance if the current allowance is the maximum `uint256`. Requirements: - `from` and `to` cannot be the zero address. - `from` must have a balance of at least `amount`. - the caller must have allowance for ``from``'s tokens of at least `amount`."
					},
					"transferOwnership(address)": {
						"details": "Transfers ownership of the contract to a new account (`newOwner`). Can only be called by the current owner."
					}
				},
				"version": 1
			},
			"evm": {
				"assembly": "    /* \"study/token-airdrop/contracts/token/ERC20.sol\":173:983  contract Token is ERC20, Ownable {\r... */\n  mstore(0x40, 0x80)\n    /* \"study/token-airdrop/contracts/token/ERC20.sol\":213:353  constructor(address _controller, string memory name, string memory symbol) ERC20(name, symbol) {\r... */\n  callvalue\n  dup1\n  iszero\n  tag_1\n  jumpi\n  0x00\n  dup1\n  revert\ntag_1:\n  pop\n  mload(0x40)\n  sub(codesize, bytecodeSize)\n  dup1\n  bytecodeSize\n  dup4\n  codecopy\n  dup2\n  dup2\n  add\n  0x40\n  mstore\n  dup2\n  add\n  swap1\n  tag_2\n  swap2\n  swap1\n  tag_3\n  jump\t// in\ntag_2:\n    /* \"study/token-airdrop/contracts/token/ERC20.sol\":294:298  name */\n  dup2\n    /* \"study/token-airdrop/contracts/token/ERC20.sol\":300:306  symbol */\n  dup2\n    /* \"@openzeppelin/contracts/token/ERC20/ERC20.sol\":2050:2055  name_ */\n  dup2\n    /* \"@openzeppelin/contracts/token/ERC20/ERC20.sol\":2042:2047  _name */\n  0x03\n    /* \"@openzeppelin/contracts/token/ERC20/ERC20.sol\":2042:2055  _name = name_ */\n  swap1\n  dup1\n  mload\n  swap1\n  0x20\n  add\n  swap1\n  tag_8\n  swap3\n  swap2\n  swap1\n  tag_9\n  jump\t// in\ntag_8:\n  pop\n    /* \"@openzeppelin/contracts/token/ERC20/ERC20.sol\":2075:2082  symbol_ */\n  dup1\n    /* \"@openzeppelin/contracts/token/ERC20/ERC20.sol\":2065:2072  _symbol */\n  0x04\n    /* \"@openzeppelin/contracts/token/ERC20/ERC20.sol\":2065:2082  _symbol = symbol_ */\n  swap1\n  dup1\n  mload\n  swap1\n  0x20\n  add\n  swap1\n  tag_10\n  swap3\n  swap2\n  swap1\n  tag_9\n  jump\t// in\ntag_10:\n  pop\n    /* \"@openzeppelin/contracts/token/ERC20/ERC20.sol\":1976:2089  constructor(string memory name_, string memory symbol_) {... */\n  pop\n  pop\n    /* \"@openzeppelin/contracts/access/Ownable.sol\":936:968  _transferOwnership(_msgSender()) */\n  tag_12\n    /* \"@openzeppelin/contracts/access/Ownable.sol\":955:967  _msgSender() */\n  tag_13\n    /* \"@openzeppelin/contracts/access/Ownable.sol\":955:965  _msgSender */\n  shl(0x20, tag_14)\n    /* \"@openzeppelin/contracts/access/Ownable.sol\":955:967  _msgSender() */\n  0x20\n  shr\n  jump\t// in\ntag_13:\n    /* \"@openzeppelin/contracts/access/Ownable.sol\":936:954  _transferOwnership */\n  shl(0x20, tag_15)\n    /* \"@openzeppelin/contracts/access/Ownable.sol\":936:968  _transferOwnership(_msgSender()) */\n  0x20\n  shr\n  jump\t// in\ntag_12:\n    /* \"study/token-airdrop/contracts/token/ERC20.sol\":319:345  setController(_controller) */\n  tag_17\n    /* \"study/token-airdrop/contracts/token/ERC20.sol\":333:344  _controller */\n  dup4\n    /* \"study/token-airdrop/contracts/token/ERC20.sol\":319:332  setController */\n  shl(0x20, tag_18)\n    /* \"study/token-airdrop/contracts/token/ERC20.sol\":319:345  setController(_controller) */\n  0x20\n  shr\n  jump\t// in\ntag_17:\n    /* \"study/token-airdrop/contracts/token/ERC20.sol\":213:353  constructor(address _controller, string memory name, string memory symbol) ERC20(name, symbol) {\r... */\n  pop\n  pop\n  pop\n    /* \"study/token-airdrop/contracts/token/ERC20.sol\":173:983  contract Token is ERC20, Ownable {\r... */\n  jump(tag_19)\n    /* \"@openzeppelin/contracts/utils/Context.sol\":640:736  function _msgSender() internal view virtual returns (address) {... */\ntag_14:\n    /* \"@openzeppelin/contracts/utils/Context.sol\":693:700  address */\n  0x00\n    /* \"@openzeppelin/contracts/utils/Context.sol\":719:729  msg.sender */\n  caller\n    /* \"@openzeppelin/contracts/utils/Context.sol\":712:729  return msg.sender */\n  swap1\n  pop\n    /* \"@openzeppelin/contracts/utils/Context.sol\":640:736  function _msgSender() internal view virtual returns (address) {... */\n  swap1\n  jump\t// out\n    /* \"@openzeppelin/contracts/access/Ownable.sol\":2433:2620  function _transferOwnership(address newOwner) internal virtual {... */\ntag_15:\n    /* \"@openzeppelin/contracts/access/Ownable.sol\":2506:2522  address oldOwner */\n  0x00\n    /* \"@openzeppelin/contracts/access/Ownable.sol\":2525:2531  _owner */\n  0x05\n  0x00\n  swap1\n  sload\n  swap1\n  0x0100\n  exp\n  swap1\n  div\n  0xffffffffffffffffffffffffffffffffffffffff\n  and\n    /* \"@openzeppelin/contracts/access/Ownable.sol\":2506:2531  address oldOwner = _owner */\n  swap1\n  pop\n    /* \"@openzeppelin/contracts/access/Ownable.sol\":2550:2558  newOwner */\n  dup2\n    /* \"@openzeppelin/contracts/access/Ownable.sol\":2541:2547  _owner */\n  0x05\n  0x00\n    /* \"@openzeppelin/contracts/access/Ownable.sol\":2541:2558  _owner = newOwner */\n  0x0100\n  exp\n  dup2\n  sload\n  dup2\n  0xffffffffffffffffffffffffffffffffffffffff\n  mul\n  not\n  and\n  swap1\n  dup4\n  0xffffffffffffffffffffffffffffffffffffffff\n  and\n  mul\n  or\n  swap1\n  sstore\n  pop\n    /* \"@openzeppelin/contracts/access/Ownable.sol\":2604:2612  newOwner */\n  dup2\n    /* \"@openzeppelin/contracts/access/Ownable.sol\":2573:2613  OwnershipTransferred(oldOwner, newOwner) */\n  0xffffffffffffffffffffffffffffffffffffffff\n  and\n    /* \"@openzeppelin/contracts/access/Ownable.sol\":2594:2602  oldOwner */\n  dup2\n    /* \"@openzeppelin/contracts/access/Ownable.sol\":2573:2613  OwnershipTransferred(oldOwner, newOwner) */\n  0xffffffffffffffffffffffffffffffffffffffff\n  and\n  0x8be0079c531659141344cd1fd0a4f28419497f9722a3daafe3b4186f6b6457e0\n  mload(0x40)\n  mload(0x40)\n  dup1\n  swap2\n  sub\n  swap1\n  log3\n    /* \"@openzeppelin/contracts/access/Ownable.sol\":2496:2620  {... */\n  pop\n    /* \"@openzeppelin/contracts/access/Ownable.sol\":2433:2620  function _transferOwnership(address newOwner) internal virtual {... */\n  pop\n  jump\t// out\n    /* \"study/token-airdrop/contracts/token/ERC20.sol\":395:499  function setController(address _controller) public onlyOwner {\r... */\ntag_18:\n    /* \"@openzeppelin/contracts/access/Ownable.sol\":1094:1107  _checkOwner() */\n  tag_23\n    /* \"@openzeppelin/contracts/access/Ownable.sol\":1094:1105  _checkOwner */\n  shl(0x20, tag_24)\n    /* \"@openzeppelin/contracts/access/Ownable.sol\":1094:1107  _checkOwner() */\n  0x20\n  shr\n  jump\t// in\ntag_23:\n    /* \"study/token-airdrop/contracts/token/ERC20.sol\":480:491  _controller */\n  dup1\n    /* \"study/token-airdrop/contracts/token/ERC20.sol\":467:477  controller */\n  0x06\n  0x00\n    /* \"study/token-airdrop/contracts/token/ERC20.sol\":467:491  controller = _controller */\n  0x0100\n  exp\n  dup2\n  sload\n  dup2\n  0xffffffffffffffffffffffffffffffffffffffff\n  mul\n  not\n  and\n  swap1\n  dup4\n  0xffffffffffffffffffffffffffffffffffffffff\n  and\n  mul\n  or\n  swap1\n  sstore\n  pop\n    /* \"study/token-airdrop/contracts/token/ERC20.sol\":395:499  function setController(address _controller) public onlyOwner {\r... */\n  pop\n  jump\t// out\n    /* \"@openzeppelin/contracts/access/Ownable.sol\":1359:1489  function _checkOwner() internal view virtual {... */\ntag_24:\n    /* \"@openzeppelin/contracts/access/Ownable.sol\":1433:1445  _msgSender() */\n  tag_27\n    /* \"@openzeppelin/contracts/access/Ownable.sol\":1433:1443  _msgSender */\n  shl(0x20, tag_14)\n    /* \"@openzeppelin/contracts/access/Ownable.sol\":1433:1445  _msgSender() */\n  0x20\n  shr\n  jump\t// in\ntag_27:\n    /* \"@openzeppelin/contracts/access/Ownable.sol\":1422:1445  owner() == _msgSender() */\n  0xffffffffffffffffffffffffffffffffffffffff\n  and\n    /* \"@openzeppelin/contracts/access/Ownable.sol\":1422:1429  owner() */\n  tag_28\n    /* \"@openzeppelin/contracts/access/Ownable.sol\":1422:1427  owner */\n  shl(0x20, tag_29)\n    /* \"@openzeppelin/contracts/access/Ownable.sol\":1422:1429  owner() */\n  0x20\n  shr\n  jump\t// in\ntag_28:\n    /* \"@openzeppelin/contracts/access/Ownable.sol\":1422:1445  owner() == _msgSender() */\n  0xffffffffffffffffffffffffffffffffffffffff\n  and\n  eq\n    /* \"@openzeppelin/contracts/access/Ownable.sol\":1414:1482  require(owner() == _msgSender(), \"Ownable: caller is not the owner\") */\n  tag_30\n  jumpi\n  mload(0x40)\n  0x08c379a000000000000000000000000000000000000000000000000000000000\n  dup2\n  mstore\n  0x04\n  add\n  tag_31\n  swap1\n  tag_32\n  jump\t// in\ntag_31:\n  mload(0x40)\n  dup1\n  swap2\n  sub\n  swap1\n  revert\ntag_30:\n    /* \"@openzeppelin/contracts/access/Ownable.sol\":1359:1489  function _checkOwner() internal view virtual {... */\n  jump\t// out\n    /* \"@openzeppelin/contracts/access/Ownable.sol\":1201:1286  function owner() public view virtual returns (address) {... */\ntag_29:\n    /* \"@openzeppelin/contracts/access/Ownable.sol\":1247:1254  address */\n  0x00\n    /* \"@openzeppelin/contracts/access/Ownable.sol\":1273:1279  _owner */\n  0x05\n  0x00\n  swap1\n  sload\n  swap1\n  0x0100\n  exp\n  swap1\n  div\n  0xffffffffffffffffffffffffffffffffffffffff\n  and\n    /* \"@openzeppelin/contracts/access/Ownable.sol\":1266:1279  return _owner */\n  swap1\n  pop\n    /* \"@openzeppelin/contracts/access/Ownable.sol\":1201:1286  function owner() public view virtual returns (address) {... */\n  swap1\n  jump\t// out\n    /* \"study/token-airdrop/contracts/token/ERC20.sol\":173:983  contract Token is ERC20, Ownable {\r... */\ntag_9:\n  dup3\n  dup1\n  sload\n  tag_34\n  swap1\n  tag_35\n  jump\t// in\ntag_34:\n  swap1\n  0x00\n  mstore\n  keccak256(0x00, 0x20)\n  swap1\n  0x1f\n  add\n  0x20\n  swap1\n  div\n  dup2\n  add\n  swap3\n  dup3\n  tag_37\n  jumpi\n  0x00\n  dup6\n  sstore\n  jump(tag_36)\ntag_37:\n  dup3\n  0x1f\n  lt\n  tag_38\n  jumpi\n  dup1\n  mload\n  not(0xff)\n  and\n  dup4\n  dup1\n  add\n  or\n  dup6\n  sstore\n  jump(tag_36)\ntag_38:\n  dup3\n  dup1\n  add\n  0x01\n  add\n  dup6\n  sstore\n  dup3\n  iszero\n  tag_36\n  jumpi\n  swap2\n  dup3\n  add\ntag_39:\n  dup3\n  dup2\n  gt\n  iszero\n  tag_40\n  jumpi\n  dup3\n  mload\n  dup3\n  sstore\n  swap2\n  0x20\n  add\n  swap2\n  swap1\n  0x01\n  add\n  swap1\n  jump(tag_39)\ntag_40:\ntag_36:\n  pop\n  swap1\n  pop\n  tag_41\n  swap2\n  swap1\n  tag_42\n  jump\t// in\ntag_41:\n  pop\n  swap1\n  jump\t// out\ntag_42:\ntag_43:\n  dup1\n  dup3\n  gt\n  iszero\n  tag_44\n  jumpi\n  0x00\n  dup2\n  0x00\n  swap1\n  sstore\n  pop\n  0x01\n  add\n  jump(tag_43)\ntag_44:\n  pop\n  swap1\n  jump\t// out\n    /* \"#utility.yul\":7:428   */\ntag_46:\n    /* \"#utility.yul\":96:101   */\n  0x00\n    /* \"#utility.yul\":121:187   */\n  tag_48\n    /* \"#utility.yul\":137:186   */\n  tag_49\n    /* \"#utility.yul\":179:185   */\n  dup5\n    /* \"#utility.yul\":137:186   */\n  tag_50\n  jump\t// in\ntag_49:\n    /* \"#utility.yul\":121:187   */\n  tag_51\n  jump\t// in\ntag_48:\n    /* \"#utility.yul\":112:187   */\n  swap1\n  pop\n    /* \"#utility.yul\":210:216   */\n  dup3\n    /* \"#utility.yul\":203:208   */\n  dup2\n    /* \"#utility.yul\":196:217   */\n  mstore\n    /* \"#utility.yul\":248:252   */\n  0x20\n    /* \"#utility.yul\":241:246   */\n  dup2\n    /* \"#utility.yul\":237:253   */\n  add\n    /* \"#utility.yul\":286:289   */\n  dup5\n    /* \"#utility.yul\":277:283   */\n  dup5\n    /* \"#utility.yul\":272:275   */\n  dup5\n    /* \"#utility.yul\":268:284   */\n  add\n    /* \"#utility.yul\":265:290   */\n  gt\n    /* \"#utility.yul\":262:374   */\n  iszero\n  tag_52\n  jumpi\n    /* \"#utility.yul\":293:372   */\n  tag_53\n  tag_54\n  jump\t// in\ntag_53:\n    /* \"#utility.yul\":262:374   */\ntag_52:\n    /* \"#utility.yul\":383:422   */\n  tag_55\n    /* \"#utility.yul\":415:421   */\n  dup5\n    /* \"#utility.yul\":410:413   */\n  dup3\n    /* \"#utility.yul\":405:408   */\n  dup6\n    /* \"#utility.yul\":383:422   */\n  tag_56\n  jump\t// in\ntag_55:\n    /* \"#utility.yul\":102:428   */\n  pop\n    /* \"#utility.yul\":7:428   */\n  swap4\n  swap3\n  pop\n  pop\n  pop\n  jump\t// out\n    /* \"#utility.yul\":434:577   */\ntag_57:\n    /* \"#utility.yul\":491:496   */\n  0x00\n    /* \"#utility.yul\":522:528   */\n  dup2\n    /* \"#utility.yul\":516:529   */\n  mload\n    /* \"#utility.yul\":507:529   */\n  swap1\n  pop\n    /* \"#utility.yul\":538:571   */\n  tag_59\n    /* \"#utility.yul\":565:570   */\n  dup2\n    /* \"#utility.yul\":538:571   */\n  tag_60\n  jump\t// in\ntag_59:\n    /* \"#utility.yul\":434:577   */\n  swap3\n  swap2\n  pop\n  pop\n  jump\t// out\n    /* \"#utility.yul\":597:952   */\ntag_61:\n    /* \"#utility.yul\":664:669   */\n  0x00\n    /* \"#utility.yul\":713:716   */\n  dup3\n    /* \"#utility.yul\":706:710   */\n  0x1f\n    /* \"#utility.yul\":698:704   */\n  dup4\n    /* \"#utility.yul\":694:711   */\n  add\n    /* \"#utility.yul\":690:717   */\n  slt\n    /* \"#utility.yul\":680:802   */\n  tag_63\n  jumpi\n    /* \"#utility.yul\":721:800   */\n  tag_64\n  tag_65\n  jump\t// in\ntag_64:\n    /* \"#utility.yul\":680:802   */\ntag_63:\n    /* \"#utility.yul\":831:837   */\n  dup2\n    /* \"#utility.yul\":825:838   */\n  mload\n    /* \"#utility.yul\":856:946   */\n  tag_66\n    /* \"#utility.yul\":942:945   */\n  dup5\n    /* \"#utility.yul\":934:940   */\n  dup3\n    /* \"#utility.yul\":927:931   */\n  0x20\n    /* \"#utility.yul\":919:925   */\n  dup7\n    /* \"#utility.yul\":915:932   */\n  add\n    /* \"#utility.yul\":856:946   */\n  tag_46\n  jump\t// in\ntag_66:\n    /* \"#utility.yul\":847:946   */\n  swap2\n  pop\n    /* \"#utility.yul\":670:952   */\n  pop\n    /* \"#utility.yul\":597:952   */\n  swap3\n  swap2\n  pop\n  pop\n  jump\t// out\n    /* \"#utility.yul\":958:1967   */\ntag_3:\n    /* \"#utility.yul\":1066:1072   */\n  0x00\n    /* \"#utility.yul\":1074:1080   */\n  dup1\n    /* \"#utility.yul\":1082:1088   */\n  0x00\n    /* \"#utility.yul\":1131:1133   */\n  0x60\n    /* \"#utility.yul\":1119:1128   */\n  dup5\n    /* \"#utility.yul\":1110:1117   */\n  dup7\n    /* \"#utility.yul\":1106:1129   */\n  sub\n    /* \"#utility.yul\":1102:1134   */\n  slt\n    /* \"#utility.yul\":1099:1218   */\n  iszero\n  tag_68\n  jumpi\n    /* \"#utility.yul\":1137:1216   */\n  tag_69\n  tag_70\n  jump\t// in\ntag_69:\n    /* \"#utility.yul\":1099:1218   */\ntag_68:\n    /* \"#utility.yul\":1257:1258   */\n  0x00\n    /* \"#utility.yul\":1282:1346   */\n  tag_71\n    /* \"#utility.yul\":1338:1345   */\n  dup7\n    /* \"#utility.yul\":1329:1335   */\n  dup3\n    /* \"#utility.yul\":1318:1327   */\n  dup8\n    /* \"#utility.yul\":1314:1336   */\n  add\n    /* \"#utility.yul\":1282:1346   */\n  tag_57\n  jump\t// in\ntag_71:\n    /* \"#utility.yul\":1272:1346   */\n  swap4\n  pop\n    /* \"#utility.yul\":1228:1356   */\n  pop\n    /* \"#utility.yul\":1416:1418   */\n  0x20\n    /* \"#utility.yul\":1405:1414   */\n  dup5\n    /* \"#utility.yul\":1401:1419   */\n  add\n    /* \"#utility.yul\":1395:1420   */\n  mload\n    /* \"#utility.yul\":1447:1465   */\n  0xffffffffffffffff\n    /* \"#utility.yul\":1439:1445   */\n  dup2\n    /* \"#utility.yul\":1436:1466   */\n  gt\n    /* \"#utility.yul\":1433:1550   */\n  iszero\n  tag_72\n  jumpi\n    /* \"#utility.yul\":1469:1548   */\n  tag_73\n  tag_74\n  jump\t// in\ntag_73:\n    /* \"#utility.yul\":1433:1550   */\ntag_72:\n    /* \"#utility.yul\":1574:1648   */\n  tag_75\n    /* \"#utility.yul\":1640:1647   */\n  dup7\n    /* \"#utility.yul\":1631:1637   */\n  dup3\n    /* \"#utility.yul\":1620:1629   */\n  dup8\n    /* \"#utility.yul\":1616:1638   */\n  add\n    /* \"#utility.yul\":1574:1648   */\n  tag_61\n  jump\t// in\ntag_75:\n    /* \"#utility.yul\":1564:1648   */\n  swap3\n  pop\n    /* \"#utility.yul\":1366:1658   */\n  pop\n    /* \"#utility.yul\":1718:1720   */\n  0x40\n    /* \"#utility.yul\":1707:1716   */\n  dup5\n    /* \"#utility.yul\":1703:1721   */\n  add\n    /* \"#utility.yul\":1697:1722   */\n  mload\n    /* \"#utility.yul\":1749:1767   */\n  0xffffffffffffffff\n    /* \"#utility.yul\":1741:1747   */\n  dup2\n    /* \"#utility.yul\":1738:1768   */\n  gt\n    /* \"#utility.yul\":1735:1852   */\n  iszero\n  tag_76\n  jumpi\n    /* \"#utility.yul\":1771:1850   */\n  tag_77\n  tag_74\n  jump\t// in\ntag_77:\n    /* \"#utility.yul\":1735:1852   */\ntag_76:\n    /* \"#utility.yul\":1876:1950   */\n  tag_78\n    /* \"#utility.yul\":1942:1949   */\n  dup7\n    /* \"#utility.yul\":1933:1939   */\n  dup3\n    /* \"#utility.yul\":1922:1931   */\n  dup8\n    /* \"#utility.yul\":1918:1940   */\n  add\n    /* \"#utility.yul\":1876:1950   */\n  tag_61\n  jump\t// in\ntag_78:\n    /* \"#utility.yul\":1866:1950   */\n  swap2\n  pop\n    /* \"#utility.yul\":1668:1960   */\n  pop\n    /* \"#utility.yul\":958:1967   */\n  swap3\n  pop\n  swap3\n  pop\n  swap3\n  jump\t// out\n    /* \"#utility.yul\":1973:2339   */\ntag_79:\n    /* \"#utility.yul\":2115:2118   */\n  0x00\n    /* \"#utility.yul\":2136:2203   */\n  tag_81\n    /* \"#utility.yul\":2200:2202   */\n  0x20\n    /* \"#utility.yul\":2195:2198   */\n  dup4\n    /* \"#utility.yul\":2136:2203   */\n  tag_82\n  jump\t// in\ntag_81:\n    /* \"#utility.yul\":2129:2203   */\n  swap2\n  pop\n    /* \"#utility.yul\":2212:2305   */\n  tag_83\n    /* \"#utility.yul\":2301:2304   */\n  dup3\n    /* \"#utility.yul\":2212:2305   */\n  tag_84\n  jump\t// in\ntag_83:\n    /* \"#utility.yul\":2330:2332   */\n  0x20\n    /* \"#utility.yul\":2325:2328   */\n  dup3\n    /* \"#utility.yul\":2321:2333   */\n  add\n    /* \"#utility.yul\":2314:2333   */\n  swap1\n  pop\n    /* \"#utility.yul\":1973:2339   */\n  swap2\n  swap1\n  pop\n  jump\t// out\n    /* \"#utility.yul\":2345:2764   */\ntag_32:\n    /* \"#utility.yul\":2511:2515   */\n  0x00\n    /* \"#utility.yul\":2549:2551   */\n  0x20\n    /* \"#utility.yul\":2538:2547   */\n  dup3\n    /* \"#utility.yul\":2534:2552   */\n  add\n    /* \"#utility.yul\":2526:2552   */\n  swap1\n  pop\n    /* \"#utility.yul\":2598:2607   */\n  dup2\n    /* \"#utility.yul\":2592:2596   */\n  dup2\n    /* \"#utility.yul\":2588:2608   */\n  sub\n    /* \"#utility.yul\":2584:2585   */\n  0x00\n    /* \"#utility.yul\":2573:2582   */\n  dup4\n    /* \"#utility.yul\":2569:2586   */\n  add\n    /* \"#utility.yul\":2562:2609   */\n  mstore\n    /* \"#utility.yul\":2626:2757   */\n  tag_86\n    /* \"#utility.yul\":2752:2756   */\n  dup2\n    /* \"#utility.yul\":2626:2757   */\n  tag_79\n  jump\t// in\ntag_86:\n    /* \"#utility.yul\":2618:2757   */\n  swap1\n  pop\n    /* \"#utility.yul\":2345:2764   */\n  swap2\n  swap1\n  pop\n  jump\t// out\n    /* \"#utility.yul\":2770:2899   */\ntag_51:\n    /* \"#utility.yul\":2804:2810   */\n  0x00\n    /* \"#utility.yul\":2831:2851   */\n  tag_88\n  tag_89\n  jump\t// in\ntag_88:\n    /* \"#utility.yul\":2821:2851   */\n  swap1\n  pop\n    /* \"#utility.yul\":2860:2893   */\n  tag_90\n    /* \"#utility.yul\":2888:2892   */\n  dup3\n    /* \"#utility.yul\":2880:2886   */\n  dup3\n    /* \"#utility.yul\":2860:2893   */\n  tag_91\n  jump\t// in\ntag_90:\n    /* \"#utility.yul\":2770:2899   */\n  swap2\n  swap1\n  pop\n  jump\t// out\n    /* \"#utility.yul\":2905:2980   */\ntag_89:\n    /* \"#utility.yul\":2938:2944   */\n  0x00\n    /* \"#utility.yul\":2971:2973   */\n  0x40\n    /* \"#utility.yul\":2965:2974   */\n  mload\n    /* \"#utility.yul\":2955:2974   */\n  swap1\n  pop\n    /* \"#utility.yul\":2905:2980   */\n  swap1\n  jump\t// out\n    /* \"#utility.yul\":2986:3294   */\ntag_50:\n    /* \"#utility.yul\":3048:3052   */\n  0x00\n    /* \"#utility.yul\":3138:3156   */\n  0xffffffffffffffff\n    /* \"#utility.yul\":3130:3136   */\n  dup3\n    /* \"#utility.yul\":3127:3157   */\n  gt\n    /* \"#utility.yul\":3124:3180   */\n  iszero\n  tag_94\n  jumpi\n    /* \"#utility.yul\":3160:3178   */\n  tag_95\n  tag_96\n  jump\t// in\ntag_95:\n    /* \"#utility.yul\":3124:3180   */\ntag_94:\n    /* \"#utility.yul\":3198:3227   */\n  tag_97\n    /* \"#utility.yul\":3220:3226   */\n  dup3\n    /* \"#utility.yul\":3198:3227   */\n  tag_98\n  jump\t// in\ntag_97:\n    /* \"#utility.yul\":3190:3227   */\n  swap1\n  pop\n    /* \"#utility.yul\":3282:3286   */\n  0x20\n    /* \"#utility.yul\":3276:3280   */\n  dup2\n    /* \"#utility.yul\":3272:3287   */\n  add\n    /* \"#utility.yul\":3264:3287   */\n  swap1\n  pop\n    /* \"#utility.yul\":2986:3294   */\n  swap2\n  swap1\n  pop\n  jump\t// out\n    /* \"#utility.yul\":3300:3469   */\ntag_82:\n    /* \"#utility.yul\":3384:3395   */\n  0x00\n    /* \"#utility.yul\":3418:3424   */\n  dup3\n    /* \"#utility.yul\":3413:3416   */\n  dup3\n    /* \"#utility.yul\":3406:3425   */\n  mstore\n    /* \"#utility.yul\":3458:3462   */\n  0x20\n    /* \"#utility.yul\":3453:3456   */\n  dup3\n    /* \"#utility.yul\":3449:3463   */\n  add\n    /* \"#utility.yul\":3434:3463   */\n  swap1\n  pop\n    /* \"#utility.yul\":3300:3469   */\n  swap3\n  swap2\n  pop\n  pop\n  jump\t// out\n    /* \"#utility.yul\":3475:3571   */\ntag_100:\n    /* \"#utility.yul\":3512:3519   */\n  0x00\n    /* \"#utility.yul\":3541:3565   */\n  tag_102\n    /* \"#utility.yul\":3559:3564   */\n  dup3\n    /* \"#utility.yul\":3541:3565   */\n  tag_103\n  jump\t// in\ntag_102:\n    /* \"#utility.yul\":3530:3565   */\n  swap1\n  pop\n    /* \"#utility.yul\":3475:3571   */\n  swap2\n  swap1\n  pop\n  jump\t// out\n    /* \"#utility.yul\":3577:3703   */\ntag_103:\n    /* \"#utility.yul\":3614:3621   */\n  0x00\n    /* \"#utility.yul\":3654:3696   */\n  0xffffffffffffffffffffffffffffffffffffffff\n    /* \"#utility.yul\":3647:3652   */\n  dup3\n    /* \"#utility.yul\":3643:3697   */\n  and\n    /* \"#utility.yul\":3632:3697   */\n  swap1\n  pop\n    /* \"#utility.yul\":3577:3703   */\n  swap2\n  swap1\n  pop\n  jump\t// out\n    /* \"#utility.yul\":3709:4016   */\ntag_56:\n    /* \"#utility.yul\":3777:3778   */\n  0x00\n    /* \"#utility.yul\":3787:3900   */\ntag_106:\n    /* \"#utility.yul\":3801:3807   */\n  dup4\n    /* \"#utility.yul\":3798:3799   */\n  dup2\n    /* \"#utility.yul\":3795:3808   */\n  lt\n    /* \"#utility.yul\":3787:3900   */\n  iszero\n  tag_108\n  jumpi\n    /* \"#utility.yul\":3886:3887   */\n  dup1\n    /* \"#utility.yul\":3881:3884   */\n  dup3\n    /* \"#utility.yul\":3877:3888   */\n  add\n    /* \"#utility.yul\":3871:3889   */\n  mload\n    /* \"#utility.yul\":3867:3868   */\n  dup2\n    /* \"#utility.yul\":3862:3865   */\n  dup5\n    /* \"#utility.yul\":3858:3869   */\n  add\n    /* \"#utility.yul\":3851:3890   */\n  mstore\n    /* \"#utility.yul\":3823:3825   */\n  0x20\n    /* \"#utility.yul\":3820:3821   */\n  dup2\n    /* \"#utility.yul\":3816:3826   */\n  add\n    /* \"#utility.yul\":3811:3826   */\n  swap1\n  pop\n    /* \"#utility.yul\":3787:3900   */\n  jump(tag_106)\ntag_108:\n    /* \"#utility.yul\":3918:3924   */\n  dup4\n    /* \"#utility.yul\":3915:3916   */\n  dup2\n    /* \"#utility.yul\":3912:3925   */\n  gt\n    /* \"#utility.yul\":3909:4010   */\n  iszero\n  tag_109\n  jumpi\n    /* \"#utility.yul\":3998:3999   */\n  0x00\n    /* \"#utility.yul\":3989:3995   */\n  dup5\n    /* \"#utility.yul\":3984:3987   */\n  dup5\n    /* \"#utility.yul\":3980:3996   */\n  add\n    /* \"#utility.yul\":3973:4000   */\n  mstore\n    /* \"#utility.yul\":3909:4010   */\ntag_109:\n    /* \"#utility.yul\":3758:4016   */\n  pop\n    /* \"#utility.yul\":3709:4016   */\n  pop\n  pop\n  pop\n  jump\t// out\n    /* \"#utility.yul\":4022:4342   */\ntag_35:\n    /* \"#utility.yul\":4066:4072   */\n  0x00\n    /* \"#utility.yul\":4103:4104   */\n  0x02\n    /* \"#utility.yul\":4097:4101   */\n  dup3\n    /* \"#utility.yul\":4093:4105   */\n  div\n    /* \"#utility.yul\":4083:4105   */\n  swap1\n  pop\n    /* \"#utility.yul\":4150:4151   */\n  0x01\n    /* \"#utility.yul\":4144:4148   */\n  dup3\n    /* \"#utility.yul\":4140:4152   */\n  and\n    /* \"#utility.yul\":4171:4189   */\n  dup1\n    /* \"#utility.yul\":4161:4242   */\n  tag_111\n  jumpi\n    /* \"#utility.yul\":4227:4231   */\n  0x7f\n    /* \"#utility.yul\":4219:4225   */\n  dup3\n    /* \"#utility.yul\":4215:4232   */\n  and\n    /* \"#utility.yul\":4205:4232   */\n  swap2\n  pop\n    /* \"#utility.yul\":4161:4242   */\ntag_111:\n    /* \"#utility.yul\":4289:4291   */\n  0x20\n    /* \"#utility.yul\":4281:4287   */\n  dup3\n    /* \"#utility.yul\":4278:4292   */\n  lt\n    /* \"#utility.yul\":4258:4276   */\n  dup2\n    /* \"#utility.yul\":4255:4293   */\n  eq\n    /* \"#utility.yul\":4252:4336   */\n  iszero\n  tag_112\n  jumpi\n    /* \"#utility.yul\":4308:4326   */\n  tag_113\n  tag_114\n  jump\t// in\ntag_113:\n    /* \"#utility.yul\":4252:4336   */\ntag_112:\n    /* \"#utility.yul\":4073:4342   */\n  pop\n    /* \"#utility.yul\":4022:4342   */\n  swap2\n  swap1\n  pop\n  jump\t// out\n    /* \"#utility.yul\":4348:4629   */\ntag_91:\n    /* \"#utility.yul\":4431:4458   */\n  tag_116\n    /* \"#utility.yul\":4453:4457   */\n  dup3\n    /* \"#utility.yul\":4431:4458   */\n  tag_98\n  jump\t// in\ntag_116:\n    /* \"#utility.yul\":4423:4429   */\n  dup2\n    /* \"#utility.yul\":4419:4459   */\n  add\n    /* \"#utility.yul\":4561:4567   */\n  dup2\n    /* \"#utility.yul\":4549:4559   */\n  dup2\n    /* \"#utility.yul\":4546:4568   */\n  lt\n    /* \"#utility.yul\":4525:4543   */\n  0xffffffffffffffff\n    /* \"#utility.yul\":4513:4523   */\n  dup3\n    /* \"#utility.yul\":4510:4544   */\n  gt\n    /* \"#utility.yul\":4507:4569   */\n  or\n    /* \"#utility.yul\":4504:4592   */\n  iszero\n  tag_117\n  jumpi\n    /* \"#utility.yul\":4572:4590   */\n  tag_118\n  tag_96\n  jump\t// in\ntag_118:\n    /* \"#utility.yul\":4504:4592   */\ntag_117:\n    /* \"#utility.yul\":4612:4622   */\n  dup1\n    /* \"#utility.yul\":4608:4610   */\n  0x40\n    /* \"#utility.yul\":4601:4623   */\n  mstore\n    /* \"#utility.yul\":4391:4629   */\n  pop\n    /* \"#utility.yul\":4348:4629   */\n  pop\n  pop\n  jump\t// out\n    /* \"#utility.yul\":4635:4815   */\ntag_114:\n    /* \"#utility.yul\":4683:4760   */\n  0x4e487b7100000000000000000000000000000000000000000000000000000000\n    /* \"#utility.yul\":4680:4681   */\n  0x00\n    /* \"#utility.yul\":4673:4761   */\n  mstore\n    /* \"#utility.yul\":4780:4784   */\n  0x22\n    /* \"#utility.yul\":4777:4778   */\n  0x04\n    /* \"#utility.yul\":4770:4785   */\n  mstore\n    /* \"#utility.yul\":4804:4808   */\n  0x24\n    /* \"#utility.yul\":4801:4802   */\n  0x00\n    /* \"#utility.yul\":4794:4809   */\n  revert\n    /* \"#utility.yul\":4821:5001   */\ntag_96:\n    /* \"#utility.yul\":4869:4946   */\n  0x4e487b7100000000000000000000000000000000000000000000000000000000\n    /* \"#utility.yul\":4866:4867   */\n  0x00\n    /* \"#utility.yul\":4859:4947   */\n  mstore\n    /* \"#utility.yul\":4966:4970   */\n  0x41\n    /* \"#utility.yul\":4963:4964   */\n  0x04\n    /* \"#utility.yul\":4956:4971   */\n  mstore\n    /* \"#utility.yul\":4990:4994   */\n  0x24\n    /* \"#utility.yul\":4987:4988   */\n  0x00\n    /* \"#utility.yul\":4980:4995   */\n  revert\n    /* \"#utility.yul\":5007:5124   */\ntag_65:\n    /* \"#utility.yul\":5116:5117   */\n  0x00\n    /* \"#utility.yul\":5113:5114   */\n  dup1\n    /* \"#utility.yul\":5106:5118   */\n  revert\n    /* \"#utility.yul\":5130:5247   */\ntag_54:\n    /* \"#utility.yul\":5239:5240   */\n  0x00\n    /* \"#utility.yul\":5236:5237   */\n  dup1\n    /* \"#utility.yul\":5229:5241   */\n  revert\n    /* \"#utility.yul\":5253:5370   */\ntag_74:\n    /* \"#utility.yul\":5362:5363   */\n  0x00\n    /* \"#utility.yul\":5359:5360   */\n  dup1\n    /* \"#utility.yul\":5352:5364   */\n  revert\n    /* \"#utility.yul\":5376:5493   */\ntag_70:\n    /* \"#utility.yul\":5485:5486   */\n  0x00\n    /* \"#utility.yul\":5482:5483   */\n  dup1\n    /* \"#utility.yul\":5475:5487   */\n  revert\n    /* \"#utility.yul\":5499:5601   */\ntag_98:\n    /* \"#utility.yul\":5540:5546   */\n  0x00\n    /* \"#utility.yul\":5591:5593   */\n  0x1f\n    /* \"#utility.yul\":5587:5594   */\n  not\n    /* \"#utility.yul\":5582:5584   */\n  0x1f\n    /* \"#utility.yul\":5575:5580   */\n  dup4\n    /* \"#utility.yul\":5571:5585   */\n  add\n    /* \"#utility.yul\":5567:5595   */\n  and\n    /* \"#utility.yul\":5557:5595   */\n  swap1\n  pop\n    /* \"#utility.yul\":5499:5601   */\n  swap2\n  swap1\n  pop\n  jump\t// out\n    /* \"#utility.yul\":5607:5789   */\ntag_84:\n    /* \"#utility.yul\":5747:5781   */\n  0x4f776e61626c653a2063616c6c6572206973206e6f7420746865206f776e6572\n    /* \"#utility.yul\":5743:5744   */\n  0x00\n    /* \"#utility.yul\":5735:5741   */\n  dup3\n    /* \"#utility.yul\":5731:5745   */\n  add\n    /* \"#utility.yul\":5724:5782   */\n  mstore\n    /* \"#utility.yul\":5607:5789   */\n  pop\n  jump\t// out\n    /* \"#utility.yul\":5795:5917   */\ntag_60:\n    /* \"#utility.yul\":5868:5892   */\n  tag_128\n    /* \"#utility.yul\":5886:5891   */\n  dup2\n    /* \"#utility.yul\":5868:5892   */\n  tag_100\n  jump\t// in\ntag_128:\n    /* \"#utility.yul\":5861:5866   */\n  dup2\n    /* \"#utility.yul\":5858:5893   */\n  eq\n    /* \"#utility.yul\":5848:5911   */\n  tag_129\n  jumpi\n    /* \"#utility.yul\":5907:5908   */\n  0x00\n    /* \"#utility.yul\":5904:5905   */\n  dup1\n    /* \"#utility.yul\":5897:5909   */\n  revert\n    /* \"#utility.yul\":5848:5911   */\ntag_129:\n    /* \"#utility.yul\":5795:5917   */\n  pop\n  jump\t// out\n    /* \"study/token-airdrop/contracts/token/ERC20.sol\":173:983  contract Token is ERC20, Ownable {\r... */\ntag_19:\n  dataSize(sub_0)\n  dup1\n  dataOffset(sub_0)\n  0x00\n  codecopy\n  0x00\n  return\nstop\n\nsub_0: assembly {\n        /* \"study/token-airdrop/contracts/token/ERC20.sol\":173:983  contract Token is ERC20, Ownable {\r... */\n      mstore(0x40, 0x80)\n      callvalue\n      dup1\n      iszero\n      tag_1\n      jumpi\n      0x00\n      dup1\n      revert\n    tag_1:\n      pop\n      jumpi(tag_2, lt(calldatasize, 0x04))\n      shr(0xe0, calldataload(0x00))\n      dup1\n      0x8da5cb5b\n      gt\n      tag_21\n      jumpi\n      dup1\n      0xa457c2d7\n      gt\n      tag_22\n      jumpi\n      dup1\n      0xa457c2d7\n      eq\n      tag_16\n      jumpi\n      dup1\n      0xa9059cbb\n      eq\n      tag_17\n      jumpi\n      dup1\n      0xdd62ed3e\n      eq\n      tag_18\n      jumpi\n      dup1\n      0xf2fde38b\n      eq\n      tag_19\n      jumpi\n      dup1\n      0xf77c4791\n      eq\n      tag_20\n      jumpi\n      jump(tag_2)\n    tag_22:\n      dup1\n      0x8da5cb5b\n      eq\n      tag_12\n      jumpi\n      dup1\n      0x92eefe9b\n      eq\n      tag_13\n      jumpi\n      dup1\n      0x95d89b41\n      eq\n      tag_14\n      jumpi\n      dup1\n      0x9dc29fac\n      eq\n      tag_15\n      jumpi\n      jump(tag_2)\n    tag_21:\n      dup1\n      0x313ce567\n      gt\n      tag_23\n      jumpi\n      dup1\n      0x313ce567\n      eq\n      tag_7\n      jumpi\n      dup1\n      0x39509351\n      eq\n      tag_8\n      jumpi\n      dup1\n      0x40c10f19\n      eq\n      tag_9\n      jumpi\n      dup1\n      0x70a08231\n      eq\n      tag_10\n      jumpi\n      dup1\n      0x715018a6\n      eq\n      tag_11\n      jumpi\n      jump(tag_2)\n    tag_23:\n      dup1\n      0x06fdde03\n      eq\n      tag_3\n      jumpi\n      dup1\n      0x095ea7b3\n      eq\n      tag_4\n      jumpi\n      dup1\n      0x18160ddd\n      eq\n      tag_5\n      jumpi\n      dup1\n      0x23b872dd\n      eq\n      tag_6\n      jumpi\n    tag_2:\n      0x00\n      dup1\n      revert\n        /* \"@openzeppelin/contracts/token/ERC20/ERC20.sol\":2154:2252  function name() public view virtual override returns (string memory) {... */\n    tag_3:\n      tag_24\n      tag_25\n      jump\t// in\n    tag_24:\n      mload(0x40)\n      tag_26\n      swap2\n      swap1\n      tag_27\n      jump\t// in\n    tag_26:\n      mload(0x40)\n      dup1\n      swap2\n      sub\n      swap1\n      return\n        /* \"@openzeppelin/contracts/token/ERC20/ERC20.sol\":4431:4628  function approve(address spender, uint256 amount) public virtual override returns (bool) {... */\n    tag_4:\n      tag_28\n      0x04\n      dup1\n      calldatasize\n      sub\n      dup2\n      add\n      swap1\n      tag_29\n      swap2\n      swap1\n      tag_30\n      jump\t// in\n    tag_29:\n      tag_31\n      jump\t// in\n    tag_28:\n      mload(0x40)\n      tag_32\n      swap2\n      swap1\n      tag_33\n      jump\t// in\n    tag_32:\n      mload(0x40)\n      dup1\n      swap2\n      sub\n      swap1\n      return\n        /* \"@openzeppelin/contracts/token/ERC20/ERC20.sol\":3242:3348  function totalSupply() public view virtual override returns (uint256) {... */\n    tag_5:\n      tag_34\n      tag_35\n      jump\t// in\n    tag_34:\n      mload(0x40)\n      tag_36\n      swap2\n      swap1\n      tag_37\n      jump\t// in\n    tag_36:\n      mload(0x40)\n      dup1\n      swap2\n      sub\n      swap1\n      return\n        /* \"@openzeppelin/contracts/token/ERC20/ERC20.sol\":5190:5476  function transferFrom(... */\n    tag_6:\n      tag_38\n      0x04\n      dup1\n      calldatasize\n      sub\n      dup2\n      add\n      swap1\n      tag_39\n      swap2\n      swap1\n      tag_40\n      jump\t// in\n    tag_39:\n      tag_41\n      jump\t// in\n    tag_38:\n      mload(0x40)\n      tag_42\n      swap2\n      swap1\n      tag_33\n      jump\t// in\n    tag_42:\n      mload(0x40)\n      dup1\n      swap2\n      sub\n      swap1\n      return\n        /* \"@openzeppelin/contracts/token/ERC20/ERC20.sol\":3091:3182  function decimals() public view virtual override returns (uint8) {... */\n    tag_7:\n      tag_43\n      tag_44\n      jump\t// in\n    tag_43:\n      mload(0x40)\n      tag_45\n      swap2\n      swap1\n      tag_46\n      jump\t// in\n    tag_45:\n      mload(0x40)\n      dup1\n      swap2\n      sub\n      swap1\n      return\n        /* \"@openzeppelin/contracts/token/ERC20/ERC20.sol\":5871:6105  function increaseAllowance(address spender, uint256 addedValue) public virtual returns (bool) {... */\n    tag_8:\n      tag_47\n      0x04\n      dup1\n      calldatasize\n      sub\n      dup2\n      add\n      swap1\n      tag_48\n      swap2\n      swap1\n      tag_30\n      jump\t// in\n    tag_48:\n      tag_49\n      jump\t// in\n    tag_47:\n      mload(0x40)\n      tag_50\n      swap2\n      swap1\n      tag_33\n      jump\t// in\n    tag_50:\n      mload(0x40)\n      dup1\n      swap2\n      sub\n      swap1\n      return\n        /* \"study/token-airdrop/contracts/token/ERC20.sol\":764:869  function mint(address _to, uint256 _amount) public onlyControllers {\r... */\n    tag_9:\n      tag_51\n      0x04\n      dup1\n      calldatasize\n      sub\n      dup2\n      add\n      swap1\n      tag_52\n      swap2\n      swap1\n      tag_30\n      jump\t// in\n    tag_52:\n      tag_53\n      jump\t// in\n    tag_51:\n      stop\n        /* \"@openzeppelin/contracts/token/ERC20/ERC20.sol\":3406:3531  function balanceOf(address account) public view virtual override returns (uint256) {... */\n    tag_10:\n      tag_54\n      0x04\n      dup1\n      calldatasize\n      sub\n      dup2\n      add\n      swap1\n      tag_55\n      swap2\n      swap1\n      tag_56\n      jump\t// in\n    tag_55:\n      tag_57\n      jump\t// in\n    tag_54:\n      mload(0x40)\n      tag_58\n      swap2\n      swap1\n      tag_37\n      jump\t// in\n    tag_58:\n      mload(0x40)\n      dup1\n      swap2\n      sub\n      swap1\n      return\n        /* \"@openzeppelin/contracts/access/Ownable.sol\":1831:1932  function renounceOwnership() public virtual onlyOwner {... */\n    tag_11:\n      tag_59\n      tag_60\n      jump\t// in\n    tag_59:\n      stop\n        /* \"@openzeppelin/contracts/access/Ownable.sol\":1201:1286  function owner() public view virtual returns (address) {... */\n    tag_12:\n      tag_61\n      tag_62\n      jump\t// in\n    tag_61:\n      mload(0x40)\n      tag_63\n      swap2\n      swap1\n      tag_64\n      jump\t// in\n    tag_63:\n      mload(0x40)\n      dup1\n      swap2\n      sub\n      swap1\n      return\n        /* \"study/token-airdrop/contracts/token/ERC20.sol\":395:499  function setController(address _controller) public onlyOwner {\r... */\n    tag_13:\n      tag_65\n      0x04\n      dup1\n      calldatasize\n      sub\n      dup2\n      add\n      swap1\n      tag_66\n      swap2\n      swap1\n      tag_56\n      jump\t// in\n    tag_66:\n      tag_67\n      jump\t// in\n    tag_65:\n      stop\n        /* \"@openzeppelin/contracts/token/ERC20/ERC20.sol\":2365:2467  function symbol() public view virtual override returns (string memory) {... */\n    tag_14:\n      tag_68\n      tag_69\n      jump\t// in\n    tag_68:\n      mload(0x40)\n      tag_70\n      swap2\n      swap1\n      tag_27\n      jump\t// in\n    tag_70:\n      mload(0x40)\n      dup1\n      swap2\n      sub\n      swap1\n      return\n        /* \"study/token-airdrop/contracts/token/ERC20.sol\":877:980  function burn(address _from, uint256 _amount) public onlyOwner {\r... */\n    tag_15:\n      tag_71\n      0x04\n      dup1\n      calldatasize\n      sub\n      dup2\n      add\n      swap1\n      tag_72\n      swap2\n      swap1\n      tag_30\n      jump\t// in\n    tag_72:\n      tag_73\n      jump\t// in\n    tag_71:\n      stop\n        /* \"@openzeppelin/contracts/token/ERC20/ERC20.sol\":6592:7019  function decreaseAllowance(address spender, uint256 subtractedValue) public virtual returns (bool) {... */\n    tag_16:\n      tag_74\n      0x04\n      dup1\n      calldatasize\n      sub\n      dup2\n      add\n      swap1\n      tag_75\n      swap2\n      swap1\n      tag_30\n      jump\t// in\n    tag_75:\n      tag_76\n      jump\t// in\n    tag_74:\n      mload(0x40)\n      tag_77\n      swap2\n      swap1\n      tag_33\n      jump\t// in\n    tag_77:\n      mload(0x40)\n      dup1\n      swap2\n      sub\n      swap1\n      return\n        /* \"@openzeppelin/contracts/token/ERC20/ERC20.sol\":3727:3916  function transfer(address to, uint256 amount) public virtual override returns (bool) {... */\n    tag_17:\n      tag_78\n      0x04\n      dup1\n      calldatasize\n      sub\n      dup2\n      add\n      swap1\n      tag_79\n      swap2\n      swap1\n      tag_30\n      jump\t// in\n    tag_79:\n      tag_80\n      jump\t// in\n    tag_78:\n      mload(0x40)\n      tag_81\n      swap2\n      swap1\n      tag_33\n      jump\t// in\n    tag_81:\n      mload(0x40)\n      dup1\n      swap2\n      sub\n      swap1\n      return\n        /* \"@openzeppelin/contracts/token/ERC20/ERC20.sol\":3974:4123  function allowance(address owner, address spender) public view virtual override returns (uint256) {... */\n    tag_18:\n      tag_82\n      0x04\n      dup1\n      calldatasize\n      sub\n      dup2\n      add\n      swap1\n      tag_83\n      swap2\n      swap1\n      tag_84\n      jump\t// in\n    tag_83:\n      tag_85\n      jump\t// in\n    tag_82:\n      mload(0x40)\n      tag_86\n      swap2\n      swap1\n      tag_37\n      jump\t// in\n    tag_86:\n      mload(0x40)\n      dup1\n      swap2\n      sub\n      swap1\n      return\n        /* \"@openzeppelin/contracts/access/Ownable.sol\":2081:2279  function transferOwnership(address newOwner) public virtual onlyOwner {... */\n    tag_19:\n      tag_87\n      0x04\n      dup1\n      calldatasize\n      sub\n      dup2\n      add\n      swap1\n      tag_88\n      swap2\n      swap1\n      tag_56\n      jump\t// in\n    tag_88:\n      tag_89\n      jump\t// in\n    tag_87:\n      stop\n        /* \"study/token-airdrop/contracts/token/ERC20.sol\":361:386  address public controller */\n    tag_20:\n      tag_90\n      tag_91\n      jump\t// in\n    tag_90:\n      mload(0x40)\n      tag_92\n      swap2\n      swap1\n      tag_64\n      jump\t// in\n    tag_92:\n      mload(0x40)\n      dup1\n      swap2\n      sub\n      swap1\n      return\n        /* \"@openzeppelin/contracts/token/ERC20/ERC20.sol\":2154:2252  function name() public view virtual override returns (string memory) {... */\n    tag_25:\n        /* \"@openzeppelin/contracts/token/ERC20/ERC20.sol\":2208:2221  string memory */\n      0x60\n        /* \"@openzeppelin/contracts/token/ERC20/ERC20.sol\":2240:2245  _name */\n      0x03\n        /* \"@openzeppelin/contracts/token/ERC20/ERC20.sol\":2233:2245  return _name */\n      dup1\n      sload\n      tag_94\n      swap1\n      tag_95\n      jump\t// in\n    tag_94:\n      dup1\n      0x1f\n      add\n      0x20\n      dup1\n      swap2\n      div\n      mul\n      0x20\n      add\n      mload(0x40)\n      swap1\n      dup2\n      add\n      0x40\n      mstore\n      dup1\n      swap3\n      swap2\n      swap1\n      dup2\n      dup2\n      mstore\n      0x20\n      add\n      dup3\n      dup1\n      sload\n      tag_96\n      swap1\n      tag_95\n      jump\t// in\n    tag_96:\n      dup1\n      iszero\n      tag_97\n      jumpi\n      dup1\n      0x1f\n      lt\n      tag_98\n      jumpi\n      0x0100\n      dup1\n      dup4\n      sload\n      div\n      mul\n      dup4\n      mstore\n      swap2\n      0x20\n      add\n      swap2\n      jump(tag_97)\n    tag_98:\n      dup3\n      add\n      swap2\n      swap1\n      0x00\n      mstore\n      keccak256(0x00, 0x20)\n      swap1\n    tag_99:\n      dup2\n      sload\n      dup2\n      mstore\n      swap1\n      0x01\n      add\n      swap1\n      0x20\n      add\n      dup1\n      dup4\n      gt\n      tag_99\n      jumpi\n      dup3\n      swap1\n      sub\n      0x1f\n      and\n      dup3\n      add\n      swap2\n    tag_97:\n      pop\n      pop\n      pop\n      pop\n      pop\n      swap1\n      pop\n        /* \"@openzeppelin/contracts/token/ERC20/ERC20.sol\":2154:2252  function name() public view virtual override returns (string memory) {... */\n      swap1\n      jump\t// out\n        /* \"@openzeppelin/contracts/token/ERC20/ERC20.sol\":4431:4628  function approve(address spender, uint256 amount) public virtual override returns (bool) {... */\n    tag_31:\n        /* \"@openzeppelin/contracts/token/ERC20/ERC20.sol\":4514:4518  bool */\n      0x00\n        /* \"@openzeppelin/contracts/token/ERC20/ERC20.sol\":4530:4543  address owner */\n      dup1\n        /* \"@openzeppelin/contracts/token/ERC20/ERC20.sol\":4546:4558  _msgSender() */\n      tag_101\n        /* \"@openzeppelin/contracts/token/ERC20/ERC20.sol\":4546:4556  _msgSender */\n      tag_102\n        /* \"@openzeppelin/contracts/token/ERC20/ERC20.sol\":4546:4558  _msgSender() */\n      jump\t// in\n    tag_101:\n        /* \"@openzeppelin/contracts/token/ERC20/ERC20.sol\":4530:4558  address owner = _msgSender() */\n      swap1\n      pop\n        /* \"@openzeppelin/contracts/token/ERC20/ERC20.sol\":4568:4600  _approve(owner, spender, amount) */\n      tag_103\n        /* \"@openzeppelin/contracts/token/ERC20/ERC20.sol\":4577:4582  owner */\n      dup2\n        /* \"@openzeppelin/contracts/token/ERC20/ERC20.sol\":4584:4591  spender */\n      dup6\n        /* \"@openzeppelin/contracts/token/ERC20/ERC20.sol\":4593:4599  amount */\n      dup6\n        /* \"@openzeppelin/contracts/token/ERC20/ERC20.sol\":4568:4576  _approve */\n      tag_104\n        /* \"@openzeppelin/contracts/token/ERC20/ERC20.sol\":4568:4600  _approve(owner, spender, amount) */\n      jump\t// in\n    tag_103:\n        /* \"@openzeppelin/contracts/token/ERC20/ERC20.sol\":4617:4621  true */\n      0x01\n        /* \"@openzeppelin/contracts/token/ERC20/ERC20.sol\":4610:4621  return true */\n      swap2\n      pop\n      pop\n        /* \"@openzeppelin/contracts/token/ERC20/ERC20.sol\":4431:4628  function approve(address spender, uint256 amount) public virtual override returns (bool) {... */\n      swap3\n      swap2\n      pop\n      pop\n      jump\t// out\n        /* \"@openzeppelin/contracts/token/ERC20/ERC20.sol\":3242:3348  function totalSupply() public view virtual override returns (uint256) {... */\n    tag_35:\n        /* \"@openzeppelin/contracts/token/ERC20/ERC20.sol\":3303:3310  uint256 */\n      0x00\n        /* \"@openzeppelin/contracts/token/ERC20/ERC20.sol\":3329:3341  _totalSupply */\n      sload(0x02)\n        /* \"@openzeppelin/contracts/token/ERC20/ERC20.sol\":3322:3341  return _totalSupply */\n      swap1\n      pop\n        /* \"@openzeppelin/contracts/token/ERC20/ERC20.sol\":3242:3348  function totalSupply() public view virtual override returns (uint256) {... */\n      swap1\n      jump\t// out\n        /* \"@openzeppelin/contracts/token/ERC20/ERC20.sol\":5190:5476  function transferFrom(... */\n    tag_41:\n        /* \"@openzeppelin/contracts/token/ERC20/ERC20.sol\":5317:5321  bool */\n      0x00\n        /* \"@openzeppelin/contracts/token/ERC20/ERC20.sol\":5333:5348  address spender */\n      dup1\n        /* \"@openzeppelin/contracts/token/ERC20/ERC20.sol\":5351:5363  _msgSender() */\n      tag_107\n        /* \"@openzeppelin/contracts/token/ERC20/ERC20.sol\":5351:5361  _msgSender */\n      tag_102\n        /* \"@openzeppelin/contracts/token/ERC20/ERC20.sol\":5351:5363  _msgSender() */\n      jump\t// in\n    tag_107:\n        /* \"@openzeppelin/contracts/token/ERC20/ERC20.sol\":5333:5363  address spender = _msgSender() */\n      swap1\n      pop\n        /* \"@openzeppelin/contracts/token/ERC20/ERC20.sol\":5373:5411  _spendAllowance(from, spender, amount) */\n      tag_108\n        /* \"@openzeppelin/contracts/token/ERC20/ERC20.sol\":5389:5393  from */\n      dup6\n        /* \"@openzeppelin/contracts/token/ERC20/ERC20.sol\":5395:5402  spender */\n      dup3\n        /* \"@openzeppelin/contracts/token/ERC20/ERC20.sol\":5404:5410  amount */\n      dup6\n        /* \"@openzeppelin/contracts/token/ERC20/ERC20.sol\":5373:5388  _spendAllowance */\n      tag_109\n        /* \"@openzeppelin/contracts/token/ERC20/ERC20.sol\":5373:5411  _spendAllowance(from, spender, amount) */\n      jump\t// in\n    tag_108:\n        /* \"@openzeppelin/contracts/token/ERC20/ERC20.sol\":5421:5448  _transfer(from, to, amount) */\n      tag_110\n        /* \"@openzeppelin/contracts/token/ERC20/ERC20.sol\":5431:5435  from */\n      dup6\n        /* \"@openzeppelin/contracts/token/ERC20/ERC20.sol\":5437:5439  to */\n      dup6\n        /* \"@openzeppelin/contracts/token/ERC20/ERC20.sol\":5441:5447  amount */\n      dup6\n        /* \"@openzeppelin/contracts/token/ERC20/ERC20.sol\":5421:5430  _transfer */\n      tag_111\n        /* \"@openzeppelin/contracts/token/ERC20/ERC20.sol\":5421:5448  _transfer(from, to, amount) */\n      jump\t// in\n    tag_110:\n        /* \"@openzeppelin/contracts/token/ERC20/ERC20.sol\":5465:5469  true */\n      0x01\n        /* \"@openzeppelin/contracts/token/ERC20/ERC20.sol\":5458:5469  return true */\n      swap2\n      pop\n      pop\n        /* \"@openzeppelin/contracts/token/ERC20/ERC20.sol\":5190:5476  function transferFrom(... */\n      swap4\n      swap3\n      pop\n      pop\n      pop\n      jump\t// out\n        /* \"@openzeppelin/contracts/token/ERC20/ERC20.sol\":3091:3182  function decimals() public view virtual override returns (uint8) {... */\n    tag_44:\n        /* \"@openzeppelin/contracts/token/ERC20/ERC20.sol\":3149:3154  uint8 */\n      0x00\n        /* \"@openzeppelin/contracts/token/ERC20/ERC20.sol\":3173:3175  18 */\n      0x12\n        /* \"@openzeppelin/contracts/token/ERC20/ERC20.sol\":3166:3175  return 18 */\n      swap1\n      pop\n        /* \"@openzeppelin/contracts/token/ERC20/ERC20.sol\":3091:3182  function decimals() public view virtual override returns (uint8) {... */\n      swap1\n      jump\t// out\n        /* \"@openzeppelin/contracts/token/ERC20/ERC20.sol\":5871:6105  function increaseAllowance(address spender, uint256 addedValue) public virtual returns (bool) {... */\n    tag_49:\n        /* \"@openzeppelin/contracts/token/ERC20/ERC20.sol\":5959:5963  bool */\n      0x00\n        /* \"@openzeppelin/contracts/token/ERC20/ERC20.sol\":5975:5988  address owner */\n      dup1\n        /* \"@openzeppelin/contracts/token/ERC20/ERC20.sol\":5991:6003  _msgSender() */\n      tag_114\n        /* \"@openzeppelin/contracts/token/ERC20/ERC20.sol\":5991:6001  _msgSender */\n      tag_102\n        /* \"@openzeppelin/contracts/token/ERC20/ERC20.sol\":5991:6003  _msgSender() */\n      jump\t// in\n    tag_114:\n        /* \"@openzeppelin/contracts/token/ERC20/ERC20.sol\":5975:6003  address owner = _msgSender() */\n      swap1\n      pop\n        /* \"@openzeppelin/contracts/token/ERC20/ERC20.sol\":6013:6077  _approve(owner, spender, allowance(owner, spender) + addedValue) */\n      tag_115\n        /* \"@openzeppelin/contracts/token/ERC20/ERC20.sol\":6022:6027  owner */\n      dup2\n        /* \"@openzeppelin/contracts/token/ERC20/ERC20.sol\":6029:6036  spender */\n      dup6\n        /* \"@openzeppelin/contracts/token/ERC20/ERC20.sol\":6066:6076  addedValue */\n      dup6\n        /* \"@openzeppelin/contracts/token/ERC20/ERC20.sol\":6038:6063  allowance(owner, spender) */\n      tag_116\n        /* \"@openzeppelin/contracts/token/ERC20/ERC20.sol\":6048:6053  owner */\n      dup6\n        /* \"@openzeppelin/contracts/token/ERC20/ERC20.sol\":6055:6062  spender */\n      dup10\n        /* \"@openzeppelin/contracts/token/ERC20/ERC20.sol\":6038:6047  allowance */\n      tag_85\n        /* \"@openzeppelin/contracts/token/ERC20/ERC20.sol\":6038:6063  allowance(owner, spender) */\n      jump\t// in\n    tag_116:\n        /* \"@openzeppelin/contracts/token/ERC20/ERC20.sol\":6038:6076  allowance(owner, spender) + addedValue */\n      tag_117\n      swap2\n      swap1\n      tag_118\n      jump\t// in\n    tag_117:\n        /* \"@openzeppelin/contracts/token/ERC20/ERC20.sol\":6013:6021  _approve */\n      tag_104\n        /* \"@openzeppelin/contracts/token/ERC20/ERC20.sol\":6013:6077  _approve(owner, spender, allowance(owner, spender) + addedValue) */\n      jump\t// in\n    tag_115:\n        /* \"@openzeppelin/contracts/token/ERC20/ERC20.sol\":6094:6098  true */\n      0x01\n        /* \"@openzeppelin/contracts/token/ERC20/ERC20.sol\":6087:6098  return true */\n      swap2\n      pop\n      pop\n        /* \"@openzeppelin/contracts/token/ERC20/ERC20.sol\":5871:6105  function increaseAllowance(address spender, uint256 addedValue) public virtual returns (bool) {... */\n      swap3\n      swap2\n      pop\n      pop\n      jump\t// out\n        /* \"study/token-airdrop/contracts/token/ERC20.sol\":764:869  function mint(address _to, uint256 _amount) public onlyControllers {\r... */\n    tag_53:\n        /* \"study/token-airdrop/contracts/token/ERC20.sol\":583:593  controller */\n      0x06\n      0x00\n      swap1\n      sload\n      swap1\n      0x0100\n      exp\n      swap1\n      div\n      0xffffffffffffffffffffffffffffffffffffffff\n      and\n        /* \"study/token-airdrop/contracts/token/ERC20.sol\":569:593  msg.sender == controller */\n      0xffffffffffffffffffffffffffffffffffffffff\n      and\n        /* \"study/token-airdrop/contracts/token/ERC20.sol\":569:579  msg.sender */\n      caller\n        /* \"study/token-airdrop/contracts/token/ERC20.sol\":569:593  msg.sender == controller */\n      0xffffffffffffffffffffffffffffffffffffffff\n      and\n      eq\n        /* \"study/token-airdrop/contracts/token/ERC20.sol\":569:635  msg.sender == controller ||\r... */\n      dup1\n      tag_120\n      jumpi\n      pop\n        /* \"study/token-airdrop/contracts/token/ERC20.sol\":628:635  owner() */\n      tag_121\n        /* \"study/token-airdrop/contracts/token/ERC20.sol\":628:633  owner */\n      tag_62\n        /* \"study/token-airdrop/contracts/token/ERC20.sol\":628:635  owner() */\n      jump\t// in\n    tag_121:\n        /* \"study/token-airdrop/contracts/token/ERC20.sol\":614:635  msg.sender == owner() */\n      0xffffffffffffffffffffffffffffffffffffffff\n      and\n        /* \"study/token-airdrop/contracts/token/ERC20.sol\":614:624  msg.sender */\n      caller\n        /* \"study/token-airdrop/contracts/token/ERC20.sol\":614:635  msg.sender == owner() */\n      0xffffffffffffffffffffffffffffffffffffffff\n      and\n      eq\n        /* \"study/token-airdrop/contracts/token/ERC20.sol\":569:635  msg.sender == controller ||\r... */\n    tag_120:\n        /* \"study/token-airdrop/contracts/token/ERC20.sol\":569:683  msg.sender == controller ||\r... */\n      dup1\n      tag_122\n      jumpi\n      pop\n        /* \"study/token-airdrop/contracts/token/ERC20.sol\":678:682  this */\n      address\n        /* \"study/token-airdrop/contracts/token/ERC20.sol\":656:683  msg.sender == address(this) */\n      0xffffffffffffffffffffffffffffffffffffffff\n      and\n        /* \"study/token-airdrop/contracts/token/ERC20.sol\":656:666  msg.sender */\n      caller\n        /* \"study/token-airdrop/contracts/token/ERC20.sol\":656:683  msg.sender == address(this) */\n      0xffffffffffffffffffffffffffffffffffffffff\n      and\n      eq\n        /* \"study/token-airdrop/contracts/token/ERC20.sol\":569:683  msg.sender == controller ||\r... */\n    tag_122:\n        /* \"study/token-airdrop/contracts/token/ERC20.sol\":547:734  require(\r... */\n      tag_123\n      jumpi\n      mload(0x40)\n      0x08c379a000000000000000000000000000000000000000000000000000000000\n      dup2\n      mstore\n      0x04\n      add\n      tag_124\n      swap1\n      tag_125\n      jump\t// in\n    tag_124:\n      mload(0x40)\n      dup1\n      swap2\n      sub\n      swap1\n      revert\n    tag_123:\n        /* \"study/token-airdrop/contracts/token/ERC20.sol\":842:861  _mint(_to, _amount) */\n      tag_127\n        /* \"study/token-airdrop/contracts/token/ERC20.sol\":848:851  _to */\n      dup3\n        /* \"study/token-airdrop/contracts/token/ERC20.sol\":853:860  _amount */\n      dup3\n        /* \"study/token-airdrop/contracts/token/ERC20.sol\":842:847  _mint */\n      tag_128\n        /* \"study/token-airdrop/contracts/token/ERC20.sol\":842:861  _mint(_to, _amount) */\n      jump\t// in\n    tag_127:\n        /* \"study/token-airdrop/contracts/token/ERC20.sol\":764:869  function mint(address _to, uint256 _amount) public onlyControllers {\r... */\n      pop\n      pop\n      jump\t// out\n        /* \"@openzeppelin/contracts/token/ERC20/ERC20.sol\":3406:3531  function balanceOf(address account) public view virtual override returns (uint256) {... */\n    tag_57:\n        /* \"@openzeppelin/contracts/token/ERC20/ERC20.sol\":3480:3487  uint256 */\n      0x00\n        /* \"@openzeppelin/contracts/token/ERC20/ERC20.sol\":3506:3515  _balances */\n      dup1\n        /* \"@openzeppelin/contracts/token/ERC20/ERC20.sol\":3506:3524  _balances[account] */\n      0x00\n        /* \"@openzeppelin/contracts/token/ERC20/ERC20.sol\":3516:3523  account */\n      dup4\n        /* \"@openzeppelin/contracts/token/ERC20/ERC20.sol\":3506:3524  _balances[account] */\n      0xffffffffffffffffffffffffffffffffffffffff\n      and\n      0xffffffffffffffffffffffffffffffffffffffff\n      and\n      dup2\n      mstore\n      0x20\n      add\n      swap1\n      dup2\n      mstore\n      0x20\n      add\n      0x00\n      keccak256\n      sload\n        /* \"@openzeppelin/contracts/token/ERC20/ERC20.sol\":3499:3524  return _balances[account] */\n      swap1\n      pop\n        /* \"@openzeppelin/contracts/token/ERC20/ERC20.sol\":3406:3531  function balanceOf(address account) public view virtual override returns (uint256) {... */\n      swap2\n      swap1\n      pop\n      jump\t// out\n        /* \"@openzeppelin/contracts/access/Ownable.sol\":1831:1932  function renounceOwnership() public virtual onlyOwner {... */\n    tag_60:\n        /* \"@openzeppelin/contracts/access/Ownable.sol\":1094:1107  _checkOwner() */\n      tag_131\n        /* \"@openzeppelin/contracts/access/Ownable.sol\":1094:1105  _checkOwner */\n      tag_132\n        /* \"@openzeppelin/contracts/access/Ownable.sol\":1094:1107  _checkOwner() */\n      jump\t// in\n    tag_131:\n        /* \"@openzeppelin/contracts/access/Ownable.sol\":1895:1925  _transferOwnership(address(0)) */\n      tag_134\n        /* \"@openzeppelin/contracts/access/Ownable.sol\":1922:1923  0 */\n      0x00\n        /* \"@openzeppelin/contracts/access/Ownable.sol\":1895:1913  _transferOwnership */\n      tag_135\n        /* \"@openzeppelin/contracts/access/Ownable.sol\":1895:1925  _transferOwnership(address(0)) */\n      jump\t// in\n    tag_134:\n        /* \"@openzeppelin/contracts/access/Ownable.sol\":1831:1932  function renounceOwnership() public virtual onlyOwner {... */\n      jump\t// out\n        /* \"@openzeppelin/contracts/access/Ownable.sol\":1201:1286  function owner() public view virtual returns (address) {... */\n    tag_62:\n        /* \"@openzeppelin/contracts/access/Ownable.sol\":1247:1254  address */\n      0x00\n        /* \"@openzeppelin/contracts/access/Ownable.sol\":1273:1279  _owner */\n      0x05\n      0x00\n      swap1\n      sload\n      swap1\n      0x0100\n      exp\n      swap1\n      div\n      0xffffffffffffffffffffffffffffffffffffffff\n      and\n        /* \"@openzeppelin/contracts/access/Ownable.sol\":1266:1279  return _owner */\n      swap1\n      pop\n        /* \"@openzeppelin/contracts/access/Ownable.sol\":1201:1286  function owner() public view virtual returns (address) {... */\n      swap1\n      jump\t// out\n        /* \"study/token-airdrop/contracts/token/ERC20.sol\":395:499  function setController(address _controller) public onlyOwner {\r... */\n    tag_67:\n        /* \"@openzeppelin/contracts/access/Ownable.sol\":1094:1107  _checkOwner() */\n      tag_138\n        /* \"@openzeppelin/contracts/access/Ownable.sol\":1094:1105  _checkOwner */\n      tag_132\n        /* \"@openzeppelin/contracts/access/Ownable.sol\":1094:1107  _checkOwner() */\n      jump\t// in\n    tag_138:\n        /* \"study/token-airdrop/contracts/token/ERC20.sol\":480:491  _controller */\n      dup1\n        /* \"study/token-airdrop/contracts/token/ERC20.sol\":467:477  controller */\n      0x06\n      0x00\n        /* \"study/token-airdrop/contracts/token/ERC20.sol\":467:491  controller = _controller */\n      0x0100\n      exp\n      dup2\n      sload\n      dup2\n      0xffffffffffffffffffffffffffffffffffffffff\n      mul\n      not\n      and\n      swap1\n      dup4\n      0xffffffffffffffffffffffffffffffffffffffff\n      and\n      mul\n      or\n      swap1\n      sstore\n      pop\n        /* \"study/token-airdrop/contracts/token/ERC20.sol\":395:499  function setController(address _controller) public onlyOwner {\r... */\n      pop\n      jump\t// out\n        /* \"@openzeppelin/contracts/token/ERC20/ERC20.sol\":2365:2467  function symbol() public view virtual override returns (string memory) {... */\n    tag_69:\n        /* \"@openzeppelin/contracts/token/ERC20/ERC20.sol\":2421:2434  string memory */\n      0x60\n        /* \"@openzeppelin/contracts/token/ERC20/ERC20.sol\":2453:2460  _symbol */\n      0x04\n        /* \"@openzeppelin/contracts/token/ERC20/ERC20.sol\":2446:2460  return _symbol */\n      dup1\n      sload\n      tag_141\n      swap1\n      tag_95\n      jump\t// in\n    tag_141:\n      dup1\n      0x1f\n      add\n      0x20\n      dup1\n      swap2\n      div\n      mul\n      0x20\n      add\n      mload(0x40)\n      swap1\n      dup2\n      add\n      0x40\n      mstore\n      dup1\n      swap3\n      swap2\n      swap1\n      dup2\n      dup2\n      mstore\n      0x20\n      add\n      dup3\n      dup1\n      sload\n      tag_142\n      swap1\n      tag_95\n      jump\t// in\n    tag_142:\n      dup1\n      iszero\n      tag_143\n      jumpi\n      dup1\n      0x1f\n      lt\n      tag_144\n      jumpi\n      0x0100\n      dup1\n      dup4\n      sload\n      div\n      mul\n      dup4\n      mstore\n      swap2\n      0x20\n      add\n      swap2\n      jump(tag_143)\n    tag_144:\n      dup3\n      add\n      swap2\n      swap1\n      0x00\n      mstore\n      keccak256(0x00, 0x20)\n      swap1\n    tag_145:\n      dup2\n      sload\n      dup2\n      mstore\n      swap1\n      0x01\n      add\n      swap1\n      0x20\n      add\n      dup1\n      dup4\n      gt\n      tag_145\n      jumpi\n      dup3\n      swap1\n      sub\n      0x1f\n      and\n      dup3\n      add\n      swap2\n    tag_143:\n      pop\n      pop\n      pop\n      pop\n      pop\n      swap1\n      pop\n        /* \"@openzeppelin/contracts/token/ERC20/ERC20.sol\":2365:2467  function symbol() public view virtual override returns (string memory) {... */\n      swap1\n      jump\t// out\n        /* \"study/token-airdrop/contracts/token/ERC20.sol\":877:980  function burn(address _from, uint256 _amount) public onlyOwner {\r... */\n    tag_73:\n        /* \"@openzeppelin/contracts/access/Ownable.sol\":1094:1107  _checkOwner() */\n      tag_147\n        /* \"@openzeppelin/contracts/access/Ownable.sol\":1094:1105  _checkOwner */\n      tag_132\n        /* \"@openzeppelin/contracts/access/Ownable.sol\":1094:1107  _checkOwner() */\n      jump\t// in\n    tag_147:\n        /* \"study/token-airdrop/contracts/token/ERC20.sol\":951:972  _burn(_from, _amount) */\n      tag_149\n        /* \"study/token-airdrop/contracts/token/ERC20.sol\":957:962  _from */\n      dup3\n        /* \"study/token-airdrop/contracts/token/ERC20.sol\":964:971  _amount */\n      dup3\n        /* \"study/token-airdrop/contracts/token/ERC20.sol\":951:956  _burn */\n      tag_150\n        /* \"study/token-airdrop/contracts/token/ERC20.sol\":951:972  _burn(_from, _amount) */\n      jump\t// in\n    tag_149:\n        /* \"study/token-airdrop/contracts/token/ERC20.sol\":877:980  function burn(address _from, uint256 _amount) public onlyOwner {\r... */\n      pop\n      pop\n      jump\t// out\n        /* \"@openzeppelin/contracts/token/ERC20/ERC20.sol\":6592:7019  function decreaseAllowance(address spender, uint256 subtractedValue) public virtual returns (bool) {... */\n    tag_76:\n        /* \"@openzeppelin/contracts/token/ERC20/ERC20.sol\":6685:6689  bool */\n      0x00\n        /* \"@openzeppelin/contracts/token/ERC20/ERC20.sol\":6701:6714  address owner */\n      dup1\n        /* \"@openzeppelin/contracts/token/ERC20/ERC20.sol\":6717:6729  _msgSender() */\n      tag_152\n        /* \"@openzeppelin/contracts/token/ERC20/ERC20.sol\":6717:6727  _msgSender */\n      tag_102\n        /* \"@openzeppelin/contracts/token/ERC20/ERC20.sol\":6717:6729  _msgSender() */\n      jump\t// in\n    tag_152:\n        /* \"@openzeppelin/contracts/token/ERC20/ERC20.sol\":6701:6729  address owner = _msgSender() */\n      swap1\n      pop\n        /* \"@openzeppelin/contracts/token/ERC20/ERC20.sol\":6739:6763  uint256 currentAllowance */\n      0x00\n        /* \"@openzeppelin/contracts/token/ERC20/ERC20.sol\":6766:6791  allowance(owner, spender) */\n      tag_153\n        /* \"@openzeppelin/contracts/token/ERC20/ERC20.sol\":6776:6781  owner */\n      dup3\n        /* \"@openzeppelin/contracts/token/ERC20/ERC20.sol\":6783:6790  spender */\n      dup7\n        /* \"@openzeppelin/contracts/token/ERC20/ERC20.sol\":6766:6775  allowance */\n      tag_85\n        /* \"@openzeppelin/contracts/token/ERC20/ERC20.sol\":6766:6791  allowance(owner, spender) */\n      jump\t// in\n    tag_153:\n        /* \"@openzeppelin/contracts/token/ERC20/ERC20.sol\":6739:6791  uint256 currentAllowance = allowance(owner, spender) */\n      swap1\n      pop\n        /* \"@openzeppelin/contracts/token/ERC20/ERC20.sol\":6829:6844  subtractedValue */\n      dup4\n        /* \"@openzeppelin/contracts/token/ERC20/ERC20.sol\":6809:6825  currentAllowance */\n      dup2\n        /* \"@openzeppelin/contracts/token/ERC20/ERC20.sol\":6809:6844  currentAllowance >= subtractedValue */\n      lt\n      iszero\n        /* \"@openzeppelin/contracts/token/ERC20/ERC20.sol\":6801:6886  require(currentAllowance >= subtractedValue, \"ERC20: decreased allowance below zero\") */\n      tag_154\n      jumpi\n      mload(0x40)\n      0x08c379a000000000000000000000000000000000000000000000000000000000\n      dup2\n      mstore\n      0x04\n      add\n      tag_155\n      swap1\n      tag_156\n      jump\t// in\n    tag_155:\n      mload(0x40)\n      dup1\n      swap2\n      sub\n      swap1\n      revert\n    tag_154:\n        /* \"@openzeppelin/contracts/token/ERC20/ERC20.sol\":6920:6980  _approve(owner, spender, currentAllowance - subtractedValue) */\n      tag_157\n        /* \"@openzeppelin/contracts/token/ERC20/ERC20.sol\":6929:6934  owner */\n      dup3\n        /* \"@openzeppelin/contracts/token/ERC20/ERC20.sol\":6936:6943  spender */\n      dup7\n        /* \"@openzeppelin/contracts/token/ERC20/ERC20.sol\":6964:6979  subtractedValue */\n      dup7\n        /* \"@openzeppelin/contracts/token/ERC20/ERC20.sol\":6945:6961  currentAllowance */\n      dup5\n        /* \"@openzeppelin/contracts/token/ERC20/ERC20.sol\":6945:6979  currentAllowance - subtractedValue */\n      sub\n        /* \"@openzeppelin/contracts/token/ERC20/ERC20.sol\":6920:6928  _approve */\n      tag_104\n        /* \"@openzeppelin/contracts/token/ERC20/ERC20.sol\":6920:6980  _approve(owner, spender, currentAllowance - subtractedValue) */\n      jump\t// in\n    tag_157:\n        /* \"@openzeppelin/contracts/token/ERC20/ERC20.sol\":7008:7012  true */\n      0x01\n        /* \"@openzeppelin/contracts/token/ERC20/ERC20.sol\":7001:7012  return true */\n      swap3\n      pop\n      pop\n      pop\n        /* \"@openzeppelin/contracts/token/ERC20/ERC20.sol\":6592:7019  function decreaseAllowance(address spender, uint256 subtractedValue) public virtual returns (bool) {... */\n      swap3\n      swap2\n      pop\n      pop\n      jump\t// out\n        /* \"@openzeppelin/contracts/token/ERC20/ERC20.sol\":3727:3916  function transfer(address to, uint256 amount) public virtual override returns (bool) {... */\n    tag_80:\n        /* \"@openzeppelin/contracts/token/ERC20/ERC20.sol\":3806:3810  bool */\n      0x00\n        /* \"@openzeppelin/contracts/token/ERC20/ERC20.sol\":3822:3835  address owner */\n      dup1\n        /* \"@openzeppelin/contracts/token/ERC20/ERC20.sol\":3838:3850  _msgSender() */\n      tag_159\n        /* \"@openzeppelin/contracts/token/ERC20/ERC20.sol\":3838:3848  _msgSender */\n      tag_102\n        /* \"@openzeppelin/contracts/token/ERC20/ERC20.sol\":3838:3850  _msgSender() */\n      jump\t// in\n    tag_159:\n        /* \"@openzeppelin/contracts/token/ERC20/ERC20.sol\":3822:3850  address owner = _msgSender() */\n      swap1\n      pop\n        /* \"@openzeppelin/contracts/token/ERC20/ERC20.sol\":3860:3888  _transfer(owner, to, amount) */\n      tag_160\n        /* \"@openzeppelin/contracts/token/ERC20/ERC20.sol\":3870:3875  owner */\n      dup2\n        /* \"@openzeppelin/contracts/token/ERC20/ERC20.sol\":3877:3879  to */\n      dup6\n        /* \"@openzeppelin/contracts/token/ERC20/ERC20.sol\":3881:3887  amount */\n      dup6\n        /* \"@openzeppelin/contracts/token/ERC20/ERC20.sol\":3860:3869  _transfer */\n      tag_111\n        /* \"@openzeppelin/contracts/token/ERC20/ERC20.sol\":3860:3888  _transfer(owner, to, amount) */\n      jump\t// in\n    tag_160:\n        /* \"@openzeppelin/contracts/token/ERC20/ERC20.sol\":3905:3909  true */\n      0x01\n        /* \"@openzeppelin/contracts/token/ERC20/ERC20.sol\":3898:3909  return true */\n      swap2\n      pop\n      pop\n        /* \"@openzeppelin/contracts/token/ERC20/ERC20.sol\":3727:3916  function transfer(address to, uint256 amount) public virtual override returns (bool) {... */\n      swap3\n      swap2\n      pop\n      pop\n      jump\t// out\n        /* \"@openzeppelin/contracts/token/ERC20/ERC20.sol\":3974:4123  function allowance(address owner, address spender) public view virtual override returns (uint256) {... */\n    tag_85:\n        /* \"@openzeppelin/contracts/token/ERC20/ERC20.sol\":4063:4070  uint256 */\n      0x00\n        /* \"@openzeppelin/contracts/token/ERC20/ERC20.sol\":4089:4100  _allowances */\n      0x01\n        /* \"@openzeppelin/contracts/token/ERC20/ERC20.sol\":4089:4107  _allowances[owner] */\n      0x00\n        /* \"@openzeppelin/contracts/token/ERC20/ERC20.sol\":4101:4106  owner */\n      dup5\n        /* \"@openzeppelin/contracts/token/ERC20/ERC20.sol\":4089:4107  _allowances[owner] */\n      0xffffffffffffffffffffffffffffffffffffffff\n      and\n      0xffffffffffffffffffffffffffffffffffffffff\n      and\n      dup2\n      mstore\n      0x20\n      add\n      swap1\n      dup2\n      mstore\n      0x20\n      add\n      0x00\n      keccak256\n        /* \"@openzeppelin/contracts/token/ERC20/ERC20.sol\":4089:4116  _allowances[owner][spender] */\n      0x00\n        /* \"@openzeppelin/contracts/token/ERC20/ERC20.sol\":4108:4115  spender */\n      dup4\n        /* \"@openzeppelin/contracts/token/ERC20/ERC20.sol\":4089:4116  _allowances[owner][spender] */\n      0xffffffffffffffffffffffffffffffffffffffff\n      and\n      0xffffffffffffffffffffffffffffffffffffffff\n      and\n      dup2\n      mstore\n      0x20\n      add\n      swap1\n      dup2\n      mstore\n      0x20\n      add\n      0x00\n      keccak256\n      sload\n        /* \"@openzeppelin/contracts/token/ERC20/ERC20.sol\":4082:4116  return _allowances[owner][spender] */\n      swap1\n      pop\n        /* \"@openzeppelin/contracts/token/ERC20/ERC20.sol\":3974:4123  function allowance(address owner, address spender) public view virtual override returns (uint256) {... */\n      swap3\n      swap2\n      pop\n      pop\n      jump\t// out\n        /* \"@openzeppelin/contracts/access/Ownable.sol\":2081:2279  function transferOwnership(address newOwner) public virtual onlyOwner {... */\n    tag_89:\n        /* \"@openzeppelin/contracts/access/Ownable.sol\":1094:1107  _checkOwner() */\n      tag_163\n        /* \"@openzeppelin/contracts/access/Ownable.sol\":1094:1105  _checkOwner */\n      tag_132\n        /* \"@openzeppelin/contracts/access/Ownable.sol\":1094:1107  _checkOwner() */\n      jump\t// in\n    tag_163:\n        /* \"@openzeppelin/contracts/access/Ownable.sol\":2189:2190  0 */\n      0x00\n        /* \"@openzeppelin/contracts/access/Ownable.sol\":2169:2191  newOwner != address(0) */\n      0xffffffffffffffffffffffffffffffffffffffff\n      and\n        /* \"@openzeppelin/contracts/access/Ownable.sol\":2169:2177  newOwner */\n      dup2\n        /* \"@openzeppelin/contracts/access/Ownable.sol\":2169:2191  newOwner != address(0) */\n      0xffffffffffffffffffffffffffffffffffffffff\n      and\n      eq\n      iszero\n        /* \"@openzeppelin/contracts/access/Ownable.sol\":2161:2234  require(newOwner != address(0), \"Ownable: new owner is the zero address\") */\n      tag_165\n      jumpi\n      mload(0x40)\n      0x08c379a000000000000000000000000000000000000000000000000000000000\n      dup2\n      mstore\n      0x04\n      add\n      tag_166\n      swap1\n      tag_167\n      jump\t// in\n    tag_166:\n      mload(0x40)\n      dup1\n      swap2\n      sub\n      swap1\n      revert\n    tag_165:\n        /* \"@openzeppelin/contracts/access/Ownable.sol\":2244:2272  _transferOwnership(newOwner) */\n      tag_168\n        /* \"@openzeppelin/contracts/access/Ownable.sol\":2263:2271  newOwner */\n      dup2\n        /* \"@openzeppelin/contracts/access/Ownable.sol\":2244:2262  _transferOwnership */\n      tag_135\n        /* \"@openzeppelin/contracts/access/Ownable.sol\":2244:2272  _transferOwnership(newOwner) */\n      jump\t// in\n    tag_168:\n        /* \"@openzeppelin/contracts/access/Ownable.sol\":2081:2279  function transferOwnership(address newOwner) public virtual onlyOwner {... */\n      pop\n      jump\t// out\n        /* \"study/token-airdrop/contracts/token/ERC20.sol\":361:386  address public controller */\n    tag_91:\n      0x06\n      0x00\n      swap1\n      sload\n      swap1\n      0x0100\n      exp\n      swap1\n      div\n      0xffffffffffffffffffffffffffffffffffffffff\n      and\n      dup2\n      jump\t// out\n        /* \"@openzeppelin/contracts/utils/Context.sol\":640:736  function _msgSender() internal view virtual returns (address) {... */\n    tag_102:\n        /* \"@openzeppelin/contracts/utils/Context.sol\":693:700  address */\n      0x00\n        /* \"@openzeppelin/contracts/utils/Context.sol\":719:729  msg.sender */\n      caller\n        /* \"@openzeppelin/contracts/utils/Context.sol\":712:729  return msg.sender */\n      swap1\n      pop\n        /* \"@openzeppelin/contracts/utils/Context.sol\":640:736  function _msgSender() internal view virtual returns (address) {... */\n      swap1\n      jump\t// out\n        /* \"@openzeppelin/contracts/token/ERC20/ERC20.sol\":10504:10874  function _approve(... */\n    tag_104:\n        /* \"@openzeppelin/contracts/token/ERC20/ERC20.sol\":10652:10653  0 */\n      0x00\n        /* \"@openzeppelin/contracts/token/ERC20/ERC20.sol\":10635:10654  owner != address(0) */\n      0xffffffffffffffffffffffffffffffffffffffff\n      and\n        /* \"@openzeppelin/contracts/token/ERC20/ERC20.sol\":10635:10640  owner */\n      dup4\n        /* \"@openzeppelin/contracts/token/ERC20/ERC20.sol\":10635:10654  owner != address(0) */\n      0xffffffffffffffffffffffffffffffffffffffff\n      and\n      eq\n      iszero\n        /* \"@openzeppelin/contracts/token/ERC20/ERC20.sol\":10627:10695  require(owner != address(0), \"ERC20: approve from the zero address\") */\n      tag_171\n      jumpi\n      mload(0x40)\n      0x08c379a000000000000000000000000000000000000000000000000000000000\n      dup2\n      mstore\n      0x04\n      add\n      tag_172\n      swap1\n      tag_173\n      jump\t// in\n    tag_172:\n      mload(0x40)\n      dup1\n      swap2\n      sub\n      swap1\n      revert\n    tag_171:\n        /* \"@openzeppelin/contracts/token/ERC20/ERC20.sol\":10732:10733  0 */\n      0x00\n        /* \"@openzeppelin/contracts/token/ERC20/ERC20.sol\":10713:10734  spender != address(0) */\n      0xffffffffffffffffffffffffffffffffffffffff\n      and\n        /* \"@openzeppelin/contracts/token/ERC20/ERC20.sol\":10713:10720  spender */\n      dup3\n        /* \"@openzeppelin/contracts/token/ERC20/ERC20.sol\":10713:10734  spender != address(0) */\n      0xffffffffffffffffffffffffffffffffffffffff\n      and\n      eq\n      iszero\n        /* \"@openzeppelin/contracts/token/ERC20/ERC20.sol\":10705:10773  require(spender != address(0), \"ERC20: approve to the zero address\") */\n      tag_174\n      jumpi\n      mload(0x40)\n      0x08c379a000000000000000000000000000000000000000000000000000000000\n      dup2\n      mstore\n      0x04\n      add\n      tag_175\n      swap1\n      tag_176\n      jump\t// in\n    tag_175:\n      mload(0x40)\n      dup1\n      swap2\n      sub\n      swap1\n      revert\n    tag_174:\n        /* \"@openzeppelin/contracts/token/ERC20/ERC20.sol\":10814:10820  amount */\n      dup1\n        /* \"@openzeppelin/contracts/token/ERC20/ERC20.sol\":10784:10795  _allowances */\n      0x01\n        /* \"@openzeppelin/contracts/token/ERC20/ERC20.sol\":10784:10802  _allowances[owner] */\n      0x00\n        /* \"@openzeppelin/contracts/token/ERC20/ERC20.sol\":10796:10801  owner */\n      dup6\n        /* \"@openzeppelin/contracts/token/ERC20/ERC20.sol\":10784:10802  _allowances[owner] */\n      0xffffffffffffffffffffffffffffffffffffffff\n      and\n      0xffffffffffffffffffffffffffffffffffffffff\n      and\n      dup2\n      mstore\n      0x20\n      add\n      swap1\n      dup2\n      mstore\n      0x20\n      add\n      0x00\n      keccak256\n        /* \"@openzeppelin/contracts/token/ERC20/ERC20.sol\":10784:10811  _allowances[owner][spender] */\n      0x00\n        /* \"@openzeppelin/contracts/token/ERC20/ERC20.sol\":10803:10810  spender */\n      dup5\n        /* \"@openzeppelin/contracts/token/ERC20/ERC20.sol\":10784:10811  _allowances[owner][spender] */\n      0xffffffffffffffffffffffffffffffffffffffff\n      and\n      0xffffffffffffffffffffffffffffffffffffffff\n      and\n      dup2\n      mstore\n      0x20\n      add\n      swap1\n      dup2\n      mstore\n      0x20\n      add\n      0x00\n      keccak256\n        /* \"@openzeppelin/contracts/token/ERC20/ERC20.sol\":10784:10820  _allowances[owner][spender] = amount */\n      dup2\n      swap1\n      sstore\n      pop\n        /* \"@openzeppelin/contracts/token/ERC20/ERC20.sol\":10851:10858  spender */\n      dup2\n        /* \"@openzeppelin/contracts/token/ERC20/ERC20.sol\":10835:10867  Approval(owner, spender, amount) */\n      0xffffffffffffffffffffffffffffffffffffffff\n      and\n        /* \"@openzeppelin/contracts/token/ERC20/ERC20.sol\":10844:10849  owner */\n      dup4\n        /* \"@openzeppelin/contracts/token/ERC20/ERC20.sol\":10835:10867  Approval(owner, spender, amount) */\n      0xffffffffffffffffffffffffffffffffffffffff\n      and\n      0x8c5be1e5ebec7d5bd14f71427d1e84f3dd0314c0f7b2291e5b200ac8c7c3b925\n        /* \"@openzeppelin/contracts/token/ERC20/ERC20.sol\":10860:10866  amount */\n      dup4\n        /* \"@openzeppelin/contracts/token/ERC20/ERC20.sol\":10835:10867  Approval(owner, spender, amount) */\n      mload(0x40)\n      tag_177\n      swap2\n      swap1\n      tag_37\n      jump\t// in\n    tag_177:\n      mload(0x40)\n      dup1\n      swap2\n      sub\n      swap1\n      log3\n        /* \"@openzeppelin/contracts/token/ERC20/ERC20.sol\":10504:10874  function _approve(... */\n      pop\n      pop\n      pop\n      jump\t// out\n        /* \"@openzeppelin/contracts/token/ERC20/ERC20.sol\":11155:11596  function _spendAllowance(... */\n    tag_109:\n        /* \"@openzeppelin/contracts/token/ERC20/ERC20.sol\":11285:11309  uint256 currentAllowance */\n      0x00\n        /* \"@openzeppelin/contracts/token/ERC20/ERC20.sol\":11312:11337  allowance(owner, spender) */\n      tag_179\n        /* \"@openzeppelin/contracts/token/ERC20/ERC20.sol\":11322:11327  owner */\n      dup5\n        /* \"@openzeppelin/contracts/token/ERC20/ERC20.sol\":11329:11336  spender */\n      dup5\n        /* \"@openzeppelin/contracts/token/ERC20/ERC20.sol\":11312:11321  allowance */\n      tag_85\n        /* \"@openzeppelin/contracts/token/ERC20/ERC20.sol\":11312:11337  allowance(owner, spender) */\n      jump\t// in\n    tag_179:\n        /* \"@openzeppelin/contracts/token/ERC20/ERC20.sol\":11285:11337  uint256 currentAllowance = allowance(owner, spender) */\n      swap1\n      pop\n        /* \"@openzeppelin/contracts/token/ERC20/ERC20.sol\":11371:11388  type(uint256).max */\n      0xffffffffffffffffffffffffffffffffffffffffffffffffffffffffffffffff\n        /* \"@openzeppelin/contracts/token/ERC20/ERC20.sol\":11351:11367  currentAllowance */\n      dup2\n        /* \"@openzeppelin/contracts/token/ERC20/ERC20.sol\":11351:11388  currentAllowance != type(uint256).max */\n      eq\n        /* \"@openzeppelin/contracts/token/ERC20/ERC20.sol\":11347:11590  if (currentAllowance != type(uint256).max) {... */\n      tag_180\n      jumpi\n        /* \"@openzeppelin/contracts/token/ERC20/ERC20.sol\":11432:11438  amount */\n      dup2\n        /* \"@openzeppelin/contracts/token/ERC20/ERC20.sol\":11412:11428  currentAllowance */\n      dup2\n        /* \"@openzeppelin/contracts/token/ERC20/ERC20.sol\":11412:11438  currentAllowance >= amount */\n      lt\n      iszero\n        /* \"@openzeppelin/contracts/token/ERC20/ERC20.sol\":11404:11472  require(currentAllowance >= amount, \"ERC20: insufficient allowance\") */\n      tag_181\n      jumpi\n      mload(0x40)\n      0x08c379a000000000000000000000000000000000000000000000000000000000\n      dup2\n      mstore\n      0x04\n      add\n      tag_182\n      swap1\n      tag_183\n      jump\t// in\n    tag_182:\n      mload(0x40)\n      dup1\n      swap2\n      sub\n      swap1\n      revert\n    tag_181:\n        /* \"@openzeppelin/contracts/token/ERC20/ERC20.sol\":11514:11565  _approve(owner, spender, currentAllowance - amount) */\n      tag_184\n        /* \"@openzeppelin/contracts/token/ERC20/ERC20.sol\":11523:11528  owner */\n      dup5\n        /* \"@openzeppelin/contracts/token/ERC20/ERC20.sol\":11530:11537  spender */\n      dup5\n        /* \"@openzeppelin/contracts/token/ERC20/ERC20.sol\":11558:11564  amount */\n      dup5\n        /* \"@openzeppelin/contracts/token/ERC20/ERC20.sol\":11539:11555  currentAllowance */\n      dup5\n        /* \"@openzeppelin/contracts/token/ERC20/ERC20.sol\":11539:11564  currentAllowance - amount */\n      sub\n        /* \"@openzeppelin/contracts/token/ERC20/ERC20.sol\":11514:11522  _approve */\n      tag_104\n        /* \"@openzeppelin/contracts/token/ERC20/ERC20.sol\":11514:11565  _approve(owner, spender, currentAllowance - amount) */\n      jump\t// in\n    tag_184:\n        /* \"@openzeppelin/contracts/token/ERC20/ERC20.sol\":11347:11590  if (currentAllowance != type(uint256).max) {... */\n    tag_180:\n        /* \"@openzeppelin/contracts/token/ERC20/ERC20.sol\":11275:11596  {... */\n      pop\n        /* \"@openzeppelin/contracts/token/ERC20/ERC20.sol\":11155:11596  function _spendAllowance(... */\n      pop\n      pop\n      pop\n      jump\t// out\n        /* \"@openzeppelin/contracts/token/ERC20/ERC20.sol\":7473:8291  function _transfer(... */\n    tag_111:\n        /* \"@openzeppelin/contracts/token/ERC20/ERC20.sol\":7615:7616  0 */\n      0x00\n        /* \"@openzeppelin/contracts/token/ERC20/ERC20.sol\":7599:7617  from != address(0) */\n      0xffffffffffffffffffffffffffffffffffffffff\n      and\n        /* \"@openzeppelin/contracts/token/ERC20/ERC20.sol\":7599:7603  from */\n      dup4\n        /* \"@openzeppelin/contracts/token/ERC20/ERC20.sol\":7599:7617  from != address(0) */\n      0xffffffffffffffffffffffffffffffffffffffff\n      and\n      eq\n      iszero\n        /* \"@openzeppelin/contracts/token/ERC20/ERC20.sol\":7591:7659  require(from != address(0), \"ERC20: transfer from the zero address\") */\n      tag_186\n      jumpi\n      mload(0x40)\n      0x08c379a000000000000000000000000000000000000000000000000000000000\n      dup2\n      mstore\n      0x04\n      add\n      tag_187\n      swap1\n      tag_188\n      jump\t// in\n    tag_187:\n      mload(0x40)\n      dup1\n      swap2\n      sub\n      swap1\n      revert\n    tag_186:\n        /* \"@openzeppelin/contracts/token/ERC20/ERC20.sol\":7691:7692  0 */\n      0x00\n        /* \"@openzeppelin/contracts/token/ERC20/ERC20.sol\":7677:7693  to != address(0) */\n      0xffffffffffffffffffffffffffffffffffffffff\n      and\n        /* \"@openzeppelin/contracts/token/ERC20/ERC20.sol\":7677:7679  to */\n      dup3\n        /* \"@openzeppelin/contracts/token/ERC20/ERC20.sol\":7677:7693  to != address(0) */\n      0xffffffffffffffffffffffffffffffffffffffff\n      and\n      eq\n      iszero\n        /* \"@openzeppelin/contracts/token/ERC20/ERC20.sol\":7669:7733  require(to != address(0), \"ERC20: transfer to the zero address\") */\n      tag_189\n      jumpi\n      mload(0x40)\n      0x08c379a000000000000000000000000000000000000000000000000000000000\n      dup2\n      mstore\n      0x04\n      add\n      tag_190\n      swap1\n      tag_191\n      jump\t// in\n    tag_190:\n      mload(0x40)\n      dup1\n      swap2\n      sub\n      swap1\n      revert\n    tag_189:\n        /* \"@openzeppelin/contracts/token/ERC20/ERC20.sol\":7744:7782  _beforeTokenTransfer(from, to, amount) */\n      tag_192\n        /* \"@openzeppelin/contracts/token/ERC20/ERC20.sol\":7765:7769  from */\n      dup4\n        /* \"@openzeppelin/contracts/token/ERC20/ERC20.sol\":7771:7773  to */\n      dup4\n        /* \"@openzeppelin/contracts/token/ERC20/ERC20.sol\":7775:7781  amount */\n      dup4\n        /* \"@openzeppelin/contracts/token/ERC20/ERC20.sol\":7744:7764  _beforeTokenTransfer */\n      tag_193\n        /* \"@openzeppelin/contracts/token/ERC20/ERC20.sol\":7744:7782  _beforeTokenTransfer(from, to, amount) */\n      jump\t// in\n    tag_192:\n        /* \"@openzeppelin/contracts/token/ERC20/ERC20.sol\":7793:7812  uint256 fromBalance */\n      0x00\n        /* \"@openzeppelin/contracts/token/ERC20/ERC20.sol\":7815:7824  _balances */\n      dup1\n        /* \"@openzeppelin/contracts/token/ERC20/ERC20.sol\":7815:7830  _balances[from] */\n      0x00\n        /* \"@openzeppelin/contracts/token/ERC20/ERC20.sol\":7825:7829  from */\n      dup6\n        /* \"@openzeppelin/contracts/token/ERC20/ERC20.sol\":7815:7830  _balances[from] */\n      0xffffffffffffffffffffffffffffffffffffffff\n      and\n      0xffffffffffffffffffffffffffffffffffffffff\n      and\n      dup2\n      mstore\n      0x20\n      add\n      swap1\n      dup2\n      mstore\n      0x20\n      add\n      0x00\n      keccak256\n      sload\n        /* \"@openzeppelin/contracts/token/ERC20/ERC20.sol\":7793:7830  uint256 fromBalance = _balances[from] */\n      swap1\n      pop\n        /* \"@openzeppelin/contracts/token/ERC20/ERC20.sol\":7863:7869  amount */\n      dup2\n        /* \"@openzeppelin/contracts/token/ERC20/ERC20.sol\":7848:7859  fromBalance */\n      dup2\n        /* \"@openzeppelin/contracts/token/ERC20/ERC20.sol\":7848:7869  fromBalance >= amount */\n      lt\n      iszero\n        /* \"@openzeppelin/contracts/token/ERC20/ERC20.sol\":7840:7912  require(fromBalance >= amount, \"ERC20: transfer amount exceeds balance\") */\n      tag_194\n      jumpi\n      mload(0x40)\n      0x08c379a000000000000000000000000000000000000000000000000000000000\n      dup2\n      mstore\n      0x04\n      add\n      tag_195\n      swap1\n      tag_196\n      jump\t// in\n    tag_195:\n      mload(0x40)\n      dup1\n      swap2\n      sub\n      swap1\n      revert\n    tag_194:\n        /* \"@openzeppelin/contracts/token/ERC20/ERC20.sol\":7978:7984  amount */\n      dup2\n        /* \"@openzeppelin/contracts/token/ERC20/ERC20.sol\":7964:7975  fromBalance */\n      dup2\n        /* \"@openzeppelin/contracts/token/ERC20/ERC20.sol\":7964:7984  fromBalance - amount */\n      sub\n        /* \"@openzeppelin/contracts/token/ERC20/ERC20.sol\":7946:7955  _balances */\n      0x00\n        /* \"@openzeppelin/contracts/token/ERC20/ERC20.sol\":7946:7961  _balances[from] */\n      dup1\n        /* \"@openzeppelin/contracts/token/ERC20/ERC20.sol\":7956:7960  from */\n      dup7\n        /* \"@openzeppelin/contracts/token/ERC20/ERC20.sol\":7946:7961  _balances[from] */\n      0xffffffffffffffffffffffffffffffffffffffff\n      and\n      0xffffffffffffffffffffffffffffffffffffffff\n      and\n      dup2\n      mstore\n      0x20\n      add\n      swap1\n      dup2\n      mstore\n      0x20\n      add\n      0x00\n      keccak256\n        /* \"@openzeppelin/contracts/token/ERC20/ERC20.sol\":7946:7984  _balances[from] = fromBalance - amount */\n      dup2\n      swap1\n      sstore\n      pop\n        /* \"@openzeppelin/contracts/token/ERC20/ERC20.sol\":8178:8184  amount */\n      dup2\n        /* \"@openzeppelin/contracts/token/ERC20/ERC20.sol\":8161:8170  _balances */\n      0x00\n        /* \"@openzeppelin/contracts/token/ERC20/ERC20.sol\":8161:8174  _balances[to] */\n      dup1\n        /* \"@openzeppelin/contracts/token/ERC20/ERC20.sol\":8171:8173  to */\n      dup6\n        /* \"@openzeppelin/contracts/token/ERC20/ERC20.sol\":8161:8174  _balances[to] */\n      0xffffffffffffffffffffffffffffffffffffffff\n      and\n      0xffffffffffffffffffffffffffffffffffffffff\n      and\n      dup2\n      mstore\n      0x20\n      add\n      swap1\n      dup2\n      mstore\n      0x20\n      add\n      0x00\n      keccak256\n      0x00\n        /* \"@openzeppelin/contracts/token/ERC20/ERC20.sol\":8161:8184  _balances[to] += amount */\n      dup3\n      dup3\n      sload\n      add\n      swap3\n      pop\n      pop\n      dup2\n      swap1\n      sstore\n      pop\n        /* \"@openzeppelin/contracts/token/ERC20/ERC20.sol\":8225:8227  to */\n      dup3\n        /* \"@openzeppelin/contracts/token/ERC20/ERC20.sol\":8210:8236  Transfer(from, to, amount) */\n      0xffffffffffffffffffffffffffffffffffffffff\n      and\n        /* \"@openzeppelin/contracts/token/ERC20/ERC20.sol\":8219:8223  from */\n      dup5\n        /* \"@openzeppelin/contracts/token/ERC20/ERC20.sol\":8210:8236  Transfer(from, to, amount) */\n      0xffffffffffffffffffffffffffffffffffffffff\n      and\n      0xddf252ad1be2c89b69c2b068fc378daa952ba7f163c4a11628f55a4df523b3ef\n        /* \"@openzeppelin/contracts/token/ERC20/ERC20.sol\":8229:8235  amount */\n      dup5\n        /* \"@openzeppelin/contracts/token/ERC20/ERC20.sol\":8210:8236  Transfer(from, to, amount) */\n      mload(0x40)\n      tag_197\n      swap2\n      swap1\n      tag_37\n      jump\t// in\n    tag_197:\n      mload(0x40)\n      dup1\n      swap2\n      sub\n      swap1\n      log3\n        /* \"@openzeppelin/contracts/token/ERC20/ERC20.sol\":8247:8284  _afterTokenTransfer(from, to, amount) */\n      tag_198\n        /* \"@openzeppelin/contracts/token/ERC20/ERC20.sol\":8267:8271  from */\n      dup5\n        /* \"@openzeppelin/contracts/token/ERC20/ERC20.sol\":8273:8275  to */\n      dup5\n        /* \"@openzeppelin/contracts/token/ERC20/ERC20.sol\":8277:8283  amount */\n      dup5\n        /* \"@openzeppelin/contracts/token/ERC20/ERC20.sol\":8247:8266  _afterTokenTransfer */\n      tag_199\n        /* \"@openzeppelin/contracts/token/ERC20/ERC20.sol\":8247:8284  _afterTokenTransfer(from, to, amount) */\n      jump\t// in\n    tag_198:\n        /* \"@openzeppelin/contracts/token/ERC20/ERC20.sol\":7581:8291  {... */\n      pop\n        /* \"@openzeppelin/contracts/token/ERC20/ERC20.sol\":7473:8291  function _transfer(... */\n      pop\n      pop\n      pop\n      jump\t// out\n        /* \"@openzeppelin/contracts/token/ERC20/ERC20.sol\":8567:9102  function _mint(address account, uint256 amount) internal virtual {... */\n    tag_128:\n        /* \"@openzeppelin/contracts/token/ERC20/ERC20.sol\":8669:8670  0 */\n      0x00\n        /* \"@openzeppelin/contracts/token/ERC20/ERC20.sol\":8650:8671  account != address(0) */\n      0xffffffffffffffffffffffffffffffffffffffff\n      and\n        /* \"@openzeppelin/contracts/token/ERC20/ERC20.sol\":8650:8657  account */\n      dup3\n        /* \"@openzeppelin/contracts/token/ERC20/ERC20.sol\":8650:8671  account != address(0) */\n      0xffffffffffffffffffffffffffffffffffffffff\n      and\n      eq\n      iszero\n        /* \"@openzeppelin/contracts/token/ERC20/ERC20.sol\":8642:8707  require(account != address(0), \"ERC20: mint to the zero address\") */\n      tag_201\n      jumpi\n      mload(0x40)\n      0x08c379a000000000000000000000000000000000000000000000000000000000\n      dup2\n      mstore\n      0x04\n      add\n      tag_202\n      swap1\n      tag_203\n      jump\t// in\n    tag_202:\n      mload(0x40)\n      dup1\n      swap2\n      sub\n      swap1\n      revert\n    tag_201:\n        /* \"@openzeppelin/contracts/token/ERC20/ERC20.sol\":8718:8767  _beforeTokenTransfer(address(0), account, amount) */\n      tag_204\n        /* \"@openzeppelin/contracts/token/ERC20/ERC20.sol\":8747:8748  0 */\n      0x00\n        /* \"@openzeppelin/contracts/token/ERC20/ERC20.sol\":8751:8758  account */\n      dup4\n        /* \"@openzeppelin/contracts/token/ERC20/ERC20.sol\":8760:8766  amount */\n      dup4\n        /* \"@openzeppelin/contracts/token/ERC20/ERC20.sol\":8718:8738  _beforeTokenTransfer */\n      tag_193\n        /* \"@openzeppelin/contracts/token/ERC20/ERC20.sol\":8718:8767  _beforeTokenTransfer(address(0), account, amount) */\n      jump\t// in\n    tag_204:\n        /* \"@openzeppelin/contracts/token/ERC20/ERC20.sol\":8794:8800  amount */\n      dup1\n        /* \"@openzeppelin/contracts/token/ERC20/ERC20.sol\":8778:8790  _totalSupply */\n      0x02\n      0x00\n        /* \"@openzeppelin/contracts/token/ERC20/ERC20.sol\":8778:8800  _totalSupply += amount */\n      dup3\n      dup3\n      sload\n      tag_205\n      swap2\n      swap1\n      tag_118\n      jump\t// in\n    tag_205:\n      swap3\n      pop\n      pop\n      dup2\n      swap1\n      sstore\n      pop\n        /* \"@openzeppelin/contracts/token/ERC20/ERC20.sol\":8968:8974  amount */\n      dup1\n        /* \"@openzeppelin/contracts/token/ERC20/ERC20.sol\":8946:8955  _balances */\n      0x00\n        /* \"@openzeppelin/contracts/token/ERC20/ERC20.sol\":8946:8964  _balances[account] */\n      dup1\n        /* \"@openzeppelin/contracts/token/ERC20/ERC20.sol\":8956:8963  account */\n      dup5\n        /* \"@openzeppelin/contracts/token/ERC20/ERC20.sol\":8946:8964  _balances[account] */\n      0xffffffffffffffffffffffffffffffffffffffff\n      and\n      0xffffffffffffffffffffffffffffffffffffffff\n      and\n      dup2\n      mstore\n      0x20\n      add\n      swap1\n      dup2\n      mstore\n      0x20\n      add\n      0x00\n      keccak256\n      0x00\n        /* \"@openzeppelin/contracts/token/ERC20/ERC20.sol\":8946:8974  _balances[account] += amount */\n      dup3\n      dup3\n      sload\n      add\n      swap3\n      pop\n      pop\n      dup2\n      swap1\n      sstore\n      pop\n        /* \"@openzeppelin/contracts/token/ERC20/ERC20.sol\":9020:9027  account */\n      dup2\n        /* \"@openzeppelin/contracts/token/ERC20/ERC20.sol\":8999:9036  Transfer(address(0), account, amount) */\n      0xffffffffffffffffffffffffffffffffffffffff\n      and\n        /* \"@openzeppelin/contracts/token/ERC20/ERC20.sol\":9016:9017  0 */\n      0x00\n        /* \"@openzeppelin/contracts/token/ERC20/ERC20.sol\":8999:9036  Transfer(address(0), account, amount) */\n      0xffffffffffffffffffffffffffffffffffffffff\n      and\n      0xddf252ad1be2c89b69c2b068fc378daa952ba7f163c4a11628f55a4df523b3ef\n        /* \"@openzeppelin/contracts/token/ERC20/ERC20.sol\":9029:9035  amount */\n      dup4\n        /* \"@openzeppelin/contracts/token/ERC20/ERC20.sol\":8999:9036  Transfer(address(0), account, amount) */\n      mload(0x40)\n      tag_206\n      swap2\n      swap1\n      tag_37\n      jump\t// in\n    tag_206:\n      mload(0x40)\n      dup1\n      swap2\n      sub\n      swap1\n      log3\n        /* \"@openzeppelin/contracts/token/ERC20/ERC20.sol\":9047:9095  _afterTokenTransfer(address(0), account, amount) */\n      tag_207\n        /* \"@openzeppelin/contracts/token/ERC20/ERC20.sol\":9075:9076  0 */\n      0x00\n        /* \"@openzeppelin/contracts/token/ERC20/ERC20.sol\":9079:9086  account */\n      dup4\n        /* \"@openzeppelin/contracts/token/ERC20/ERC20.sol\":9088:9094  amount */\n      dup4\n        /* \"@openzeppelin/contracts/token/ERC20/ERC20.sol\":9047:9066  _afterTokenTransfer */\n      tag_199\n        /* \"@openzeppelin/contracts/token/ERC20/ERC20.sol\":9047:9095  _afterTokenTransfer(address(0), account, amount) */\n      jump\t// in\n    tag_207:\n        /* \"@openzeppelin/contracts/token/ERC20/ERC20.sol\":8567:9102  function _mint(address account, uint256 amount) internal virtual {... */\n      pop\n      pop\n      jump\t// out\n        /* \"@openzeppelin/contracts/access/Ownable.sol\":1359:1489  function _checkOwner() internal view virtual {... */\n    tag_132:\n        /* \"@openzeppelin/contracts/access/Ownable.sol\":1433:1445  _msgSender() */\n      tag_209\n        /* \"@openzeppelin/contracts/access/Ownable.sol\":1433:1443  _msgSender */\n      tag_102\n        /* \"@openzeppelin/contracts/access/Ownable.sol\":1433:1445  _msgSender() */\n      jump\t// in\n    tag_209:\n        /* \"@openzeppelin/contracts/access/Ownable.sol\":1422:1445  owner() == _msgSender() */\n      0xffffffffffffffffffffffffffffffffffffffff\n      and\n        /* \"@openzeppelin/contracts/access/Ownable.sol\":1422:1429  owner() */\n      tag_210\n        /* \"@openzeppelin/contracts/access/Ownable.sol\":1422:1427  owner */\n      tag_62\n        /* \"@openzeppelin/contracts/access/Ownable.sol\":1422:1429  owner() */\n      jump\t// in\n    tag_210:\n        /* \"@openzeppelin/contracts/access/Ownable.sol\":1422:1445  owner() == _msgSender() */\n      0xffffffffffffffffffffffffffffffffffffffff\n      and\n      eq\n        /* \"@openzeppelin/contracts/access/Ownable.sol\":1414:1482  require(owner() == _msgSender(), \"Ownable: caller is not the owner\") */\n      tag_211\n      jumpi\n      mload(0x40)\n      0x08c379a000000000000000000000000000000000000000000000000000000000\n      dup2\n      mstore\n      0x04\n      add\n      tag_212\n      swap1\n      tag_213\n      jump\t// in\n    tag_212:\n      mload(0x40)\n      dup1\n      swap2\n      sub\n      swap1\n      revert\n    tag_211:\n        /* \"@openzeppelin/contracts/access/Ownable.sol\":1359:1489  function _checkOwner() internal view virtual {... */\n      jump\t// out\n        /* \"@openzeppelin/contracts/access/Ownable.sol\":2433:2620  function _transferOwnership(address newOwner) internal virtual {... */\n    tag_135:\n        /* \"@openzeppelin/contracts/access/Ownable.sol\":2506:2522  address oldOwner */\n      0x00\n        /* \"@openzeppelin/contracts/access/Ownable.sol\":2525:2531  _owner */\n      0x05\n      0x00\n      swap1\n      sload\n      swap1\n      0x0100\n      exp\n      swap1\n      div\n      0xffffffffffffffffffffffffffffffffffffffff\n      and\n        /* \"@openzeppelin/contracts/access/Ownable.sol\":2506:2531  address oldOwner = _owner */\n      swap1\n      pop\n        /* \"@openzeppelin/contracts/access/Ownable.sol\":2550:2558  newOwner */\n      dup2\n        /* \"@openzeppelin/contracts/access/Ownable.sol\":2541:2547  _owner */\n      0x05\n      0x00\n        /* \"@openzeppelin/contracts/access/Ownable.sol\":2541:2558  _owner = newOwner */\n      0x0100\n      exp\n      dup2\n      sload\n      dup2\n      0xffffffffffffffffffffffffffffffffffffffff\n      mul\n      not\n      and\n      swap1\n      dup4\n      0xffffffffffffffffffffffffffffffffffffffff\n      and\n      mul\n      or\n      swap1\n      sstore\n      pop\n        /* \"@openzeppelin/contracts/access/Ownable.sol\":2604:2612  newOwner */\n      dup2\n        /* \"@openzeppelin/contracts/access/Ownable.sol\":2573:2613  OwnershipTransferred(oldOwner, newOwner) */\n      0xffffffffffffffffffffffffffffffffffffffff\n      and\n        /* \"@openzeppelin/contracts/access/Ownable.sol\":2594:2602  oldOwner */\n      dup2\n        /* \"@openzeppelin/contracts/access/Ownable.sol\":2573:2613  OwnershipTransferred(oldOwner, newOwner) */\n      0xffffffffffffffffffffffffffffffffffffffff\n      and\n      0x8be0079c531659141344cd1fd0a4f28419497f9722a3daafe3b4186f6b6457e0\n      mload(0x40)\n      mload(0x40)\n      dup1\n      swap2\n      sub\n      swap1\n      log3\n        /* \"@openzeppelin/contracts/access/Ownable.sol\":2496:2620  {... */\n      pop\n        /* \"@openzeppelin/contracts/access/Ownable.sol\":2433:2620  function _transferOwnership(address newOwner) internal virtual {... */\n      pop\n      jump\t// out\n        /* \"@openzeppelin/contracts/token/ERC20/ERC20.sol\":9422:10081  function _burn(address account, uint256 amount) internal virtual {... */\n    tag_150:\n        /* \"@openzeppelin/contracts/token/ERC20/ERC20.sol\":9524:9525  0 */\n      0x00\n        /* \"@openzeppelin/contracts/token/ERC20/ERC20.sol\":9505:9526  account != address(0) */\n      0xffffffffffffffffffffffffffffffffffffffff\n      and\n        /* \"@openzeppelin/contracts/token/ERC20/ERC20.sol\":9505:9512  account */\n      dup3\n        /* \"@openzeppelin/contracts/token/ERC20/ERC20.sol\":9505:9526  account != address(0) */\n      0xffffffffffffffffffffffffffffffffffffffff\n      and\n      eq\n      iszero\n        /* \"@openzeppelin/contracts/token/ERC20/ERC20.sol\":9497:9564  require(account != address(0), \"ERC20: burn from the zero address\") */\n      tag_216\n      jumpi\n      mload(0x40)\n      0x08c379a000000000000000000000000000000000000000000000000000000000\n      dup2\n      mstore\n      0x04\n      add\n      tag_217\n      swap1\n      tag_218\n      jump\t// in\n    tag_217:\n      mload(0x40)\n      dup1\n      swap2\n      sub\n      swap1\n      revert\n    tag_216:\n        /* \"@openzeppelin/contracts/token/ERC20/ERC20.sol\":9575:9624  _beforeTokenTransfer(account, address(0), amount) */\n      tag_219\n        /* \"@openzeppelin/contracts/token/ERC20/ERC20.sol\":9596:9603  account */\n      dup3\n        /* \"@openzeppelin/contracts/token/ERC20/ERC20.sol\":9613:9614  0 */\n      0x00\n        /* \"@openzeppelin/contracts/token/ERC20/ERC20.sol\":9617:9623  amount */\n      dup4\n        /* \"@openzeppelin/contracts/token/ERC20/ERC20.sol\":9575:9595  _beforeTokenTransfer */\n      tag_193\n        /* \"@openzeppelin/contracts/token/ERC20/ERC20.sol\":9575:9624  _beforeTokenTransfer(account, address(0), amount) */\n      jump\t// in\n    tag_219:\n        /* \"@openzeppelin/contracts/token/ERC20/ERC20.sol\":9635:9657  uint256 accountBalance */\n      0x00\n        /* \"@openzeppelin/contracts/token/ERC20/ERC20.sol\":9660:9669  _balances */\n      dup1\n        /* \"@openzeppelin/contracts/token/ERC20/ERC20.sol\":9660:9678  _balances[account] */\n      0x00\n        /* \"@openzeppelin/contracts/token/ERC20/ERC20.sol\":9670:9677  account */\n      dup5\n        /* \"@openzeppelin/contracts/token/ERC20/ERC20.sol\":9660:9678  _balances[account] */\n      0xffffffffffffffffffffffffffffffffffffffff\n      and\n      0xffffffffffffffffffffffffffffffffffffffff\n      and\n      dup2\n      mstore\n      0x20\n      add\n      swap1\n      dup2\n      mstore\n      0x20\n      add\n      0x00\n      keccak256\n      sload\n        /* \"@openzeppelin/contracts/token/ERC20/ERC20.sol\":9635:9678  uint256 accountBalance = _balances[account] */\n      swap1\n      pop\n        /* \"@openzeppelin/contracts/token/ERC20/ERC20.sol\":9714:9720  amount */\n      dup2\n        /* \"@openzeppelin/contracts/token/ERC20/ERC20.sol\":9696:9710  accountBalance */\n      dup2\n        /* \"@openzeppelin/contracts/token/ERC20/ERC20.sol\":9696:9720  accountBalance >= amount */\n      lt\n      iszero\n        /* \"@openzeppelin/contracts/token/ERC20/ERC20.sol\":9688:9759  require(accountBalance >= amount, \"ERC20: burn amount exceeds balance\") */\n      tag_220\n      jumpi\n      mload(0x40)\n      0x08c379a000000000000000000000000000000000000000000000000000000000\n      dup2\n      mstore\n      0x04\n      add\n      tag_221\n      swap1\n      tag_222\n      jump\t// in\n    tag_221:\n      mload(0x40)\n      dup1\n      swap2\n      sub\n      swap1\n      revert\n    tag_220:\n        /* \"@openzeppelin/contracts/token/ERC20/ERC20.sol\":9831:9837  amount */\n      dup2\n        /* \"@openzeppelin/contracts/token/ERC20/ERC20.sol\":9814:9828  accountBalance */\n      dup2\n        /* \"@openzeppelin/contracts/token/ERC20/ERC20.sol\":9814:9837  accountBalance - amount */\n      sub\n        /* \"@openzeppelin/contracts/token/ERC20/ERC20.sol\":9793:9802  _balances */\n      0x00\n        /* \"@openzeppelin/contracts/token/ERC20/ERC20.sol\":9793:9811  _balances[account] */\n      dup1\n        /* \"@openzeppelin/contracts/token/ERC20/ERC20.sol\":9803:9810  account */\n      dup6\n        /* \"@openzeppelin/contracts/token/ERC20/ERC20.sol\":9793:9811  _balances[account] */\n      0xffffffffffffffffffffffffffffffffffffffff\n      and\n      0xffffffffffffffffffffffffffffffffffffffff\n      and\n      dup2\n      mstore\n      0x20\n      add\n      swap1\n      dup2\n      mstore\n      0x20\n      add\n      0x00\n      keccak256\n        /* \"@openzeppelin/contracts/token/ERC20/ERC20.sol\":9793:9837  _balances[account] = accountBalance - amount */\n      dup2\n      swap1\n      sstore\n      pop\n        /* \"@openzeppelin/contracts/token/ERC20/ERC20.sol\":9946:9952  amount */\n      dup2\n        /* \"@openzeppelin/contracts/token/ERC20/ERC20.sol\":9930:9942  _totalSupply */\n      0x02\n      0x00\n        /* \"@openzeppelin/contracts/token/ERC20/ERC20.sol\":9930:9952  _totalSupply -= amount */\n      dup3\n      dup3\n      sload\n      sub\n      swap3\n      pop\n      pop\n      dup2\n      swap1\n      sstore\n      pop\n        /* \"@openzeppelin/contracts/token/ERC20/ERC20.sol\":10004:10005  0 */\n      0x00\n        /* \"@openzeppelin/contracts/token/ERC20/ERC20.sol\":9978:10015  Transfer(account, address(0), amount) */\n      0xffffffffffffffffffffffffffffffffffffffff\n      and\n        /* \"@openzeppelin/contracts/token/ERC20/ERC20.sol\":9987:9994  account */\n      dup4\n        /* \"@openzeppelin/contracts/token/ERC20/ERC20.sol\":9978:10015  Transfer(account, address(0), amount) */\n      0xffffffffffffffffffffffffffffffffffffffff\n      and\n      0xddf252ad1be2c89b69c2b068fc378daa952ba7f163c4a11628f55a4df523b3ef\n        /* \"@openzeppelin/contracts/token/ERC20/ERC20.sol\":10008:10014  amount */\n      dup5\n        /* \"@openzeppelin/contracts/token/ERC20/ERC20.sol\":9978:10015  Transfer(account, address(0), amount) */\n      mload(0x40)\n      tag_223\n      swap2\n      swap1\n      tag_37\n      jump\t// in\n    tag_223:\n      mload(0x40)\n      dup1\n      swap2\n      sub\n      swap1\n      log3\n        /* \"@openzeppelin/contracts/token/ERC20/ERC20.sol\":10026:10074  _afterTokenTransfer(account, address(0), amount) */\n      tag_224\n        /* \"@openzeppelin/contracts/token/ERC20/ERC20.sol\":10046:10053  account */\n      dup4\n        /* \"@openzeppelin/contracts/token/ERC20/ERC20.sol\":10063:10064  0 */\n      0x00\n        /* \"@openzeppelin/contracts/token/ERC20/ERC20.sol\":10067:10073  amount */\n      dup5\n        /* \"@openzeppelin/contracts/token/ERC20/ERC20.sol\":10026:10045  _afterTokenTransfer */\n      tag_199\n        /* \"@openzeppelin/contracts/token/ERC20/ERC20.sol\":10026:10074  _afterTokenTransfer(account, address(0), amount) */\n      jump\t// in\n    tag_224:\n        /* \"@openzeppelin/contracts/token/ERC20/ERC20.sol\":9487:10081  {... */\n      pop\n        /* \"@openzeppelin/contracts/token/ERC20/ERC20.sol\":9422:10081  function _burn(address account, uint256 amount) internal virtual {... */\n      pop\n      pop\n      jump\t// out\n        /* \"@openzeppelin/contracts/token/ERC20/ERC20.sol\":12180:12301  function _beforeTokenTransfer(... */\n    tag_193:\n      pop\n      pop\n      pop\n      jump\t// out\n        /* \"@openzeppelin/contracts/token/ERC20/ERC20.sol\":12889:13009  function _afterTokenTransfer(... */\n    tag_199:\n      pop\n      pop\n      pop\n      jump\t// out\n        /* \"#utility.yul\":7:146   */\n    tag_228:\n        /* \"#utility.yul\":53:58   */\n      0x00\n        /* \"#utility.yul\":91:97   */\n      dup2\n        /* \"#utility.yul\":78:98   */\n      calldataload\n        /* \"#utility.yul\":69:98   */\n      swap1\n      pop\n        /* \"#utility.yul\":107:140   */\n      tag_230\n        /* \"#utility.yul\":134:139   */\n      dup2\n        /* \"#utility.yul\":107:140   */\n      tag_231\n      jump\t// in\n    tag_230:\n        /* \"#utility.yul\":7:146   */\n      swap3\n      swap2\n      pop\n      pop\n      jump\t// out\n        /* \"#utility.yul\":152:291   */\n    tag_232:\n        /* \"#utility.yul\":198:203   */\n      0x00\n        /* \"#utility.yul\":236:242   */\n      dup2\n        /* \"#utility.yul\":223:243   */\n      calldataload\n        /* \"#utility.yul\":214:243   */\n      swap1\n      pop\n        /* \"#utility.yul\":252:285   */\n      tag_234\n        /* \"#utility.yul\":279:284   */\n      dup2\n        /* \"#utility.yul\":252:285   */\n      tag_235\n      jump\t// in\n    tag_234:\n        /* \"#utility.yul\":152:291   */\n      swap3\n      swap2\n      pop\n      pop\n      jump\t// out\n        /* \"#utility.yul\":297:626   */\n    tag_56:\n        /* \"#utility.yul\":356:362   */\n      0x00\n        /* \"#utility.yul\":405:407   */\n      0x20\n        /* \"#utility.yul\":393:402   */\n      dup3\n        /* \"#utility.yul\":384:391   */\n      dup5\n        /* \"#utility.yul\":380:403   */\n      sub\n        /* \"#utility.yul\":376:408   */\n      slt\n        /* \"#utility.yul\":373:492   */\n      iszero\n      tag_237\n      jumpi\n        /* \"#utility.yul\":411:490   */\n      tag_238\n      tag_239\n      jump\t// in\n    tag_238:\n        /* \"#utility.yul\":373:492   */\n    tag_237:\n        /* \"#utility.yul\":531:532   */\n      0x00\n        /* \"#utility.yul\":556:609   */\n      tag_240\n        /* \"#utility.yul\":601:608   */\n      dup5\n        /* \"#utility.yul\":592:598   */\n      dup3\n        /* \"#utility.yul\":581:590   */\n      dup6\n        /* \"#utility.yul\":577:599   */\n      add\n        /* \"#utility.yul\":556:609   */\n      tag_228\n      jump\t// in\n    tag_240:\n        /* \"#utility.yul\":546:609   */\n      swap2\n      pop\n        /* \"#utility.yul\":502:619   */\n      pop\n        /* \"#utility.yul\":297:626   */\n      swap3\n      swap2\n      pop\n      pop\n      jump\t// out\n        /* \"#utility.yul\":632:1106   */\n    tag_84:\n        /* \"#utility.yul\":700:706   */\n      0x00\n        /* \"#utility.yul\":708:714   */\n      dup1\n        /* \"#utility.yul\":757:759   */\n      0x40\n        /* \"#utility.yul\":745:754   */\n      dup4\n        /* \"#utility.yul\":736:743   */\n      dup6\n        /* \"#utility.yul\":732:755   */\n      sub\n        /* \"#utility.yul\":728:760   */\n      slt\n        /* \"#utility.yul\":725:844   */\n      iszero\n      tag_242\n      jumpi\n        /* \"#utility.yul\":763:842   */\n      tag_243\n      tag_239\n      jump\t// in\n    tag_243:\n        /* \"#utility.yul\":725:844   */\n    tag_242:\n        /* \"#utility.yul\":883:884   */\n      0x00\n        /* \"#utility.yul\":908:961   */\n      tag_244\n        /* \"#utility.yul\":953:960   */\n      dup6\n        /* \"#utility.yul\":944:950   */\n      dup3\n        /* \"#utility.yul\":933:942   */\n      dup7\n        /* \"#utility.yul\":929:951   */\n      add\n        /* \"#utility.yul\":908:961   */\n      tag_228\n      jump\t// in\n    tag_244:\n        /* \"#utility.yul\":898:961   */\n      swap3\n      pop\n        /* \"#utility.yul\":854:971   */\n      pop\n        /* \"#utility.yul\":1010:1012   */\n      0x20\n        /* \"#utility.yul\":1036:1089   */\n      tag_245\n        /* \"#utility.yul\":1081:1088   */\n      dup6\n        /* \"#utility.yul\":1072:1078   */\n      dup3\n        /* \"#utility.yul\":1061:1070   */\n      dup7\n        /* \"#utility.yul\":1057:1079   */\n      add\n        /* \"#utility.yul\":1036:1089   */\n      tag_228\n      jump\t// in\n    tag_245:\n        /* \"#utility.yul\":1026:1089   */\n      swap2\n      pop\n        /* \"#utility.yul\":981:1099   */\n      pop\n        /* \"#utility.yul\":632:1106   */\n      swap3\n      pop\n      swap3\n      swap1\n      pop\n      jump\t// out\n        /* \"#utility.yul\":1112:1731   */\n    tag_40:\n        /* \"#utility.yul\":1189:1195   */\n      0x00\n        /* \"#utility.yul\":1197:1203   */\n      dup1\n        /* \"#utility.yul\":1205:1211   */\n      0x00\n        /* \"#utility.yul\":1254:1256   */\n      0x60\n        /* \"#utility.yul\":1242:1251   */\n      dup5\n        /* \"#utility.yul\":1233:1240   */\n      dup7\n        /* \"#utility.yul\":1229:1252   */\n      sub\n        /* \"#utility.yul\":1225:1257   */\n      slt\n        /* \"#utility.yul\":1222:1341   */\n      iszero\n      tag_247\n      jumpi\n        /* \"#utility.yul\":1260:1339   */\n      tag_248\n      tag_239\n      jump\t// in\n    tag_248:\n        /* \"#utility.yul\":1222:1341   */\n    tag_247:\n        /* \"#utility.yul\":1380:1381   */\n      0x00\n        /* \"#utility.yul\":1405:1458   */\n      tag_249\n        /* \"#utility.yul\":1450:1457   */\n      dup7\n        /* \"#utility.yul\":1441:1447   */\n      dup3\n        /* \"#utility.yul\":1430:1439   */\n      dup8\n        /* \"#utility.yul\":1426:1448   */\n      add\n        /* \"#utility.yul\":1405:1458   */\n      tag_228\n      jump\t// in\n    tag_249:\n        /* \"#utility.yul\":1395:1458   */\n      swap4\n      pop\n        /* \"#utility.yul\":1351:1468   */\n      pop\n        /* \"#utility.yul\":1507:1509   */\n      0x20\n        /* \"#utility.yul\":1533:1586   */\n      tag_250\n        /* \"#utility.yul\":1578:1585   */\n      dup7\n        /* \"#utility.yul\":1569:1575   */\n      dup3\n        /* \"#utility.yul\":1558:1567   */\n      dup8\n        /* \"#utility.yul\":1554:1576   */\n      add\n        /* \"#utility.yul\":1533:1586   */\n      tag_228\n      jump\t// in\n    tag_250:\n        /* \"#utility.yul\":1523:1586   */\n      swap3\n      pop\n        /* \"#utility.yul\":1478:1596   */\n      pop\n        /* \"#utility.yul\":1635:1637   */\n      0x40\n        /* \"#utility.yul\":1661:1714   */\n      tag_251\n        /* \"#utility.yul\":1706:1713   */\n      dup7\n        /* \"#utility.yul\":1697:1703   */\n      dup3\n        /* \"#utility.yul\":1686:1695   */\n      dup8\n        /* \"#utility.yul\":1682:1704   */\n      add\n        /* \"#utility.yul\":1661:1714   */\n      tag_232\n      jump\t// in\n    tag_251:\n        /* \"#utility.yul\":1651:1714   */\n      swap2\n      pop\n        /* \"#utility.yul\":1606:1724   */\n      pop\n        /* \"#utility.yul\":1112:1731   */\n      swap3\n      pop\n      swap3\n      pop\n      swap3\n      jump\t// out\n        /* \"#utility.yul\":1737:2211   */\n    tag_30:\n        /* \"#utility.yul\":1805:1811   */\n      0x00\n        /* \"#utility.yul\":1813:1819   */\n      dup1\n        /* \"#utility.yul\":1862:1864   */\n      0x40\n        /* \"#utility.yul\":1850:1859   */\n      dup4\n        /* \"#utility.yul\":1841:1848   */\n      dup6\n        /* \"#utility.yul\":1837:1860   */\n      sub\n        /* \"#utility.yul\":1833:1865   */\n      slt\n        /* \"#utility.yul\":1830:1949   */\n      iszero\n      tag_253\n      jumpi\n        /* \"#utility.yul\":1868:1947   */\n      tag_254\n      tag_239\n      jump\t// in\n    tag_254:\n        /* \"#utility.yul\":1830:1949   */\n    tag_253:\n        /* \"#utility.yul\":1988:1989   */\n      0x00\n        /* \"#utility.yul\":2013:2066   */\n      tag_255\n        /* \"#utility.yul\":2058:2065   */\n      dup6\n        /* \"#utility.yul\":2049:2055   */\n      dup3\n        /* \"#utility.yul\":2038:2047   */\n      dup7\n        /* \"#utility.yul\":2034:2056   */\n      add\n        /* \"#utility.yul\":2013:2066   */\n      tag_228\n      jump\t// in\n    tag_255:\n        /* \"#utility.yul\":2003:2066   */\n      swap3\n      pop\n        /* \"#utility.yul\":1959:2076   */\n      pop\n        /* \"#utility.yul\":2115:2117   */\n      0x20\n        /* \"#utility.yul\":2141:2194   */\n      tag_256\n        /* \"#utility.yul\":2186:2193   */\n      dup6\n        /* \"#utility.yul\":2177:2183   */\n      dup3\n        /* \"#utility.yul\":2166:2175   */\n      dup7\n        /* \"#utility.yul\":2162:2184   */\n      add\n        /* \"#utility.yul\":2141:2194   */\n      tag_232\n      jump\t// in\n    tag_256:\n        /* \"#utility.yul\":2131:2194   */\n      swap2\n      pop\n        /* \"#utility.yul\":2086:2204   */\n      pop\n        /* \"#utility.yul\":1737:2211   */\n      swap3\n      pop\n      swap3\n      swap1\n      pop\n      jump\t// out\n        /* \"#utility.yul\":2217:2335   */\n    tag_257:\n        /* \"#utility.yul\":2304:2328   */\n      tag_259\n        /* \"#utility.yul\":2322:2327   */\n      dup2\n        /* \"#utility.yul\":2304:2328   */\n      tag_260\n      jump\t// in\n    tag_259:\n        /* \"#utility.yul\":2299:2302   */\n      dup3\n        /* \"#utility.yul\":2292:2329   */\n      mstore\n        /* \"#utility.yul\":2217:2335   */\n      pop\n      pop\n      jump\t// out\n        /* \"#utility.yul\":2341:2450   */\n    tag_261:\n        /* \"#utility.yul\":2422:2443   */\n      tag_263\n        /* \"#utility.yul\":2437:2442   */\n      dup2\n        /* \"#utility.yul\":2422:2443   */\n      tag_264\n      jump\t// in\n    tag_263:\n        /* \"#utility.yul\":2417:2420   */\n      dup3\n        /* \"#utility.yul\":2410:2444   */\n      mstore\n        /* \"#utility.yul\":2341:2450   */\n      pop\n      pop\n      jump\t// out\n        /* \"#utility.yul\":2456:2820   */\n    tag_265:\n        /* \"#utility.yul\":2544:2547   */\n      0x00\n        /* \"#utility.yul\":2572:2611   */\n      tag_267\n        /* \"#utility.yul\":2605:2610   */\n      dup3\n        /* \"#utility.yul\":2572:2611   */\n      tag_268\n      jump\t// in\n    tag_267:\n        /* \"#utility.yul\":2627:2698   */\n      tag_269\n        /* \"#utility.yul\":2691:2697   */\n      dup2\n        /* \"#utility.yul\":2686:2689   */\n      dup6\n        /* \"#utility.yul\":2627:2698   */\n      tag_270\n      jump\t// in\n    tag_269:\n        /* \"#utility.yul\":2620:2698   */\n      swap4\n      pop\n        /* \"#utility.yul\":2707:2759   */\n      tag_271\n        /* \"#utility.yul\":2752:2758   */\n      dup2\n        /* \"#utility.yul\":2747:2750   */\n      dup6\n        /* \"#utility.yul\":2740:2744   */\n      0x20\n        /* \"#utility.yul\":2733:2738   */\n      dup7\n        /* \"#utility.yul\":2729:2745   */\n      add\n        /* \"#utility.yul\":2707:2759   */\n      tag_272\n      jump\t// in\n    tag_271:\n        /* \"#utility.yul\":2784:2813   */\n      tag_273\n        /* \"#utility.yul\":2806:2812   */\n      dup2\n        /* \"#utility.yul\":2784:2813   */\n      tag_274\n      jump\t// in\n    tag_273:\n        /* \"#utility.yul\":2779:2782   */\n      dup5\n        /* \"#utility.yul\":2775:2814   */\n      add\n        /* \"#utility.yul\":2768:2814   */\n      swap2\n      pop\n        /* \"#utility.yul\":2548:2820   */\n      pop\n        /* \"#utility.yul\":2456:2820   */\n      swap3\n      swap2\n      pop\n      pop\n      jump\t// out\n        /* \"#utility.yul\":2826:3192   */\n    tag_275:\n        /* \"#utility.yul\":2968:2971   */\n      0x00\n        /* \"#utility.yul\":2989:3056   */\n      tag_277\n        /* \"#utility.yul\":3053:3055   */\n      0x23\n        /* \"#utility.yul\":3048:3051   */\n      dup4\n        /* \"#utility.yul\":2989:3056   */\n      tag_270\n      jump\t// in\n    tag_277:\n        /* \"#utility.yul\":2982:3056   */\n      swap2\n      pop\n        /* \"#utility.yul\":3065:3158   */\n      tag_278\n        /* \"#utility.yul\":3154:3157   */\n      dup3\n        /* \"#utility.yul\":3065:3158   */\n      tag_279\n      jump\t// in\n    tag_278:\n        /* \"#utility.yul\":3183:3185   */\n      0x40\n        /* \"#utility.yul\":3178:3181   */\n      dup3\n        /* \"#utility.yul\":3174:3186   */\n      add\n        /* \"#utility.yul\":3167:3186   */\n      swap1\n      pop\n        /* \"#utility.yul\":2826:3192   */\n      swap2\n      swap1\n      pop\n      jump\t// out\n        /* \"#utility.yul\":3198:3564   */\n    tag_280:\n        /* \"#utility.yul\":3340:3343   */\n      0x00\n        /* \"#utility.yul\":3361:3428   */\n      tag_282\n        /* \"#utility.yul\":3425:3427   */\n      0x22\n        /* \"#utility.yul\":3420:3423   */\n      dup4\n        /* \"#utility.yul\":3361:3428   */\n      tag_270\n      jump\t// in\n    tag_282:\n        /* \"#utility.yul\":3354:3428   */\n      swap2\n      pop\n        /* \"#utility.yul\":3437:3530   */\n      tag_283\n        /* \"#utility.yul\":3526:3529   */\n      dup3\n        /* \"#utility.yul\":3437:3530   */\n      tag_284\n      jump\t// in\n    tag_283:\n        /* \"#utility.yul\":3555:3557   */\n      0x40\n        /* \"#utility.yul\":3550:3553   */\n      dup3\n        /* \"#utility.yul\":3546:3558   */\n      add\n        /* \"#utility.yul\":3539:3558   */\n      swap1\n      pop\n        /* \"#utility.yul\":3198:3564   */\n      swap2\n      swap1\n      pop\n      jump\t// out\n        /* \"#utility.yul\":3570:3936   */\n    tag_285:\n        /* \"#utility.yul\":3712:3715   */\n      0x00\n        /* \"#utility.yul\":3733:3800   */\n      tag_287\n        /* \"#utility.yul\":3797:3799   */\n      0x26\n        /* \"#utility.yul\":3792:3795   */\n      dup4\n        /* \"#utility.yul\":3733:3800   */\n      tag_270\n      jump\t// in\n    tag_287:\n        /* \"#utility.yul\":3726:3800   */\n      swap2\n      pop\n        /* \"#utility.yul\":3809:3902   */\n      tag_288\n        /* \"#utility.yul\":3898:3901   */\n      dup3\n        /* \"#utility.yul\":3809:3902   */\n      tag_289\n      jump\t// in\n    tag_288:\n        /* \"#utility.yul\":3927:3929   */\n      0x40\n        /* \"#utility.yul\":3922:3925   */\n      dup3\n        /* \"#utility.yul\":3918:3930   */\n      add\n        /* \"#utility.yul\":3911:3930   */\n      swap1\n      pop\n        /* \"#utility.yul\":3570:3936   */\n      swap2\n      swap1\n      pop\n      jump\t// out\n        /* \"#utility.yul\":3942:4308   */\n    tag_290:\n        /* \"#utility.yul\":4084:4087   */\n      0x00\n        /* \"#utility.yul\":4105:4172   */\n      tag_292\n        /* \"#utility.yul\":4169:4171   */\n      0x22\n        /* \"#utility.yul\":4164:4167   */\n      dup4\n        /* \"#utility.yul\":4105:4172   */\n      tag_270\n      jump\t// in\n    tag_292:\n        /* \"#utility.yul\":4098:4172   */\n      swap2\n      pop\n        /* \"#utility.yul\":4181:4274   */\n      tag_293\n        /* \"#utility.yul\":4270:4273   */\n      dup3\n        /* \"#utility.yul\":4181:4274   */\n      tag_294\n      jump\t// in\n    tag_293:\n        /* \"#utility.yul\":4299:4301   */\n      0x40\n        /* \"#utility.yul\":4294:4297   */\n      dup3\n        /* \"#utility.yul\":4290:4302   */\n      add\n        /* \"#utility.yul\":4283:4302   */\n      swap1\n      pop\n        /* \"#utility.yul\":3942:4308   */\n      swap2\n      swap1\n      pop\n      jump\t// out\n        /* \"#utility.yul\":4314:4680   */\n    tag_295:\n        /* \"#utility.yul\":4456:4459   */\n      0x00\n        /* \"#utility.yul\":4477:4544   */\n      tag_297\n        /* \"#utility.yul\":4541:4543   */\n      0x1d\n        /* \"#utility.yul\":4536:4539   */\n      dup4\n        /* \"#utility.yul\":4477:4544   */\n      tag_270\n      jump\t// in\n    tag_297:\n        /* \"#utility.yul\":4470:4544   */\n      swap2\n      pop\n        /* \"#utility.yul\":4553:4646   */\n      tag_298\n        /* \"#utility.yul\":4642:4645   */\n      dup3\n        /* \"#utility.yul\":4553:4646   */\n      tag_299\n      jump\t// in\n    tag_298:\n        /* \"#utility.yul\":4671:4673   */\n      0x20\n        /* \"#utility.yul\":4666:4669   */\n      dup3\n        /* \"#utility.yul\":4662:4674   */\n      add\n        /* \"#utility.yul\":4655:4674   */\n      swap1\n      pop\n        /* \"#utility.yul\":4314:4680   */\n      swap2\n      swap1\n      pop\n      jump\t// out\n        /* \"#utility.yul\":4686:5052   */\n    tag_300:\n        /* \"#utility.yul\":4828:4831   */\n      0x00\n        /* \"#utility.yul\":4849:4916   */\n      tag_302\n        /* \"#utility.yul\":4913:4915   */\n      0x26\n        /* \"#utility.yul\":4908:4911   */\n      dup4\n        /* \"#utility.yul\":4849:4916   */\n      tag_270\n      jump\t// in\n    tag_302:\n        /* \"#utility.yul\":4842:4916   */\n      swap2\n      pop\n        /* \"#utility.yul\":4925:5018   */\n      tag_303\n        /* \"#utility.yul\":5014:5017   */\n      dup3\n        /* \"#utility.yul\":4925:5018   */\n      tag_304\n      jump\t// in\n    tag_303:\n        /* \"#utility.yul\":5043:5045   */\n      0x40\n        /* \"#utility.yul\":5038:5041   */\n      dup3\n        /* \"#utility.yul\":5034:5046   */\n      add\n        /* \"#utility.yul\":5027:5046   */\n      swap1\n      pop\n        /* \"#utility.yul\":4686:5052   */\n      swap2\n      swap1\n      pop\n      jump\t// out\n        /* \"#utility.yul\":5058:5424   */\n    tag_305:\n        /* \"#utility.yul\":5200:5203   */\n      0x00\n        /* \"#utility.yul\":5221:5288   */\n      tag_307\n        /* \"#utility.yul\":5285:5287   */\n      0x17\n        /* \"#utility.yul\":5280:5283   */\n      dup4\n        /* \"#utility.yul\":5221:5288   */\n      tag_270\n      jump\t// in\n    tag_307:\n        /* \"#utility.yul\":5214:5288   */\n      swap2\n      pop\n        /* \"#utility.yul\":5297:5390   */\n      tag_308\n        /* \"#utility.yul\":5386:5389   */\n      dup3\n        /* \"#utility.yul\":5297:5390   */\n      tag_309\n      jump\t// in\n    tag_308:\n        /* \"#utility.yul\":5415:5417   */\n      0x20\n        /* \"#utility.yul\":5410:5413   */\n      dup3\n        /* \"#utility.yul\":5406:5418   */\n      add\n        /* \"#utility.yul\":5399:5418   */\n      swap1\n      pop\n        /* \"#utility.yul\":5058:5424   */\n      swap2\n      swap1\n      pop\n      jump\t// out\n        /* \"#utility.yul\":5430:5796   */\n    tag_310:\n        /* \"#utility.yul\":5572:5575   */\n      0x00\n        /* \"#utility.yul\":5593:5660   */\n      tag_312\n        /* \"#utility.yul\":5657:5659   */\n      0x20\n        /* \"#utility.yul\":5652:5655   */\n      dup4\n        /* \"#utility.yul\":5593:5660   */\n      tag_270\n      jump\t// in\n    tag_312:\n        /* \"#utility.yul\":5586:5660   */\n      swap2\n      pop\n        /* \"#utility.yul\":5669:5762   */\n      tag_313\n        /* \"#utility.yul\":5758:5761   */\n      dup3\n        /* \"#utility.yul\":5669:5762   */\n      tag_314\n      jump\t// in\n    tag_313:\n        /* \"#utility.yul\":5787:5789   */\n      0x20\n        /* \"#utility.yul\":5782:5785   */\n      dup3\n        /* \"#utility.yul\":5778:5790   */\n      add\n        /* \"#utility.yul\":5771:5790   */\n      swap1\n      pop\n        /* \"#utility.yul\":5430:5796   */\n      swap2\n      swap1\n      pop\n      jump\t// out\n        /* \"#utility.yul\":5802:6168   */\n    tag_315:\n        /* \"#utility.yul\":5944:5947   */\n      0x00\n        /* \"#utility.yul\":5965:6032   */\n      tag_317\n        /* \"#utility.yul\":6029:6031   */\n      0x21\n        /* \"#utility.yul\":6024:6027   */\n      dup4\n        /* \"#utility.yul\":5965:6032   */\n      tag_270\n      jump\t// in\n    tag_317:\n        /* \"#utility.yul\":5958:6032   */\n      swap2\n      pop\n        /* \"#utility.yul\":6041:6134   */\n      tag_318\n        /* \"#utility.yul\":6130:6133   */\n      dup3\n        /* \"#utility.yul\":6041:6134   */\n      tag_319\n      jump\t// in\n    tag_318:\n        /* \"#utility.yul\":6159:6161   */\n      0x40\n        /* \"#utility.yul\":6154:6157   */\n      dup3\n        /* \"#utility.yul\":6150:6162   */\n      add\n        /* \"#utility.yul\":6143:6162   */\n      swap1\n      pop\n        /* \"#utility.yul\":5802:6168   */\n      swap2\n      swap1\n      pop\n      jump\t// out\n        /* \"#utility.yul\":6174:6540   */\n    tag_320:\n        /* \"#utility.yul\":6316:6319   */\n      0x00\n        /* \"#utility.yul\":6337:6404   */\n      tag_322\n        /* \"#utility.yul\":6401:6403   */\n      0x25\n        /* \"#utility.yul\":6396:6399   */\n      dup4\n        /* \"#utility.yul\":6337:6404   */\n      tag_270\n      jump\t// in\n    tag_322:\n        /* \"#utility.yul\":6330:6404   */\n      swap2\n      pop\n        /* \"#utility.yul\":6413:6506   */\n      tag_323\n        /* \"#utility.yul\":6502:6505   */\n      dup3\n        /* \"#utility.yul\":6413:6506   */\n      tag_324\n      jump\t// in\n    tag_323:\n        /* \"#utility.yul\":6531:6533   */\n      0x40\n        /* \"#utility.yul\":6526:6529   */\n      dup3\n        /* \"#utility.yul\":6522:6534   */\n      add\n        /* \"#utility.yul\":6515:6534   */\n      swap1\n      pop\n        /* \"#utility.yul\":6174:6540   */\n      swap2\n      swap1\n      pop\n      jump\t// out\n        /* \"#utility.yul\":6546:6912   */\n    tag_325:\n        /* \"#utility.yul\":6688:6691   */\n      0x00\n        /* \"#utility.yul\":6709:6776   */\n      tag_327\n        /* \"#utility.yul\":6773:6775   */\n      0x24\n        /* \"#utility.yul\":6768:6771   */\n      dup4\n        /* \"#utility.yul\":6709:6776   */\n      tag_270\n      jump\t// in\n    tag_327:\n        /* \"#utility.yul\":6702:6776   */\n      swap2\n      pop\n        /* \"#utility.yul\":6785:6878   */\n      tag_328\n        /* \"#utility.yul\":6874:6877   */\n      dup3\n        /* \"#utility.yul\":6785:6878   */\n      tag_329\n      jump\t// in\n    tag_328:\n        /* \"#utility.yul\":6903:6905   */\n      0x40\n        /* \"#utility.yul\":6898:6901   */\n      dup3\n        /* \"#utility.yul\":6894:6906   */\n      add\n        /* \"#utility.yul\":6887:6906   */\n      swap1\n      pop\n        /* \"#utility.yul\":6546:6912   */\n      swap2\n      swap1\n      pop\n      jump\t// out\n        /* \"#utility.yul\":6918:7284   */\n    tag_330:\n        /* \"#utility.yul\":7060:7063   */\n      0x00\n        /* \"#utility.yul\":7081:7148   */\n      tag_332\n        /* \"#utility.yul\":7145:7147   */\n      0x25\n        /* \"#utility.yul\":7140:7143   */\n      dup4\n        /* \"#utility.yul\":7081:7148   */\n      tag_270\n      jump\t// in\n    tag_332:\n        /* \"#utility.yul\":7074:7148   */\n      swap2\n      pop\n        /* \"#utility.yul\":7157:7250   */\n      tag_333\n        /* \"#utility.yul\":7246:7249   */\n      dup3\n        /* \"#utility.yul\":7157:7250   */\n      tag_334\n      jump\t// in\n    tag_333:\n        /* \"#utility.yul\":7275:7277   */\n      0x40\n        /* \"#utility.yul\":7270:7273   */\n      dup3\n        /* \"#utility.yul\":7266:7278   */\n      add\n        /* \"#utility.yul\":7259:7278   */\n      swap1\n      pop\n        /* \"#utility.yul\":6918:7284   */\n      swap2\n      swap1\n      pop\n      jump\t// out\n        /* \"#utility.yul\":7290:7656   */\n    tag_335:\n        /* \"#utility.yul\":7432:7435   */\n      0x00\n        /* \"#utility.yul\":7453:7520   */\n      tag_337\n        /* \"#utility.yul\":7517:7519   */\n      0x1f\n        /* \"#utility.yul\":7512:7515   */\n      dup4\n        /* \"#utility.yul\":7453:7520   */\n      tag_270\n      jump\t// in\n    tag_337:\n        /* \"#utility.yul\":7446:7520   */\n      swap2\n      pop\n        /* \"#utility.yul\":7529:7622   */\n      tag_338\n        /* \"#utility.yul\":7618:7621   */\n      dup3\n        /* \"#utility.yul\":7529:7622   */\n      tag_339\n      jump\t// in\n    tag_338:\n        /* \"#utility.yul\":7647:7649   */\n      0x20\n        /* \"#utility.yul\":7642:7645   */\n      dup3\n        /* \"#utility.yul\":7638:7650   */\n      add\n        /* \"#utility.yul\":7631:7650   */\n      swap1\n      pop\n        /* \"#utility.yul\":7290:7656   */\n      swap2\n      swap1\n      pop\n      jump\t// out\n        /* \"#utility.yul\":7662:7780   */\n    tag_340:\n        /* \"#utility.yul\":7749:7773   */\n      tag_342\n        /* \"#utility.yul\":7767:7772   */\n      dup2\n        /* \"#utility.yul\":7749:7773   */\n      tag_343\n      jump\t// in\n    tag_342:\n        /* \"#utility.yul\":7744:7747   */\n      dup3\n        /* \"#utility.yul\":7737:7774   */\n      mstore\n        /* \"#utility.yul\":7662:7780   */\n      pop\n      pop\n      jump\t// out\n        /* \"#utility.yul\":7786:7898   */\n    tag_344:\n        /* \"#utility.yul\":7869:7891   */\n      tag_346\n        /* \"#utility.yul\":7885:7890   */\n      dup2\n        /* \"#utility.yul\":7869:7891   */\n      tag_347\n      jump\t// in\n    tag_346:\n        /* \"#utility.yul\":7864:7867   */\n      dup3\n        /* \"#utility.yul\":7857:7892   */\n      mstore\n        /* \"#utility.yul\":7786:7898   */\n      pop\n      pop\n      jump\t// out\n        /* \"#utility.yul\":7904:8126   */\n    tag_64:\n        /* \"#utility.yul\":7997:8001   */\n      0x00\n        /* \"#utility.yul\":8035:8037   */\n      0x20\n        /* \"#utility.yul\":8024:8033   */\n      dup3\n        /* \"#utility.yul\":8020:8038   */\n      add\n        /* \"#utility.yul\":8012:8038   */\n      swap1\n      pop\n        /* \"#utility.yul\":8048:8119   */\n      tag_349\n        /* \"#utility.yul\":8116:8117   */\n      0x00\n        /* \"#utility.yul\":8105:8114   */\n      dup4\n        /* \"#utility.yul\":8101:8118   */\n      add\n        /* \"#utility.yul\":8092:8098   */\n      dup5\n        /* \"#utility.yul\":8048:8119   */\n      tag_257\n      jump\t// in\n    tag_349:\n        /* \"#utility.yul\":7904:8126   */\n      swap3\n      swap2\n      pop\n      pop\n      jump\t// out\n        /* \"#utility.yul\":8132:8342   */\n    tag_33:\n        /* \"#utility.yul\":8219:8223   */\n      0x00\n        /* \"#utility.yul\":8257:8259   */\n      0x20\n        /* \"#utility.yul\":8246:8255   */\n      dup3\n        /* \"#utility.yul\":8242:8260   */\n      add\n        /* \"#utility.yul\":8234:8260   */\n      swap1\n      pop\n        /* \"#utility.yul\":8270:8335   */\n      tag_351\n        /* \"#utility.yul\":8332:8333   */\n      0x00\n        /* \"#utility.yul\":8321:8330   */\n      dup4\n        /* \"#utility.yul\":8317:8334   */\n      add\n        /* \"#utility.yul\":8308:8314   */\n      dup5\n        /* \"#utility.yul\":8270:8335   */\n      tag_261\n      jump\t// in\n    tag_351:\n        /* \"#utility.yul\":8132:8342   */\n      swap3\n      swap2\n      pop\n      pop\n      jump\t// out\n        /* \"#utility.yul\":8348:8661   */\n    tag_27:\n        /* \"#utility.yul\":8461:8465   */\n      0x00\n        /* \"#utility.yul\":8499:8501   */\n      0x20\n        /* \"#utility.yul\":8488:8497   */\n      dup3\n        /* \"#utility.yul\":8484:8502   */\n      add\n        /* \"#utility.yul\":8476:8502   */\n      swap1\n      pop\n        /* \"#utility.yul\":8548:8557   */\n      dup2\n        /* \"#utility.yul\":8542:8546   */\n      dup2\n        /* \"#utility.yul\":8538:8558   */\n      sub\n        /* \"#utility.yul\":8534:8535   */\n      0x00\n        /* \"#utility.yul\":8523:8532   */\n      dup4\n        /* \"#utility.yul\":8519:8536   */\n      add\n        /* \"#utility.yul\":8512:8559   */\n      mstore\n        /* \"#utility.yul\":8576:8654   */\n      tag_353\n        /* \"#utility.yul\":8649:8653   */\n      dup2\n        /* \"#utility.yul\":8640:8646   */\n      dup5\n        /* \"#utility.yul\":8576:8654   */\n      tag_265\n      jump\t// in\n    tag_353:\n        /* \"#utility.yul\":8568:8654   */\n      swap1\n      pop\n        /* \"#utility.yul\":8348:8661   */\n      swap3\n      swap2\n      pop\n      pop\n      jump\t// out\n        /* \"#utility.yul\":8667:9086   */\n    tag_191:\n        /* \"#utility.yul\":8833:8837   */\n      0x00\n        /* \"#utility.yul\":8871:8873   */\n      0x20\n        /* \"#utility.yul\":8860:8869   */\n      dup3\n        /* \"#utility.yul\":8856:8874   */\n      add\n        /* \"#utility.yul\":8848:8874   */\n      swap1\n      pop\n        /* \"#utility.yul\":8920:8929   */\n      dup2\n        /* \"#utility.yul\":8914:8918   */\n      dup2\n        /* \"#utility.yul\":8910:8930   */\n      sub\n        /* \"#utility.yul\":8906:8907   */\n      0x00\n        /* \"#utility.yul\":8895:8904   */\n      dup4\n        /* \"#utility.yul\":8891:8908   */\n      add\n        /* \"#utility.yul\":8884:8931   */\n      mstore\n        /* \"#utility.yul\":8948:9079   */\n      tag_355\n        /* \"#utility.yul\":9074:9078   */\n      dup2\n        /* \"#utility.yul\":8948:9079   */\n      tag_275\n      jump\t// in\n    tag_355:\n        /* \"#utility.yul\":8940:9079   */\n      swap1\n      pop\n        /* \"#utility.yul\":8667:9086   */\n      swap2\n      swap1\n      pop\n      jump\t// out\n        /* \"#utility.yul\":9092:9511   */\n    tag_222:\n        /* \"#utility.yul\":9258:9262   */\n      0x00\n        /* \"#utility.yul\":9296:9298   */\n      0x20\n        /* \"#utility.yul\":9285:9294   */\n      dup3\n        /* \"#utility.yul\":9281:9299   */\n      add\n        /* \"#utility.yul\":9273:9299   */\n      swap1\n      pop\n        /* \"#utility.yul\":9345:9354   */\n      dup2\n        /* \"#utility.yul\":9339:9343   */\n      dup2\n        /* \"#utility.yul\":9335:9355   */\n      sub\n        /* \"#utility.yul\":9331:9332   */\n      0x00\n        /* \"#utility.yul\":9320:9329   */\n      dup4\n        /* \"#utility.yul\":9316:9333   */\n      add\n        /* \"#utility.yul\":9309:9356   */\n      mstore\n        /* \"#utility.yul\":9373:9504   */\n      tag_357\n        /* \"#utility.yul\":9499:9503   */\n      dup2\n        /* \"#utility.yul\":9373:9504   */\n      tag_280\n      jump\t// in\n    tag_357:\n        /* \"#utility.yul\":9365:9504   */\n      swap1\n      pop\n        /* \"#utility.yul\":9092:9511   */\n      swap2\n      swap1\n      pop\n      jump\t// out\n        /* \"#utility.yul\":9517:9936   */\n    tag_167:\n        /* \"#utility.yul\":9683:9687   */\n      0x00\n        /* \"#utility.yul\":9721:9723   */\n      0x20\n        /* \"#utility.yul\":9710:9719   */\n      dup3\n        /* \"#utility.yul\":9706:9724   */\n      add\n        /* \"#utility.yul\":9698:9724   */\n      swap1\n      pop\n        /* \"#utility.yul\":9770:9779   */\n      dup2\n        /* \"#utility.yul\":9764:9768   */\n      dup2\n        /* \"#utility.yul\":9760:9780   */\n      sub\n        /* \"#utility.yul\":9756:9757   */\n      0x00\n        /* \"#utility.yul\":9745:9754   */\n      dup4\n        /* \"#utility.yul\":9741:9758   */\n      add\n        /* \"#utility.yul\":9734:9781   */\n      mstore\n        /* \"#utility.yul\":9798:9929   */\n      tag_359\n        /* \"#utility.yul\":9924:9928   */\n      dup2\n        /* \"#utility.yul\":9798:9929   */\n      tag_285\n      jump\t// in\n    tag_359:\n        /* \"#utility.yul\":9790:9929   */\n      swap1\n      pop\n        /* \"#utility.yul\":9517:9936   */\n      swap2\n      swap1\n      pop\n      jump\t// out\n        /* \"#utility.yul\":9942:10361   */\n    tag_176:\n        /* \"#utility.yul\":10108:10112   */\n      0x00\n        /* \"#utility.yul\":10146:10148   */\n      0x20\n        /* \"#utility.yul\":10135:10144   */\n      dup3\n        /* \"#utility.yul\":10131:10149   */\n      add\n        /* \"#utility.yul\":10123:10149   */\n      swap1\n      pop\n        /* \"#utility.yul\":10195:10204   */\n      dup2\n        /* \"#utility.yul\":10189:10193   */\n      dup2\n        /* \"#utility.yul\":10185:10205   */\n      sub\n        /* \"#utility.yul\":10181:10182   */\n      0x00\n        /* \"#utility.yul\":10170:10179   */\n      dup4\n        /* \"#utility.yul\":10166:10183   */\n      add\n        /* \"#utility.yul\":10159:10206   */\n      mstore\n        /* \"#utility.yul\":10223:10354   */\n      tag_361\n        /* \"#utility.yul\":10349:10353   */\n      dup2\n        /* \"#utility.yul\":10223:10354   */\n      tag_290\n      jump\t// in\n    tag_361:\n        /* \"#utility.yul\":10215:10354   */\n      swap1\n      pop\n        /* \"#utility.yul\":9942:10361   */\n      swap2\n      swap1\n      pop\n      jump\t// out\n        /* \"#utility.yul\":10367:10786   */\n    tag_183:\n        /* \"#utility.yul\":10533:10537   */\n      0x00\n        /* \"#utility.yul\":10571:10573   */\n      0x20\n        /* \"#utility.yul\":10560:10569   */\n      dup3\n        /* \"#utility.yul\":10556:10574   */\n      add\n        /* \"#utility.yul\":10548:10574   */\n      swap1\n      pop\n        /* \"#utility.yul\":10620:10629   */\n      dup2\n        /* \"#utility.yul\":10614:10618   */\n      dup2\n        /* \"#utility.yul\":10610:10630   */\n      sub\n        /* \"#utility.yul\":10606:10607   */\n      0x00\n        /* \"#utility.yul\":10595:10604   */\n      dup4\n        /* \"#utility.yul\":10591:10608   */\n      add\n        /* \"#utility.yul\":10584:10631   */\n      mstore\n        /* \"#utility.yul\":10648:10779   */\n      tag_363\n        /* \"#utility.yul\":10774:10778   */\n      dup2\n        /* \"#utility.yul\":10648:10779   */\n      tag_295\n      jump\t// in\n    tag_363:\n        /* \"#utility.yul\":10640:10779   */\n      swap1\n      pop\n        /* \"#utility.yul\":10367:10786   */\n      swap2\n      swap1\n      pop\n      jump\t// out\n        /* \"#utility.yul\":10792:11211   */\n    tag_196:\n        /* \"#utility.yul\":10958:10962   */\n      0x00\n        /* \"#utility.yul\":10996:10998   */\n      0x20\n        /* \"#utility.yul\":10985:10994   */\n      dup3\n        /* \"#utility.yul\":10981:10999   */\n      add\n        /* \"#utility.yul\":10973:10999   */\n      swap1\n      pop\n        /* \"#utility.yul\":11045:11054   */\n      dup2\n        /* \"#utility.yul\":11039:11043   */\n      dup2\n        /* \"#utility.yul\":11035:11055   */\n      sub\n        /* \"#utility.yul\":11031:11032   */\n      0x00\n        /* \"#utility.yul\":11020:11029   */\n      dup4\n        /* \"#utility.yul\":11016:11033   */\n      add\n        /* \"#utility.yul\":11009:11056   */\n      mstore\n        /* \"#utility.yul\":11073:11204   */\n      tag_365\n        /* \"#utility.yul\":11199:11203   */\n      dup2\n        /* \"#utility.yul\":11073:11204   */\n      tag_300\n      jump\t// in\n    tag_365:\n        /* \"#utility.yul\":11065:11204   */\n      swap1\n      pop\n        /* \"#utility.yul\":10792:11211   */\n      swap2\n      swap1\n      pop\n      jump\t// out\n        /* \"#utility.yul\":11217:11636   */\n    tag_125:\n        /* \"#utility.yul\":11383:11387   */\n      0x00\n        /* \"#utility.yul\":11421:11423   */\n      0x20\n        /* \"#utility.yul\":11410:11419   */\n      dup3\n        /* \"#utility.yul\":11406:11424   */\n      add\n        /* \"#utility.yul\":11398:11424   */\n      swap1\n      pop\n        /* \"#utility.yul\":11470:11479   */\n      dup2\n        /* \"#utility.yul\":11464:11468   */\n      dup2\n        /* \"#utility.yul\":11460:11480   */\n      sub\n        /* \"#utility.yul\":11456:11457   */\n      0x00\n        /* \"#utility.yul\":11445:11454   */\n      dup4\n        /* \"#utility.yul\":11441:11458   */\n      add\n        /* \"#utility.yul\":11434:11481   */\n      mstore\n        /* \"#utility.yul\":11498:11629   */\n      tag_367\n        /* \"#utility.yul\":11624:11628   */\n      dup2\n        /* \"#utility.yul\":11498:11629   */\n      tag_305\n      jump\t// in\n    tag_367:\n        /* \"#utility.yul\":11490:11629   */\n      swap1\n      pop\n        /* \"#utility.yul\":11217:11636   */\n      swap2\n      swap1\n      pop\n      jump\t// out\n        /* \"#utility.yul\":11642:12061   */\n    tag_213:\n        /* \"#utility.yul\":11808:11812   */\n      0x00\n        /* \"#utility.yul\":11846:11848   */\n      0x20\n        /* \"#utility.yul\":11835:11844   */\n      dup3\n        /* \"#utility.yul\":11831:11849   */\n      add\n        /* \"#utility.yul\":11823:11849   */\n      swap1\n      pop\n        /* \"#utility.yul\":11895:11904   */\n      dup2\n        /* \"#utility.yul\":11889:11893   */\n      dup2\n        /* \"#utility.yul\":11885:11905   */\n      sub\n        /* \"#utility.yul\":11881:11882   */\n      0x00\n        /* \"#utility.yul\":11870:11879   */\n      dup4\n        /* \"#utility.yul\":11866:11883   */\n      add\n        /* \"#utility.yul\":11859:11906   */\n      mstore\n        /* \"#utility.yul\":11923:12054   */\n      tag_369\n        /* \"#utility.yul\":12049:12053   */\n      dup2\n        /* \"#utility.yul\":11923:12054   */\n      tag_310\n      jump\t// in\n    tag_369:\n        /* \"#utility.yul\":11915:12054   */\n      swap1\n      pop\n        /* \"#utility.yul\":11642:12061   */\n      swap2\n      swap1\n      pop\n      jump\t// out\n        /* \"#utility.yul\":12067:12486   */\n    tag_218:\n        /* \"#utility.yul\":12233:12237   */\n      0x00\n        /* \"#utility.yul\":12271:12273   */\n      0x20\n        /* \"#utility.yul\":12260:12269   */\n      dup3\n        /* \"#utility.yul\":12256:12274   */\n      add\n        /* \"#utility.yul\":12248:12274   */\n      swap1\n      pop\n        /* \"#utility.yul\":12320:12329   */\n      dup2\n        /* \"#utility.yul\":12314:12318   */\n      dup2\n        /* \"#utility.yul\":12310:12330   */\n      sub\n        /* \"#utility.yul\":12306:12307   */\n      0x00\n        /* \"#utility.yul\":12295:12304   */\n      dup4\n        /* \"#utility.yul\":12291:12308   */\n      add\n        /* \"#utility.yul\":12284:12331   */\n      mstore\n        /* \"#utility.yul\":12348:12479   */\n      tag_371\n        /* \"#utility.yul\":12474:12478   */\n      dup2\n        /* \"#utility.yul\":12348:12479   */\n      tag_315\n      jump\t// in\n    tag_371:\n        /* \"#utility.yul\":12340:12479   */\n      swap1\n      pop\n        /* \"#utility.yul\":12067:12486   */\n      swap2\n      swap1\n      pop\n      jump\t// out\n        /* \"#utility.yul\":12492:12911   */\n    tag_188:\n        /* \"#utility.yul\":12658:12662   */\n      0x00\n        /* \"#utility.yul\":12696:12698   */\n      0x20\n        /* \"#utility.yul\":12685:12694   */\n      dup3\n        /* \"#utility.yul\":12681:12699   */\n      add\n        /* \"#utility.yul\":12673:12699   */\n      swap1\n      pop\n        /* \"#utility.yul\":12745:12754   */\n      dup2\n        /* \"#utility.yul\":12739:12743   */\n      dup2\n        /* \"#utility.yul\":12735:12755   */\n      sub\n        /* \"#utility.yul\":12731:12732   */\n      0x00\n        /* \"#utility.yul\":12720:12729   */\n      dup4\n        /* \"#utility.yul\":12716:12733   */\n      add\n        /* \"#utility.yul\":12709:12756   */\n      mstore\n        /* \"#utility.yul\":12773:12904   */\n      tag_373\n        /* \"#utility.yul\":12899:12903   */\n      dup2\n        /* \"#utility.yul\":12773:12904   */\n      tag_320\n      jump\t// in\n    tag_373:\n        /* \"#utility.yul\":12765:12904   */\n      swap1\n      pop\n        /* \"#utility.yul\":12492:12911   */\n      swap2\n      swap1\n      pop\n      jump\t// out\n        /* \"#utility.yul\":12917:13336   */\n    tag_173:\n        /* \"#utility.yul\":13083:13087   */\n      0x00\n        /* \"#utility.yul\":13121:13123   */\n      0x20\n        /* \"#utility.yul\":13110:13119   */\n      dup3\n        /* \"#utility.yul\":13106:13124   */\n      add\n        /* \"#utility.yul\":13098:13124   */\n      swap1\n      pop\n        /* \"#utility.yul\":13170:13179   */\n      dup2\n        /* \"#utility.yul\":13164:13168   */\n      dup2\n        /* \"#utility.yul\":13160:13180   */\n      sub\n        /* \"#utility.yul\":13156:13157   */\n      0x00\n        /* \"#utility.yul\":13145:13154   */\n      dup4\n        /* \"#utility.yul\":13141:13158   */\n      add\n        /* \"#utility.yul\":13134:13181   */\n      mstore\n        /* \"#utility.yul\":13198:13329   */\n      tag_375\n        /* \"#utility.yul\":13324:13328   */\n      dup2\n        /* \"#utility.yul\":13198:13329   */\n      tag_325\n      jump\t// in\n    tag_375:\n        /* \"#utility.yul\":13190:13329   */\n      swap1\n      pop\n        /* \"#utility.yul\":12917:13336   */\n      swap2\n      swap1\n      pop\n      jump\t// out\n        /* \"#utility.yul\":13342:13761   */\n    tag_156:\n        /* \"#utility.yul\":13508:13512   */\n      0x00\n        /* \"#utility.yul\":13546:13548   */\n      0x20\n        /* \"#utility.yul\":13535:13544   */\n      dup3\n        /* \"#utility.yul\":13531:13549   */\n      add\n        /* \"#utility.yul\":13523:13549   */\n      swap1\n      pop\n        /* \"#utility.yul\":13595:13604   */\n      dup2\n        /* \"#utility.yul\":13589:13593   */\n      dup2\n        /* \"#utility.yul\":13585:13605   */\n      sub\n        /* \"#utility.yul\":13581:13582   */\n      0x00\n        /* \"#utility.yul\":13570:13579   */\n      dup4\n        /* \"#utility.yul\":13566:13583   */\n      add\n        /* \"#utility.yul\":13559:13606   */\n      mstore\n        /* \"#utility.yul\":13623:13754   */\n      tag_377\n        /* \"#utility.yul\":13749:13753   */\n      dup2\n        /* \"#utility.yul\":13623:13754   */\n      tag_330\n      jump\t// in\n    tag_377:\n        /* \"#utility.yul\":13615:13754   */\n      swap1\n      pop\n        /* \"#utility.yul\":13342:13761   */\n      swap2\n      swap1\n      pop\n      jump\t// out\n        /* \"#utility.yul\":13767:14186   */\n    tag_203:\n        /* \"#utility.yul\":13933:13937   */\n      0x00\n        /* \"#utility.yul\":13971:13973   */\n      0x20\n        /* \"#utility.yul\":13960:13969   */\n      dup3\n        /* \"#utility.yul\":13956:13974   */\n      add\n        /* \"#utility.yul\":13948:13974   */\n      swap1\n      pop\n        /* \"#utility.yul\":14020:14029   */\n      dup2\n        /* \"#utility.yul\":14014:14018   */\n      dup2\n        /* \"#utility.yul\":14010:14030   */\n      sub\n        /* \"#utility.yul\":14006:14007   */\n      0x00\n        /* \"#utility.yul\":13995:14004   */\n      dup4\n        /* \"#utility.yul\":13991:14008   */\n      add\n        /* \"#utility.yul\":13984:14031   */\n      mstore\n        /* \"#utility.yul\":14048:14179   */\n      tag_379\n        /* \"#utility.yul\":14174:14178   */\n      dup2\n        /* \"#utility.yul\":14048:14179   */\n      tag_335\n      jump\t// in\n    tag_379:\n        /* \"#utility.yul\":14040:14179   */\n      swap1\n      pop\n        /* \"#utility.yul\":13767:14186   */\n      swap2\n      swap1\n      pop\n      jump\t// out\n        /* \"#utility.yul\":14192:14414   */\n    tag_37:\n        /* \"#utility.yul\":14285:14289   */\n      0x00\n        /* \"#utility.yul\":14323:14325   */\n      0x20\n        /* \"#utility.yul\":14312:14321   */\n      dup3\n        /* \"#utility.yul\":14308:14326   */\n      add\n        /* \"#utility.yul\":14300:14326   */\n      swap1\n      pop\n        /* \"#utility.yul\":14336:14407   */\n      tag_381\n        /* \"#utility.yul\":14404:14405   */\n      0x00\n        /* \"#utility.yul\":14393:14402   */\n      dup4\n        /* \"#utility.yul\":14389:14406   */\n      add\n        /* \"#utility.yul\":14380:14386   */\n      dup5\n        /* \"#utility.yul\":14336:14407   */\n      tag_340\n      jump\t// in\n    tag_381:\n        /* \"#utility.yul\":14192:14414   */\n      swap3\n      swap2\n      pop\n      pop\n      jump\t// out\n        /* \"#utility.yul\":14420:14634   */\n    tag_46:\n        /* \"#utility.yul\":14509:14513   */\n      0x00\n        /* \"#utility.yul\":14547:14549   */\n      0x20\n        /* \"#utility.yul\":14536:14545   */\n      dup3\n        /* \"#utility.yul\":14532:14550   */\n      add\n        /* \"#utility.yul\":14524:14550   */\n      swap1\n      pop\n        /* \"#utility.yul\":14560:14627   */\n      tag_383\n        /* \"#utility.yul\":14624:14625   */\n      0x00\n        /* \"#utility.yul\":14613:14622   */\n      dup4\n        /* \"#utility.yul\":14609:14626   */\n      add\n        /* \"#utility.yul\":14600:14606   */\n      dup5\n        /* \"#utility.yul\":14560:14627   */\n      tag_344\n      jump\t// in\n    tag_383:\n        /* \"#utility.yul\":14420:14634   */\n      swap3\n      swap2\n      pop\n      pop\n      jump\t// out\n        /* \"#utility.yul\":14721:14820   */\n    tag_268:\n        /* \"#utility.yul\":14773:14779   */\n      0x00\n        /* \"#utility.yul\":14807:14812   */\n      dup2\n        /* \"#utility.yul\":14801:14813   */\n      mload\n        /* \"#utility.yul\":14791:14813   */\n      swap1\n      pop\n        /* \"#utility.yul\":14721:14820   */\n      swap2\n      swap1\n      pop\n      jump\t// out\n        /* \"#utility.yul\":14826:14995   */\n    tag_270:\n        /* \"#utility.yul\":14910:14921   */\n      0x00\n        /* \"#utility.yul\":14944:14950   */\n      dup3\n        /* \"#utility.yul\":14939:14942   */\n      dup3\n        /* \"#utility.yul\":14932:14951   */\n      mstore\n        /* \"#utility.yul\":14984:14988   */\n      0x20\n        /* \"#utility.yul\":14979:14982   */\n      dup3\n        /* \"#utility.yul\":14975:14989   */\n      add\n        /* \"#utility.yul\":14960:14989   */\n      swap1\n      pop\n        /* \"#utility.yul\":14826:14995   */\n      swap3\n      swap2\n      pop\n      pop\n      jump\t// out\n        /* \"#utility.yul\":15001:15306   */\n    tag_118:\n        /* \"#utility.yul\":15041:15044   */\n      0x00\n        /* \"#utility.yul\":15060:15080   */\n      tag_389\n        /* \"#utility.yul\":15078:15079   */\n      dup3\n        /* \"#utility.yul\":15060:15080   */\n      tag_343\n      jump\t// in\n    tag_389:\n        /* \"#utility.yul\":15055:15080   */\n      swap2\n      pop\n        /* \"#utility.yul\":15094:15114   */\n      tag_390\n        /* \"#utility.yul\":15112:15113   */\n      dup4\n        /* \"#utility.yul\":15094:15114   */\n      tag_343\n      jump\t// in\n    tag_390:\n        /* \"#utility.yul\":15089:15114   */\n      swap3\n      pop\n        /* \"#utility.yul\":15248:15249   */\n      dup3\n        /* \"#utility.yul\":15180:15246   */\n      0xffffffffffffffffffffffffffffffffffffffffffffffffffffffffffffffff\n        /* \"#utility.yul\":15176:15250   */\n      sub\n        /* \"#utility.yul\":15173:15174   */\n      dup3\n        /* \"#utility.yul\":15170:15251   */\n      gt\n        /* \"#utility.yul\":15167:15274   */\n      iszero\n      tag_391\n      jumpi\n        /* \"#utility.yul\":15254:15272   */\n      tag_392\n      tag_393\n      jump\t// in\n    tag_392:\n        /* \"#utility.yul\":15167:15274   */\n    tag_391:\n        /* \"#utility.yul\":15298:15299   */\n      dup3\n        /* \"#utility.yul\":15295:15296   */\n      dup3\n        /* \"#utility.yul\":15291:15300   */\n      add\n        /* \"#utility.yul\":15284:15300   */\n      swap1\n      pop\n        /* \"#utility.yul\":15001:15306   */\n      swap3\n      swap2\n      pop\n      pop\n      jump\t// out\n        /* \"#utility.yul\":15312:15408   */\n    tag_260:\n        /* \"#utility.yul\":15349:15356   */\n      0x00\n        /* \"#utility.yul\":15378:15402   */\n      tag_395\n        /* \"#utility.yul\":15396:15401   */\n      dup3\n        /* \"#utility.yul\":15378:15402   */\n      tag_396\n      jump\t// in\n    tag_395:\n        /* \"#utility.yul\":15367:15402   */\n      swap1\n      pop\n        /* \"#utility.yul\":15312:15408   */\n      swap2\n      swap1\n      pop\n      jump\t// out\n        /* \"#utility.yul\":15414:15504   */\n    tag_264:\n        /* \"#utility.yul\":15448:15455   */\n      0x00\n        /* \"#utility.yul\":15491:15496   */\n      dup2\n        /* \"#utility.yul\":15484:15497   */\n      iszero\n        /* \"#utility.yul\":15477:15498   */\n      iszero\n        /* \"#utility.yul\":15466:15498   */\n      swap1\n      pop\n        /* \"#utility.yul\":15414:15504   */\n      swap2\n      swap1\n      pop\n      jump\t// out\n        /* \"#utility.yul\":15510:15636   */\n    tag_396:\n        /* \"#utility.yul\":15547:15554   */\n      0x00\n        /* \"#utility.yul\":15587:15629   */\n      0xffffffffffffffffffffffffffffffffffffffff\n        /* \"#utility.yul\":15580:15585   */\n      dup3\n        /* \"#utility.yul\":15576:15630   */\n      and\n        /* \"#utility.yul\":15565:15630   */\n      swap1\n      pop\n        /* \"#utility.yul\":15510:15636   */\n      swap2\n      swap1\n      pop\n      jump\t// out\n        /* \"#utility.yul\":15642:15719   */\n    tag_343:\n        /* \"#utility.yul\":15679:15686   */\n      0x00\n        /* \"#utility.yul\":15708:15713   */\n      dup2\n        /* \"#utility.yul\":15697:15713   */\n      swap1\n      pop\n        /* \"#utility.yul\":15642:15719   */\n      swap2\n      swap1\n      pop\n      jump\t// out\n        /* \"#utility.yul\":15725:15811   */\n    tag_347:\n        /* \"#utility.yul\":15760:15767   */\n      0x00\n        /* \"#utility.yul\":15800:15804   */\n      0xff\n        /* \"#utility.yul\":15793:15798   */\n      dup3\n        /* \"#utility.yul\":15789:15805   */\n      and\n        /* \"#utility.yul\":15778:15805   */\n      swap1\n      pop\n        /* \"#utility.yul\":15725:15811   */\n      swap2\n      swap1\n      pop\n      jump\t// out\n        /* \"#utility.yul\":15817:16124   */\n    tag_272:\n        /* \"#utility.yul\":15885:15886   */\n      0x00\n        /* \"#utility.yul\":15895:16008   */\n    tag_402:\n        /* \"#utility.yul\":15909:15915   */\n      dup4\n        /* \"#utility.yul\":15906:15907   */\n      dup2\n        /* \"#utility.yul\":15903:15916   */\n      lt\n        /* \"#utility.yul\":15895:16008   */\n      iszero\n      tag_404\n      jumpi\n        /* \"#utility.yul\":15994:15995   */\n      dup1\n        /* \"#utility.yul\":15989:15992   */\n      dup3\n        /* \"#utility.yul\":15985:15996   */\n      add\n        /* \"#utility.yul\":15979:15997   */\n      mload\n        /* \"#utility.yul\":15975:15976   */\n      dup2\n        /* \"#utility.yul\":15970:15973   */\n      dup5\n        /* \"#utility.yul\":15966:15977   */\n      add\n        /* \"#utility.yul\":15959:15998   */\n      mstore\n        /* \"#utility.yul\":15931:15933   */\n      0x20\n        /* \"#utility.yul\":15928:15929   */\n      dup2\n        /* \"#utility.yul\":15924:15934   */\n      add\n        /* \"#utility.yul\":15919:15934   */\n      swap1\n      pop\n        /* \"#utility.yul\":15895:16008   */\n      jump(tag_402)\n    tag_404:\n        /* \"#utility.yul\":16026:16032   */\n      dup4\n        /* \"#utility.yul\":16023:16024   */\n      dup2\n        /* \"#utility.yul\":16020:16033   */\n      gt\n        /* \"#utility.yul\":16017:16118   */\n      iszero\n      tag_405\n      jumpi\n        /* \"#utility.yul\":16106:16107   */\n      0x00\n        /* \"#utility.yul\":16097:16103   */\n      dup5\n        /* \"#utility.yul\":16092:16095   */\n      dup5\n        /* \"#utility.yul\":16088:16104   */\n      add\n        /* \"#utility.yul\":16081:16108   */\n      mstore\n        /* \"#utility.yul\":16017:16118   */\n    tag_405:\n        /* \"#utility.yul\":15866:16124   */\n      pop\n        /* \"#utility.yul\":15817:16124   */\n      pop\n      pop\n      pop\n      jump\t// out\n        /* \"#utility.yul\":16130:16450   */\n    tag_95:\n        /* \"#utility.yul\":16174:16180   */\n      0x00\n        /* \"#utility.yul\":16211:16212   */\n      0x02\n        /* \"#utility.yul\":16205:16209   */\n      dup3\n        /* \"#utility.yul\":16201:16213   */\n      div\n        /* \"#utility.yul\":16191:16213   */\n      swap1\n      pop\n        /* \"#utility.yul\":16258:16259   */\n      0x01\n        /* \"#utility.yul\":16252:16256   */\n      dup3\n        /* \"#utility.yul\":16248:16260   */\n      and\n        /* \"#utility.yul\":16279:16297   */\n      dup1\n        /* \"#utility.yul\":16269:16350   */\n      tag_407\n      jumpi\n        /* \"#utility.yul\":16335:16339   */\n      0x7f\n        /* \"#utility.yul\":16327:16333   */\n      dup3\n        /* \"#utility.yul\":16323:16340   */\n      and\n        /* \"#utility.yul\":16313:16340   */\n      swap2\n      pop\n        /* \"#utility.yul\":16269:16350   */\n    tag_407:\n        /* \"#utility.yul\":16397:16399   */\n      0x20\n        /* \"#utility.yul\":16389:16395   */\n      dup3\n        /* \"#utility.yul\":16386:16400   */\n      lt\n        /* \"#utility.yul\":16366:16384   */\n      dup2\n        /* \"#utility.yul\":16363:16401   */\n      eq\n        /* \"#utility.yul\":16360:16444   */\n      iszero\n      tag_408\n      jumpi\n        /* \"#utility.yul\":16416:16434   */\n      tag_409\n      tag_410\n      jump\t// in\n    tag_409:\n        /* \"#utility.yul\":16360:16444   */\n    tag_408:\n        /* \"#utility.yul\":16181:16450   */\n      pop\n        /* \"#utility.yul\":16130:16450   */\n      swap2\n      swap1\n      pop\n      jump\t// out\n        /* \"#utility.yul\":16456:16636   */\n    tag_393:\n        /* \"#utility.yul\":16504:16581   */\n      0x4e487b7100000000000000000000000000000000000000000000000000000000\n        /* \"#utility.yul\":16501:16502   */\n      0x00\n        /* \"#utility.yul\":16494:16582   */\n      mstore\n        /* \"#utility.yul\":16601:16605   */\n      0x11\n        /* \"#utility.yul\":16598:16599   */\n      0x04\n        /* \"#utility.yul\":16591:16606   */\n      mstore\n        /* \"#utility.yul\":16625:16629   */\n      0x24\n        /* \"#utility.yul\":16622:16623   */\n      0x00\n        /* \"#utility.yul\":16615:16630   */\n      revert\n        /* \"#utility.yul\":16642:16822   */\n    tag_410:\n        /* \"#utility.yul\":16690:16767   */\n      0x4e487b7100000000000000000000000000000000000000000000000000000000\n        /* \"#utility.yul\":16687:16688   */\n      0x00\n        /* \"#utility.yul\":16680:16768   */\n      mstore\n        /* \"#utility.yul\":16787:16791   */\n      0x22\n        /* \"#utility.yul\":16784:16785   */\n      0x04\n        /* \"#utility.yul\":16777:16792   */\n      mstore\n        /* \"#utility.yul\":16811:16815   */\n      0x24\n        /* \"#utility.yul\":16808:16809   */\n      0x00\n        /* \"#utility.yul\":16801:16816   */\n      revert\n        /* \"#utility.yul\":16951:17068   */\n    tag_239:\n        /* \"#utility.yul\":17060:17061   */\n      0x00\n        /* \"#utility.yul\":17057:17058   */\n      dup1\n        /* \"#utility.yul\":17050:17062   */\n      revert\n        /* \"#utility.yul\":17074:17176   */\n    tag_274:\n        /* \"#utility.yul\":17115:17121   */\n      0x00\n        /* \"#utility.yul\":17166:17168   */\n      0x1f\n        /* \"#utility.yul\":17162:17169   */\n      not\n        /* \"#utility.yul\":17157:17159   */\n      0x1f\n        /* \"#utility.yul\":17150:17155   */\n      dup4\n        /* \"#utility.yul\":17146:17160   */\n      add\n        /* \"#utility.yul\":17142:17170   */\n      and\n        /* \"#utility.yul\":17132:17170   */\n      swap1\n      pop\n        /* \"#utility.yul\":17074:17176   */\n      swap2\n      swap1\n      pop\n      jump\t// out\n        /* \"#utility.yul\":17182:17404   */\n    tag_279:\n        /* \"#utility.yul\":17322:17356   */\n      0x45524332303a207472616e7366657220746f20746865207a65726f2061646472\n        /* \"#utility.yul\":17318:17319   */\n      0x00\n        /* \"#utility.yul\":17310:17316   */\n      dup3\n        /* \"#utility.yul\":17306:17320   */\n      add\n        /* \"#utility.yul\":17299:17357   */\n      mstore\n        /* \"#utility.yul\":17391:17396   */\n      0x6573730000000000000000000000000000000000000000000000000000000000\n        /* \"#utility.yul\":17386:17388   */\n      0x20\n        /* \"#utility.yul\":17378:17384   */\n      dup3\n        /* \"#utility.yul\":17374:17389   */\n      add\n        /* \"#utility.yul\":17367:17397   */\n      mstore\n        /* \"#utility.yul\":17182:17404   */\n      pop\n      jump\t// out\n        /* \"#utility.yul\":17410:17631   */\n    tag_284:\n        /* \"#utility.yul\":17550:17584   */\n      0x45524332303a206275726e20616d6f756e7420657863656564732062616c616e\n        /* \"#utility.yul\":17546:17547   */\n      0x00\n        /* \"#utility.yul\":17538:17544   */\n      dup3\n        /* \"#utility.yul\":17534:17548   */\n      add\n        /* \"#utility.yul\":17527:17585   */\n      mstore\n        /* \"#utility.yul\":17619:17623   */\n      0x6365000000000000000000000000000000000000000000000000000000000000\n        /* \"#utility.yul\":17614:17616   */\n      0x20\n        /* \"#utility.yul\":17606:17612   */\n      dup3\n        /* \"#utility.yul\":17602:17617   */\n      add\n        /* \"#utility.yul\":17595:17624   */\n      mstore\n        /* \"#utility.yul\":17410:17631   */\n      pop\n      jump\t// out\n        /* \"#utility.yul\":17637:17862   */\n    tag_289:\n        /* \"#utility.yul\":17777:17811   */\n      0x4f776e61626c653a206e6577206f776e657220697320746865207a65726f2061\n        /* \"#utility.yul\":17773:17774   */\n      0x00\n        /* \"#utility.yul\":17765:17771   */\n      dup3\n        /* \"#utility.yul\":17761:17775   */\n      add\n        /* \"#utility.yul\":17754:17812   */\n      mstore\n        /* \"#utility.yul\":17846:17854   */\n      0x6464726573730000000000000000000000000000000000000000000000000000\n        /* \"#utility.yul\":17841:17843   */\n      0x20\n        /* \"#utility.yul\":17833:17839   */\n      dup3\n        /* \"#utility.yul\":17829:17844   */\n      add\n        /* \"#utility.yul\":17822:17855   */\n      mstore\n        /* \"#utility.yul\":17637:17862   */\n      pop\n      jump\t// out\n        /* \"#utility.yul\":17868:18089   */\n    tag_294:\n        /* \"#utility.yul\":18008:18042   */\n      0x45524332303a20617070726f766520746f20746865207a65726f206164647265\n        /* \"#utility.yul\":18004:18005   */\n      0x00\n        /* \"#utility.yul\":17996:18002   */\n      dup3\n        /* \"#utility.yul\":17992:18006   */\n      add\n        /* \"#utility.yul\":17985:18043   */\n      mstore\n        /* \"#utility.yul\":18077:18081   */\n      0x7373000000000000000000000000000000000000000000000000000000000000\n        /* \"#utility.yul\":18072:18074   */\n      0x20\n        /* \"#utility.yul\":18064:18070   */\n      dup3\n        /* \"#utility.yul\":18060:18075   */\n      add\n        /* \"#utility.yul\":18053:18082   */\n      mstore\n        /* \"#utility.yul\":17868:18089   */\n      pop\n      jump\t// out\n        /* \"#utility.yul\":18095:18274   */\n    tag_299:\n        /* \"#utility.yul\":18235:18266   */\n      0x45524332303a20696e73756666696369656e7420616c6c6f77616e6365000000\n        /* \"#utility.yul\":18231:18232   */\n      0x00\n        /* \"#utility.yul\":18223:18229   */\n      dup3\n        /* \"#utility.yul\":18219:18233   */\n      add\n        /* \"#utility.yul\":18212:18267   */\n      mstore\n        /* \"#utility.yul\":18095:18274   */\n      pop\n      jump\t// out\n        /* \"#utility.yul\":18280:18505   */\n    tag_304:\n        /* \"#utility.yul\":18420:18454   */\n      0x45524332303a207472616e7366657220616d6f756e7420657863656564732062\n        /* \"#utility.yul\":18416:18417   */\n      0x00\n        /* \"#utility.yul\":18408:18414   */\n      dup3\n        /* \"#utility.yul\":18404:18418   */\n      add\n        /* \"#utility.yul\":18397:18455   */\n      mstore\n        /* \"#utility.yul\":18489:18497   */\n      0x616c616e63650000000000000000000000000000000000000000000000000000\n        /* \"#utility.yul\":18484:18486   */\n      0x20\n        /* \"#utility.yul\":18476:18482   */\n      dup3\n        /* \"#utility.yul\":18472:18487   */\n      add\n        /* \"#utility.yul\":18465:18498   */\n      mstore\n        /* \"#utility.yul\":18280:18505   */\n      pop\n      jump\t// out\n        /* \"#utility.yul\":18511:18684   */\n    tag_309:\n        /* \"#utility.yul\":18651:18676   */\n      0x546f6b656e3a204f6e6c7920636f6e74726f6c6c657273000000000000000000\n        /* \"#utility.yul\":18647:18648   */\n      0x00\n        /* \"#utility.yul\":18639:18645   */\n      dup3\n        /* \"#utility.yul\":18635:18649   */\n      add\n        /* \"#utility.yul\":18628:18677   */\n      mstore\n        /* \"#utility.yul\":18511:18684   */\n      pop\n      jump\t// out\n        /* \"#utility.yul\":18690:18872   */\n    tag_314:\n        /* \"#utility.yul\":18830:18864   */\n      0x4f776e61626c653a2063616c6c6572206973206e6f7420746865206f776e6572\n        /* \"#utility.yul\":18826:18827   */\n      0x00\n        /* \"#utility.yul\":18818:18824   */\n      dup3\n        /* \"#utility.yul\":18814:18828   */\n      add\n        /* \"#utility.yul\":18807:18865   */\n      mstore\n        /* \"#utility.yul\":18690:18872   */\n      pop\n      jump\t// out\n        /* \"#utility.yul\":18878:19098   */\n    tag_319:\n        /* \"#utility.yul\":19018:19052   */\n      0x45524332303a206275726e2066726f6d20746865207a65726f20616464726573\n        /* \"#utility.yul\":19014:19015   */\n      0x00\n        /* \"#utility.yul\":19006:19012   */\n      dup3\n        /* \"#utility.yul\":19002:19016   */\n      add\n        /* \"#utility.yul\":18995:19053   */\n      mstore\n        /* \"#utility.yul\":19087:19090   */\n      0x7300000000000000000000000000000000000000000000000000000000000000\n        /* \"#utility.yul\":19082:19084   */\n      0x20\n        /* \"#utility.yul\":19074:19080   */\n      dup3\n        /* \"#utility.yul\":19070:19085   */\n      add\n        /* \"#utility.yul\":19063:19091   */\n      mstore\n        /* \"#utility.yul\":18878:19098   */\n      pop\n      jump\t// out\n        /* \"#utility.yul\":19104:19328   */\n    tag_324:\n        /* \"#utility.yul\":19244:19278   */\n      0x45524332303a207472616e736665722066726f6d20746865207a65726f206164\n        /* \"#utility.yul\":19240:19241   */\n      0x00\n        /* \"#utility.yul\":19232:19238   */\n      dup3\n        /* \"#utility.yul\":19228:19242   */\n      add\n        /* \"#utility.yul\":19221:19279   */\n      mstore\n        /* \"#utility.yul\":19313:19320   */\n      0x6472657373000000000000000000000000000000000000000000000000000000\n        /* \"#utility.yul\":19308:19310   */\n      0x20\n        /* \"#utility.yul\":19300:19306   */\n      dup3\n        /* \"#utility.yul\":19296:19311   */\n      add\n        /* \"#utility.yul\":19289:19321   */\n      mstore\n        /* \"#utility.yul\":19104:19328   */\n      pop\n      jump\t// out\n        /* \"#utility.yul\":19334:19557   */\n    tag_329:\n        /* \"#utility.yul\":19474:19508   */\n      0x45524332303a20617070726f76652066726f6d20746865207a65726f20616464\n        /* \"#utility.yul\":19470:19471   */\n      0x00\n        /* \"#utility.yul\":19462:19468   */\n      dup3\n        /* \"#utility.yul\":19458:19472   */\n      add\n        /* \"#utility.yul\":19451:19509   */\n      mstore\n        /* \"#utility.yul\":19543:19549   */\n      0x7265737300000000000000000000000000000000000000000000000000000000\n        /* \"#utility.yul\":19538:19540   */\n      0x20\n        /* \"#utility.yul\":19530:19536   */\n      dup3\n        /* \"#utility.yul\":19526:19541   */\n      add\n        /* \"#utility.yul\":19519:19550   */\n      mstore\n        /* \"#utility.yul\":19334:19557   */\n      pop\n      jump\t// out\n        /* \"#utility.yul\":19563:19787   */\n    tag_334:\n        /* \"#utility.yul\":19703:19737   */\n      0x45524332303a2064656372656173656420616c6c6f77616e63652062656c6f77\n        /* \"#utility.yul\":19699:19700   */\n      0x00\n        /* \"#utility.yul\":19691:19697   */\n      dup3\n        /* \"#utility.yul\":19687:19701   */\n      add\n        /* \"#utility.yul\":19680:19738   */\n      mstore\n        /* \"#utility.yul\":19772:19779   */\n      0x207a65726f000000000000000000000000000000000000000000000000000000\n        /* \"#utility.yul\":19767:19769   */\n      0x20\n        /* \"#utility.yul\":19759:19765   */\n      dup3\n        /* \"#utility.yul\":19755:19770   */\n      add\n        /* \"#utility.yul\":19748:19780   */\n      mstore\n        /* \"#utility.yul\":19563:19787   */\n      pop\n      jump\t// out\n        /* \"#utility.yul\":19793:19974   */\n    tag_339:\n        /* \"#utility.yul\":19933:19966   */\n      0x45524332303a206d696e7420746f20746865207a65726f206164647265737300\n        /* \"#utility.yul\":19929:19930   */\n      0x00\n        /* \"#utility.yul\":19921:19927   */\n      dup3\n        /* \"#utility.yul\":19917:19931   */\n      add\n        /* \"#utility.yul\":19910:19967   */\n      mstore\n        /* \"#utility.yul\":19793:19974   */\n      pop\n      jump\t// out\n        /* \"#utility.yul\":19980:20102   */\n    tag_231:\n        /* \"#utility.yul\":20053:20077   */\n      tag_431\n        /* \"#utility.yul\":20071:20076   */\n      dup2\n        /* \"#utility.yul\":20053:20077   */\n      tag_260\n      jump\t// in\n    tag_431:\n        /* \"#utility.yul\":20046:20051   */\n      dup2\n        /* \"#utility.yul\":20043:20078   */\n      eq\n        /* \"#utility.yul\":20033:20096   */\n      tag_432\n      jumpi\n        /* \"#utility.yul\":20092:20093   */\n      0x00\n        /* \"#utility.yul\":20089:20090   */\n      dup1\n        /* \"#utility.yul\":20082:20094   */\n      revert\n        /* \"#utility.yul\":20033:20096   */\n    tag_432:\n        /* \"#utility.yul\":19980:20102   */\n      pop\n      jump\t// out\n        /* \"#utility.yul\":20108:20230   */\n    tag_235:\n        /* \"#utility.yul\":20181:20205   */\n      tag_434\n        /* \"#utility.yul\":20199:20204   */\n      dup2\n        /* \"#utility.yul\":20181:20205   */\n      tag_343\n      jump\t// in\n    tag_434:\n        /* \"#utility.yul\":20174:20179   */\n      dup2\n        /* \"#utility.yul\":20171:20206   */\n      eq\n        /* \"#utility.yul\":20161:20224   */\n      tag_435\n      jumpi\n        /* \"#utility.yul\":20220:20221   */\n      0x00\n        /* \"#utility.yul\":20217:20218   */\n      dup1\n        /* \"#utility.yul\":20210:20222   */\n      revert\n        /* \"#utility.yul\":20161:20224   */\n    tag_435:\n        /* \"#utility.yul\":20108:20230   */\n      pop\n      jump\t// out\n\n    auxdata: 0xa264697066735822122055850b5e6bcf16cc215c38f4f8524c842d264cb8bc352fe4707eb4f802eb5c1a64736f6c63430008070033\n}\n",
				"bytecode": {
					"linkReferences": {},
					"object": "60806040523480156200001157600080fd5b5060405162002432380380620024328339818101604052810190620000379190620003c9565b818181600390805190602001906200005192919062000284565b5080600490805190602001906200006a92919062000284565b5050506200008d62000081620000a760201b60201c565b620000af60201b60201c565b6200009e836200017560201b60201c565b505050620006b8565b600033905090565b6000600560009054906101000a900473ffffffffffffffffffffffffffffffffffffffff16905081600560006101000a81548173ffffffffffffffffffffffffffffffffffffffff021916908373ffffffffffffffffffffffffffffffffffffffff1602179055508173ffffffffffffffffffffffffffffffffffffffff168173ffffffffffffffffffffffffffffffffffffffff167f8be0079c531659141344cd1fd0a4f28419497f9722a3daafe3b4186f6b6457e060405160405180910390a35050565b62000185620001c960201b60201c565b80600660006101000a81548173ffffffffffffffffffffffffffffffffffffffff021916908373ffffffffffffffffffffffffffffffffffffffff16021790555050565b620001d9620000a760201b60201c565b73ffffffffffffffffffffffffffffffffffffffff16620001ff6200025a60201b60201c565b73ffffffffffffffffffffffffffffffffffffffff161462000258576040517f08c379a00000000000000000000000000000000000000000000000000000000081526004016200024f906200048a565b60405180910390fd5b565b6000600560009054906101000a900473ffffffffffffffffffffffffffffffffffffffff16905090565b828054620002929062000586565b90600052602060002090601f016020900481019282620002b6576000855562000302565b82601f10620002d157805160ff191683800117855562000302565b8280016001018555821562000302579182015b8281111562000301578251825591602001919060010190620002e4565b5b50905062000311919062000315565b5090565b5b808211156200033057600081600090555060010162000316565b5090565b60006200034b6200034584620004d5565b620004ac565b9050828152602081018484840111156200036a576200036962000655565b5b6200037784828562000550565b509392505050565b60008151905062000390816200069e565b92915050565b600082601f830112620003ae57620003ad62000650565b5b8151620003c084826020860162000334565b91505092915050565b600080600060608486031215620003e557620003e46200065f565b5b6000620003f5868287016200037f565b935050602084015167ffffffffffffffff8111156200041957620004186200065a565b5b620004278682870162000396565b925050604084015167ffffffffffffffff8111156200044b576200044a6200065a565b5b620004598682870162000396565b9150509250925092565b6000620004726020836200050b565b91506200047f8262000675565b602082019050919050565b60006020820190508181036000830152620004a58162000463565b9050919050565b6000620004b8620004cb565b9050620004c68282620005bc565b919050565b6000604051905090565b600067ffffffffffffffff821115620004f357620004f262000621565b5b620004fe8262000664565b9050602081019050919050565b600082825260208201905092915050565b6000620005298262000530565b9050919050565b600073ffffffffffffffffffffffffffffffffffffffff82169050919050565b60005b838110156200057057808201518184015260208101905062000553565b8381111562000580576000848401525b50505050565b600060028204905060018216806200059f57607f821691505b60208210811415620005b657620005b5620005f2565b5b50919050565b620005c78262000664565b810181811067ffffffffffffffff82111715620005e957620005e862000621565b5b80604052505050565b7f4e487b7100000000000000000000000000000000000000000000000000000000600052602260045260246000fd5b7f4e487b7100000000000000000000000000000000000000000000000000000000600052604160045260246000fd5b600080fd5b600080fd5b600080fd5b600080fd5b6000601f19601f8301169050919050565b7f4f776e61626c653a2063616c6c6572206973206e6f7420746865206f776e6572600082015250565b620006a9816200051c565b8114620006b557600080fd5b50565b611d6a80620006c86000396000f3fe608060405234801561001057600080fd5b50600436106101165760003560e01c80638da5cb5b116100a2578063a457c2d711610071578063a457c2d7146102cf578063a9059cbb146102ff578063dd62ed3e1461032f578063f2fde38b1461035f578063f77c47911461037b57610116565b80638da5cb5b1461025b57806392eefe9b1461027957806395d89b41146102955780639dc29fac146102b357610116565b8063313ce567116100e9578063313ce567146101b757806339509351146101d557806340c10f191461020557806370a0823114610221578063715018a61461025157610116565b806306fdde031461011b578063095ea7b31461013957806318160ddd1461016957806323b872dd14610187575b600080fd5b610123610399565b6040516101309190611603565b60405180910390f35b610153600480360381019061014e9190611351565b61042b565b60405161016091906115e8565b60405180910390f35b61017161044e565b60405161017e91906117c5565b60405180910390f35b6101a1600480360381019061019c91906112fe565b610458565b6040516101ae91906115e8565b60405180910390f35b6101bf610487565b6040516101cc91906117e0565b60405180910390f35b6101ef60048036038101906101ea9190611351565b610490565b6040516101fc91906115e8565b60405180910390f35b61021f600480360381019061021a9190611351565b6104c7565b005b61023b60048036038101906102369190611291565b6105d8565b60405161024891906117c5565b60405180910390f35b610259610620565b005b610263610634565b60405161027091906115cd565b60405180910390f35b610293600480360381019061028e9190611291565b61065e565b005b61029d6106aa565b6040516102aa9190611603565b60405180910390f35b6102cd60048036038101906102c89190611351565b61073c565b005b6102e960048036038101906102e49190611351565b610752565b6040516102f691906115e8565b60405180910390f35b61031960048036038101906103149190611351565b6107c9565b60405161032691906115e8565b60405180910390f35b610349600480360381019061034491906112be565b6107ec565b60405161035691906117c5565b60405180910390f35b61037960048036038101906103749190611291565b610873565b005b6103836108f7565b60405161039091906115cd565b60405180910390f35b6060600380546103a8906118f5565b80601f01602080910402602001604051908101604052809291908181526020018280546103d4906118f5565b80156104215780601f106103f657610100808354040283529160200191610421565b820191906000526020600020905b81548152906001019060200180831161040457829003601f168201915b5050505050905090565b60008061043661091d565b9050610443818585610925565b600191505092915050565b6000600254905090565b60008061046361091d565b9050610470858285610af0565b61047b858585610b7c565b60019150509392505050565b60006012905090565b60008061049b61091d565b90506104bc8185856104ad85896107ec565b6104b79190611817565b610925565b600191505092915050565b600660009054906101000a900473ffffffffffffffffffffffffffffffffffffffff1673ffffffffffffffffffffffffffffffffffffffff163373ffffffffffffffffffffffffffffffffffffffff1614806105555750610526610634565b73ffffffffffffffffffffffffffffffffffffffff163373ffffffffffffffffffffffffffffffffffffffff16145b8061058b57503073ffffffffffffffffffffffffffffffffffffffff163373ffffffffffffffffffffffffffffffffffffffff16145b6105ca576040517f08c379a00000000000000000000000000000000000000000000000000000000081526004016105c1906116e5565b60405180910390fd5b6105d48282610df4565b5050565b60008060008373ffffffffffffffffffffffffffffffffffffffff1673ffffffffffffffffffffffffffffffffffffffff168152602001908152602001600020549050919050565b610628610f4b565b6106326000610fc9565b565b6000600560009054906101000a900473ffffffffffffffffffffffffffffffffffffffff16905090565b610666610f4b565b80600660006101000a81548173ffffffffffffffffffffffffffffffffffffffff021916908373ffffffffffffffffffffffffffffffffffffffff16021790555050565b6060600480546106b9906118f5565b80601f01602080910402602001604051908101604052809291908181526020018280546106e5906118f5565b80156107325780601f1061070757610100808354040283529160200191610732565b820191906000526020600020905b81548152906001019060200180831161071557829003601f168201915b5050505050905090565b610744610f4b565b61074e828261108f565b5050565b60008061075d61091d565b9050600061076b82866107ec565b9050838110156107b0576040517f08c379a00000000000000000000000000000000000000000000000000000000081526004016107a790611785565b60405180910390fd5b6107bd8286868403610925565b60019250505092915050565b6000806107d461091d565b90506107e1818585610b7c565b600191505092915050565b6000600160008473ffffffffffffffffffffffffffffffffffffffff1673ffffffffffffffffffffffffffffffffffffffff16815260200190815260200160002060008373ffffffffffffffffffffffffffffffffffffffff1673ffffffffffffffffffffffffffffffffffffffff16815260200190815260200160002054905092915050565b61087b610f4b565b600073ffffffffffffffffffffffffffffffffffffffff168173ffffffffffffffffffffffffffffffffffffffff1614156108eb576040517f08c379a00000000000000000000000000000000000000000000000000000000081526004016108e290611665565b60405180910390fd5b6108f481610fc9565b50565b600660009054906101000a900473ffffffffffffffffffffffffffffffffffffffff1681565b600033905090565b600073ffffffffffffffffffffffffffffffffffffffff168373ffffffffffffffffffffffffffffffffffffffff161415610995576040517f08c379a000000000000000000000000000000000000000000000000000000000815260040161098c90611765565b60405180910390fd5b600073ffffffffffffffffffffffffffffffffffffffff168273ffffffffffffffffffffffffffffffffffffffff161415610a05576040517f08c379a00000000000000000000000000000000000000000000000000000000081526004016109fc90611685565b60405180910390fd5b80600160008573ffffffffffffffffffffffffffffffffffffffff1673ffffffffffffffffffffffffffffffffffffffff16815260200190815260200160002060008473ffffffffffffffffffffffffffffffffffffffff1673ffffffffffffffffffffffffffffffffffffffff168152602001908152602001600020819055508173ffffffffffffffffffffffffffffffffffffffff168373ffffffffffffffffffffffffffffffffffffffff167f8c5be1e5ebec7d5bd14f71427d1e84f3dd0314c0f7b2291e5b200ac8c7c3b92583604051610ae391906117c5565b60405180910390a3505050565b6000610afc84846107ec565b90507fffffffffffffffffffffffffffffffffffffffffffffffffffffffffffffffff8114610b765781811015610b68576040517f08c379a0000000000000000000000000000000000000000000000000000000008152600401610b5f906116a5565b60405180910390fd5b610b758484848403610925565b5b50505050565b600073ffffffffffffffffffffffffffffffffffffffff168373ffffffffffffffffffffffffffffffffffffffff161415610bec576040517f08c379a0000000000000000000000000000000000000000000000000000000008152600401610be390611745565b60405180910390fd5b600073ffffffffffffffffffffffffffffffffffffffff168273ffffffffffffffffffffffffffffffffffffffff161415610c5c576040517f08c379a0000000000000000000000000000000000000000000000000000000008152600401610c5390611625565b60405180910390fd5b610c6783838361125d565b60008060008573ffffffffffffffffffffffffffffffffffffffff1673ffffffffffffffffffffffffffffffffffffffff16815260200190815260200160002054905081811015610ced576040517f08c379a0000000000000000000000000000000000000000000000000000000008152600401610ce4906116c5565b60405180910390fd5b8181036000808673ffffffffffffffffffffffffffffffffffffffff1673ffffffffffffffffffffffffffffffffffffffff16815260200190815260200160002081905550816000808573ffffffffffffffffffffffffffffffffffffffff1673ffffffffffffffffffffffffffffffffffffffff168152602001908152602001600020600082825401925050819055508273ffffffffffffffffffffffffffffffffffffffff168473ffffffffffffffffffffffffffffffffffffffff167fddf252ad1be2c89b69c2b068fc378daa952ba7f163c4a11628f55a4df523b3ef84604051610ddb91906117c5565b60405180910390a3610dee848484611262565b50505050565b600073ffffffffffffffffffffffffffffffffffffffff168273ffffffffffffffffffffffffffffffffffffffff161415610e64576040517f08c379a0000000000000000000000000000000000000000000000000000000008152600401610e5b906117a5565b60405180910390fd5b610e706000838361125d565b8060026000828254610e829190611817565b92505081905550806000808473ffffffffffffffffffffffffffffffffffffffff1673ffffffffffffffffffffffffffffffffffffffff168152602001908152602001600020600082825401925050819055508173ffffffffffffffffffffffffffffffffffffffff16600073ffffffffffffffffffffffffffffffffffffffff167fddf252ad1be2c89b69c2b068fc378daa952ba7f163c4a11628f55a4df523b3ef83604051610f3391906117c5565b60405180910390a3610f4760008383611262565b5050565b610f5361091d565b73ffffffffffffffffffffffffffffffffffffffff16610f71610634565b73ffffffffffffffffffffffffffffffffffffffff1614610fc7576040517f08c379a0000000000000000000000000000000000000000000000000000000008152600401610fbe90611705565b60405180910390fd5b565b6000600560009054906101000a900473ffffffffffffffffffffffffffffffffffffffff16905081600560006101000a81548173ffffffffffffffffffffffffffffffffffffffff021916908373ffffffffffffffffffffffffffffffffffffffff1602179055508173ffffffffffffffffffffffffffffffffffffffff168173ffffffffffffffffffffffffffffffffffffffff167f8be0079c531659141344cd1fd0a4f28419497f9722a3daafe3b4186f6b6457e060405160405180910390a35050565b600073ffffffffffffffffffffffffffffffffffffffff168273ffffffffffffffffffffffffffffffffffffffff1614156110ff576040517f08c379a00000000000000000000000000000000000000000000000000000000081526004016110f690611725565b60405180910390fd5b61110b8260008361125d565b60008060008473ffffffffffffffffffffffffffffffffffffffff1673ffffffffffffffffffffffffffffffffffffffff16815260200190815260200160002054905081811015611191576040517f08c379a000000000000000000000000000000000000000000000000000000000815260040161118890611645565b60405180910390fd5b8181036000808573ffffffffffffffffffffffffffffffffffffffff1673ffffffffffffffffffffffffffffffffffffffff1681526020019081526020016000208190555081600260008282540392505081905550600073ffffffffffffffffffffffffffffffffffffffff168373ffffffffffffffffffffffffffffffffffffffff167fddf252ad1be2c89b69c2b068fc378daa952ba7f163c4a11628f55a4df523b3ef8460405161124491906117c5565b60405180910390a361125883600084611262565b505050565b505050565b505050565b60008135905061127681611d06565b92915050565b60008135905061128b81611d1d565b92915050565b6000602082840312156112a7576112a6611985565b5b60006112b584828501611267565b91505092915050565b600080604083850312156112d5576112d4611985565b5b60006112e385828601611267565b92505060206112f485828601611267565b9150509250929050565b60008060006060848603121561131757611316611985565b5b600061132586828701611267565b935050602061133686828701611267565b92505060406113478682870161127c565b9150509250925092565b6000806040838503121561136857611367611985565b5b600061137685828601611267565b92505060206113878582860161127c565b9150509250929050565b61139a8161186d565b82525050565b6113a98161187f565b82525050565b60006113ba826117fb565b6113c48185611806565b93506113d48185602086016118c2565b6113dd8161198a565b840191505092915050565b60006113f5602383611806565b91506114008261199b565b604082019050919050565b6000611418602283611806565b9150611423826119ea565b604082019050919050565b600061143b602683611806565b915061144682611a39565b604082019050919050565b600061145e602283611806565b915061146982611a88565b604082019050919050565b6000611481601d83611806565b915061148c82611ad7565b602082019050919050565b60006114a4602683611806565b91506114af82611b00565b604082019050919050565b60006114c7601783611806565b91506114d282611b4f565b602082019050919050565b60006114ea602083611806565b91506114f582611b78565b602082019050919050565b600061150d602183611806565b915061151882611ba1565b604082019050919050565b6000611530602583611806565b915061153b82611bf0565b604082019050919050565b6000611553602483611806565b915061155e82611c3f565b604082019050919050565b6000611576602583611806565b915061158182611c8e565b604082019050919050565b6000611599601f83611806565b91506115a482611cdd565b602082019050919050565b6115b8816118ab565b82525050565b6115c7816118b5565b82525050565b60006020820190506115e26000830184611391565b92915050565b60006020820190506115fd60008301846113a0565b92915050565b6000602082019050818103600083015261161d81846113af565b905092915050565b6000602082019050818103600083015261163e816113e8565b9050919050565b6000602082019050818103600083015261165e8161140b565b9050919050565b6000602082019050818103600083015261167e8161142e565b9050919050565b6000602082019050818103600083015261169e81611451565b9050919050565b600060208201905081810360008301526116be81611474565b9050919050565b600060208201905081810360008301526116de81611497565b9050919050565b600060208201905081810360008301526116fe816114ba565b9050919050565b6000602082019050818103600083015261171e816114dd565b9050919050565b6000602082019050818103600083015261173e81611500565b9050919050565b6000602082019050818103600083015261175e81611523565b9050919050565b6000602082019050818103600083015261177e81611546565b9050919050565b6000602082019050818103600083015261179e81611569565b9050919050565b600060208201905081810360008301526117be8161158c565b9050919050565b60006020820190506117da60008301846115af565b92915050565b60006020820190506117f560008301846115be565b92915050565b600081519050919050565b600082825260208201905092915050565b6000611822826118ab565b915061182d836118ab565b9250827fffffffffffffffffffffffffffffffffffffffffffffffffffffffffffffffff0382111561186257611861611927565b5b828201905092915050565b60006118788261188b565b9050919050565b60008115159050919050565b600073ffffffffffffffffffffffffffffffffffffffff82169050919050565b6000819050919050565b600060ff82169050919050565b60005b838110156118e05780820151818401526020810190506118c5565b838111156118ef576000848401525b50505050565b6000600282049050600182168061190d57607f821691505b6020821081141561192157611920611956565b5b50919050565b7f4e487b7100000000000000000000000000000000000000000000000000000000600052601160045260246000fd5b7f4e487b7100000000000000000000000000000000000000000000000000000000600052602260045260246000fd5b600080fd5b6000601f19601f8301169050919050565b7f45524332303a207472616e7366657220746f20746865207a65726f206164647260008201527f6573730000000000000000000000000000000000000000000000000000000000602082015250565b7f45524332303a206275726e20616d6f756e7420657863656564732062616c616e60008201527f6365000000000000000000000000000000000000000000000000000000000000602082015250565b7f4f776e61626c653a206e6577206f776e657220697320746865207a65726f206160008201527f6464726573730000000000000000000000000000000000000000000000000000602082015250565b7f45524332303a20617070726f766520746f20746865207a65726f20616464726560008201527f7373000000000000000000000000000000000000000000000000000000000000602082015250565b7f45524332303a20696e73756666696369656e7420616c6c6f77616e6365000000600082015250565b7f45524332303a207472616e7366657220616d6f756e742065786365656473206260008201527f616c616e63650000000000000000000000000000000000000000000000000000602082015250565b7f546f6b656e3a204f6e6c7920636f6e74726f6c6c657273000000000000000000600082015250565b7f4f776e61626c653a2063616c6c6572206973206e6f7420746865206f776e6572600082015250565b7f45524332303a206275726e2066726f6d20746865207a65726f2061646472657360008201527f7300000000000000000000000000000000000000000000000000000000000000602082015250565b7f45524332303a207472616e736665722066726f6d20746865207a65726f20616460008201527f6472657373000000000000000000000000000000000000000000000000000000602082015250565b7f45524332303a20617070726f76652066726f6d20746865207a65726f2061646460008201527f7265737300000000000000000000000000000000000000000000000000000000602082015250565b7f45524332303a2064656372656173656420616c6c6f77616e63652062656c6f7760008201527f207a65726f000000000000000000000000000000000000000000000000000000602082015250565b7f45524332303a206d696e7420746f20746865207a65726f206164647265737300600082015250565b611d0f8161186d565b8114611d1a57600080fd5b50565b611d26816118ab565b8114611d3157600080fd5b5056fea264697066735822122055850b5e6bcf16cc215c38f4f8524c842d264cb8bc352fe4707eb4f802eb5c1a64736f6c63430008070033",
					"opcodes": "PUSH1 0x80 PUSH1 0x40 MSTORE CALLVALUE DUP1 ISZERO PUSH3 0x11 JUMPI PUSH1 0x0 DUP1 REVERT JUMPDEST POP PUSH1 0x40 MLOAD PUSH3 0x2432 CODESIZE SUB DUP1 PUSH3 0x2432 DUP4 CODECOPY DUP2 DUP2 ADD PUSH1 0x40 MSTORE DUP2 ADD SWAP1 PUSH3 0x37 SWAP2 SWAP1 PUSH3 0x3C9 JUMP JUMPDEST DUP2 DUP2 DUP2 PUSH1 0x3 SWAP1 DUP1 MLOAD SWAP1 PUSH1 0x20 ADD SWAP1 PUSH3 0x51 SWAP3 SWAP2 SWAP1 PUSH3 0x284 JUMP JUMPDEST POP DUP1 PUSH1 0x4 SWAP1 DUP1 MLOAD SWAP1 PUSH1 0x20 ADD SWAP1 PUSH3 0x6A SWAP3 SWAP2 SWAP1 PUSH3 0x284 JUMP JUMPDEST POP POP POP PUSH3 0x8D PUSH3 0x81 PUSH3 0xA7 PUSH1 0x20 SHL PUSH1 0x20 SHR JUMP JUMPDEST PUSH3 0xAF PUSH1 0x20 SHL PUSH1 0x20 SHR JUMP JUMPDEST PUSH3 0x9E DUP4 PUSH3 0x175 PUSH1 0x20 SHL PUSH1 0x20 SHR JUMP JUMPDEST POP POP POP PUSH3 0x6B8 JUMP JUMPDEST PUSH1 0x0 CALLER SWAP1 POP SWAP1 JUMP JUMPDEST PUSH1 0x0 PUSH1 0x5 PUSH1 0x0 SWAP1 SLOAD SWAP1 PUSH2 0x100 EXP SWAP1 DIV PUSH20 0xFFFFFFFFFFFFFFFFFFFFFFFFFFFFFFFFFFFFFFFF AND SWAP1 POP DUP2 PUSH1 0x5 PUSH1 0x0 PUSH2 0x100 EXP DUP2 SLOAD DUP2 PUSH20 0xFFFFFFFFFFFFFFFFFFFFFFFFFFFFFFFFFFFFFFFF MUL NOT AND SWAP1 DUP4 PUSH20 0xFFFFFFFFFFFFFFFFFFFFFFFFFFFFFFFFFFFFFFFF AND MUL OR SWAP1 SSTORE POP DUP2 PUSH20 0xFFFFFFFFFFFFFFFFFFFFFFFFFFFFFFFFFFFFFFFF AND DUP2 PUSH20 0xFFFFFFFFFFFFFFFFFFFFFFFFFFFFFFFFFFFFFFFF AND PUSH32 0x8BE0079C531659141344CD1FD0A4F28419497F9722A3DAAFE3B4186F6B6457E0 PUSH1 0x40 MLOAD PUSH1 0x40 MLOAD DUP1 SWAP2 SUB SWAP1 LOG3 POP POP JUMP JUMPDEST PUSH3 0x185 PUSH3 0x1C9 PUSH1 0x20 SHL PUSH1 0x20 SHR JUMP JUMPDEST DUP1 PUSH1 0x6 PUSH1 0x0 PUSH2 0x100 EXP DUP2 SLOAD DUP2 PUSH20 0xFFFFFFFFFFFFFFFFFFFFFFFFFFFFFFFFFFFFFFFF MUL NOT AND SWAP1 DUP4 PUSH20 0xFFFFFFFFFFFFFFFFFFFFFFFFFFFFFFFFFFFFFFFF AND MUL OR SWAP1 SSTORE POP POP JUMP JUMPDEST PUSH3 0x1D9 PUSH3 0xA7 PUSH1 0x20 SHL PUSH1 0x20 SHR JUMP JUMPDEST PUSH20 0xFFFFFFFFFFFFFFFFFFFFFFFFFFFFFFFFFFFFFFFF AND PUSH3 0x1FF PUSH3 0x25A PUSH1 0x20 SHL PUSH1 0x20 SHR JUMP JUMPDEST PUSH20 0xFFFFFFFFFFFFFFFFFFFFFFFFFFFFFFFFFFFFFFFF AND EQ PUSH3 0x258 JUMPI PUSH1 0x40 MLOAD PUSH32 0x8C379A000000000000000000000000000000000000000000000000000000000 DUP2 MSTORE PUSH1 0x4 ADD PUSH3 0x24F SWAP1 PUSH3 0x48A JUMP JUMPDEST PUSH1 0x40 MLOAD DUP1 SWAP2 SUB SWAP1 REVERT JUMPDEST JUMP JUMPDEST PUSH1 0x0 PUSH1 0x5 PUSH1 0x0 SWAP1 SLOAD SWAP1 PUSH2 0x100 EXP SWAP1 DIV PUSH20 0xFFFFFFFFFFFFFFFFFFFFFFFFFFFFFFFFFFFFFFFF AND SWAP1 POP SWAP1 JUMP JUMPDEST DUP3 DUP1 SLOAD PUSH3 0x292 SWAP1 PUSH3 0x586 JUMP JUMPDEST SWAP1 PUSH1 0x0 MSTORE PUSH1 0x20 PUSH1 0x0 KECCAK256 SWAP1 PUSH1 0x1F ADD PUSH1 0x20 SWAP1 DIV DUP2 ADD SWAP3 DUP3 PUSH3 0x2B6 JUMPI PUSH1 0x0 DUP6 SSTORE PUSH3 0x302 JUMP JUMPDEST DUP3 PUSH1 0x1F LT PUSH3 0x2D1 JUMPI DUP1 MLOAD PUSH1 0xFF NOT AND DUP4 DUP1 ADD OR DUP6 SSTORE PUSH3 0x302 JUMP JUMPDEST DUP3 DUP1 ADD PUSH1 0x1 ADD DUP6 SSTORE DUP3 ISZERO PUSH3 0x302 JUMPI SWAP2 DUP3 ADD JUMPDEST DUP3 DUP2 GT ISZERO PUSH3 0x301 JUMPI DUP3 MLOAD DUP3 SSTORE SWAP2 PUSH1 0x20 ADD SWAP2 SWAP1 PUSH1 0x1 ADD SWAP1 PUSH3 0x2E4 JUMP JUMPDEST JUMPDEST POP SWAP1 POP PUSH3 0x311 SWAP2 SWAP1 PUSH3 0x315 JUMP JUMPDEST POP SWAP1 JUMP JUMPDEST JUMPDEST DUP1 DUP3 GT ISZERO PUSH3 0x330 JUMPI PUSH1 0x0 DUP2 PUSH1 0x0 SWAP1 SSTORE POP PUSH1 0x1 ADD PUSH3 0x316 JUMP JUMPDEST POP SWAP1 JUMP JUMPDEST PUSH1 0x0 PUSH3 0x34B PUSH3 0x345 DUP5 PUSH3 0x4D5 JUMP JUMPDEST PUSH3 0x4AC JUMP JUMPDEST SWAP1 POP DUP3 DUP2 MSTORE PUSH1 0x20 DUP2 ADD DUP5 DUP5 DUP5 ADD GT ISZERO PUSH3 0x36A JUMPI PUSH3 0x369 PUSH3 0x655 JUMP JUMPDEST JUMPDEST PUSH3 0x377 DUP5 DUP3 DUP6 PUSH3 0x550 JUMP JUMPDEST POP SWAP4 SWAP3 POP POP POP JUMP JUMPDEST PUSH1 0x0 DUP2 MLOAD SWAP1 POP PUSH3 0x390 DUP2 PUSH3 0x69E JUMP JUMPDEST SWAP3 SWAP2 POP POP JUMP JUMPDEST PUSH1 0x0 DUP3 PUSH1 0x1F DUP4 ADD SLT PUSH3 0x3AE JUMPI PUSH3 0x3AD PUSH3 0x650 JUMP JUMPDEST JUMPDEST DUP2 MLOAD PUSH3 0x3C0 DUP5 DUP3 PUSH1 0x20 DUP7 ADD PUSH3 0x334 JUMP JUMPDEST SWAP2 POP POP SWAP3 SWAP2 POP POP JUMP JUMPDEST PUSH1 0x0 DUP1 PUSH1 0x0 PUSH1 0x60 DUP5 DUP7 SUB SLT ISZERO PUSH3 0x3E5 JUMPI PUSH3 0x3E4 PUSH3 0x65F JUMP JUMPDEST JUMPDEST PUSH1 0x0 PUSH3 0x3F5 DUP7 DUP3 DUP8 ADD PUSH3 0x37F JUMP JUMPDEST SWAP4 POP POP PUSH1 0x20 DUP5 ADD MLOAD PUSH8 0xFFFFFFFFFFFFFFFF DUP2 GT ISZERO PUSH3 0x419 JUMPI PUSH3 0x418 PUSH3 0x65A JUMP JUMPDEST JUMPDEST PUSH3 0x427 DUP7 DUP3 DUP8 ADD PUSH3 0x396 JUMP JUMPDEST SWAP3 POP POP PUSH1 0x40 DUP5 ADD MLOAD PUSH8 0xFFFFFFFFFFFFFFFF DUP2 GT ISZERO PUSH3 0x44B JUMPI PUSH3 0x44A PUSH3 0x65A JUMP JUMPDEST JUMPDEST PUSH3 0x459 DUP7 DUP3 DUP8 ADD PUSH3 0x396 JUMP JUMPDEST SWAP2 POP POP SWAP3 POP SWAP3 POP SWAP3 JUMP JUMPDEST PUSH1 0x0 PUSH3 0x472 PUSH1 0x20 DUP4 PUSH3 0x50B JUMP JUMPDEST SWAP2 POP PUSH3 0x47F DUP3 PUSH3 0x675 JUMP JUMPDEST PUSH1 0x20 DUP3 ADD SWAP1 POP SWAP2 SWAP1 POP JUMP JUMPDEST PUSH1 0x0 PUSH1 0x20 DUP3 ADD SWAP1 POP DUP2 DUP2 SUB PUSH1 0x0 DUP4 ADD MSTORE PUSH3 0x4A5 DUP2 PUSH3 0x463 JUMP JUMPDEST SWAP1 POP SWAP2 SWAP1 POP JUMP JUMPDEST PUSH1 0x0 PUSH3 0x4B8 PUSH3 0x4CB JUMP JUMPDEST SWAP1 POP PUSH3 0x4C6 DUP3 DUP3 PUSH3 0x5BC JUMP JUMPDEST SWAP2 SWAP1 POP JUMP JUMPDEST PUSH1 0x0 PUSH1 0x40 MLOAD SWAP1 POP SWAP1 JUMP JUMPDEST PUSH1 0x0 PUSH8 0xFFFFFFFFFFFFFFFF DUP3 GT ISZERO PUSH3 0x4F3 JUMPI PUSH3 0x4F2 PUSH3 0x621 JUMP JUMPDEST JUMPDEST PUSH3 0x4FE DUP3 PUSH3 0x664 JUMP JUMPDEST SWAP1 POP PUSH1 0x20 DUP2 ADD SWAP1 POP SWAP2 SWAP1 POP JUMP JUMPDEST PUSH1 0x0 DUP3 DUP3 MSTORE PUSH1 0x20 DUP3 ADD SWAP1 POP SWAP3 SWAP2 POP POP JUMP JUMPDEST PUSH1 0x0 PUSH3 0x529 DUP3 PUSH3 0x530 JUMP JUMPDEST SWAP1 POP SWAP2 SWAP1 POP JUMP JUMPDEST PUSH1 0x0 PUSH20 0xFFFFFFFFFFFFFFFFFFFFFFFFFFFFFFFFFFFFFFFF DUP3 AND SWAP1 POP SWAP2 SWAP1 POP JUMP JUMPDEST PUSH1 0x0 JUMPDEST DUP4 DUP2 LT ISZERO PUSH3 0x570 JUMPI DUP1 DUP3 ADD MLOAD DUP2 DUP5 ADD MSTORE PUSH1 0x20 DUP2 ADD SWAP1 POP PUSH3 0x553 JUMP JUMPDEST DUP4 DUP2 GT ISZERO PUSH3 0x580 JUMPI PUSH1 0x0 DUP5 DUP5 ADD MSTORE JUMPDEST POP POP POP POP JUMP JUMPDEST PUSH1 0x0 PUSH1 0x2 DUP3 DIV SWAP1 POP PUSH1 0x1 DUP3 AND DUP1 PUSH3 0x59F JUMPI PUSH1 0x7F DUP3 AND SWAP2 POP JUMPDEST PUSH1 0x20 DUP3 LT DUP2 EQ ISZERO PUSH3 0x5B6 JUMPI PUSH3 0x5B5 PUSH3 0x5F2 JUMP JUMPDEST JUMPDEST POP SWAP2 SWAP1 POP JUMP JUMPDEST PUSH3 0x5C7 DUP3 PUSH3 0x664 JUMP JUMPDEST DUP2 ADD DUP2 DUP2 LT PUSH8 0xFFFFFFFFFFFFFFFF DUP3 GT OR ISZERO PUSH3 0x5E9 JUMPI PUSH3 0x5E8 PUSH3 0x621 JUMP JUMPDEST JUMPDEST DUP1 PUSH1 0x40 MSTORE POP POP POP JUMP JUMPDEST PUSH32 0x4E487B7100000000000000000000000000000000000000000000000000000000 PUSH1 0x0 MSTORE PUSH1 0x22 PUSH1 0x4 MSTORE PUSH1 0x24 PUSH1 0x0 REVERT JUMPDEST PUSH32 0x4E487B7100000000000000000000000000000000000000000000000000000000 PUSH1 0x0 MSTORE PUSH1 0x41 PUSH1 0x4 MSTORE PUSH1 0x24 PUSH1 0x0 REVERT JUMPDEST PUSH1 0x0 DUP1 REVERT JUMPDEST PUSH1 0x0 DUP1 REVERT JUMPDEST PUSH1 0x0 DUP1 REVERT JUMPDEST PUSH1 0x0 DUP1 REVERT JUMPDEST PUSH1 0x0 PUSH1 0x1F NOT PUSH1 0x1F DUP4 ADD AND SWAP1 POP SWAP2 SWAP1 POP JUMP JUMPDEST PUSH32 0x4F776E61626C653A2063616C6C6572206973206E6F7420746865206F776E6572 PUSH1 0x0 DUP3 ADD MSTORE POP JUMP JUMPDEST PUSH3 0x6A9 DUP2 PUSH3 0x51C JUMP JUMPDEST DUP2 EQ PUSH3 0x6B5 JUMPI PUSH1 0x0 DUP1 REVERT JUMPDEST POP JUMP JUMPDEST PUSH2 0x1D6A DUP1 PUSH3 0x6C8 PUSH1 0x0 CODECOPY PUSH1 0x0 RETURN INVALID PUSH1 0x80 PUSH1 0x40 MSTORE CALLVALUE DUP1 ISZERO PUSH2 0x10 JUMPI PUSH1 0x0 DUP1 REVERT JUMPDEST POP PUSH1 0x4 CALLDATASIZE LT PUSH2 0x116 JUMPI PUSH1 0x0 CALLDATALOAD PUSH1 0xE0 SHR DUP1 PUSH4 0x8DA5CB5B GT PUSH2 0xA2 JUMPI DUP1 PUSH4 0xA457C2D7 GT PUSH2 0x71 JUMPI DUP1 PUSH4 0xA457C2D7 EQ PUSH2 0x2CF JUMPI DUP1 PUSH4 0xA9059CBB EQ PUSH2 0x2FF JUMPI DUP1 PUSH4 0xDD62ED3E EQ PUSH2 0x32F JUMPI DUP1 PUSH4 0xF2FDE38B EQ PUSH2 0x35F JUMPI DUP1 PUSH4 0xF77C4791 EQ PUSH2 0x37B JUMPI PUSH2 0x116 JUMP JUMPDEST DUP1 PUSH4 0x8DA5CB5B EQ PUSH2 0x25B JUMPI DUP1 PUSH4 0x92EEFE9B EQ PUSH2 0x279 JUMPI DUP1 PUSH4 0x95D89B41 EQ PUSH2 0x295 JUMPI DUP1 PUSH4 0x9DC29FAC EQ PUSH2 0x2B3 JUMPI PUSH2 0x116 JUMP JUMPDEST DUP1 PUSH4 0x313CE567 GT PUSH2 0xE9 JUMPI DUP1 PUSH4 0x313CE567 EQ PUSH2 0x1B7 JUMPI DUP1 PUSH4 0x39509351 EQ PUSH2 0x1D5 JUMPI DUP1 PUSH4 0x40C10F19 EQ PUSH2 0x205 JUMPI DUP1 PUSH4 0x70A08231 EQ PUSH2 0x221 JUMPI DUP1 PUSH4 0x715018A6 EQ PUSH2 0x251 JUMPI PUSH2 0x116 JUMP JUMPDEST DUP1 PUSH4 0x6FDDE03 EQ PUSH2 0x11B JUMPI DUP1 PUSH4 0x95EA7B3 EQ PUSH2 0x139 JUMPI DUP1 PUSH4 0x18160DDD EQ PUSH2 0x169 JUMPI DUP1 PUSH4 0x23B872DD EQ PUSH2 0x187 JUMPI JUMPDEST PUSH1 0x0 DUP1 REVERT JUMPDEST PUSH2 0x123 PUSH2 0x399 JUMP JUMPDEST PUSH1 0x40 MLOAD PUSH2 0x130 SWAP2 SWAP1 PUSH2 0x1603 JUMP JUMPDEST PUSH1 0x40 MLOAD DUP1 SWAP2 SUB SWAP1 RETURN JUMPDEST PUSH2 0x153 PUSH1 0x4 DUP1 CALLDATASIZE SUB DUP2 ADD SWAP1 PUSH2 0x14E SWAP2 SWAP1 PUSH2 0x1351 JUMP JUMPDEST PUSH2 0x42B JUMP JUMPDEST PUSH1 0x40 MLOAD PUSH2 0x160 SWAP2 SWAP1 PUSH2 0x15E8 JUMP JUMPDEST PUSH1 0x40 MLOAD DUP1 SWAP2 SUB SWAP1 RETURN JUMPDEST PUSH2 0x171 PUSH2 0x44E JUMP JUMPDEST PUSH1 0x40 MLOAD PUSH2 0x17E SWAP2 SWAP1 PUSH2 0x17C5 JUMP JUMPDEST PUSH1 0x40 MLOAD DUP1 SWAP2 SUB SWAP1 RETURN JUMPDEST PUSH2 0x1A1 PUSH1 0x4 DUP1 CALLDATASIZE SUB DUP2 ADD SWAP1 PUSH2 0x19C SWAP2 SWAP1 PUSH2 0x12FE JUMP JUMPDEST PUSH2 0x458 JUMP JUMPDEST PUSH1 0x40 MLOAD PUSH2 0x1AE SWAP2 SWAP1 PUSH2 0x15E8 JUMP JUMPDEST PUSH1 0x40 MLOAD DUP1 SWAP2 SUB SWAP1 RETURN JUMPDEST PUSH2 0x1BF PUSH2 0x487 JUMP JUMPDEST PUSH1 0x40 MLOAD PUSH2 0x1CC SWAP2 SWAP1 PUSH2 0x17E0 JUMP JUMPDEST PUSH1 0x40 MLOAD DUP1 SWAP2 SUB SWAP1 RETURN JUMPDEST PUSH2 0x1EF PUSH1 0x4 DUP1 CALLDATASIZE SUB DUP2 ADD SWAP1 PUSH2 0x1EA SWAP2 SWAP1 PUSH2 0x1351 JUMP JUMPDEST PUSH2 0x490 JUMP JUMPDEST PUSH1 0x40 MLOAD PUSH2 0x1FC SWAP2 SWAP1 PUSH2 0x15E8 JUMP JUMPDEST PUSH1 0x40 MLOAD DUP1 SWAP2 SUB SWAP1 RETURN JUMPDEST PUSH2 0x21F PUSH1 0x4 DUP1 CALLDATASIZE SUB DUP2 ADD SWAP1 PUSH2 0x21A SWAP2 SWAP1 PUSH2 0x1351 JUMP JUMPDEST PUSH2 0x4C7 JUMP JUMPDEST STOP JUMPDEST PUSH2 0x23B PUSH1 0x4 DUP1 CALLDATASIZE SUB DUP2 ADD SWAP1 PUSH2 0x236 SWAP2 SWAP1 PUSH2 0x1291 JUMP JUMPDEST PUSH2 0x5D8 JUMP JUMPDEST PUSH1 0x40 MLOAD PUSH2 0x248 SWAP2 SWAP1 PUSH2 0x17C5 JUMP JUMPDEST PUSH1 0x40 MLOAD DUP1 SWAP2 SUB SWAP1 RETURN JUMPDEST PUSH2 0x259 PUSH2 0x620 JUMP JUMPDEST STOP JUMPDEST PUSH2 0x263 PUSH2 0x634 JUMP JUMPDEST PUSH1 0x40 MLOAD PUSH2 0x270 SWAP2 SWAP1 PUSH2 0x15CD JUMP JUMPDEST PUSH1 0x40 MLOAD DUP1 SWAP2 SUB SWAP1 RETURN JUMPDEST PUSH2 0x293 PUSH1 0x4 DUP1 CALLDATASIZE SUB DUP2 ADD SWAP1 PUSH2 0x28E SWAP2 SWAP1 PUSH2 0x1291 JUMP JUMPDEST PUSH2 0x65E JUMP JUMPDEST STOP JUMPDEST PUSH2 0x29D PUSH2 0x6AA JUMP JUMPDEST PUSH1 0x40 MLOAD PUSH2 0x2AA SWAP2 SWAP1 PUSH2 0x1603 JUMP JUMPDEST PUSH1 0x40 MLOAD DUP1 SWAP2 SUB SWAP1 RETURN JUMPDEST PUSH2 0x2CD PUSH1 0x4 DUP1 CALLDATASIZE SUB DUP2 ADD SWAP1 PUSH2 0x2C8 SWAP2 SWAP1 PUSH2 0x1351 JUMP JUMPDEST PUSH2 0x73C JUMP JUMPDEST STOP JUMPDEST PUSH2 0x2E9 PUSH1 0x4 DUP1 CALLDATASIZE SUB DUP2 ADD SWAP1 PUSH2 0x2E4 SWAP2 SWAP1 PUSH2 0x1351 JUMP JUMPDEST PUSH2 0x752 JUMP JUMPDEST PUSH1 0x40 MLOAD PUSH2 0x2F6 SWAP2 SWAP1 PUSH2 0x15E8 JUMP JUMPDEST PUSH1 0x40 MLOAD DUP1 SWAP2 SUB SWAP1 RETURN JUMPDEST PUSH2 0x319 PUSH1 0x4 DUP1 CALLDATASIZE SUB DUP2 ADD SWAP1 PUSH2 0x314 SWAP2 SWAP1 PUSH2 0x1351 JUMP JUMPDEST PUSH2 0x7C9 JUMP JUMPDEST PUSH1 0x40 MLOAD PUSH2 0x326 SWAP2 SWAP1 PUSH2 0x15E8 JUMP JUMPDEST PUSH1 0x40 MLOAD DUP1 SWAP2 SUB SWAP1 RETURN JUMPDEST PUSH2 0x349 PUSH1 0x4 DUP1 CALLDATASIZE SUB DUP2 ADD SWAP1 PUSH2 0x344 SWAP2 SWAP1 PUSH2 0x12BE JUMP JUMPDEST PUSH2 0x7EC JUMP JUMPDEST PUSH1 0x40 MLOAD PUSH2 0x356 SWAP2 SWAP1 PUSH2 0x17C5 JUMP JUMPDEST PUSH1 0x40 MLOAD DUP1 SWAP2 SUB SWAP1 RETURN JUMPDEST PUSH2 0x379 PUSH1 0x4 DUP1 CALLDATASIZE SUB DUP2 ADD SWAP1 PUSH2 0x374 SWAP2 SWAP1 PUSH2 0x1291 JUMP JUMPDEST PUSH2 0x873 JUMP JUMPDEST STOP JUMPDEST PUSH2 0x383 PUSH2 0x8F7 JUMP JUMPDEST PUSH1 0x40 MLOAD PUSH2 0x390 SWAP2 SWAP1 PUSH2 0x15CD JUMP JUMPDEST PUSH1 0x40 MLOAD DUP1 SWAP2 SUB SWAP1 RETURN JUMPDEST PUSH1 0x60 PUSH1 0x3 DUP1 SLOAD PUSH2 0x3A8 SWAP1 PUSH2 0x18F5 JUMP JUMPDEST DUP1 PUSH1 0x1F ADD PUSH1 0x20 DUP1 SWAP2 DIV MUL PUSH1 0x20 ADD PUSH1 0x40 MLOAD SWAP1 DUP2 ADD PUSH1 0x40 MSTORE DUP1 SWAP3 SWAP2 SWAP1 DUP2 DUP2 MSTORE PUSH1 0x20 ADD DUP3 DUP1 SLOAD PUSH2 0x3D4 SWAP1 PUSH2 0x18F5 JUMP JUMPDEST DUP1 ISZERO PUSH2 0x421 JUMPI DUP1 PUSH1 0x1F LT PUSH2 0x3F6 JUMPI PUSH2 0x100 DUP1 DUP4 SLOAD DIV MUL DUP4 MSTORE SWAP2 PUSH1 0x20 ADD SWAP2 PUSH2 0x421 JUMP JUMPDEST DUP3 ADD SWAP2 SWAP1 PUSH1 0x0 MSTORE PUSH1 0x20 PUSH1 0x0 KECCAK256 SWAP1 JUMPDEST DUP2 SLOAD DUP2 MSTORE SWAP1 PUSH1 0x1 ADD SWAP1 PUSH1 0x20 ADD DUP1 DUP4 GT PUSH2 0x404 JUMPI DUP3 SWAP1 SUB PUSH1 0x1F AND DUP3 ADD SWAP2 JUMPDEST POP POP POP POP POP SWAP1 POP SWAP1 JUMP JUMPDEST PUSH1 0x0 DUP1 PUSH2 0x436 PUSH2 0x91D JUMP JUMPDEST SWAP1 POP PUSH2 0x443 DUP2 DUP6 DUP6 PUSH2 0x925 JUMP JUMPDEST PUSH1 0x1 SWAP2 POP POP SWAP3 SWAP2 POP POP JUMP JUMPDEST PUSH1 0x0 PUSH1 0x2 SLOAD SWAP1 POP SWAP1 JUMP JUMPDEST PUSH1 0x0 DUP1 PUSH2 0x463 PUSH2 0x91D JUMP JUMPDEST SWAP1 POP PUSH2 0x470 DUP6 DUP3 DUP6 PUSH2 0xAF0 JUMP JUMPDEST PUSH2 0x47B DUP6 DUP6 DUP6 PUSH2 0xB7C JUMP JUMPDEST PUSH1 0x1 SWAP2 POP POP SWAP4 SWAP3 POP POP POP JUMP JUMPDEST PUSH1 0x0 PUSH1 0x12 SWAP1 POP SWAP1 JUMP JUMPDEST PUSH1 0x0 DUP1 PUSH2 0x49B PUSH2 0x91D JUMP JUMPDEST SWAP1 POP PUSH2 0x4BC DUP2 DUP6 DUP6 PUSH2 0x4AD DUP6 DUP10 PUSH2 0x7EC JUMP JUMPDEST PUSH2 0x4B7 SWAP2 SWAP1 PUSH2 0x1817 JUMP JUMPDEST PUSH2 0x925 JUMP JUMPDEST PUSH1 0x1 SWAP2 POP POP SWAP3 SWAP2 POP POP JUMP JUMPDEST PUSH1 0x6 PUSH1 0x0 SWAP1 SLOAD SWAP1 PUSH2 0x100 EXP SWAP1 DIV PUSH20 0xFFFFFFFFFFFFFFFFFFFFFFFFFFFFFFFFFFFFFFFF AND PUSH20 0xFFFFFFFFFFFFFFFFFFFFFFFFFFFFFFFFFFFFFFFF AND CALLER PUSH20 0xFFFFFFFFFFFFFFFFFFFFFFFFFFFFFFFFFFFFFFFF AND EQ DUP1 PUSH2 0x555 JUMPI POP PUSH2 0x526 PUSH2 0x634 JUMP JUMPDEST PUSH20 0xFFFFFFFFFFFFFFFFFFFFFFFFFFFFFFFFFFFFFFFF AND CALLER PUSH20 0xFFFFFFFFFFFFFFFFFFFFFFFFFFFFFFFFFFFFFFFF AND EQ JUMPDEST DUP1 PUSH2 0x58B JUMPI POP ADDRESS PUSH20 0xFFFFFFFFFFFFFFFFFFFFFFFFFFFFFFFFFFFFFFFF AND CALLER PUSH20 0xFFFFFFFFFFFFFFFFFFFFFFFFFFFFFFFFFFFFFFFF AND EQ JUMPDEST PUSH2 0x5CA JUMPI PUSH1 0x40 MLOAD PUSH32 0x8C379A000000000000000000000000000000000000000000000000000000000 DUP2 MSTORE PUSH1 0x4 ADD PUSH2 0x5C1 SWAP1 PUSH2 0x16E5 JUMP JUMPDEST PUSH1 0x40 MLOAD DUP1 SWAP2 SUB SWAP1 REVERT JUMPDEST PUSH2 0x5D4 DUP3 DUP3 PUSH2 0xDF4 JUMP JUMPDEST POP POP JUMP JUMPDEST PUSH1 0x0 DUP1 PUSH1 0x0 DUP4 PUSH20 0xFFFFFFFFFFFFFFFFFFFFFFFFFFFFFFFFFFFFFFFF AND PUSH20 0xFFFFFFFFFFFFFFFFFFFFFFFFFFFFFFFFFFFFFFFF AND DUP2 MSTORE PUSH1 0x20 ADD SWAP1 DUP2 MSTORE PUSH1 0x20 ADD PUSH1 0x0 KECCAK256 SLOAD SWAP1 POP SWAP2 SWAP1 POP JUMP JUMPDEST PUSH2 0x628 PUSH2 0xF4B JUMP JUMPDEST PUSH2 0x632 PUSH1 0x0 PUSH2 0xFC9 JUMP JUMPDEST JUMP JUMPDEST PUSH1 0x0 PUSH1 0x5 PUSH1 0x0 SWAP1 SLOAD SWAP1 PUSH2 0x100 EXP SWAP1 DIV PUSH20 0xFFFFFFFFFFFFFFFFFFFFFFFFFFFFFFFFFFFFFFFF AND SWAP1 POP SWAP1 JUMP JUMPDEST PUSH2 0x666 PUSH2 0xF4B JUMP JUMPDEST DUP1 PUSH1 0x6 PUSH1 0x0 PUSH2 0x100 EXP DUP2 SLOAD DUP2 PUSH20 0xFFFFFFFFFFFFFFFFFFFFFFFFFFFFFFFFFFFFFFFF MUL NOT AND SWAP1 DUP4 PUSH20 0xFFFFFFFFFFFFFFFFFFFFFFFFFFFFFFFFFFFFFFFF AND MUL OR SWAP1 SSTORE POP POP JUMP JUMPDEST PUSH1 0x60 PUSH1 0x4 DUP1 SLOAD PUSH2 0x6B9 SWAP1 PUSH2 0x18F5 JUMP JUMPDEST DUP1 PUSH1 0x1F ADD PUSH1 0x20 DUP1 SWAP2 DIV MUL PUSH1 0x20 ADD PUSH1 0x40 MLOAD SWAP1 DUP2 ADD PUSH1 0x40 MSTORE DUP1 SWAP3 SWAP2 SWAP1 DUP2 DUP2 MSTORE PUSH1 0x20 ADD DUP3 DUP1 SLOAD PUSH2 0x6E5 SWAP1 PUSH2 0x18F5 JUMP JUMPDEST DUP1 ISZERO PUSH2 0x732 JUMPI DUP1 PUSH1 0x1F LT PUSH2 0x707 JUMPI PUSH2 0x100 DUP1 DUP4 SLOAD DIV MUL DUP4 MSTORE SWAP2 PUSH1 0x20 ADD SWAP2 PUSH2 0x732 JUMP JUMPDEST DUP3 ADD SWAP2 SWAP1 PUSH1 0x0 MSTORE PUSH1 0x20 PUSH1 0x0 KECCAK256 SWAP1 JUMPDEST DUP2 SLOAD DUP2 MSTORE SWAP1 PUSH1 0x1 ADD SWAP1 PUSH1 0x20 ADD DUP1 DUP4 GT PUSH2 0x715 JUMPI DUP3 SWAP1 SUB PUSH1 0x1F AND DUP3 ADD SWAP2 JUMPDEST POP POP POP POP POP SWAP1 POP SWAP1 JUMP JUMPDEST PUSH2 0x744 PUSH2 0xF4B JUMP JUMPDEST PUSH2 0x74E DUP3 DUP3 PUSH2 0x108F JUMP JUMPDEST POP POP JUMP JUMPDEST PUSH1 0x0 DUP1 PUSH2 0x75D PUSH2 0x91D JUMP JUMPDEST SWAP1 POP PUSH1 0x0 PUSH2 0x76B DUP3 DUP7 PUSH2 0x7EC JUMP JUMPDEST SWAP1 POP DUP4 DUP2 LT ISZERO PUSH2 0x7B0 JUMPI PUSH1 0x40 MLOAD PUSH32 0x8C379A000000000000000000000000000000000000000000000000000000000 DUP2 MSTORE PUSH1 0x4 ADD PUSH2 0x7A7 SWAP1 PUSH2 0x1785 JUMP JUMPDEST PUSH1 0x40 MLOAD DUP1 SWAP2 SUB SWAP1 REVERT JUMPDEST PUSH2 0x7BD DUP3 DUP7 DUP7 DUP5 SUB PUSH2 0x925 JUMP JUMPDEST PUSH1 0x1 SWAP3 POP POP POP SWAP3 SWAP2 POP POP JUMP JUMPDEST PUSH1 0x0 DUP1 PUSH2 0x7D4 PUSH2 0x91D JUMP JUMPDEST SWAP1 POP PUSH2 0x7E1 DUP2 DUP6 DUP6 PUSH2 0xB7C JUMP JUMPDEST PUSH1 0x1 SWAP2 POP POP SWAP3 SWAP2 POP POP JUMP JUMPDEST PUSH1 0x0 PUSH1 0x1 PUSH1 0x0 DUP5 PUSH20 0xFFFFFFFFFFFFFFFFFFFFFFFFFFFFFFFFFFFFFFFF AND PUSH20 0xFFFFFFFFFFFFFFFFFFFFFFFFFFFFFFFFFFFFFFFF AND DUP2 MSTORE PUSH1 0x20 ADD SWAP1 DUP2 MSTORE PUSH1 0x20 ADD PUSH1 0x0 KECCAK256 PUSH1 0x0 DUP4 PUSH20 0xFFFFFFFFFFFFFFFFFFFFFFFFFFFFFFFFFFFFFFFF AND PUSH20 0xFFFFFFFFFFFFFFFFFFFFFFFFFFFFFFFFFFFFFFFF AND DUP2 MSTORE PUSH1 0x20 ADD SWAP1 DUP2 MSTORE PUSH1 0x20 ADD PUSH1 0x0 KECCAK256 SLOAD SWAP1 POP SWAP3 SWAP2 POP POP JUMP JUMPDEST PUSH2 0x87B PUSH2 0xF4B JUMP JUMPDEST PUSH1 0x0 PUSH20 0xFFFFFFFFFFFFFFFFFFFFFFFFFFFFFFFFFFFFFFFF AND DUP2 PUSH20 0xFFFFFFFFFFFFFFFFFFFFFFFFFFFFFFFFFFFFFFFF AND EQ ISZERO PUSH2 0x8EB JUMPI PUSH1 0x40 MLOAD PUSH32 0x8C379A000000000000000000000000000000000000000000000000000000000 DUP2 MSTORE PUSH1 0x4 ADD PUSH2 0x8E2 SWAP1 PUSH2 0x1665 JUMP JUMPDEST PUSH1 0x40 MLOAD DUP1 SWAP2 SUB SWAP1 REVERT JUMPDEST PUSH2 0x8F4 DUP2 PUSH2 0xFC9 JUMP JUMPDEST POP JUMP JUMPDEST PUSH1 0x6 PUSH1 0x0 SWAP1 SLOAD SWAP1 PUSH2 0x100 EXP SWAP1 DIV PUSH20 0xFFFFFFFFFFFFFFFFFFFFFFFFFFFFFFFFFFFFFFFF AND DUP2 JUMP JUMPDEST PUSH1 0x0 CALLER SWAP1 POP SWAP1 JUMP JUMPDEST PUSH1 0x0 PUSH20 0xFFFFFFFFFFFFFFFFFFFFFFFFFFFFFFFFFFFFFFFF AND DUP4 PUSH20 0xFFFFFFFFFFFFFFFFFFFFFFFFFFFFFFFFFFFFFFFF AND EQ ISZERO PUSH2 0x995 JUMPI PUSH1 0x40 MLOAD PUSH32 0x8C379A000000000000000000000000000000000000000000000000000000000 DUP2 MSTORE PUSH1 0x4 ADD PUSH2 0x98C SWAP1 PUSH2 0x1765 JUMP JUMPDEST PUSH1 0x40 MLOAD DUP1 SWAP2 SUB SWAP1 REVERT JUMPDEST PUSH1 0x0 PUSH20 0xFFFFFFFFFFFFFFFFFFFFFFFFFFFFFFFFFFFFFFFF AND DUP3 PUSH20 0xFFFFFFFFFFFFFFFFFFFFFFFFFFFFFFFFFFFFFFFF AND EQ ISZERO PUSH2 0xA05 JUMPI PUSH1 0x40 MLOAD PUSH32 0x8C379A000000000000000000000000000000000000000000000000000000000 DUP2 MSTORE PUSH1 0x4 ADD PUSH2 0x9FC SWAP1 PUSH2 0x1685 JUMP JUMPDEST PUSH1 0x40 MLOAD DUP1 SWAP2 SUB SWAP1 REVERT JUMPDEST DUP1 PUSH1 0x1 PUSH1 0x0 DUP6 PUSH20 0xFFFFFFFFFFFFFFFFFFFFFFFFFFFFFFFFFFFFFFFF AND PUSH20 0xFFFFFFFFFFFFFFFFFFFFFFFFFFFFFFFFFFFFFFFF AND DUP2 MSTORE PUSH1 0x20 ADD SWAP1 DUP2 MSTORE PUSH1 0x20 ADD PUSH1 0x0 KECCAK256 PUSH1 0x0 DUP5 PUSH20 0xFFFFFFFFFFFFFFFFFFFFFFFFFFFFFFFFFFFFFFFF AND PUSH20 0xFFFFFFFFFFFFFFFFFFFFFFFFFFFFFFFFFFFFFFFF AND DUP2 MSTORE PUSH1 0x20 ADD SWAP1 DUP2 MSTORE PUSH1 0x20 ADD PUSH1 0x0 KECCAK256 DUP2 SWAP1 SSTORE POP DUP2 PUSH20 0xFFFFFFFFFFFFFFFFFFFFFFFFFFFFFFFFFFFFFFFF AND DUP4 PUSH20 0xFFFFFFFFFFFFFFFFFFFFFFFFFFFFFFFFFFFFFFFF AND PUSH32 0x8C5BE1E5EBEC7D5BD14F71427D1E84F3DD0314C0F7B2291E5B200AC8C7C3B925 DUP4 PUSH1 0x40 MLOAD PUSH2 0xAE3 SWAP2 SWAP1 PUSH2 0x17C5 JUMP JUMPDEST PUSH1 0x40 MLOAD DUP1 SWAP2 SUB SWAP1 LOG3 POP POP POP JUMP JUMPDEST PUSH1 0x0 PUSH2 0xAFC DUP5 DUP5 PUSH2 0x7EC JUMP JUMPDEST SWAP1 POP PUSH32 0xFFFFFFFFFFFFFFFFFFFFFFFFFFFFFFFFFFFFFFFFFFFFFFFFFFFFFFFFFFFFFFFF DUP2 EQ PUSH2 0xB76 JUMPI DUP2 DUP2 LT ISZERO PUSH2 0xB68 JUMPI PUSH1 0x40 MLOAD PUSH32 0x8C379A000000000000000000000000000000000000000000000000000000000 DUP2 MSTORE PUSH1 0x4 ADD PUSH2 0xB5F SWAP1 PUSH2 0x16A5 JUMP JUMPDEST PUSH1 0x40 MLOAD DUP1 SWAP2 SUB SWAP1 REVERT JUMPDEST PUSH2 0xB75 DUP5 DUP5 DUP5 DUP5 SUB PUSH2 0x925 JUMP JUMPDEST JUMPDEST POP POP POP POP JUMP JUMPDEST PUSH1 0x0 PUSH20 0xFFFFFFFFFFFFFFFFFFFFFFFFFFFFFFFFFFFFFFFF AND DUP4 PUSH20 0xFFFFFFFFFFFFFFFFFFFFFFFFFFFFFFFFFFFFFFFF AND EQ ISZERO PUSH2 0xBEC JUMPI PUSH1 0x40 MLOAD PUSH32 0x8C379A000000000000000000000000000000000000000000000000000000000 DUP2 MSTORE PUSH1 0x4 ADD PUSH2 0xBE3 SWAP1 PUSH2 0x1745 JUMP JUMPDEST PUSH1 0x40 MLOAD DUP1 SWAP2 SUB SWAP1 REVERT JUMPDEST PUSH1 0x0 PUSH20 0xFFFFFFFFFFFFFFFFFFFFFFFFFFFFFFFFFFFFFFFF AND DUP3 PUSH20 0xFFFFFFFFFFFFFFFFFFFFFFFFFFFFFFFFFFFFFFFF AND EQ ISZERO PUSH2 0xC5C JUMPI PUSH1 0x40 MLOAD PUSH32 0x8C379A000000000000000000000000000000000000000000000000000000000 DUP2 MSTORE PUSH1 0x4 ADD PUSH2 0xC53 SWAP1 PUSH2 0x1625 JUMP JUMPDEST PUSH1 0x40 MLOAD DUP1 SWAP2 SUB SWAP1 REVERT JUMPDEST PUSH2 0xC67 DUP4 DUP4 DUP4 PUSH2 0x125D JUMP JUMPDEST PUSH1 0x0 DUP1 PUSH1 0x0 DUP6 PUSH20 0xFFFFFFFFFFFFFFFFFFFFFFFFFFFFFFFFFFFFFFFF AND PUSH20 0xFFFFFFFFFFFFFFFFFFFFFFFFFFFFFFFFFFFFFFFF AND DUP2 MSTORE PUSH1 0x20 ADD SWAP1 DUP2 MSTORE PUSH1 0x20 ADD PUSH1 0x0 KECCAK256 SLOAD SWAP1 POP DUP2 DUP2 LT ISZERO PUSH2 0xCED JUMPI PUSH1 0x40 MLOAD PUSH32 0x8C379A000000000000000000000000000000000000000000000000000000000 DUP2 MSTORE PUSH1 0x4 ADD PUSH2 0xCE4 SWAP1 PUSH2 0x16C5 JUMP JUMPDEST PUSH1 0x40 MLOAD DUP1 SWAP2 SUB SWAP1 REVERT JUMPDEST DUP2 DUP2 SUB PUSH1 0x0 DUP1 DUP7 PUSH20 0xFFFFFFFFFFFFFFFFFFFFFFFFFFFFFFFFFFFFFFFF AND PUSH20 0xFFFFFFFFFFFFFFFFFFFFFFFFFFFFFFFFFFFFFFFF AND DUP2 MSTORE PUSH1 0x20 ADD SWAP1 DUP2 MSTORE PUSH1 0x20 ADD PUSH1 0x0 KECCAK256 DUP2 SWAP1 SSTORE POP DUP2 PUSH1 0x0 DUP1 DUP6 PUSH20 0xFFFFFFFFFFFFFFFFFFFFFFFFFFFFFFFFFFFFFFFF AND PUSH20 0xFFFFFFFFFFFFFFFFFFFFFFFFFFFFFFFFFFFFFFFF AND DUP2 MSTORE PUSH1 0x20 ADD SWAP1 DUP2 MSTORE PUSH1 0x20 ADD PUSH1 0x0 KECCAK256 PUSH1 0x0 DUP3 DUP3 SLOAD ADD SWAP3 POP POP DUP2 SWAP1 SSTORE POP DUP3 PUSH20 0xFFFFFFFFFFFFFFFFFFFFFFFFFFFFFFFFFFFFFFFF AND DUP5 PUSH20 0xFFFFFFFFFFFFFFFFFFFFFFFFFFFFFFFFFFFFFFFF AND PUSH32 0xDDF252AD1BE2C89B69C2B068FC378DAA952BA7F163C4A11628F55A4DF523B3EF DUP5 PUSH1 0x40 MLOAD PUSH2 0xDDB SWAP2 SWAP1 PUSH2 0x17C5 JUMP JUMPDEST PUSH1 0x40 MLOAD DUP1 SWAP2 SUB SWAP1 LOG3 PUSH2 0xDEE DUP5 DUP5 DUP5 PUSH2 0x1262 JUMP JUMPDEST POP POP POP POP JUMP JUMPDEST PUSH1 0x0 PUSH20 0xFFFFFFFFFFFFFFFFFFFFFFFFFFFFFFFFFFFFFFFF AND DUP3 PUSH20 0xFFFFFFFFFFFFFFFFFFFFFFFFFFFFFFFFFFFFFFFF AND EQ ISZERO PUSH2 0xE64 JUMPI PUSH1 0x40 MLOAD PUSH32 0x8C379A000000000000000000000000000000000000000000000000000000000 DUP2 MSTORE PUSH1 0x4 ADD PUSH2 0xE5B SWAP1 PUSH2 0x17A5 JUMP JUMPDEST PUSH1 0x40 MLOAD DUP1 SWAP2 SUB SWAP1 REVERT JUMPDEST PUSH2 0xE70 PUSH1 0x0 DUP4 DUP4 PUSH2 0x125D JUMP JUMPDEST DUP1 PUSH1 0x2 PUSH1 0x0 DUP3 DUP3 SLOAD PUSH2 0xE82 SWAP2 SWAP1 PUSH2 0x1817 JUMP JUMPDEST SWAP3 POP POP DUP2 SWAP1 SSTORE POP DUP1 PUSH1 0x0 DUP1 DUP5 PUSH20 0xFFFFFFFFFFFFFFFFFFFFFFFFFFFFFFFFFFFFFFFF AND PUSH20 0xFFFFFFFFFFFFFFFFFFFFFFFFFFFFFFFFFFFFFFFF AND DUP2 MSTORE PUSH1 0x20 ADD SWAP1 DUP2 MSTORE PUSH1 0x20 ADD PUSH1 0x0 KECCAK256 PUSH1 0x0 DUP3 DUP3 SLOAD ADD SWAP3 POP POP DUP2 SWAP1 SSTORE POP DUP2 PUSH20 0xFFFFFFFFFFFFFFFFFFFFFFFFFFFFFFFFFFFFFFFF AND PUSH1 0x0 PUSH20 0xFFFFFFFFFFFFFFFFFFFFFFFFFFFFFFFFFFFFFFFF AND PUSH32 0xDDF252AD1BE2C89B69C2B068FC378DAA952BA7F163C4A11628F55A4DF523B3EF DUP4 PUSH1 0x40 MLOAD PUSH2 0xF33 SWAP2 SWAP1 PUSH2 0x17C5 JUMP JUMPDEST PUSH1 0x40 MLOAD DUP1 SWAP2 SUB SWAP1 LOG3 PUSH2 0xF47 PUSH1 0x0 DUP4 DUP4 PUSH2 0x1262 JUMP JUMPDEST POP POP JUMP JUMPDEST PUSH2 0xF53 PUSH2 0x91D JUMP JUMPDEST PUSH20 0xFFFFFFFFFFFFFFFFFFFFFFFFFFFFFFFFFFFFFFFF AND PUSH2 0xF71 PUSH2 0x634 JUMP JUMPDEST PUSH20 0xFFFFFFFFFFFFFFFFFFFFFFFFFFFFFFFFFFFFFFFF AND EQ PUSH2 0xFC7 JUMPI PUSH1 0x40 MLOAD PUSH32 0x8C379A000000000000000000000000000000000000000000000000000000000 DUP2 MSTORE PUSH1 0x4 ADD PUSH2 0xFBE SWAP1 PUSH2 0x1705 JUMP JUMPDEST PUSH1 0x40 MLOAD DUP1 SWAP2 SUB SWAP1 REVERT JUMPDEST JUMP JUMPDEST PUSH1 0x0 PUSH1 0x5 PUSH1 0x0 SWAP1 SLOAD SWAP1 PUSH2 0x100 EXP SWAP1 DIV PUSH20 0xFFFFFFFFFFFFFFFFFFFFFFFFFFFFFFFFFFFFFFFF AND SWAP1 POP DUP2 PUSH1 0x5 PUSH1 0x0 PUSH2 0x100 EXP DUP2 SLOAD DUP2 PUSH20 0xFFFFFFFFFFFFFFFFFFFFFFFFFFFFFFFFFFFFFFFF MUL NOT AND SWAP1 DUP4 PUSH20 0xFFFFFFFFFFFFFFFFFFFFFFFFFFFFFFFFFFFFFFFF AND MUL OR SWAP1 SSTORE POP DUP2 PUSH20 0xFFFFFFFFFFFFFFFFFFFFFFFFFFFFFFFFFFFFFFFF AND DUP2 PUSH20 0xFFFFFFFFFFFFFFFFFFFFFFFFFFFFFFFFFFFFFFFF AND PUSH32 0x8BE0079C531659141344CD1FD0A4F28419497F9722A3DAAFE3B4186F6B6457E0 PUSH1 0x40 MLOAD PUSH1 0x40 MLOAD DUP1 SWAP2 SUB SWAP1 LOG3 POP POP JUMP JUMPDEST PUSH1 0x0 PUSH20 0xFFFFFFFFFFFFFFFFFFFFFFFFFFFFFFFFFFFFFFFF AND DUP3 PUSH20 0xFFFFFFFFFFFFFFFFFFFFFFFFFFFFFFFFFFFFFFFF AND EQ ISZERO PUSH2 0x10FF JUMPI PUSH1 0x40 MLOAD PUSH32 0x8C379A000000000000000000000000000000000000000000000000000000000 DUP2 MSTORE PUSH1 0x4 ADD PUSH2 0x10F6 SWAP1 PUSH2 0x1725 JUMP JUMPDEST PUSH1 0x40 MLOAD DUP1 SWAP2 SUB SWAP1 REVERT JUMPDEST PUSH2 0x110B DUP3 PUSH1 0x0 DUP4 PUSH2 0x125D JUMP JUMPDEST PUSH1 0x0 DUP1 PUSH1 0x0 DUP5 PUSH20 0xFFFFFFFFFFFFFFFFFFFFFFFFFFFFFFFFFFFFFFFF AND PUSH20 0xFFFFFFFFFFFFFFFFFFFFFFFFFFFFFFFFFFFFFFFF AND DUP2 MSTORE PUSH1 0x20 ADD SWAP1 DUP2 MSTORE PUSH1 0x20 ADD PUSH1 0x0 KECCAK256 SLOAD SWAP1 POP DUP2 DUP2 LT ISZERO PUSH2 0x1191 JUMPI PUSH1 0x40 MLOAD PUSH32 0x8C379A000000000000000000000000000000000000000000000000000000000 DUP2 MSTORE PUSH1 0x4 ADD PUSH2 0x1188 SWAP1 PUSH2 0x1645 JUMP JUMPDEST PUSH1 0x40 MLOAD DUP1 SWAP2 SUB SWAP1 REVERT JUMPDEST DUP2 DUP2 SUB PUSH1 0x0 DUP1 DUP6 PUSH20 0xFFFFFFFFFFFFFFFFFFFFFFFFFFFFFFFFFFFFFFFF AND PUSH20 0xFFFFFFFFFFFFFFFFFFFFFFFFFFFFFFFFFFFFFFFF AND DUP2 MSTORE PUSH1 0x20 ADD SWAP1 DUP2 MSTORE PUSH1 0x20 ADD PUSH1 0x0 KECCAK256 DUP2 SWAP1 SSTORE POP DUP2 PUSH1 0x2 PUSH1 0x0 DUP3 DUP3 SLOAD SUB SWAP3 POP POP DUP2 SWAP1 SSTORE POP PUSH1 0x0 PUSH20 0xFFFFFFFFFFFFFFFFFFFFFFFFFFFFFFFFFFFFFFFF AND DUP4 PUSH20 0xFFFFFFFFFFFFFFFFFFFFFFFFFFFFFFFFFFFFFFFF AND PUSH32 0xDDF252AD1BE2C89B69C2B068FC378DAA952BA7F163C4A11628F55A4DF523B3EF DUP5 PUSH1 0x40 MLOAD PUSH2 0x1244 SWAP2 SWAP1 PUSH2 0x17C5 JUMP JUMPDEST PUSH1 0x40 MLOAD DUP1 SWAP2 SUB SWAP1 LOG3 PUSH2 0x1258 DUP4 PUSH1 0x0 DUP5 PUSH2 0x1262 JUMP JUMPDEST POP POP POP JUMP JUMPDEST POP POP POP JUMP JUMPDEST POP POP POP JUMP JUMPDEST PUSH1 0x0 DUP2 CALLDATALOAD SWAP1 POP PUSH2 0x1276 DUP2 PUSH2 0x1D06 JUMP JUMPDEST SWAP3 SWAP2 POP POP JUMP JUMPDEST PUSH1 0x0 DUP2 CALLDATALOAD SWAP1 POP PUSH2 0x128B DUP2 PUSH2 0x1D1D JUMP JUMPDEST SWAP3 SWAP2 POP POP JUMP JUMPDEST PUSH1 0x0 PUSH1 0x20 DUP3 DUP5 SUB SLT ISZERO PUSH2 0x12A7 JUMPI PUSH2 0x12A6 PUSH2 0x1985 JUMP JUMPDEST JUMPDEST PUSH1 0x0 PUSH2 0x12B5 DUP5 DUP3 DUP6 ADD PUSH2 0x1267 JUMP JUMPDEST SWAP2 POP POP SWAP3 SWAP2 POP POP JUMP JUMPDEST PUSH1 0x0 DUP1 PUSH1 0x40 DUP4 DUP6 SUB SLT ISZERO PUSH2 0x12D5 JUMPI PUSH2 0x12D4 PUSH2 0x1985 JUMP JUMPDEST JUMPDEST PUSH1 0x0 PUSH2 0x12E3 DUP6 DUP3 DUP7 ADD PUSH2 0x1267 JUMP JUMPDEST SWAP3 POP POP PUSH1 0x20 PUSH2 0x12F4 DUP6 DUP3 DUP7 ADD PUSH2 0x1267 JUMP JUMPDEST SWAP2 POP POP SWAP3 POP SWAP3 SWAP1 POP JUMP JUMPDEST PUSH1 0x0 DUP1 PUSH1 0x0 PUSH1 0x60 DUP5 DUP7 SUB SLT ISZERO PUSH2 0x1317 JUMPI PUSH2 0x1316 PUSH2 0x1985 JUMP JUMPDEST JUMPDEST PUSH1 0x0 PUSH2 0x1325 DUP7 DUP3 DUP8 ADD PUSH2 0x1267 JUMP JUMPDEST SWAP4 POP POP PUSH1 0x20 PUSH2 0x1336 DUP7 DUP3 DUP8 ADD PUSH2 0x1267 JUMP JUMPDEST SWAP3 POP POP PUSH1 0x40 PUSH2 0x1347 DUP7 DUP3 DUP8 ADD PUSH2 0x127C JUMP JUMPDEST SWAP2 POP POP SWAP3 POP SWAP3 POP SWAP3 JUMP JUMPDEST PUSH1 0x0 DUP1 PUSH1 0x40 DUP4 DUP6 SUB SLT ISZERO PUSH2 0x1368 JUMPI PUSH2 0x1367 PUSH2 0x1985 JUMP JUMPDEST JUMPDEST PUSH1 0x0 PUSH2 0x1376 DUP6 DUP3 DUP7 ADD PUSH2 0x1267 JUMP JUMPDEST SWAP3 POP POP PUSH1 0x20 PUSH2 0x1387 DUP6 DUP3 DUP7 ADD PUSH2 0x127C JUMP JUMPDEST SWAP2 POP POP SWAP3 POP SWAP3 SWAP1 POP JUMP JUMPDEST PUSH2 0x139A DUP2 PUSH2 0x186D JUMP JUMPDEST DUP3 MSTORE POP POP JUMP JUMPDEST PUSH2 0x13A9 DUP2 PUSH2 0x187F JUMP JUMPDEST DUP3 MSTORE POP POP JUMP JUMPDEST PUSH1 0x0 PUSH2 0x13BA DUP3 PUSH2 0x17FB JUMP JUMPDEST PUSH2 0x13C4 DUP2 DUP6 PUSH2 0x1806 JUMP JUMPDEST SWAP4 POP PUSH2 0x13D4 DUP2 DUP6 PUSH1 0x20 DUP7 ADD PUSH2 0x18C2 JUMP JUMPDEST PUSH2 0x13DD DUP2 PUSH2 0x198A JUMP JUMPDEST DUP5 ADD SWAP2 POP POP SWAP3 SWAP2 POP POP JUMP JUMPDEST PUSH1 0x0 PUSH2 0x13F5 PUSH1 0x23 DUP4 PUSH2 0x1806 JUMP JUMPDEST SWAP2 POP PUSH2 0x1400 DUP3 PUSH2 0x199B JUMP JUMPDEST PUSH1 0x40 DUP3 ADD SWAP1 POP SWAP2 SWAP1 POP JUMP JUMPDEST PUSH1 0x0 PUSH2 0x1418 PUSH1 0x22 DUP4 PUSH2 0x1806 JUMP JUMPDEST SWAP2 POP PUSH2 0x1423 DUP3 PUSH2 0x19EA JUMP JUMPDEST PUSH1 0x40 DUP3 ADD SWAP1 POP SWAP2 SWAP1 POP JUMP JUMPDEST PUSH1 0x0 PUSH2 0x143B PUSH1 0x26 DUP4 PUSH2 0x1806 JUMP JUMPDEST SWAP2 POP PUSH2 0x1446 DUP3 PUSH2 0x1A39 JUMP JUMPDEST PUSH1 0x40 DUP3 ADD SWAP1 POP SWAP2 SWAP1 POP JUMP JUMPDEST PUSH1 0x0 PUSH2 0x145E PUSH1 0x22 DUP4 PUSH2 0x1806 JUMP JUMPDEST SWAP2 POP PUSH2 0x1469 DUP3 PUSH2 0x1A88 JUMP JUMPDEST PUSH1 0x40 DUP3 ADD SWAP1 POP SWAP2 SWAP1 POP JUMP JUMPDEST PUSH1 0x0 PUSH2 0x1481 PUSH1 0x1D DUP4 PUSH2 0x1806 JUMP JUMPDEST SWAP2 POP PUSH2 0x148C DUP3 PUSH2 0x1AD7 JUMP JUMPDEST PUSH1 0x20 DUP3 ADD SWAP1 POP SWAP2 SWAP1 POP JUMP JUMPDEST PUSH1 0x0 PUSH2 0x14A4 PUSH1 0x26 DUP4 PUSH2 0x1806 JUMP JUMPDEST SWAP2 POP PUSH2 0x14AF DUP3 PUSH2 0x1B00 JUMP JUMPDEST PUSH1 0x40 DUP3 ADD SWAP1 POP SWAP2 SWAP1 POP JUMP JUMPDEST PUSH1 0x0 PUSH2 0x14C7 PUSH1 0x17 DUP4 PUSH2 0x1806 JUMP JUMPDEST SWAP2 POP PUSH2 0x14D2 DUP3 PUSH2 0x1B4F JUMP JUMPDEST PUSH1 0x20 DUP3 ADD SWAP1 POP SWAP2 SWAP1 POP JUMP JUMPDEST PUSH1 0x0 PUSH2 0x14EA PUSH1 0x20 DUP4 PUSH2 0x1806 JUMP JUMPDEST SWAP2 POP PUSH2 0x14F5 DUP3 PUSH2 0x1B78 JUMP JUMPDEST PUSH1 0x20 DUP3 ADD SWAP1 POP SWAP2 SWAP1 POP JUMP JUMPDEST PUSH1 0x0 PUSH2 0x150D PUSH1 0x21 DUP4 PUSH2 0x1806 JUMP JUMPDEST SWAP2 POP PUSH2 0x1518 DUP3 PUSH2 0x1BA1 JUMP JUMPDEST PUSH1 0x40 DUP3 ADD SWAP1 POP SWAP2 SWAP1 POP JUMP JUMPDEST PUSH1 0x0 PUSH2 0x1530 PUSH1 0x25 DUP4 PUSH2 0x1806 JUMP JUMPDEST SWAP2 POP PUSH2 0x153B DUP3 PUSH2 0x1BF0 JUMP JUMPDEST PUSH1 0x40 DUP3 ADD SWAP1 POP SWAP2 SWAP1 POP JUMP JUMPDEST PUSH1 0x0 PUSH2 0x1553 PUSH1 0x24 DUP4 PUSH2 0x1806 JUMP JUMPDEST SWAP2 POP PUSH2 0x155E DUP3 PUSH2 0x1C3F JUMP JUMPDEST PUSH1 0x40 DUP3 ADD SWAP1 POP SWAP2 SWAP1 POP JUMP JUMPDEST PUSH1 0x0 PUSH2 0x1576 PUSH1 0x25 DUP4 PUSH2 0x1806 JUMP JUMPDEST SWAP2 POP PUSH2 0x1581 DUP3 PUSH2 0x1C8E JUMP JUMPDEST PUSH1 0x40 DUP3 ADD SWAP1 POP SWAP2 SWAP1 POP JUMP JUMPDEST PUSH1 0x0 PUSH2 0x1599 PUSH1 0x1F DUP4 PUSH2 0x1806 JUMP JUMPDEST SWAP2 POP PUSH2 0x15A4 DUP3 PUSH2 0x1CDD JUMP JUMPDEST PUSH1 0x20 DUP3 ADD SWAP1 POP SWAP2 SWAP1 POP JUMP JUMPDEST PUSH2 0x15B8 DUP2 PUSH2 0x18AB JUMP JUMPDEST DUP3 MSTORE POP POP JUMP JUMPDEST PUSH2 0x15C7 DUP2 PUSH2 0x18B5 JUMP JUMPDEST DUP3 MSTORE POP POP JUMP JUMPDEST PUSH1 0x0 PUSH1 0x20 DUP3 ADD SWAP1 POP PUSH2 0x15E2 PUSH1 0x0 DUP4 ADD DUP5 PUSH2 0x1391 JUMP JUMPDEST SWAP3 SWAP2 POP POP JUMP JUMPDEST PUSH1 0x0 PUSH1 0x20 DUP3 ADD SWAP1 POP PUSH2 0x15FD PUSH1 0x0 DUP4 ADD DUP5 PUSH2 0x13A0 JUMP JUMPDEST SWAP3 SWAP2 POP POP JUMP JUMPDEST PUSH1 0x0 PUSH1 0x20 DUP3 ADD SWAP1 POP DUP2 DUP2 SUB PUSH1 0x0 DUP4 ADD MSTORE PUSH2 0x161D DUP2 DUP5 PUSH2 0x13AF JUMP JUMPDEST SWAP1 POP SWAP3 SWAP2 POP POP JUMP JUMPDEST PUSH1 0x0 PUSH1 0x20 DUP3 ADD SWAP1 POP DUP2 DUP2 SUB PUSH1 0x0 DUP4 ADD MSTORE PUSH2 0x163E DUP2 PUSH2 0x13E8 JUMP JUMPDEST SWAP1 POP SWAP2 SWAP1 POP JUMP JUMPDEST PUSH1 0x0 PUSH1 0x20 DUP3 ADD SWAP1 POP DUP2 DUP2 SUB PUSH1 0x0 DUP4 ADD MSTORE PUSH2 0x165E DUP2 PUSH2 0x140B JUMP JUMPDEST SWAP1 POP SWAP2 SWAP1 POP JUMP JUMPDEST PUSH1 0x0 PUSH1 0x20 DUP3 ADD SWAP1 POP DUP2 DUP2 SUB PUSH1 0x0 DUP4 ADD MSTORE PUSH2 0x167E DUP2 PUSH2 0x142E JUMP JUMPDEST SWAP1 POP SWAP2 SWAP1 POP JUMP JUMPDEST PUSH1 0x0 PUSH1 0x20 DUP3 ADD SWAP1 POP DUP2 DUP2 SUB PUSH1 0x0 DUP4 ADD MSTORE PUSH2 0x169E DUP2 PUSH2 0x1451 JUMP JUMPDEST SWAP1 POP SWAP2 SWAP1 POP JUMP JUMPDEST PUSH1 0x0 PUSH1 0x20 DUP3 ADD SWAP1 POP DUP2 DUP2 SUB PUSH1 0x0 DUP4 ADD MSTORE PUSH2 0x16BE DUP2 PUSH2 0x1474 JUMP JUMPDEST SWAP1 POP SWAP2 SWAP1 POP JUMP JUMPDEST PUSH1 0x0 PUSH1 0x20 DUP3 ADD SWAP1 POP DUP2 DUP2 SUB PUSH1 0x0 DUP4 ADD MSTORE PUSH2 0x16DE DUP2 PUSH2 0x1497 JUMP JUMPDEST SWAP1 POP SWAP2 SWAP1 POP JUMP JUMPDEST PUSH1 0x0 PUSH1 0x20 DUP3 ADD SWAP1 POP DUP2 DUP2 SUB PUSH1 0x0 DUP4 ADD MSTORE PUSH2 0x16FE DUP2 PUSH2 0x14BA JUMP JUMPDEST SWAP1 POP SWAP2 SWAP1 POP JUMP JUMPDEST PUSH1 0x0 PUSH1 0x20 DUP3 ADD SWAP1 POP DUP2 DUP2 SUB PUSH1 0x0 DUP4 ADD MSTORE PUSH2 0x171E DUP2 PUSH2 0x14DD JUMP JUMPDEST SWAP1 POP SWAP2 SWAP1 POP JUMP JUMPDEST PUSH1 0x0 PUSH1 0x20 DUP3 ADD SWAP1 POP DUP2 DUP2 SUB PUSH1 0x0 DUP4 ADD MSTORE PUSH2 0x173E DUP2 PUSH2 0x1500 JUMP JUMPDEST SWAP1 POP SWAP2 SWAP1 POP JUMP JUMPDEST PUSH1 0x0 PUSH1 0x20 DUP3 ADD SWAP1 POP DUP2 DUP2 SUB PUSH1 0x0 DUP4 ADD MSTORE PUSH2 0x175E DUP2 PUSH2 0x1523 JUMP JUMPDEST SWAP1 POP SWAP2 SWAP1 POP JUMP JUMPDEST PUSH1 0x0 PUSH1 0x20 DUP3 ADD SWAP1 POP DUP2 DUP2 SUB PUSH1 0x0 DUP4 ADD MSTORE PUSH2 0x177E DUP2 PUSH2 0x1546 JUMP JUMPDEST SWAP1 POP SWAP2 SWAP1 POP JUMP JUMPDEST PUSH1 0x0 PUSH1 0x20 DUP3 ADD SWAP1 POP DUP2 DUP2 SUB PUSH1 0x0 DUP4 ADD MSTORE PUSH2 0x179E DUP2 PUSH2 0x1569 JUMP JUMPDEST SWAP1 POP SWAP2 SWAP1 POP JUMP JUMPDEST PUSH1 0x0 PUSH1 0x20 DUP3 ADD SWAP1 POP DUP2 DUP2 SUB PUSH1 0x0 DUP4 ADD MSTORE PUSH2 0x17BE DUP2 PUSH2 0x158C JUMP JUMPDEST SWAP1 POP SWAP2 SWAP1 POP JUMP JUMPDEST PUSH1 0x0 PUSH1 0x20 DUP3 ADD SWAP1 POP PUSH2 0x17DA PUSH1 0x0 DUP4 ADD DUP5 PUSH2 0x15AF JUMP JUMPDEST SWAP3 SWAP2 POP POP JUMP JUMPDEST PUSH1 0x0 PUSH1 0x20 DUP3 ADD SWAP1 POP PUSH2 0x17F5 PUSH1 0x0 DUP4 ADD DUP5 PUSH2 0x15BE JUMP JUMPDEST SWAP3 SWAP2 POP POP JUMP JUMPDEST PUSH1 0x0 DUP2 MLOAD SWAP1 POP SWAP2 SWAP1 POP JUMP JUMPDEST PUSH1 0x0 DUP3 DUP3 MSTORE PUSH1 0x20 DUP3 ADD SWAP1 POP SWAP3 SWAP2 POP POP JUMP JUMPDEST PUSH1 0x0 PUSH2 0x1822 DUP3 PUSH2 0x18AB JUMP JUMPDEST SWAP2 POP PUSH2 0x182D DUP4 PUSH2 0x18AB JUMP JUMPDEST SWAP3 POP DUP3 PUSH32 0xFFFFFFFFFFFFFFFFFFFFFFFFFFFFFFFFFFFFFFFFFFFFFFFFFFFFFFFFFFFFFFFF SUB DUP3 GT ISZERO PUSH2 0x1862 JUMPI PUSH2 0x1861 PUSH2 0x1927 JUMP JUMPDEST JUMPDEST DUP3 DUP3 ADD SWAP1 POP SWAP3 SWAP2 POP POP JUMP JUMPDEST PUSH1 0x0 PUSH2 0x1878 DUP3 PUSH2 0x188B JUMP JUMPDEST SWAP1 POP SWAP2 SWAP1 POP JUMP JUMPDEST PUSH1 0x0 DUP2 ISZERO ISZERO SWAP1 POP SWAP2 SWAP1 POP JUMP JUMPDEST PUSH1 0x0 PUSH20 0xFFFFFFFFFFFFFFFFFFFFFFFFFFFFFFFFFFFFFFFF DUP3 AND SWAP1 POP SWAP2 SWAP1 POP JUMP JUMPDEST PUSH1 0x0 DUP2 SWAP1 POP SWAP2 SWAP1 POP JUMP JUMPDEST PUSH1 0x0 PUSH1 0xFF DUP3 AND SWAP1 POP SWAP2 SWAP1 POP JUMP JUMPDEST PUSH1 0x0 JUMPDEST DUP4 DUP2 LT ISZERO PUSH2 0x18E0 JUMPI DUP1 DUP3 ADD MLOAD DUP2 DUP5 ADD MSTORE PUSH1 0x20 DUP2 ADD SWAP1 POP PUSH2 0x18C5 JUMP JUMPDEST DUP4 DUP2 GT ISZERO PUSH2 0x18EF JUMPI PUSH1 0x0 DUP5 DUP5 ADD MSTORE JUMPDEST POP POP POP POP JUMP JUMPDEST PUSH1 0x0 PUSH1 0x2 DUP3 DIV SWAP1 POP PUSH1 0x1 DUP3 AND DUP1 PUSH2 0x190D JUMPI PUSH1 0x7F DUP3 AND SWAP2 POP JUMPDEST PUSH1 0x20 DUP3 LT DUP2 EQ ISZERO PUSH2 0x1921 JUMPI PUSH2 0x1920 PUSH2 0x1956 JUMP JUMPDEST JUMPDEST POP SWAP2 SWAP1 POP JUMP JUMPDEST PUSH32 0x4E487B7100000000000000000000000000000000000000000000000000000000 PUSH1 0x0 MSTORE PUSH1 0x11 PUSH1 0x4 MSTORE PUSH1 0x24 PUSH1 0x0 REVERT JUMPDEST PUSH32 0x4E487B7100000000000000000000000000000000000000000000000000000000 PUSH1 0x0 MSTORE PUSH1 0x22 PUSH1 0x4 MSTORE PUSH1 0x24 PUSH1 0x0 REVERT JUMPDEST PUSH1 0x0 DUP1 REVERT JUMPDEST PUSH1 0x0 PUSH1 0x1F NOT PUSH1 0x1F DUP4 ADD AND SWAP1 POP SWAP2 SWAP1 POP JUMP JUMPDEST PUSH32 0x45524332303A207472616E7366657220746F20746865207A65726F2061646472 PUSH1 0x0 DUP3 ADD MSTORE PUSH32 0x6573730000000000000000000000000000000000000000000000000000000000 PUSH1 0x20 DUP3 ADD MSTORE POP JUMP JUMPDEST PUSH32 0x45524332303A206275726E20616D6F756E7420657863656564732062616C616E PUSH1 0x0 DUP3 ADD MSTORE PUSH32 0x6365000000000000000000000000000000000000000000000000000000000000 PUSH1 0x20 DUP3 ADD MSTORE POP JUMP JUMPDEST PUSH32 0x4F776E61626C653A206E6577206F776E657220697320746865207A65726F2061 PUSH1 0x0 DUP3 ADD MSTORE PUSH32 0x6464726573730000000000000000000000000000000000000000000000000000 PUSH1 0x20 DUP3 ADD MSTORE POP JUMP JUMPDEST PUSH32 0x45524332303A20617070726F766520746F20746865207A65726F206164647265 PUSH1 0x0 DUP3 ADD MSTORE PUSH32 0x7373000000000000000000000000000000000000000000000000000000000000 PUSH1 0x20 DUP3 ADD MSTORE POP JUMP JUMPDEST PUSH32 0x45524332303A20696E73756666696369656E7420616C6C6F77616E6365000000 PUSH1 0x0 DUP3 ADD MSTORE POP JUMP JUMPDEST PUSH32 0x45524332303A207472616E7366657220616D6F756E7420657863656564732062 PUSH1 0x0 DUP3 ADD MSTORE PUSH32 0x616C616E63650000000000000000000000000000000000000000000000000000 PUSH1 0x20 DUP3 ADD MSTORE POP JUMP JUMPDEST PUSH32 0x546F6B656E3A204F6E6C7920636F6E74726F6C6C657273000000000000000000 PUSH1 0x0 DUP3 ADD MSTORE POP JUMP JUMPDEST PUSH32 0x4F776E61626C653A2063616C6C6572206973206E6F7420746865206F776E6572 PUSH1 0x0 DUP3 ADD MSTORE POP JUMP JUMPDEST PUSH32 0x45524332303A206275726E2066726F6D20746865207A65726F20616464726573 PUSH1 0x0 DUP3 ADD MSTORE PUSH32 0x7300000000000000000000000000000000000000000000000000000000000000 PUSH1 0x20 DUP3 ADD MSTORE POP JUMP JUMPDEST PUSH32 0x45524332303A207472616E736665722066726F6D20746865207A65726F206164 PUSH1 0x0 DUP3 ADD MSTORE PUSH32 0x6472657373000000000000000000000000000000000000000000000000000000 PUSH1 0x20 DUP3 ADD MSTORE POP JUMP JUMPDEST PUSH32 0x45524332303A20617070726F76652066726F6D20746865207A65726F20616464 PUSH1 0x0 DUP3 ADD MSTORE PUSH32 0x7265737300000000000000000000000000000000000000000000000000000000 PUSH1 0x20 DUP3 ADD MSTORE POP JUMP JUMPDEST PUSH32 0x45524332303A2064656372656173656420616C6C6F77616E63652062656C6F77 PUSH1 0x0 DUP3 ADD MSTORE PUSH32 0x207A65726F000000000000000000000000000000000000000000000000000000 PUSH1 0x20 DUP3 ADD MSTORE POP JUMP JUMPDEST PUSH32 0x45524332303A206D696E7420746F20746865207A65726F206164647265737300 PUSH1 0x0 DUP3 ADD MSTORE POP JUMP JUMPDEST PUSH2 0x1D0F DUP2 PUSH2 0x186D JUMP JUMPDEST DUP2 EQ PUSH2 0x1D1A JUMPI PUSH1 0x0 DUP1 REVERT JUMPDEST POP JUMP JUMPDEST PUSH2 0x1D26 DUP2 PUSH2 0x18AB JUMP JUMPDEST DUP2 EQ PUSH2 0x1D31 JUMPI PUSH1 0x0 DUP1 REVERT JUMPDEST POP JUMP INVALID LOG2 PUSH5 0x6970667358 0x22 SLT KECCAK256 SSTORE DUP6 SIGNEXTEND 0x5E PUSH12 0xCF16CC215C38F4F8524C842D 0x26 0x4C 0xB8 0xBC CALLDATALOAD 0x2F 0xE4 PUSH17 0x7EB4F802EB5C1A64736F6C634300080700 CALLER "
				},
				"gasEstimates": {
					"creation": {
						"codeDepositCost": "1506000",
						"executionCost": "infinite",
						"totalCost": "infinite"
					},
					"external": {
						"allowance(address,address)": "infinite",
						"approve(address,uint256)": "infinite",
						"balanceOf(address)": "2930",
						"burn(address,uint256)": "infinite",
						"controller()": "2624",
						"decimals()": "366",
						"decreaseAllowance(address,uint256)": "infinite",
						"increaseAllowance(address,uint256)": "infinite",
						"mint(address,uint256)": "infinite",
						"name()": "infinite",
						"owner()": "2545",
						"renounceOwnership()": "30509",
						"setController(address)": "27031",
						"symbol()": "infinite",
						"totalSupply()": "2505",
						"transfer(address,uint256)": "infinite",
						"transferFrom(address,address,uint256)": "infinite",
						"transferOwnership(address)": "30835"
					}
				},
				"methodIdentifiers": {
					"allowance(address,address)": "dd62ed3e",
					"approve(address,uint256)": "095ea7b3",
					"balanceOf(address)": "70a08231",
					"burn(address,uint256)": "9dc29fac",
					"controller()": "f77c4791",
					"decimals()": "313ce567",
					"decreaseAllowance(address,uint256)": "a457c2d7",
					"increaseAllowance(address,uint256)": "39509351",
					"mint(address,uint256)": "40c10f19",
					"name()": "06fdde03",
					"owner()": "8da5cb5b",
					"renounceOwnership()": "715018a6",
					"setController(address)": "92eefe9b",
					"symbol()": "95d89b41",
					"totalSupply()": "18160ddd",
					"transfer(address,uint256)": "a9059cbb",
					"transferFrom(address,address,uint256)": "23b872dd",
					"transferOwnership(address)": "f2fde38b"
				}
			},
			"storageLayout": {
				"storage": [
					{
						"astId": 128,
						"contract": "study/token-airdrop/contracts/token/ERC20.sol:Token",
						"label": "_balances",
						"offset": 0,
						"slot": "0",
						"type": "t_mapping(t_address,t_uint256)"
					},
					{
						"astId": 134,
						"contract": "study/token-airdrop/contracts/token/ERC20.sol:Token",
						"label": "_allowances",
						"offset": 0,
						"slot": "1",
						"type": "t_mapping(t_address,t_mapping(t_address,t_uint256))"
					},
					{
						"astId": 136,
						"contract": "study/token-airdrop/contracts/token/ERC20.sol:Token",
						"label": "_totalSupply",
						"offset": 0,
						"slot": "2",
						"type": "t_uint256"
					},
					{
						"astId": 138,
						"contract": "study/token-airdrop/contracts/token/ERC20.sol:Token",
						"label": "_name",
						"offset": 0,
						"slot": "3",
						"type": "t_string_storage"
					},
					{
						"astId": 140,
						"contract": "study/token-airdrop/contracts/token/ERC20.sol:Token",
						"label": "_symbol",
						"offset": 0,
						"slot": "4",
						"type": "t_string_storage"
					},
					{
						"astId": 7,
						"contract": "study/token-airdrop/contracts/token/ERC20.sol:Token",
						"label": "_owner",
						"offset": 0,
						"slot": "5",
						"type": "t_address"
					},
					{
						"astId": 852,
						"contract": "study/token-airdrop/contracts/token/ERC20.sol:Token",
						"label": "controller",
						"offset": 0,
						"slot": "6",
						"type": "t_address"
					}
				],
				"types": {
					"t_address": {
						"encoding": "inplace",
						"label": "address",
						"numberOfBytes": "20"
					},
					"t_mapping(t_address,t_mapping(t_address,t_uint256))": {
						"encoding": "mapping",
						"key": "t_address",
						"label": "mapping(address => mapping(address => uint256))",
						"numberOfBytes": "32",
						"value": "t_mapping(t_address,t_uint256)"
					},
					"t_mapping(t_address,t_uint256)": {
						"encoding": "mapping",
						"key": "t_address",
						"label": "mapping(address => uint256)",
						"numberOfBytes": "32",
						"value": "t_uint256"
					},
					"t_string_storage": {
						"encoding": "bytes",
						"label": "string",
						"numberOfBytes": "32"
					},
					"t_uint256": {
						"encoding": "inplace",
						"label": "uint256",
						"numberOfBytes": "32"
					}
				}
			},
			"userdoc": {
				"kind": "user",
				"methods": {},
				"version": 1
			}
		}
	}
}